:1000000000F080EF00F0FFFFFFFF7B82FACF31F0BE
:10001000FBCF32F0E9CF33F0EACF34F0E1CF35F067
:10002000E2CF36F0D9CF37F0DACF38F0F3CF39F06E
:10003000F4CF3AF0F6CF3BF0F7CF3CF0F8CF3DF0FD
:10004000F5CF3EF0F2A41ED0F2943C0ED76EB00E67
:10005000D66E6C2A050E6C18D8A402D00001DB1FE6
:10006000FFFFF7EC12F0BEEC37F0090E6C640AD01B
:10007000000E6C6E0001DB1F97EC19F0ABA202D0F2
:10008000AB98AB88FFFF9EAA1BD0AECF3FF00A0E05
:100090003F18D8B40FD00D0E3F18D8B40BD0625013
:1000A000010D000EF324D96E010EF420DA6E3FC06C
:1000B000DFFF622AFFFF3B0E626402D0000E626E19
:1000C000FFFF3EC0F5FF3DC0F8FF3CC0F7FF3BC05F
:1000D000F6FF3AC0F4FF39C0F3FF38C0DAFF37C08B
:1000E000D9FF36C0E2FF35C0E1FF34C0EAFF33C0BC
:1000F000E9FF32C0FBFF31C0FAFF7B921100FFFF26
:1001000049EF37F0FFFFBCEF04F0FFFF250E0001C1
:10011000A019D8B43CD0000120EE02F08C51D926B1
:100120008D51DA22DE50DE10D8B41AD0000120EE54
:1001300002F08C51D9268D51DA2202D8BCEF04F09E
:10014000FFFF0500FA6EDE50FD6EDE50FE6EF850C9
:10015000FF6EFA500001A0511200FFFFBCEF04F047
:10016000FFFF8CC0D9FF8DC0DAFFDECF92F0DDCF6C
:1001700093F092C0D9FF93C0DAFFA0C0DFFF8CC01C
:10018000D9FF8DC0DAFFDE2A000EDD22F5D3FFFF96
:10019000000E00019F6F000E9E6F000E00019B6F0E
:1001A00006D0FFFF00019B8500018E4B8F2BFFFFC8
:1001B0008EC0F6FF8FC0F7FFF86A050EF76404D013
:1001C0000800FFFFF55005D0F6CFE9FFF7CFEAFFB3
:1001D000EF50300AD8B4E5D78EC0F6FF8FC0F7FFD6
:1001E000F86A050EF76404D00800FFFFF55005D04B
:1001F000F6CFE9FFF7CFEAFFEF50DAEC32F0D8A004
:1002000094D1000E00019F6F000E9E6FFFFF9EC0F5
:1002100080F09FC081F0000E0001836F0A0E826F94
:1002200078EC33F080C09EF081C09FF0D00E0001CA
:10023000926FFF0E0001936F8EC0F6FF8FC0F7FF25
:10024000F86A050EF76404D00800FFFFF55005D0EA
:10025000F6CFE9FFF7CFEAFFEF500001946F956BFF
:100260000001925100019427000193510001952350
:100270000001945100019E270001955100019F2328
:1002800000018E4B8F2B8EC0F6FF8FC0F7FFF86AF0
:10029000050EF76404D00800FFFFF55005D0F6CF37
:1002A000E9FFF7CFEAFFEF50DAEC32F0D8A03DD10A
:1002B000ADD7FFFF90C0D9FF91C0DAFFDFCF92F03A
:1002C000020EDE26DFCF93F0000EDD2292C0D9FFB2
:1002D00093C0DAFFDECF9CF0DDCF9DF000019C5192
:1002E00000019D11D8A406D09B0E00019C6F7F0ECB
:1002F00000019D6FFFFF000E00019A6F000E996FC5
:1003000004D0FFFF0001994B9A2BFFFF0001995188
:1003100000019C250001926F00019A5100019D216E
:100320000001936F92C0F6FF93C0F7FFF86A050EC5
:10033000F76404D00800FFFFF55005D0F6CFE9FFC1
:10034000F7CFEAFFEF500009D8A4DBD7FFFF000189
:100350009E510001995D00019F5100019A59D8B04A
:1003600009D00001995100019E5F00019A510001DE
:100370009F5B40D0FFFF000E00019F6F000E9E6F3D
:1003800039D0FFFF000120EE02F08C51D9268D51AB
:10039000DA22DE50DE10D8B417D0000120EE02F0D1
:1003A0008C51D9268D51DA2201D824D0FFFF0500C7
:1003B000FA6EDE50FD6EDE50FE6EF850FF6EFA50A3
:1003C000200E1200FFFF16D0FFFF8CC0D9FF8DC09A
:1003D000DAFFDECF92F0DDCF93F092C0D9FF93C069
:1003E000DAFF200EDF6E8CC0D9FF8DC0DAFFDE2A67
:1003F000000EDD22FFFF00019E07D8A09F0700012D
:100400009E29BFE100019F29D8B461D0BAD7FFFF70
:10041000000120EE02F08C51D9268D51DA22DE50F7
:10042000DE10D8B42BD0000120EE02F08C51D9267A
:100430008D51DA2201D81DD0FFFF0500FA6EDE5083
:10044000FD6EDE50FE6EF850FF6EFA509CC0F6FF57
:100450009DC0F7FFF86A050EF76404D00800FFFF9F
:10046000F55005D0F6CFE9FFF7CFEAFFEF501200C5
:10047000FFFFFFFF00019C4B9D2B29D0FFFF9CC07D
:10048000F6FF9DC0F7FFF86A8CC0D9FF8DC0DAFF78
:10049000DECF92F0DDCF93F092C0D9FF93C0DAFFA8
:1004A000050EF76404D00800FFFFF55005D0F6CF25
:1004B000E9FFF7CFEAFFEF50DF6E00019C4B9D2B69
:1004C0008CC0D9FF8DC0DAFFDE2A000EDD22FFFFCF
:1004D00000019907D8A09A070001992998E1000125
:1004E0009A29D8B449D293D7FFFF90C0D9FF91C0C1
:1004F000DAFFDFCF92F0020EDE26DFCF93F0000EA0
:10050000DD2292C0D9FF93C0DAFFDF500001A06F57
:10051000FFFFA00E00019C6F000E00019D6F000EFA
:1005200000019A6F010E996F11D7FFFF00018E51E4
:100530000001926F00018F510001936F00018E4BFB
:100540008F2B92C0F6FF93C0F7FFF86A050EF76491
:1005500004D00800FFFFF55005D0F6CFE9FFF7CF34
:10056000EAFFEF500001A06F0001A051000AD8B4CB
:1005700027D2630AD8B4B8D7070AD8B407D00D0A6F
:10058000D8B404D01A0AD8B494D6C2D7FFFF90C00A
:10059000D9FF91C0DAFFDFCF92F0020EDE26DFCF67
:1005A00093F0000EDD2292C0D9FF93C0DAFFDECFB8
:1005B00097F0DDCF98F0000198AF08D0030E00014E
:1005C0009B130001976D981FD8B0982BFFFF010E69
:1005D0000001A06FFFFF050E0001A019D8B418D0CC
:1005E0000001A051020D270EF324F66E7B0EF420BD
:1005F000F76E0900FFFFF5500001975D0900FFFF4E
:10060000F55000019859D8A003D00001A02BE2D7E3
:10061000FFFF00019E5100019F11D8B40BD09BC079
:1006200092F0030E00019217D8B404D000019E0787
:10063000D8A09F07FFFF800E0001A0BF7F0E000122
:10064000926F00019E510001A05D00019F51800A40
:1006500000019259D8B00BD00001A05100019E5F5B
:10066000000E0001A0BFFF0E00019F5B06D0FFFF40
:10067000000E00019F6F000E9E6FFFFF00019BA503
:1006800084D09BC092F0030E00019217D8B438D0EA
:10069000000120EE02F08C51D9268D51DA22DE5075
:1006A000DE10D8B417D0000120EE02F08C51D9260C
:1006B0008D51DA2201D824D0FFFF0500FA6EDE50FA
:1006C000FD6EDE50FE6EF850FF6EFA502D0E1200D9
:1006D000FFFF16D0FFFF8CC0D9FF8DC0DAFFDECF41
:1006E00092F0DDCF93F092C0D9FF93C0DAFF2D0EC8
:1006F000DF6E8CC0D9FF8DC0DAFFDE2A000EDD224E
:10070000FFFF00019E5100019F11D8B4C9D0000124
:1007100020EE02F08C51D9268D51DA22DE50DE1007
:10072000D8B417D0000120EE02F08C51D9268D519B
:10073000DA2201D824D0FFFF0500FA6EDE50FD6EEC
:10074000DE50FE6EF850FF6EFA50300E1200FFFFC2
:1007500016D0FFFF8CC0D9FF8DC0DAFFDECF92F03C
:10076000DDCF93F092C0D9FF93C0DAFF300EDF6E79
:100770008CC0D9FF8DC0DAFFDE2A000EDD22FFFF1C
:1007800000019E07D8A09F07BBD7FFFF00019E5125
:1007900000019F11D8B444D0FFFF000120EE02F009
:1007A0008C51D9268D51DA22DE50DE10D8B417D004
:1007B000000120EE02F08C51D9268D51DA2201D8A9
:1007C00024D0FFFF0500FA6EDE50FD6EDE50FE6E97
:1007D000F850FF6EFA50200E1200FFFF16D0FFFFF8
:1007E0008CC0D9FF8DC0DAFFDECF92F0DDCF93F061
:1007F00092C0D9FF93C0DAFF200EDF6E8CC0D9FF04
:100800008DC0DAFFDE2A000EDD22FFFF00019E0709
:10081000D8A09F0700019E5100019F11D8A4BCD70A
:10082000FFFF9BC092F0030E00019217D8B438D09E
:10083000000120EE02F08C51D9268D51DA22DE50D3
:10084000DE10D8B417D0000120EE02F08C51D9266A
:100850008D51DA2201D824D0FFFF0500FA6EDE5058
:10086000FD6EDE50FE6EF850FF6EFA502D0E120037
:10087000FFFF16D0FFFF8CC0D9FF8DC0DAFFDECF9F
:1008800092F0DDCF93F092C0D9FF93C0DAFF2D0E26
:10089000DF6E8CC0D9FF8DC0DAFFDE2A000EDD22AC
:1008A000FFFFA0C096F061D0FFFF00019651020D3E
:1008B000270EF324F66E7B0EF420F76E0900FFFF7F
:1008C000F5CF82F00A00FFFFF5CF83F097C080F0EC
:1008D00098C081F0FDEC37F080C087F081C088F0CF
:1008E000000E00018A6F0A0E896F11EC37F00001CB
:1008F0008751300F0001A06F000120EE02F08C51F3
:10090000D9268D51DA22DE50DE10D8B418D000017D
:1009100020EE02F08C51D9268D51DA2201D825D053
:10092000FFFF0500FA6EDE50FD6EDE50FE6EF850E1
:10093000FF6EFA500001A0511200FFFF16D0FFFF1A
:100940008CC0D9FF8DC0DAFFDECF92F0DDCF93F0FF
:1009500092C0D9FF93C0DAFFA0C0DFFF8CC0D9FFDF
:100960008DC0DAFFDE2A000EDD22FFFF00019607B0
:1009700000019629D8A498D7FFFF00018E510001ED
:10098000926F00018F510001936F00018E4B8F2BEE
:1009900092C0F6FF93C0F7FFF86A050EF76404D023
:1009A0000800FFFFF55005D0F6CFE9FFF7CFEAFFCB
:1009B000EF500001A06F0001A051D8A485EF00F016
:1009C000FFFF000E00018D6F000E8C6F1200FFFF05
:1009D000FFFF010E82EC37F00009D8B43DD0000EC5
:1009E0000001F26F000E0001F46F000E6D6E060E36
:1009F000D4EC1FF00001D76F0001D7510001D8A43B
:100A000006D0000E0001D06F010ECF6F05D0FFFFA2
:100A1000D7C0CFF00001D06BFFFFCFC0E9F0DEC040
:100A2000DFF0000E0001D86F000E0001D86FFFFF4D
:100A3000070E0001D86501D00FD0FFFF0001D8518B
:100A4000010D400EF324D96E000EF420DA6E000E74
:100A5000DF6E0001D82BEBD7FFFF0A0E6D606ED260
:100A60007F0E0001A16F010E0001A26F7C0E00013C
:100A7000A36F7E0E0001A46FD9C0A5F0DAC0A6F066
:100A800025EC36F00001F8516FEC39F0B5C0CDF02F
:100A9000B6C0CEF0680E0001A16F010E0001A26F7A
:100AA000310E0001A36F7E0E0001A46FCDC0A5F032
:100AB000CEC0A6F025EC36F041D2FFFF000E0001BB
:100AC000E86FE8C08CF00A0ECFEC34F0010E426EF5
:100AD000000E0001DA6F1E0ED96F010E68D1FFFF04
:100AE0004AEC34F0F60E0001C86FFF0E0001C96F2A
:100AF0000001E4510001CA6FCB6B0001C851000135
:100B0000CA270001C9510001CB230001F85100019F
:100B1000CA5D0001CB51800A0001CC6F0001F95180
:100B2000800A0001CC59D8A033D2000E426E010ECB
:100B3000466E020E67D0FFFF3C0E0001A16F010E52
:100B40000001A26F110E0001A36F7E0E0001A46FC1
:100B500025EC36F00001E4510001C86FC96B0001BB
:100B6000C8510001F85D0001F951800A0001CA6F07
:100B70000001C951800A0001CA59D8A007D0000E4F
:100B8000466E010E0001FD6F030E6D6EFFFF00014A
:100B9000D9510001DA11D8A4FBD1000E0001FD6F7C
:100BA000030E6DD0FFFF010E426E040E00D1FFFF59
:100BB0004AEC34F0F60E0001C86FFF0E0001C96F59
:100BC0000001E4510001CA6FCB6B0001C851000164
:100BD000CA270001C9510001CB230001F8510001CF
:100BE000CA5D0001CB51800A0001CC6F0001F951B0
:100BF000800A0001CC59D8A0CBD1010E456E000E61
:100C0000426E050EFFFF6D6E000E0001DA6F320EB0
:100C10003CD0FFFF3C0E0001A16F010E0001A26F4E
:100C2000F10E0001A36F7C0E0001A46F25EC36F0DD
:100C30000001E4510001C86FC96B0001C8510001F7
:100C4000F85D0001F951800A0001CA6F0001C95125
:100C5000800A0001CA59D8A007D0000E456E010EC7
:100C60000001FC6F060E6D6EFFFF0001D9510001FF
:100C7000DA11D8A48DD1000E0001FC6F060EFFFF23
:100C80006D6E000E0001DA6F1E0EFFFFD96F80D16E
:100C9000FFFF010E426E070E8AD0FFFF4AEC34F0D0
:100CA000F60E0001C86FFF0E0001C96F0001E4518C
:100CB0000001CA6FCB6B0001C8510001CA270001B7
:100CC000C9510001CB230001F8510001CA5D0001A8
:100CD000CB51800A0001CC6F0001F951800A00015C
:100CE000CC59D8A055D1000E426E080E6D6EE6C0EC
:100CF000D9F00001DA6B4CD1FFFF3C0E0001A16F6F
:100D0000010E0001A26F040E0001A36F7D0E000111
:100D1000A46F25EC36F0010EE2EC1DF00001F1515C
:100D2000D8A415D00001E4510001C86FC96B0001BF
:100D3000C8510001F85D0001F951800A0001CA6F35
:100D40000001C951800A0001CA59D8A00AD0FFFF8A
:100D5000010E0001FB6FE5C0D9F00001DA6B090E4E
:100D60006D6EFFFF0001D9510001DA11D8A410D136
:100D70000A0E6D6E000E0001FB6F0AD1FFFF3C0EE4
:100D80000001A16F010E0001A26F010E0001A36F0F
:100D90007E0E0001A46F25EC36F0010EE2EC1DF092
:100DA0000001D9510001DA11D8A4F2D00A0EFFFFD8
:100DB0006D6EEED0FFFFABEC3BF0020EE2EC1DF0EF
:100DC0002BEC34F00B0E6D6E000E0001DA6F0A0E84
:100DD000D96F000E0001F26FDBD0FFFF7D0E000126
:100DE000A16F010E0001A26FBE0E0001A36F7D0E68
:100DF0000001A46F25EC36F00001FD05D8B405D044
:100E0000E20E0001D16F7F0E05D0FFFFF90E000149
:100E1000D16F7F0EFFFF0001D26F660E0001A16F40
:100E2000010E0001A26F390E0001A36F7F0E0001B9
:100E3000A46FD1C0A5F0D2C0A6F025EC36F0000119
:100E4000FC05D8B405D0E20E0001D36F7F0E05D0AB
:100E5000FFFFF90E0001D36F7F0EFFFF0001D46F7B
:100E6000510E0001A16F010E0001A26F5E0E000184
:100E7000A36F7E0E0001A46FD3C0A5F0D4C0A6F06E
:100E800025EC36F00001FB05D8B405D0E20E0001D8
:100E9000D56F7F0E05D0FFFFF90E0001D56F7F0ED5
:100EA000FFFF0001D66F3C0E0001A16F010E000193
:100EB000A26F6D0E0001A36F7E0E0001A46FD5C05E
:100EC000A5F0D6C0A6F025EC36F00001D9510001FE
:100ED000DA11D8A45DD00C0E6D6E000E0001DA6F31
:100EE0005A0ED96F010E1FD0FFFF3E0E0001A16FF9
:100EF000010E0001A26FF10E0001A36F7D0E000133
:100F0000A46F25EC36F0010E0001F46F020EF6EC32
:100F10000BF00001D9510001DA11D8A439D0000E2C
:100F20000001DF6F000EFFFF0001F46F31D0FFFF03
:100F3000000E6D6E000E0001DF6F2AD0FFFF6D50B6
:100F4000000AD8B4BAD5010AD8B4C9D5030AD8B4AE
:100F5000F2D5010AD8B426D6070AD8B428D6010A91
:100F6000D8B457D6030AD8B493D6010AD8B495D6C4
:100F70000F0AD8B4C1D6010AD8B400D7030AD8B42E
:100F800019D7010AD8B429D7070AD8B4ADD7CFD713
:100F9000FFFF1200FFFFFFFF50EC36F0A00E000134
:100FA0008D6F860E8E6F010E8F6F000E906FA8EC06
:100FB00036F0000E0001816FC80E806F5BEC33F0DD
:100FC0003FEC33F0000E0001816F640E806F5BEC2C
:100FD00033F06F0E00018C6F000E00018D6F9FECDF
:100FE0001BF040EC38F044EC32F062EC1EF0000EE6
:100FF0000001816F640E806F5BEC33F0FDEC1AF042
:10100000000E0001816F320E806F5BEC33F0FFFF4A
:1010100004000001F251D8B40FD00001F9BF08D08C
:101020000001F95109E1640E0001F85DD8B004D067
:10103000FFFF0001F9AF03D0FFFFCDEC18F0FDEC8E
:1010400035F07BEC36F01CEC16F09DD0FFFF1DEC6C
:1010500015F0BED0FFFF7C0E0001A16F010E000154
:10106000A26F4F0E0001A36F7F0E0001A46F25EC4D
:1010700036F0670E0001A16F010E0001A26F210E74
:101080000001A36F7E0E0001A46F25EC36F0520E16
:101090000001A16F010E0001A26F880E0001A36F75
:1010A0007D0E0001A46F25EC36F03D0E0001A16F0E
:1010B000010E0001A26F630E0001A36F7F0E0001FD
:1010C000A46F25EC36F084D0FFFF7C0E0001A16FE9
:1010D000010E0001A26F9A0E0001A36F7D0E0001A8
:1010E000A46F25EC36F0670E0001A16F010E000120
:1010F000A26F590E0001A36F7F0E0001A46F25ECB3
:1011000036F0520E0001A16F010E0001A26FF50E24
:101110000001A36F7E0E0001A46F25EC36F03D0E9A
:101120000001A16F010E0001A26F8B0E0001A36FE1
:101130007E0E0001A46F25EC36F04AD0FFFF92EC42
:1011400010F046D0FFFFF7EC0DF042D0FFFFF9ECB6
:1011500017F03ED0FFFFF3EC09F03AD0FFFF0DECA3
:1011600014F036D0FFFF45EC0FF032D0FFFF84ECD7
:1011700038F02ED0FFFFE8EC04F02AD0FFFF000E7D
:101180000001DF6F25D0FFFF0001DF51000AD8B456
:101190005DD7010AD8B45ED7030AD8B495D7160A2A
:1011A000D8B4CCD7010AD8B4CDD7030AD8B4CED797
:1011B000010AD8B4CFD70F0AD8B4D0D7010AD8B40F
:1011C000D1D7020AD8B4D2D7070AD8B4D3D7D6D742
:1011D000FFFF0001DF05D8B4A3D0020E0001DF1924
:1011E000D8B49ED0D9D0FFFF010E0001DF6F3E0EB4
:1011F00001017B6F040E82EC37F00009D8B4ABD04C
:10120000DFC0DEF0140E88D0FFFF010E0001DF6F9B
:101210003E0E0101666F040E82EC37F00009D8B46F
:101220009AD0DFC0DEF0150E77D0FFFF010E00016F
:10123000DF6F3E0E0101516F040E82EC37F00009A2
:10124000D8B489D0DFC0DEF0160E66D0FFFF010EE5
:101250000001DF6F3E0E01013C6F040E82EC37F09F
:101260000009D8B478D0DFC0DEF0170E55D0FFFFEC
:10127000020E0001DF6F3E0E01017B6F040E82EC57
:1012800037F00009D8B467D0DFC0DEF0180E44D0C4
:10129000FFFF3E0E0101666F020E0001DF6F040EBC
:1012A00082EC37F00009D8B456D0DFC0DEF0190E5A
:1012B0000001DF6F010E516E4ED0FFFF3E0E0101A7
:1012C000516F020E0001DF6F040E82EC37F000094F
:1012D000D8B441D0DFC0DEF01B0E1ED0FFFF3E0EA3
:1012E00001013C6F020E0001DF6F040E82EC37F04B
:1012F0000009D8B430D00001F351D8A42CD01C0E72
:101300000001DF6F010E0001F26F000E6D6E23D041
:10131000FFFF010E656E010EFFFF0001DF6F1BD0A6
:10132000FFFF6550010AD8B45ED7030AD8B46CD762
:10133000010AD8B47AD7070AD8B488D7010AD8B432
:1013400096D7030AD8B4A4D7010AD8B4B6D70F0ADF
:10135000D8B4C4D7DDD7FFFF030E82EC37F0000905
:10136000D8B402D0650618D0FFFF020E82EC37F029
:101370000009D8B402D0652A0FD0FFFF010E82EC1D
:1013800037F00009D8B408D0000E0001DF6F000E5E
:101390000001E06F010E656EFFFF1C0E0001DF19FA
:1013A000D8B405D0000E0001F26F000E426EFFFFB0
:1013B0007B0E0001886F010E0001896F660E00012F
:1013C0008A6F010E00018B6F510E00018C6F010EB0
:1013D00000018D6F3C0E00018E6F010E00018F6FBA
:1013E00003EC3DF014D6FFFF7C0E0001A16F010E4F
:1013F0000001A26FB70E0001A36F7F0E0001A46F62
:10140000B00E0001A56F010E0001A66F25EC36F0AD
:10141000670E0001A16F010E0001A26FBE0E000158
:10142000A36F7F0E0001A46FA40E0001A56F010E33
:101430000001A66F25EC36F00001F451D8A405D0C8
:10144000E00E0001C16F7D0E05D0FFFFC40E00014C
:10145000C16F7E0EFFFF0001C26F520E0001A16F2F
:10146000010E0001A26F0A0E0001A36F7F0E0001A2
:10147000A46FC1C0A5F0C2C0A6F025EC36F00001F3
:10148000DC510001D8A45BD0030E82EC37F00009D8
:10149000D8B403D00001E00752D0FFFF020E82EC67
:1014A00037F00009D8B403D00001E02B48D0FFFF8B
:1014B000010E82EC37F00009D8B441D0000E0001D3
:1014C000F46F000E0001E06F000E0001DD6F000EF2
:1014D0000001DC6F000E0001C36F000E0001C36F3E
:1014E000FFFF0A0E0001C36501D026D0FFFF0001F7
:1014F000C351010DB00EF324D96E010EF420DA6E43
:10150000DF5000018C6F0001C351140FCFEC34F099
:101510000001C351010DA40EF324D96E010EF42075
:10152000DA6EDF5000018C6F0001C351280FCFEC41
:1015300034F00001C32BD4D7FFFFDEC0DFF0FFFF84
:101540000001DC05D8A43DD1040E82EC37F000097F
:10155000D8B403D00001DD2B34D1FFFF010E82ECA3
:1015600037F00009D8B42DD1000E0001DD6F000E58
:101570000001DC6F26D1FFFF3E0E01017B6F040EE0
:1015800082EC37F00009D8B403D0010E0001DC6F03
:10159000FFFF0001DC510001D8B420D17B0E000117
:1015A000806F010E0001816F0001DD51060F000107
:1015B000826F0001DD51060F0001836F87EC35F06B
:1015C0000001DD510001BF6FC06B020E0001BF279B
:1015D000000EC0230001C05105E10D0E0001BF5DEA
:1015E000D8A006D0000E0001DD6F000E0001DC6FF8
:1015F000FFFF030E82EC37F00009D8B40AD00001D7
:10160000DD51010DB00EF324D96E010EF420DA6E17
:10161000DF2AFFFF020E82EC37F00009D8B40AD0AF
:101620000001DD51010DB00EF324D96E010EF4203E
:10163000DA6EDF06FFFF0001DD51010DB00EF3246D
:10164000D96E010EF420DA6E3A0EDF600CD0000184
:10165000DD51010DB00EF324D96E010EF420DA6EC7
:10166000300EDF60BBD0FFFF0001DD51010DB00E79
:10167000F324D96E010E80D0FFFF3E0E0101666F8C
:10168000040E82EC37F00009D8B403D0010E00013B
:10169000DC6FFFFF0001DC510001D8B49FD0660E63
:1016A0000001806F010E0001816F0001DD51060F06
:1016B0000001826F0001DD51060F0001836F87EC8E
:1016C00035F00001DD510001BF6FC06B020E00015B
:1016D000BF27000EC0230001C05105E10D0E00011F
:1016E000BF5DD8A006D0000E0001DD6F000E000126
:1016F000DC6FFFFF030E82EC37F00009D8B40AD08C
:101700000001DD51010DA40EF324D96E010EF42069
:10171000DA6EDF2AFFFF020E82EC37F00009D8B440
:101720000AD00001DD51010DA40EF324D96E010E83
:10173000F420DA6EDF06FFFF0001DD51010DA40E7B
:10174000F324D96E010EF420DA6E3A0EDF600CD06D
:101750000001DD51010DA40EF324D96E010EF42019
:10176000DA6E300EDF603AD0FFFF0001DD51010D6F
:10177000A40EF324D96E010EFFFFF420DA6E300EB2
:10178000DF6E2CD0FFFF3E0E0101516F040E82EC84
:1017900037F00009D8B422D0780E0001FF19D8B470
:1017A0001DD00001F451D8A419D0010E0001F46F2E
:1017B000000E0001F76F12D0FFFF000E0001E06F76
:1017C0000DD0FFFF0001E051000AD8B4D4D6010AC1
:1017D000D8B452D7030AD8B4D5D7EED7FFFF00014B
:1017E000F451D8A4D4EC11F01200FFFFFFFF000168
:1017F000C76FD8D1FFFFD0EC33F0DD0E0001A16F31
:101800007F0E0001A26F60EC35F04D4A4E2A060EA5
:101810000001F56FE9D1FFFFF90E0001936F7F0E14
:101820000001946F6AEC34F00009D8B40FD0D0EC0A
:1018300033F0D10E0001A16F7E0E0001A26F60ECAB
:1018400035F04D4A4E2A020E0001F56FFFFF0001F0
:10185000F551D8A4C9D11A0E0001806F000E000105
:10186000816F3CEC32F0000E0001816F0F0E806F33
:101870005BEC33F01A0E0001806F000E0001816FE7
:101880003CEC32F0A20E0001A16F7F0E0001A26FAE
:1018900060EC35F081D1FFFF0001F551D8A4A4D14F
:1018A000D0EC33F00001F751D8B405D0A40E0001FC
:1018B000BD6F010E05D0FFFFB00E0001BD6F010E20
:1018C000FFFF0001BE6F760E0001A16F7D0E0001CB
:1018D000A26FBDC0A3F0BEC0A4F060EC35F0020E54
:1018E000BCD0FFFF4D4A4E2A7FD1FFFF0001F551CA
:1018F000D8A47AD1D0EC33F00001C705D8A420D009
:10190000140E0001A16F7C0E0001A26FEDC0A3F0C8
:101910000001A46BEEC0A5F00001A66BEFC0A7F01C
:101920000001A86BECC0A9F00001AA6BEBC0ABF002
:101930000001AC6BEAC0ADF00001AE6B60EC35F0BD
:10194000FFFF020E0001C719D8A45FD00001FB05FC
:10195000D8B405D0D10E0001BF6F7F0E05D0FFFFB8
:10196000F90E0001BF6F7F0EFFFF0001C06F000185
:10197000FC05D8B405D0D10E0001C16F7F0E05D093
:10198000FFFFF90E0001C16F7F0EFFFF0001C26F64
:101990000001FD05D8B405D0D10E0001C36F7F0E44
:1019A00005D0FFFFF90E0001C36F7F0EFFFF00019E
:1019B000C46FAC0E0001A16F7B0E0001A26FEDC0E1
:1019C000A3F00001A46BEEC0A5F00001A66BEFC070
:1019D000A7F00001A86BECC0A9F00001AA6BEBC056
:1019E000ABF00001AC6BEAC0ADF00001AE6BC3C060
:1019F000AFF0C4C0B0F0C1C0B1F0C2C0B2F0BFC05F
:101A0000B3F0C0C0B4F060EC35F0FFFF1A0E000177
:101A1000806F000E0001816F3CEC32F0000E00017F
:101A2000816F640E806F5BEC33F01A0E0001806FE3
:101A3000000E0001816F3CEC32F0000E0001816F5E
:101A4000640E806F5BEC33F01A0E0001806F000EA5
:101A50000001816F3CEC32F068D0FFFF0001F56FB0
:101A600040D7FFFFF90E0001936F7F0E0001946FC6
:101A70006AEC34F00009D8A416D0D70E0001936F99
:101A80007F0E0001946F6AEC34F00009D8A40BD0EB
:101A9000B00E0001936F7F0E0001946F6AEC34F07A
:101AA0000009D8B41CD0FFFF020E0001C719D8A44A
:101AB00013D00001F751D8A404D0010E0001F76F34
:101AC0006BD0FFFF000E0001F76F000E0001F46FF6
:101AD000000E0001DF6F03D0FFFF4D4A4E2AFFFFCB
:101AE0000001F551D8A480D057D0FFFFD0EC33F0DF
:101AF0000001F751D8B405D0A40E0001C56F010E46
:101B000005D0FFFFB00E0001C56F010EFFFF000101
:101B1000C66F0D0E0001A16F7F0E0001A26FC5C040
:101B2000A3F0C6C0A4F060EC35F0FFFF1E0E95D701
:101B3000FFFF0001F551D8B40BD0FC0E0001936FEC
:101B40007F0E0001946F6AEC34F00009D8B44CD0D9
:101B5000FFFFD0EC33F0A20E0001A16F7F0E000159
:101B6000A26F60EC35F0020E0001816F260E806FCF
:101B70005BEC33F00001F751D8A404D0010E000152
:101B8000F76F0AD0FFFF000E0001F76F000E000193
:101B9000F46F780E0001F66FFFFF000E4E6E000E20
:101BA0004D6E22D0FFFF4DC0BBF04EC0BCF0000117
:101BB000BC51000AD8A4F0D70001BB51000AD8B428
:101BC00019D6010AD8B427D6030AD8B464D6010AB4
:101BD000D8B48BD6070AD8B444D7010AD8B485D76D
:101BE000030AD8B4A5D7D8D7FFFF1200FFFFFFFF25
:101BF0000001E4516FEC39F0B5C0C2F0B6C0C3F0DB
:101C00007B0E0001A16F010E0001A26F2E0E0001DC
:101C1000A36F7F0E0001A46FC2C0A5F0C3C0A6F0E1
:101C200025EC36F00001E3516FEC39F0B5C0C2F09D
:101C3000B6C0C3F0660E0001A16F010E0001A26FD5
:101C4000390E0001A36F7F0E0001A46FC2C0A5F082
:101C5000C3C0A6F025EC36F00001E2516FEC39F07C
:101C6000B5C0C2F0B6C0C3F0510E0001A16F010EA5
:101C70000001A26F5E0E0001A36F7E0E0001A46F33
:101C8000C2C0A5F0C3C0A6F025EC36F00001E151BA
:101C90006FEC39F0B5C0C2F0B6C0C3F03C0E000125
:101CA000A16F010E0001A26F6D0E0001A36F7E0EE9
:101CB0000001A46FC2C0A5F0C3C0A6F025EC36F0A9
:101CC000010E82EC37F00009D8B419D0E3C08CF0D3
:101CD000000ECFEC34F0E2C08CF0010ECFEC34F00B
:101CE000E1C08CF0020ECFEC34F0E4C08CF0040EB6
:101CF000CFEC34F0000E0001E06FDEC0DFF0FFFF3C
:101D0000040E82EC37F00009D8B4ACD00001E02B0F
:101D1000A9D0FFFF7B0E0001806F010E0001816FD3
:101D2000080E0001826F0F0E0001836F87EC35F003
:101D3000030E82EC37F00009D8B402D00001E42B86
:101D4000FFFF020E82EC37F00009D8B402D0000188
:101D5000E407FFFF630E0001E46594D0000E00016C
:101D6000E46F90D0FFFF660E0001806F010E00014E
:101D7000816F080E0001826F0F0E0001836F87ECE8
:101D800035F0030E82EC37F00009D8B402D0000120
:101D9000E32BFFFF020E82EC37F00009D8B402D02B
:101DA0000001E307FFFF630E0001E3656BD0000E47
:101DB0000001E36F67D0FFFF510E0001806F010E3D
:101DC0000001816F0C0E0001826F120E0001836F03
:101DD00087EC35F0030E82EC37F00009D8B402D05E
:101DE0000001E22BFFFF020E82EC37F00009D8B4AD
:101DF00002D00001E207FFFF630E0001E26542D05E
:101E0000000E0001E26F3ED0FFFF3C0E0001806F2C
:101E1000010E0001816F0C0E0001826F120E000195
:101E2000836F87EC35F0030E82EC37F00009D8B4ED
:101E300002D00001E12BFFFF020E82EC37F0000917
:101E4000D8B402D00001E107FFFF630E0001E16595
:101E500019D0000E0001E16F15D0FFFF000E000148
:101E6000E06F10D0FFFF0001E051000AD8B451D755
:101E7000010AD8B477D7030AD8B49DD7010AD8B4D9
:101E8000C3D7EBD7FFFF1200FFFFFFFF7B0E000160
:101E9000A16F010E0001A26F530E0001A36F7C0E13
:101EA0000001A46F59C0A5F00001A66B58C0A7F0AF
:101EB0000001A86B57C0A9F00001AA6B56C0ABF097
:101EC0000001AC6B55C0ADF00001AE6B25EC36F0F7
:101ED0005404D8B405D0E20E0001BB6F7F0E05D0CC
:101EE000FFFFF90E0001BB6F7F0EFFFF0001BC6F0B
:101EF000660E0001A16F010E0001A26F770E0001B6
:101F0000A36F7F0E0001A46FBBC0A5F0BCC0A6F0FC
:101F100025EC36F0740E0001A16F010E0001A26FD6
:101F2000230E0001A36F7F0E0001A46F010E4F244A
:101F30000001A56F0001A66B000EA62350C0A7F0FC
:101F40000001A86B25EC36F05304D8B405D0E20E9E
:101F50000001BD6F7F0E05D0FFFFF90E0001BD6FC0
:101F60007F0EFFFF0001BE6F510E0001A16F010E39
:101F70000001A26FA80E0001A36F7E0E0001A46FE6
:101F8000BDC0A5F0BEC0A6F025EC36F05204D8B412
:101F900005D0E20E0001BF6F7F0E05D0FFFFF90EE6
:101FA0000001BF6F7F0EFFFF0001C06F3C0E0001FC
:101FB000A16F010E0001A26FB60E0001A36F7E0E8D
:101FC0000001A46FBFC0A5F0C0C0A6F025EC36F09C
:101FD000010E82EC37F00009D8B405D0000E0001E4
:101FE000E06FDEC0DFF0FFFF020E82EC37F0000989
:101FF000D8B40DD0080E0001FA5F3C0E0001FA6162
:1020000003D03C0E0001FA6FFFFF010E516EFFFF7F
:10201000030E82EC37F00009D8B422D050500001F2
:10202000B56FB66B4F500001B76FB86B010E000172
:10203000B727000EB8230001B5510001B75D0001BC
:10204000B851800A0001B96F0001B651800A000141
:10205000B959D8B064D0080E0001FA27010E516EAC
:10206000FFFF5104D8A45BD00E0ED4EC1FF000018A
:10207000BA6FC40E0001BA250001806F0001816BA8
:10208000FF0E8123000E0001836F080E826F42EC69
:102090003BF000018051506EC40E0001FA25000192
:1020A000806F0001816BFF0E8123000E0001836FA2
:1020B000080E826F42EC3BF0000180514F6E000130
:1020C000FA51D4EC1FF0596E0001FA29D4EC1FF03C
:1020D000586E0001FA51020FD4EC1FF0576E000148
:1020E000FA51030FD4EC1FF0566E0001FA51040FA1
:1020F000D4EC1FF0556E0001FA51050FD4EC1FF01F
:10210000546E0001FA51060FD4EC1FF0536E00011B
:10211000FA51070FD4EC1FF0526E000E516EFFFF04
:102120001200FFFFFFFF7B0E0001A16F010E0001F7
:10213000A26FCB0E0001A36F7F0E0001A46F25ECF0
:1021400036F0660E0001A16F010E0001A26F400E75
:102150000001A36F7E0E0001A46F73C0A5F0000103
:10216000A66B74C0A7F00001A86B75C0A9F00001B0
:10217000AA6B25EC36F0860E0001A16F010E00015E
:10218000A26FC50E0001A36F7F0E0001A46F25ECA6
:1021900036F0710E0001A16F010E0001A26F4F0E0B
:1021A0000001A36F7E0E0001A46F72C0A5F00001B4
:1021B000A66B71C0A7F00001A86B70C0A9F0000168
:1021C000AA6B25EC36F0040E82EC37F00009D8B487
:1021D00004D0010E636E0001E02BFFFF010E82ECC4
:1021E00037F00009D8B4C5D0000E636E000E0001B0
:1021F000E06F6F0E00018C6F000E00018D6F3FECE1
:102200001CF0DEC0DFF00001EE2BB3D0FFFF660E46
:102210000001806F010E0001816F010E0001826FCD
:10222000020E0001836F87EC35F0030E82EC37F06D
:102230000009D8A4732A020E82EC37F00009D8B442
:10224000AED07306ACD0FFFF660E0001806F010EAA
:102250000001816F040E0001826F050E0001836F83
:1022600087EC35F0030E82EC37F00009D8A4742A0D
:10227000020E82EC37F00009D8B491D074068FD0EA
:10228000FFFF660E0001806F010E0001816F070ED7
:102290000001826F080E0001836F87EC35F0030E9A
:1022A00082EC37F00009D8A4752A020E82EC37F0D0
:1022B0000009D8B474D0750672D0FFFF660E000115
:1022C000806F010E0001816F0C0E0001826F0D0EF8
:1022D0000001836F87EC35F0030E82EC37F00009C4
:1022E000D8A4722A020E82EC37F00009D8B457D075
:1022F000720655D0FFFF660E0001806F010E0001CF
:10230000816F0F0E0001826F100E0001836F87EC4A
:1023100035F0030E82EC37F00009D8A4712A020EC2
:1023200082EC37F00009D8B43AD0710638D0FFFFFC
:10233000660E0001806F010E0001816F120E000118
:10234000826F130E0001836F87EC35F0030E82EC71
:1023500037F00009D8A4702A020E82EC37F0000989
:10236000D8B41DD070061BD0FFFF010E0001E06F36
:1023700016D0FFFF0001E051010AD8B447D7030A85
:10238000D8B461D7010AD8B47BD7070AD8B495D797
:10239000010AD8B4AFD7030AD8B4C9D7E5D7FFFF2D
:1023A000AEEC35F01200FFFFFFFF02D1FFFFD0ECD3
:1023B00033F0DD0E0001A16F7F0E0001A26F60EC13
:1023C00035F04D4A4E2A050EADD0FFFFF90E000143
:1023D000936F7F0E0001946F6AEC34F00009D8B45B
:1023E0000FD0D0EC33F0D10E0001A16F7E0E0001B2
:1023F000A26F60EC35F04D4A4E2A020E0001F56FD7
:10240000FFFF0001F551D8A4EFD0000E4E6E000E74
:102410004D6E1A0E0001806F000E0001816F3CECC2
:1024200032F0E2D0FFFF0001F551D8A4DDD0D0ECAE
:1024300033F00001F751D8B405D0A40E0001BD6FF0
:10244000010E05D0FFFFB00E0001BD6F010EFFFFB2
:102450000001BE6F760E0001A16F7D0E0001A26F1C
:10246000BDC0A3F0BEC0A4F060EC35F0020E0001C8
:10247000F56F4D4A4E2AB8D0FFFF0001F551D8A4A0
:10248000B3D0D0EC33F0310E0001A16F7B0E000110
:10249000A26FECC0A3F00001A46BEBC0A5F000019B
:1024A000A66BEAC0A7F00001A86BEDC0A9F000017F
:1024B000AA6BEEC0ABF00001AC6BEFC0ADF0000159
:1024C000AE6BDD0E0001AF6F7E0E0001B06F60ECF1
:1024D00035F01A0E0001806F000E0001816F3CEC98
:1024E00032F0000E0001816F640E806F5BEC33F000
:1024F0001A0E0001806F000E0001816F3CEC32F07B
:10250000000E0001816F640E806F5BEC33F01A0ED9
:102510000001806F000E0001816F3CEC32F04D4AEB
:102520004E2A1E0EFFFF0001F56F5ED0FFFFF90E71
:102530000001936F7F0E0001946F6AEC34F0000984
:10254000D8A40BD0B00E0001936F7F0E0001946FE2
:102550006AEC34F00009D8B415D0FFFF0001F75140
:10256000D8A404D0010E0001F76F07D0FFFF000EC2
:102570000001F76F000E0001F46FFFFF000E4E6EBA
:10258000000E4D6EFFFFD70E0001936F7F0E00010E
:10259000946F6AEC34F00009D8A404D00001F5511E
:1025A000D8A422D0FFFF000E4E6E000E4D6E1CD040
:1025B000FFFF4DC0BBF04EC0BCF00001BC51000A93
:1025C000D8A4F0D70001BB51000AD8B4EFD6010A55
:1025D000D8B4FBD6030AD8B425D7010AD8B44CD74F
:1025E000070AD8B4A3D7DED7FFFF1200FFFFFFFF13
:1025F000000E2A6E000E2E6E000E2F6E000E306E34
:10260000000E2B6E000E2C6E000E2D6E000E2A6E2C
:10261000FFFF080E2A6401D02DD0FFFF2EC01BF053
:102620002FC01CF030C01DF0280E0F6EA00E106ED3
:102630003B0E116EB0EC32F001C009F002C00AF09E
:102640009CEC32F009C00CF00AC00DF00BC00EF08B
:10265000DEEC1EF00CC01EF00DC01FF00EC020F00E
:1026600011EC17F01BC02EF01CC02FF01DC030F075
:102670002A2ACED7FFFF2EC01BF02FC01CF030C07F
:102680001DF0000E1E6E200E1F6E410E206E1CEC03
:102690003CF01BC02EF01CC02FF01DC030F048C015
:1026A0001BF049C01CF04AC01DF02EC01EF02FC008
:1026B0001FF030C020F011EC17F01BC048F01CC018
:1026C00049F01DC04AF0692A2EC001F02FC002F067
:1026D00030C003F0CD0E046ECC0E056E3E0E066EBD
:1026E000CCEC38F0D8B005D0FF0E0001F96FF60E33
:1026F00015D0FFFF000E016E900E026E400E036EAD
:102700002EC004F02FC005F030C006F0CCEC38F03D
:10271000D8B007D0000E0001F96F630EFFFFF86F0D
:1027200079D0FFFF050E696475D0000E696E48C050
:102730001BF049C01CF04AC01DF0000E1E6EC00EFA
:102740001F6E400E206E1CEC3CF01BC02EF01CC017
:102750002FF01DC030F0000E486E000E496E000EC6
:102760004A6E2EC01BF02FC01CF030C01DF0000EB2
:102770001E6E000E1F6EBF0E206E11EC17F01BC0F8
:102780002BF01CC02CF01DC02DF0000E0F6E200E83
:10279000106E410E116E2BC00CF02CC00DF02DC030
:1027A0000EF0DEEC1EF00CC01BF00DC01CF00EC0D5
:1027B0001DF0000E1E6E800E1F6E400E206E1CEC73
:1027C0003CF01BC02BF01CC02CF01DC02DF02DAE1A
:1027D00006D0000E2B6E000E2C6E000E2D6EFFFF2D
:1027E000000E0F6E200E106E410E116E2BC00CF0FD
:1027F0002CC00DF02DC00EF0DEEC1EF00CC01BF056
:102800000DC01CF00EC01DF08FEC3CF01BC0F8F0AA
:102810001CC0F9F0FFFF1200FFFFFFFF7B0E00015D
:10282000A16F010E0001A26F8C0E0001A36F7C0E40
:102830000001A46F0001E8510001B56FB66B000103
:10284000B51FB61FB54BB62B0001E9510001B525E8
:102850000001A56F000E0001B6210001A66F25EC56
:1028600036F0660E0001A16F010E0001A26FB50ED9
:102870000001A36F7C0E0001A46FE9C0A5F0000168
:10288000A66B25EC36F0510E0001A16F010E000180
:10289000A26FC90E0001A36F7C0E0001A46FE7C0F8
:1028A000A5F00001A66B25EC36F00001F051D8B47C
:1028B00005D0F10E0001B76F7F0E05D0FFFFF50EBA
:1028C0000001B76F7F0EFFFF0001B86F3C0E0001E3
:1028D000A16F010E0001A26F440E0001A36F7F0ED5
:1028E0000001A46FB7C0A5F0B8C0A6F025EC36F083
:1028F000010E82EC37F00009D8B411D0E9C08CF099
:10290000060ECFEC34F0E7C08CF00B0ECFEC34F0B9
:10291000F0C08CF00F0ECFEC34F0DEC0DFF0FFFF24
:10292000040E82EC37F00009D8B477D00001E02B18
:1029300074D0FFFF660E0001806F010E0001816FF1
:102940000B0E0001826F0E0E0001836F87EC35F0D5
:10295000030E82EC37F00009D8B402D00001E92B55
:10296000FFFF020E82EC37F00009D8B463D00001FB
:10297000E90760D0FFFF510E0001806F010E0001DA
:10298000816F090E0001826F0B0E0001836F87ECCF
:1029900035F0030E82EC37F00009D8B402D0000104
:1029A000E72BFFFF020E82EC37F00009D8B402D00B
:1029B0000001E707FFFF180E0001E76101D03AD0E0
:1029C000FFFF000E0001E76F35D0FFFF3C0E000156
:1029D000806F010E0001816F090E0001826F0B0EE6
:1029E0000001836F87EC35F0030E82EC37F00009AD
:1029F000D8B403D0010E0001F06FFFFF020E82EC8D
:102A000037F00009D8B416D0000E0001F06F12D0D4
:102A1000FFFF000E0001E06F0DD0FFFF0001E0514D
:102A2000000AD8B486D7010AD8B4A4D7030AD8B408
:102A3000CCD7EED7FFFF1200FFFFFFFF7D0E000196
:102A4000A16F010E0001A26F720E0001A36F7C0E38
:102A50000001A46FEDC0A5F00001A66BEEC0A7F0C9
:102A60000001A86BEFC0A9F00001AA6BECC0ABF0AD
:102A70000001AC6BEBC0ADF00001AE6B25EC36F0A5
:102A8000010E01017B6FFFC07CF1050E01018E6F0D
:102A900082B031D07B0E0001806F010E0001816F8A
:102AA000140E0001826F140E0001836F87EC35F065
:102AB00022D0FFFF520E0001A16F010E0001A26F94
:102AC000AC0E0001A36F7D0E0001A46F25EC36F063
:102AD000000E6E6E18D0FFFF520E0001A16F010EA6
:102AE0000001A26F2A0E0001A36F7D0E0001A46FEA
:102AF00025EC36F008D0FFFF6E50010AD8B4D9D7C4
:102B0000020AD8B4E8D7FFFF0001F351D8B41AD0B5
:102B10000001F8516FEC39F0B5C0C2F0B6C0C3F097
:102B2000680E0001A16F010E0001A26F310E0001BD
:102B3000A36F7E0E0001A46FC2C0A5F0C3C0A6F0B3
:102B400025EC36F0FFFF0001F9BF08D00001F95174
:102B500009E1640E0001F85DD8B004D0FFFF000168
:102B6000F9AF12D0FFFF670E0001A16F010E000147
:102B7000A26F500E0001A36F7D0E0001A46F25EC23
:102B800036F02BEC34F01BD0FFFF0001F8516FEC56
:102B900039F0B5C0C2F0B6C0C3F0680E0001A16F35
:102BA000010E0001A26F310E0001A36F7E0E000125
:102BB000A46FC2C0A5F0C3C0A6F025EC36F0FFFF9D
:102BC000020E6E6004D00001F351D8B426D0FFFF8E
:102BD000510E0001806F010E0001816F010E000196
:102BE000826F130E0001836F87EC35F0010E416E8A
:102BF0003D0E0001A16F010E0001A26F630E0001E6
:102C0000A36F7D0E0001A46F25EC36F0010E82EC5F
:102C100037F00009D8A495EC33F0FFFF040E82ECE6
:102C200037F00009D8B405D0010E0001DF6F010EA6
:102C3000656EFFFF1200FFFFFFFF0001FE51D8A4E9
:102C4000EDD00001F451D8B4D6D0E8D0FFFFD0ECDD
:102C500033F0810E0001A16F7F0E0001A26F60ECC6
:102C600035F00A0E0001F56F000E4E6E010EC0D059
:102C7000FFFF0001F551D8A42FD0DD0E0001A16F98
:102C80007F0E0001A26F60EC35F0000E0001816F35
:102C9000640E806F5BEC33F0F90E0001936F7F0ED2
:102CA0000001946F6AEC34F00009D8B405D0000E2E
:102CB0004E6E000E4D6E10D0FFFF000E4E6E000ED9
:102CC0004D6E1A0E0001806F000E0001816F3CEC0A
:102CD00032F0780E0001FF6FFFFFA90E0001936F25
:102CE0007F0E0001946F6AEC34F00009D8B496D0DE
:102CF000A90E0001B56F7F0E0001B66F2C0E00010A
:102D0000B76F4BEC1AF0B5C0BFF0B6C0C0F05FECC7
:102D10001DF0BFC0C8F0C0C0C9F00001C9BF08D0D5
:102D20000001C95108E10A0E0001C85DD8B003D006
:102D3000FFFF200E4DD0FFFF0001C9BF16D00001DC
:102D4000C95105E10A0E0001C85DD8A00ED00001EE
:102D5000C9BF08D00001C95108E10F0E0001C85DCC
:102D6000D8B003D0FFFF020E33D0FFFF0001C9BF70
:102D700016D00001C95105E1100E0001C85DD8A0B0
:102D80000ED00001C9BF08D00001C95108E1140EDE
:102D90000001C85DD8B003D0FFFF030E19D0FFFFBC
:102DA0000001C9BF18D00001C95105E1140E00018E
:102DB000C85DD8A010D00001C9BF08D00001C9511A
:102DC0000AE11F0E0001C85DD8B005D0FFFF040E58
:102DD000FFFF0001FF6FFFFF000E4E6E000E4D6EF5
:102DE000060E0001FE6F1AD0FFFF000E4E6E000EA1
:102DF000FFFF4D6E13D0FFFF4DC0C6F04EC0C7F0B1
:102E00000001C751000AD8A4EFD70001C651000A3B
:102E1000D8B41CD7010AD8B42BD7E6D7FFFF1200CD
:102E2000FFFFFFFF1DC021F0226A236A1C342136F8
:102E300001E322802150266E20C021F0226A236AFD
:102E40001F34213601E322802150256E2650D8B44C
:102E50000BD02550265CD8B00FD026500008252472
:102E6000216E180E216408D0FFFF1EC01BF01FC08A
:102E70001CF020C01DF0BAD0FFFF2550D8B40BD0F5
:102E80002650255CD8B00FD0255000082624216E8E
:102E9000180E216408D0FFFF1BC01BF01CC01CF0E3
:102EA0001DC01DF0A3D0FFFF060E246E1DBE248E94
:102EB00020BE248C1C8EFF0E1B16FF0E1C16000E4F
:102EC0001D161F8EFF0E1E16FF0E1F16000E20165B
:102ED0002550265CD8B01ED0FFFFD8901E361F3676
:102EE0002036250626502518D8B40ED0240624C036
:102EF00021F0070E2116D8B407D0EED7FFFFD890E7
:102F00001D321C321B32262AFFFF25502618D8B44A
:102F100023D0F4D7FFFF2650255CD8B01DD0FFFF8B
:102F2000D8901B361C361D36260626502518D8B4D8
:102F30000ED0240624C021F0070E2116D8B407D0E5
:102F4000EED7FFFFD89020321F321E32252AFFFF16
:102F500025502618D8A4F5D7FFFF24AE0CD0FF0EBD
:102F60001B1AFF0E1C1AFF0E1D1A010E1B26000E47
:102F70001C22000E1D22FFFF24AC0CD0FF0E1E1AD7
:102F8000FF0E1F1AFF0E201A010E1E26000E1F2212
:102F9000000E2022FFFF000E246E1B501E261C5028
:102FA0001F221D50202220AE0ED0FF0E1E1AFF0E33
:102FB0001F1AFF0E201A010E1E26000E1F22000EE1
:102FC0002022010E246EFFFF1EC001F01FC002F080
:102FD00020C003F026C004F024C005F07BEC3AF0DA
:102FE00001C01BF002C01CF003C01DF0FFFF120067
:102FF000FFFFFFFF7B0E0001A16F010E0001A26F1A
:103000003D0E0001A36F7D0E0001A46F25EC36F08C
:10301000660E0001A16F010E0001A26F9A0E000161
:10302000A36F7E0E0001A46F25EC36F0760E000132
:10303000A16F010E0001A26FEC0E0001A36F7F0EC5
:103040000001A46FE6C0A5F00001A66B25EC36F0E8
:10305000510E0001A16F010E0001A26FE90E0001E7
:10306000A36F7E0E0001A46F25EC36F0610E000107
:10307000A16F010E0001A26FEC0E0001A36F7F0E85
:103080000001A46FE5C0A5F00001A66B25EC36F0A9
:103090003C0E0001A16F010E0001A26F170E00018E
:1030A000A36F7D0E0001A46F4BC0A5F04CC0A6F02D
:1030B00025EC36F0040E82EC37F00009D8B402D0CB
:1030C0000001E02BFFFF010E82EC37F00009D8B4BD
:1030D00057D0E6C08CF0070ECFEC34F0E5C08CF092
:1030E0000D0ECFEC34F0000E0001E06FDEC0DFF01B
:1030F00047D0FFFF660E0001806F010E0001816F57
:10310000100E0001826F140E0001836F87EC35F002
:10311000030E82EC37F00009D8B402D00001E62B90
:10312000FFFF020E82EC37F00009D8B433D0000163
:10313000E60730D0FFFF510E0001806F010E000145
:10314000816F100E0001826F140E0001836F87ECF7
:1031500035F0030E82EC37F00009D8B402D000013C
:10316000E52BFFFF020E82EC37F00009D8B412D035
:103170000001E5070FD0FFFF000E0001E06F0AD04D
:10318000FFFF0001E051000AD8B4B3D7010AD8B458
:10319000D1D7F1D7FFFF1200FFFFFFFF0001E4517D
:1031A0000001C86FC96B0001C8510001F85D000142
:1031B000F951800A0001CA6F0001C951800A00015B
:1031C000CA59D8A010D00001F351D8A40CD00001E6
:1031D000F251D8A408D0000E466E000E456E000EC7
:1031E000E2EC1DF0A1D0FFFF000E426E0001E351A2
:1031F0000001C86FC96B0001F8510001C85D0001F2
:10320000C951800A0001CA6F0001F951800A00010A
:10321000CA59D8A002D0010E1BD0FFFF0001E45113
:103220000001C86FC96B0001C8510001F85D0001C1
:10323000F951800A0001CA6F0001C951800A0001DA
:10324000CA59D8A007D00001F351D8A403D0000E6A
:10325000FFFF466EFFFF0001E2510001C86FC96B1E
:103260000001F8510001C85D0001C951800A000148
:10327000CA6F0001F951800A0001CA59D8A00AD0CA
:10328000010E0001F36F010E456E82B003D0010EF6
:10329000E2EC1DF0FFFF0001E4510001C86FC96BB3
:1032A0000001C8510001F85D0001F951800A0001D8
:1032B000CA6F0001C951800A0001CA59D8A009D0BB
:1032C0000001F351D8A405D0000E456E000EE2ECCB
:1032D0001DF0FFFF0001E1510001C86FC96B000143
:1032E000F8510001C85D0001C951800A0001CA6F90
:1032F0000001F951800A0001CA59D8A006D0010E78
:10330000E2EC1DF0010E0001F36FFFFF0001F3512D
:10331000D8B40AD00001F651D8A406D0010E00019D
:10332000F46F010EF6EC0BF0FFFF1200FFFFFFFF42
:103330000001FE51D8B406D00001FE07FEC009F01E
:103340000A6A05D0FFFF000E0A6E000E096EFFFF2D
:1033500009C0FEF00001F551D8B406D00001F50710
:10336000F5C00BF00C6A05D0FFFF000E0C6E000ECE
:103370000B6EFFFF0BC0F5F00001D9510001DA110F
:10338000D8B409D00001D907D8A0DA07D9C0D9F03C
:10339000DAC0DAF006D0FFFF000E0001DA6F000E8F
:1033A000D96FFFFF0001F651D8B406D00001F6072F
:1033B000F6C00DF00E6A05D0FFFF000E0E6E000E77
:1033C0000D6EFFFF0DC0F6F06350D8A461D0000170
:1033D000EF2B3B0E0001EF651CD0000E0001EF6FDC
:1033E0000001EE2B3B0E0001EE6513D0000E000134
:1033F000EE6F0001ED2B170E0001ED650AD0000EF7
:103400000001ED6F0001E82BE8C004F00A0EB2ECF9
:1034100033F0FFFF0001EE517118D8B439D000012C
:10342000F151D8B409D04B4A4C2A4BC006F04CC0DD
:1034300007F0080E8BEC32F0FFFF6F0E066E000EE9
:10344000076ED6EC1CF03C0E706415D03C0E716417
:1034500012D0180E72640FD00BEC33F0EFC070F086
:10346000EEC071F0EDC072F0ECC073F0EBC074F020
:10347000EAC075F00DD0FFFF70C0EFF071C0EEF044
:1034800072C0EDF073C0ECF074C0EBF075C0EAF000
:10349000FFFF1200FFFFFFFF900E0001806F010E83
:1034A0000001816F000E0001836F000E826F000E1D
:1034B0000001856F140E846F0CEC34F0B5C080F001
:1034C000B6C081F0DBEC36F080C0BAF081C0BBF052
:1034D000000E00018F6F010E0001906FB5C091F0DA
:1034E000B6C092F01AEC39F08FC0BDF090C0BEF0BB
:1034F0000001BD510001BE11D8B475D0000E00010D
:10350000BC6FBAC0BCF059D0FFFF0001BC51010D27
:10351000F3500001BD25D96EF4500001BE21DA6ED2
:103520000001B751DE18D8A41ED0900E0001A16F83
:10353000010E0001A26FE70E0001A36F7F0E0001D4
:10354000A46F900E0001A56F010E0001A66F000E82
:103550000001A86F000EA76F25EC36F0900E000159
:10356000B56F010E45D0FFFF900E0001A16F010E57
:103570000001A26FE70E0001A36F7F0E0001A46F90
:10358000900E0001A56F010E0001A66F0001BC5155
:10359000010DF3500001BD25D96EF4500001BE218C
:1035A000DA6EDF500001B86F0001B8510001A76F5B
:1035B000A86B25EC36F00001BC2BFFFFBDC080F0EE
:1035C000BEC081F0DBEC36F00001BC510001B86FE9
:1035D000B96B000180510001B85D0001815100010B
:1035E000B959D8A091D7FFFF000E0001B56F000EAA
:1035F000FFFF0001B66F1200FFFFFFFF000E00018A
:10360000956F000E0001946F0C0ED4EC1FF00001BA
:10361000946F140E00019419D8B41BD0000E000151
:10362000956FFFFF630E0001956501D00BD0FFFF82
:10363000000E00018C6F00019551CFEC34F00001B9
:10364000952BEFD7FFFF140E00018C6F0C0ECFEC03
:1036500034F0FFFF000ED4EC1FF00001E36F010E09
:10366000D4EC1FF00001E26F020ED4EC1FF0000159
:10367000E16F080EADEC34F08EC04BF08FC04CF013
:10368000040ED4EC1FF00001E46F060ED4EC1FF022
:103690000001E96F070ED4EC1FF00001E66F0A0E7F
:1036A000D4EC1FF00001E86F0B0ED4EC1FF000010A
:1036B000E76F0D0ED4EC1FF00001E56F0F0ED4EC98
:1036C0001FF00001F06F000E0001956FFFFF0A0E62
:1036D0000001956501D013D0FFFF00019551010D48
:1036E000B00EF324D96E010EF420DA6E000195516C
:1036F000140FD4EC1FF0DF6E0001952BE7D7FFFF0E
:10370000000E0001956FFFFF0A0E0001956501D0C4
:1037100013D0FFFF00019551010DA40EF324D96EC3
:10372000010EF420DA6E00019551280FD4EC1FF041
:10373000DF6E0001952BE7D7FFFF1200FFFFFFFFB1
:103740001CEC32F0000E00018B6FD00E8A6F35EC4E
:1037500032F0000E00018B6F000E8A6F35EC32F0F4
:1037600028EC32F0000E00018B6FD10E8A6F35EC21
:1037700032F0000120EE01F08C51D9268D51DA2271
:10378000000E0001826F010E816FEEEC33F000013C
:1037900081517DEC32F0DF6E000120EE02F08C51A1
:1037A000D9268D51DA22000E0001826F010E816F41
:1037B000EEEC33F0000181517DEC32F0DF6E000160
:1037C00020EE03F08C51D9268D51DA22000E000133
:1037D000826F010E816FEEEC33F0000181517DECC0
:1037E00032F0DF6E000E0001826F010E816FEEEC91
:1037F00033F0000181517DEC32F08CC0D9FF8DC0D7
:10380000DAFFDF6E000120EE04F08C51D9268D51D5
:10381000DA22000E0001826F010E816FEEEC33F0B0
:10382000000181517DEC32F0DF6E000120EE05F0E9
:103830008C51D9268D51DA22000E0001826F010EC3
:10384000816FEEEC33F0000181517DEC32F0DF6EE0
:10385000000120EE06F08C51D9268D51DA22000E9F
:103860000001826F000E816FEEEC33F00001815198
:103870007DEC32F0DF6E22EC32F01200FFFFFFFF32
:103880001CEC32F0000E00018B6FD00E8A6F35EC0D
:1038900032F0000E00018B6F000E8A6F35EC32F0B3
:1038A000000120EE01F08C51D9268D51DA22DF5033
:1038B000D5EC35F000018E6F00018E5100018A6F4A
:1038C0008B6B35EC32F0000120EE02F08C51D926E2
:1038D0008D51DA22DF50D5EC35F000018E6F0001FA
:1038E0008E5100018A6F8B6B35EC32F0000120EEB7
:1038F00003F08C51D9268D51DA22DF50D5EC35F00A
:1039000000018E6F00018E5100018A6F8B6B35ECC8
:1039100032F08CC0D9FF8DC0DAFFDF50D5EC35F026
:1039200000018E6F00018E5100018A6F8B6B35ECA8
:1039300032F0000120EE04F08C51D9268D51DA22AC
:10394000DF50D5EC35F000018E6F00018E51000183
:103950008A6F8B6B35EC32F0000120EE05F08C5154
:10396000D9268D51DA22DF50D5EC35F000018E6F6B
:1039700000018E5100018A6F8B6B35EC32F0000133
:1039800020EE06F08C51D9268D51DA22DF50D5EC8D
:1039900035F000018E6F00018E5100018A6F8B6B34
:1039A00035EC32F022EC32F01200FFFFFFFF0AECA0
:1039B00032F0000E036ED00E026E2EEC32F0000ECE
:1039C000036E000E026E2EEC32F016EC32F0000E9A
:1039D000036ED10E026E2EEC32F020EE01F0065096
:1039E000D9260750DA22000E036E010E026E24EC77
:1039F00033F0025057EC32F0DF6E20EE02F006504A
:103A0000D9260750DA22000E036E010E026E24EC56
:103A100033F0025057EC32F0DF6E20EE03F0065028
:103A2000D9260750DA22000E036E010E026E24EC36
:103A300033F0025057EC32F0DF6E000E036E010ED1
:103A4000026E24EC33F0025057EC32F006C0D9FF7E
:103A500007C0DAFFDF6E20EE04F00650D9260750CB
:103A6000DA22000E036E010E026E24EC33F00250D7
:103A700057EC32F0DF6E20EE05F00650D9260750E5
:103A8000DA22000E036E010E026E24EC33F00250B7
:103A900057EC32F0DF6E20EE06F00650D9260750C4
:103AA000DA22000E036E000E026E24EC33F0025098
:103AB00057EC32F0DF6E10EC32F01200FFFFFFFF28
:103AC00004D0FFFF0001BF4BC02BFFFFBFC0D9FFD9
:103AD000C0C0DAFF200EDE18D8B4F3D7BFC0D9FFBC
:103AE000C0C0DAFF090EDE18D8B4EBD7000E000113
:103AF000C56F000EC46F000E0001C36FBFC0D9FFB9
:103B0000C0C0DAFF2D0EDE18D8A403D00001C32BED
:103B100030D0FFFFBFC0D9FFC0C0DAFF2B0EDE18C8
:103B2000D8A42BD026D0FFFFC4C080F0C5C081F040
:103B3000000E0001836F0A0E826F78EC33F0BFC075
:103B4000D9FFC0C0DAFFDF500001C16FC26B0001B6
:103B500080510001C127000181510001C223D00E14
:103B60000001C1250001C46FFF0E0001C221000148
:103B7000C56FFFFF0001BF4BC02BFFFFBFC0D9FFC8
:103B8000C0C0DAFFDF50DAEC32F0D8B0CCD7000199
:103B9000C3510001D8B40ED0C4C0C1F0C5C0C2F03A
:103BA0000001C11FC21FC14BC22BC1C0BFF0C2C0A8
:103BB000C0F005D0FFFFC4C0BFF0C5C0C0F0FFFF1C
:103BC0001200FFFFFFFF0001836F00018305D8A4EF
:103BD0001DD00001F151D8A419D00001EF516B188C
:103BE000D8B414D0EFC06BF0672A682A80BA0ED020
:103BF000020E0001816FBC0E806F5BEC33F0010E92
:103C00000001F16F000E686E000E446EFFFF0001B0
:103C1000F151D8A416D00001FB05D8A412D0010E92
:103C2000436E080E686002D0010E05D0FFFF100E33
:103C3000686004D0000EFFFF446E03D0FFFF000E4B
:103C4000686EFFFF67500001E65DD8B00CD0000E33
:103C5000676E000E0001FB6F000E0001F16F000E99
:103C6000436E000E446EFFFF000183510001D8A493
:103C70000BD0000E0001F16F000E446E000E436E7B
:103C8000000E686E000E676EFFFF0001FB51D8A4A6
:103C900006D0000E436E000E446E000E686EFFFFED
:103CA0000001F151D8B40BD080BA05D0000E446E9B
:103CB000000E676E04D0FFFF000E0001F16FFFFFE2
:103CC0001200FFFFFFFFF70EF66E7A0EF76E20EE82
:103CD00087F02F0E0900FFFFF5CFDEFFE806FAE2BE
:103CE000040EC4EC32F0000EC4EC32F0320EFFFFD2
:103CF000E82EFDD7000E0001BB6F000E0001BA6F69
:103D0000000E0001B96F000E0001BB6FFFFF040E33
:103D10000001BB6501D04FD0FFFF0001B905D8A459
:103D200003D0000E0001BB6FFFFF000E0001BA6F51
:103D3000FFFF070E0001BA6501D037D0FFFF000179
:103D4000B9510001D8A406D0000E0001B86F000ED2
:103D5000B76F23D0FFFF0001BB51080D870E000194
:103D6000846F000E0001856FF35000018427F4502A
:103D7000000185230001BA51010DF3500001842593
:103D8000D96EF45000018521DA6EDF500001866F94
:103D9000000186510001B76FB86BFFFF0001B751FA
:103DA0003BEC35F00001BA2BC3D7FFFF0001B92B64
:103DB0000001BB2BABD7FFFF1200FFFFFFFF0EC0C0
:103DC00012F0136A146A0D34123601E31380125094
:103DD000156E1550D8B40DD011C012F0136A146AC4
:103DE0001034123601E3138012501A6E1A50D8A400
:103DF00008D0FFFF000E0C6E000E0D6E000E0E6E52
:103E000056D0FFFF1A507B0F15260EC01AF0115026
:103E10001A1A800E1A160D8E108EFF0E0F16FF0E38
:103E20001016000E1116000E166E000E176E000E04
:103E3000186E070E196EFFFF0CA006D00F50162645
:103E40001050172211501822FFFFD8900E320D3259
:103E50000C32D8900F3610361136192EECD7090EC9
:103E6000196EFFFF0CA006D00F5016261050172217
:103E700011501822FFFFD8900E320D320C32D8901C
:103E8000183217321632192EECD716C001F017C0AF
:103E900002F018C003F015C004F01AC005F07BEC66
:103EA0003AF001C00CF002C00DF003C00EF0FFFFAD
:103EB0001200FFFFFFFF0001846F64D0FFFF0001CD
:103EC00083517F0F0001876F000187390F0B0001BD
:103ED000856F000187510F0B0001866F000185512E
:103EE000C4EC32F000018651C4EC32F05AD0FFFF2E
:103EF00000018351BF0F0001876F000187390F0B4D
:103F00000001856F000187510F0B0001866F0001D2
:103F10008551C4EC32F000018651C4EC32F041D03E
:103F2000FFFF00018351940F0001876F0001873963
:103F30000F0B0001856F000187510F0B0001866F89
:103F400000018551C4EC32F000018651C4EC32F01E
:103F500028D0FFFF00018351D40F0001876F0001BB
:103F600087390F0B0001856F000187510F0B00018E
:103F7000866F00018551C4EC32F000018651C4EC1B
:103F800032F00FD0FFFF00018451010AD8B496D758
:103F9000030AD8B4ACD7010AD8B4C2D7070AD8B438
:103FA000D8D7FFFF1200FFFFFFFF00018C6F1CEC52
:103FB00032F0000E00018B6FA00E8A6F35EC32F0EC
:103FC0008CC08AF000018B6B35EC32F028EC32F0BB
:103FD000000E00018B6FA10E8A6F35EC32F0000EDF
:103FE0000001826F000E816FEEEC33F00001815111
:103FF00000018D6F22EC32F000018D511200FFFFA5
:10640700202020200162003C0101010520FFFF62DE
:10641700EC32F0C5801200FFFFFFFF62EC32F0C5DF
:10642700841200FFFFFFFF62EC32F0C5821200FF0B
:10643700FFFFFF6FEC32F0C5801200FFFFFFFF6F19
:10644700EC32F0C5841200FFFFFFFF6FEC32F0C59E
:10645700821200FFFFFFFF62EC32F002C0C9FF1299
:1064670000FFFFFFFF6FEC32F08AC0C9FF1200FF89
:10647700FFFFFFFFFFACA2FDD780C0ADFF1200FFFB
:10648700FFFFFF000EC4EC32F0010EC4EC32F01235
:1064970000FFFFFFFF0001806FFFFFACA2FDD78069
:1064A700C0ADFF1200FFFFFFFF016E01380F0B0F9A
:1064B7000B0A0D01500F0BF3241200FFFFFFFFFF24
:1064C700FFC7B4FDD7C5CF01F01F0E0116D8B41210
:1064D70000FFFFF5D7FFFFFFFFFFFFC7B4FDD7C5DD
:1064E700CF80F01F0E00018017D8B41200FFFFF411
:1064F700D7FFFFFFFF0001806F000180390F0B0FEF
:106507000B0A0D000180510F0BF3241200FFFFFF50
:10651700FF086E06C004F00850B2EC33F0075006CF
:106527006E076A06C004F00828B2EC33F01200FFC9
:10653700FFFFFF09C001F00AC002F0036A8E0E04D4
:106547006E000E056E7BEC3AF001C009F002C00A3E
:10655700F003C00BF01200FFFFFFFFC284190EFF0C
:10656700FFE82EFDD7FFFFC2A4FDD7C450046E037A
:106577006AC3500324016E000E0420026E1200FF4E
:10658700FFFFFF0001826F83920001825116EC35F5
:10659700F083801E0E0001816F3C0EFFFFE82EFD89
:1065A700D7812FFBD700F083901200FFFFFFFF007A
:1065B70001826F000E0001816F3A0E0001826107B0
:1065C700D02F0E0001826503D0010E0001816FFFFD
:1065D700FF81C080F0000180311200FFFFFFFF0B39
:1065E700D0FFFF020E036EF20EFFFFE82EFDD7036A
:1065F7002EFBD700D00400FFFF0106D8A00206013A
:1066070028EFE10228D8B41200FFFFEAD7FFFFFF07
:10661700FF0AEC32F0000E036ED00E026E2EEC3243
:10662700F0000E036E070E026E2EEC32F0000E0322
:106637006E000E026E2EEC32F010EC32F01200FFFC
:10664700FFFFFF62EC32F0C58662EC32F0C9CF047F
:10665700F0056A62EC32F002500310D8A402D0C5EC
:106667008A02D0FFFFC59AFFFFC58804C002F00564
:10667700C003F01200FFFFFFFF1CEC32F0000E001A
:10668700018B6FD00E8A6F35EC32F0000E00018B54
:106697006F070E8A6F35EC32F0000E00018B6F002A
:1066A7000E8A6F35EC32F022EC32F01200FFFFFF5A
:1066B700FF0CD0FFFF020E0001826FF20EFFFFE812
:1066C7002EFDD7822FFBD700F00400FFFF000180CB
:1066D70007D8A0810700018029ECE100018129D8B2
:1066E700B41200FFFFE6D7FFFFFFFF000180510054
:1066F700018203F3CF84F0F4CF85F00001805100CD
:10670700018303F3500001852700018151000182B5
:1067170003F3500001852784C080F085C081F01203
:1067270000FFFFFFFF000E0001F36F000E6E6E010A
:106737000E0001FB6F010E0001FD6F010E0001FC51
:106747006F000E676E000E0001F66F000E686E0098
:106757000E0001F46F2BEC34F01200FFFFFFFF0572
:106767006E0AEC32F0000E036EA00E026E2EEC32B3
:10677700F005C002F0036A2EEC32F004C002F00309
:106787006A2EEC32F010EC32F0000E026E0F0E01A2
:106797006EF2EC32F01200FFFFFFFF000E626E0098
:1067A7000E0001806F010E0001816F000E00018352
:1067B7006F000E826F000E0001856F3C0E846F0C18
:1067C700EC34F0000E0001816F960E806F5BEC33A6
:1067D700F01200FFFFFFFF6FEC32F0C5866FEC325F
:1067E700F0C9CF83F00001846B6FEC32F0000181B8
:1067F7005100018211D8A402D0C58A02D0FFFFC57B
:106807009AFFFFC58883C081F084C082F01200FF21
:10681700FFFFFF80C086F081C087F00AD0FFFF86A8
:10682700C0D9FF87C0DAFF82C0DFFF0001864B8730
:106837002BFFFF00018407D8A0850700018429EEFC
:10684700E100018529D8B41200FFFFE8D7FFFFFF59
:10685700FF000E0001806F000E0001806FFFFF0731
:106867000E0001806501D00FD0FFFF0001805101AC
:106877000D400EF324D96E000EF420DA6E000EDF01
:106887006E0001802BEBD7FFFF1200FFFFFFFF3CDD
:106897000E0001A16F010E0001A26FA10E0001A35E
:1068A7006F7C0E0001A46F25EC36F00001D9510072
:1068B70001DA11D8A408D0000E0001F26F030E6EA2
:1068C7006E000E0001DF6FFFFF1200FFFFFFFF00EA
:1068D7000E00018F6F010E0001906F93C091F0942D
:1068E700C092F01AEC39F000018F5100019011D8D5
:1068F700B409D0000E0001816F960E806F5BEC33F8
:10690700F0010E02D0FFFF000EFFFF1200FFFFFF96
:10691700FF000E0001866F000E0001866FFFFF1358
:106927000E0001866501D012D0FFFF0001865101DC
:106937000DF35000018425D96EF45000018521DA4A
:106947006EDF503BEC35F00001862BE8D7FFFF12D6
:1069570000FFFFFFFF0001936F00019329D4EC1F95
:10696700F00001906F000190510001916F926B0050
:10697700019151926F916B00019351D4EC1FF0007C
:1069870001906F000190510001911391C08EF09218
:10699700C08FF01200FFFFFFFF00018D6F1CEC326C
:1069A700F0000E00018B6FA00E8A6F35EC32F08D70
:1069B700C08AF000018B6B35EC32F08CC08AF00096
:1069C700018B6B35EC32F022EC32F0000E000181C6
:1069D7006F0F0E806F5BEC33F01200FFFFFFFFFFBE
:1069E700FF80C0D9FF81C0DAFF00018251DE18D8CD
:1069F700A405D080C080F081C081F011D0FFFF8056
:106A0700C0D9FF81C0DAFF0001804B812BDF50D84E
:106A1700A4E6D7000E0001806F000E0001816FFF12
:106A2700FF1200FFFFFFFF0001806F000180A1023E
:106A3700D0838402D0FFFF8394FFFF000180A3026D
:106A4700D0838602D0FFFF8396FFFF000180A50257
:106A5700D0838802D0FFFF8398FFFF000180A70241
:106A6700D0838A02D0FFFF839AFFFF1200FFFFFF48
:106A7700FF0001836F000183510F0B0001816F003D
:106A8700018351F00B0001826F8382000182390F6D
:106A97000B16EC35F083804B0EFFFFE82EFDD783F6
:106AA700900001815116EC35F083804B0EFFFFE813
:106AB7002EFDD783901200FFFFFFFF000E0001B7E6
:106AC7006F000E0001B86F9A0E0001B96F640E00D7
:106AD70001BA6FA30E0001B56F000E0001B66FB7C4
:106AE7000E00018C6F000E00018D6FA1C08EF0A209
:106AF700C08FF0B50E0001906F000E0001916F82FC
:106B0700EC00F01200FFFFFFFF0001DB51D8B41FBC
:106B1700D0000E0001846F0001820782C084F0104C
:106B2700D0FFFF00018451010DF35000018025D9EA
:106B37006EF45000018121DA6E200EDF6E000184B1
:106B47002BFFFF000183510001845DD8A0E9D7FF27
:106B5700FF1200FFFFFFFF1F0E736402D0000E73CA
:106B67006EFFFF170E726402D0000E726EFFFF3BBE
:106B77000E716402D0000E716EFFFF0C0E7464027A
:106B8700D0000E746EFFFF3B0E706402D0000E70D3
:106B97006EFFFF630E756402D0000E756EFFFF1265
:106BA70000FFFFFFFF0001886F88C080F0000181B0
:106BB7006B000E0001836F0A0E826F42EC3BF00000
:106BC700018039F00B0001896F88C080F0000181D6
:106BD7006B000E0001836F0A0E826F20EC3AF00003
:106BE700018051000189110001896F00018951124B
:106BF70000FFFFFFFF0001E9510001E85DD8A01E7B
:106C0700D00001F005D8A41AD00001F251D8A4167B
:106C1700D00001E7510001ED19D8A410D0000E00F3
:106C270001E86FE8C08CF00A0ECFEC34F0000E6D6F
:106C37006E010E0001F26F1C0E0001DF6FFFFF12E5
:106C470000FFFFFFFFA1C0B1F0A2C0B2F0000E002D
:106C570001B36F000E0001B46FA50E0001AF6F0006
:106C67000E0001B06FB10E00018C6F000E00018D98
:106C77006FA3C08EF0A4C08FF0AF0E0001906F001D
:106C87000E0001916F82EC00F0B1C0D9FFB2C0DAFB
:106C9700FF000EDF6E1200FFFFFFFF810EC26ECEF8
:106CA7000EC16E92808090810ED56EE40EF26E95C5
:106CB7009A95989596959495929590949C948EAC68
:106CC7008AAC84AC98AB8EAB88190EAF6EF28EF29D
:106CD7008C9E9A9D8AF2969284928A94809384934A
:106CE700869388938A9690969296941200FFFFFF58
:106CF700FF000E0001816F8492000E0001816FFF7B
:106D0700FF070E0001816501D01BD0FFFF849000B3
:106D1700018151010D400EF324D96E000EF420DAE3
:106D27006EDF500001806F0001804780478450006C
:106D3700018019FB0B8019846E84800001812BDF91
:106D4700D7FFFF84821200FFFFFFFF280EC66E00E9
:106D57000EC56E000E0001806F120E816F7A0E82D3
:106D67006F000E836F8DC091F08EC092F08FC0932D
:106D7700F090C094F0020EFFFFD890000191379277
:106D87003793379437E82EF7D791C084F092C085B0
:106D9700F093C086F094C087F0DDEC3AF0000180F4
:106DA70005C86E000EC76E948694881200FFFFFF19
:106DB700FF80C084F081C085F004D0FFFF0001840C
:106DC7004B852BFFFF84C0F6FF85C0F7FFF86A05E8
:106DD7000EF76404D00800FFFFF55005D0F6CFE9A1
:106DE700FFF7CFEAFFEF500009D8A4E7D780C082AA
:106DF700F081C083F00001821F831F824B832B0029
:106E0700018451000182250001806F000185510036
:106E17000183210001816F1200FFFFFFFF0001893D
:106E27005100018A11D8B42AD0010E00018B6F07D7
:106E3700D0FFFF0001D89089378A3700018B2BFFDD
:106E4700FF00018AAFF5D7FFFF00018951000187D5
:106E57005D00018A5100018859D8A008D000018936
:106E6700510001875F00018A510001885BFFFF0025
:106E770001D8908A33893300018B2FE5D7FFFF872D
:106E8700C087F088C088F01200FFFF0C0EF66E6412
:106E97000EF76E000EF86E00EEF8F010EE08F0092F
:106EA70000F5CFEEFFE550E150FAE1070EF66E640C
:106EB7000EF76E000EF86E00EE76F010EE05F00994
:106EC70000F5CFEEFFE550E150FAE101EE00F0BC2E
:106ED7000EEE6AE806FDE100EED9F01F0EEE6AE855
:106EE70006FDE100EE40F0360EEE6AE806FDE17BB6
:106EF700907B92000EF86E0001CBEF07F0FFFF00CA
:106F070001806F25D0FFFF6050D8B41ED0000E60FF
:106F17006E09D0FFFF010E2BD0FFFF5C50D8B414D1
:106F2700D0000E5C6EFFFF010E7A6EF3D7FFFF5E97
:106F370050D8B40AD0000E5E6EF5D7FFFF5A50D86E
:106F4700B403D0000E5A6EEED7FFFF000E10D0FF2D
:106F5700FF00018051010AD8B4D5D7030AD8B4E697
:106F6700D7010AD8B4D9D7070AD8B4E7D7EDD7FFDE
:106F7700FF1200FFFFFFFF81B402D0010E616EFF19
:106F8700FF81A407D06150D8B404D0010E606E0011
:106F97000E616EFFFF81B802D0010E5F6EFFFF81A9
:106FA700A807D05F50D8B404D0010E5E6E000E5F04
:106FB7006EFFFF81BA02D0010E5D6EFFFF81AA0747
:106FC700D05D50D8B404D0010E5C6E000E5D6EFF2C
:106FD700FF81B602D0010E5B6EFFFF81A607D05B73
:106FE70050D8B404D0010E5A6E000E5B6EFFFF122C
:106FF70000FFFFFFFF000E0001866F000E856F0088
:1070070001825100018311D8B430D0010E000184F0
:107017006F07D0FFFF0001D89082378337000184C4
:107027002BFFFF000183AFF5D7FFFF0001D8908545
:10703700378637000182510001805D0001835100CE
:10704700018159D8A00AD0000182510001805F0058
:107057000183510001815B00018581FFFF0001D899
:1070670090833382330001842FDFD7FFFF85C080F1
:10707700F086C081F01200FFFFFFFF000E16EC350F
:10708700F03B0E0001836F790EFFFFE82EFDD783DB
:107097002FFBD700D000F0030EC4EC32F01E0E0019
:1070A70001836F3C0EFFFFE82EFDD7832FFBD70030
:1070B700F0030EC4EC32F0270E0001836FFB0EFFC6
:1070C700FFE82EFDD7832FFBD700D000F0030EC4B7
:1070D700EC32F0020EC4EC32F0020EC4EC32F008CF
:1070E7000EC4EC32F0000EC4EC32F00C0EC4EC32DD
:1070F700F0000EC4EC32F0060EC4EC32F01200FFC2
:10710700FFFFFF7B0E0001A16F010E0001A26F932D
:107117000E0001A36F7F0E0001A46F25EC36F06609
:107127000E0001A16F010E0001A26FDD0E0001A389
:107137006F7C0E0001A46F25EC36F0510E0001A103
:107147006F010E0001A26FCF0E0001A36F7D0E002D
:1071570001A46F25EC36F03C0E0001A16F010E0073
:1071670001A26F010E0001A36F7F0E0001A46FDD66
:107177000E0001A56F7E0E0001A66F25EC36F0010B
:107187000E82EC37F00009D8A4DEC0DFF01200FF52
:10719700FFFFFF03AE16D001C007F002C008F003DF
:1071A700C009F0071E081E091E072A000E0822093B
:1071B70022000E0724016E000E0820026E800E09C1
:1071C70020036EFFFF06AE16D004C007F005C00807
:1071D700F006C009F0071E081E091E072A000E0840
:1071E700220922000E0724046E000E0820056E8077
:1071F7000E0920066EFFFF000E011A000E021A800C
:107207000E031A000E041A000E051A800E061A0441
:1072170050015C0550025806500358D8B002D0D828
:107227009002D0FFFFD880FFFF1200FFFFFFFF3B58
:10723700D0FFFF8FC086F090C087F091C088F09292
:10724700C089F091C080F092C081F0DBEC36F0800D
:10725700C08AF081C08BF0C6EC39F000018651007E
:10726700018711D8A405D08FC08FF090C090F0305F
:10727700D0FFFF010E00018F250001806F000E0077
:107287000190210001816F91C0F6FF92C0F7FF08BE
:1072970000FFFFF5500001826F836BF2EC34F08042
:1072A700C08FF081C090F0FFFF00018F5100019067
:1072B70011D8B407D08FC0D9FF90C0DAFFDF50D8FC
:1072C700A4B7D7FFFF000E00018F6F000E000190DB
:1072D7006FFFFF1200FFFFFFFF0001BF6F630E008C
:1072E70001BF6105D0BFC0C0F00001C16B06D0FF70
:1072F700FF000E0001C16F630EC06FFFFF76C0BBBA
:10730700F077C0BCF078C0BDF079C0BEF0C0C080D7
:10731700F0C1C081F0000E0001836F0A0E826F4238
:10732700EC3BF000018051300F0001BB6F2E0E00C7
:1073370001BC6FC0C080F0C1C081F0000E000183A6
:107347006F0A0E826F20EC3AF000018051300F0077
:1073570001BD6F000E0001BE6FB70E0001A16F00E7
:107367000E0001A26FBB0E0001A36F000E0001A467
:107377006F25EC36F0B70E0001B56F000E0001B6B1
:107387006F1200FFFFFFFF44D0FFFF86C0D9FF87C2
:10739700C0DAFFDF50D8B412D086C0D9FF87C0DA71
:1073A700FFDF5000018C6F88C0F6FF89C0F7FF0828
:1073B70000FFFFF55000018C19D8B423D0FFFF88D8
:1073C700C0F6FF89C0F7FF0800FFFFF55000018CEA
:1073D7006F8D6B00018C1F8D1F8C4B8D2B86C0D939
:1073E700FF87C0DAFFDF5000018E6F00018E51006A
:1073F700018C250001866F000E00018D2100018799
:107407006F18D0FFFF0001864B872B0001884B893F
:107417002BFFFF00018A07D8A08B0700018A29B438
:10742700E100018B29D8A4B0D7000E0001876F00B7
:107437000E866FFFFF1200FFFFFFFF000E000185A2
:107447006F000181AF08D00001806D811FD8B08126
:107457002B010E0001856FFFFF000183AF05D000F0
:1074670001826D831FD8B0832BFFFF00018251007B
:10747700018311D8B42AD0010E0001846F07D0FF11
:10748700FF0001D890823783370001842BFFFF006C
:107497000183AFF5D7FFFF000182510001805D0036
:1074A70001835100018159D8A008D0000182510001
:1074B70001805F000183510001815BFFFF0001D85C
:1074C70090833382330001842FE5D7FFFF000185C6
:1074D700510001D8B405D00001806D811FD8B0815B
:1074E7002BFFFF80C080F081C081F01200FFFFFFFB
:1074F700FF0450D8B405D0015002100310D8A40ED1
:10750700D0FFFF000E016E000E026E000E036E4EDE
:10751700D0FFFF042AD890033202320132FFFF0066
:107527000E0114066E000E0214076EFE0E031408F9
:107537006E065007100810D8B40DD0EAD7FFFF0425
:107547002A010E0126000E0222000E0322D8900304
:107557003202320132FFFF000E0114066E000E02E6
:1075670014076EFF0E0314086E065007100810D894
:10757700B407D0E4D7FFFF0406D8900136023603DC
:1075870036FFFF02BE03D0020E0460F4D7FFFF04EC
:10759700A0029ED8900432045003120550D8A403C9
:1075A7008E01C001F002C002F003C003F0FFFF121A
:1075B70000FFFFFFFF000E0001886F000E896F00BC
:1075C7000E8A6F000E8B6F00018451000185110038
:1075D70001861100018711D8B446D0010E00018C35
:1075E7006F09D0FFFF0001D890843785378637872A
:1075F7003700018C2BFFFF000187AFF3D7FFFF0098
:1076070001D890883789378A378B37000184510032
:1076170001805D00018551000181590001865100FB
:107627000182590001875100018359D8A012D00067
:107637000184510001805F000185510001815B00D9
:107647000186510001825B000187510001835B00C5
:10765700018881FFFF0001D8908733863385338403
:107667003300018C2FCBD7FFFF88C080F089C08102
:10767700F08AC082F08BC083F01200FFFFFFFF008B
:107687000E0001856F000183AF08D00001826D8372
:107697001FD8B0832B010E0001856FFFFF0001810A
:1076A700AF08D00001806D811FD8B0812B010E007B
:1076B70001851BFFFF000E0001876F000E866F001C
:1076C70001825100018311D8B430D0010E0001842A
:1076D7006F07D0FFFF0001D89082378337000184FE
:1076E7002BFFFF000183AFF5D7FFFF0001D890867E
:1076F700378737000182510001805D000183510007
:10770700018159D8A00AD0000182510001805F0091
:107717000183510001815B00018681FFFF0001D8D1
:1077270090833382330001842FDFD7FFFF00018569
:10773700510001D8B405D00001866D871FD8B087E6
:107747002BFFFF86C080F087C081F01200FFFFFF8C
:10775700FF0E0ED4EC1FF000018E6F00018E51005A
:10776700018F6F906B0001905105E13C0E00018F76
:107777005DD8A008D00001905105E1FB0E00018FF4
:107787005DD8A006D0FFFF000E0001906F3C0E8F62
:107797006FFFFFECC08CF000018F51CFEC34F0EBA2
:1077A700C08CF000018F4B902B00018F51CFEC3430
:1077B700F0EAC08CF000018F4B902B00018F51CF66
:1077C700EC34F0EDC08CF000018F4B902B00018F53
:1077D70051CFEC34F0EEC08CF000018F4B902B00B2
:1077E700018F51CFEC34F0FDC08CF000018F4B902E
:1077F7002B00018F51CFEC34F0FCC08CF000018FCF
:107807004B902B00018F51CFEC34F0FBC08CF00074
:10781700018F4B902B00018F51CFEC34F000018F7B
:107827004B902B8FC08CF00E0ECFEC34F01200FF74
:10783700FFFFFF1DC021F0226A236A1C3421360195
:10784700E322802150286E2850D8B40DD020C021C3
:10785700F0226A236A1F34213601E322802150294E
:107867006E2950D8A408D0FFFF000E1B6E000E1C17
:107877006E000E1D6E4DD0FFFF000E256E000E260A
:107887006E000E276E2950890F285E1DC029F02033
:1078970050291A800E29161C8EFF0E1B16FF0E1C70
:1078A70016000E1D161F8EFF0E1E16FF0E1F16004A
:1078B7000E2016180E246EFFFFD890253626362781
:1078C700361E501B5C1F501C5820501D58D8A0074F
:1078D700D01E501B5E1F501C5A20501D5A2580FF7A
:1078E700FFD8901B361C361D36242EE5D725C00140
:1078F700F026C002F027C003F028C004F029C00515
:10790700F07BEC3AF001C01BF002C01CF003C01D75
:10791700F0FFFF1200FFFFFFFF1DC01FF0206A21CD
:107927006A1C341F3601E320801F50296E2950D866
:10793700B439D0170E1F6E1BC020F01CC021F01DDC
:10794700C022F01F28236E05D0FFFFD890223221D6
:10795700322032FFFF232EF8D72050246E1C8EFFD3
:107967000E1B16FF0E1C16000E1D161B50256E1C37
:1079770050266E1D50276E286A8E0E295E29AE0E80
:10798700D02950800A8F0FD8A00DD0FFFFD890289C
:1079970032273226322532293EF8D719D0FFFF1772
:1079A7000E296411D0FFFF000E1B6E000E1C6E0027
:1079B7000E1D6E000E1E6E20D0FFFFD890253626B6
:1079C70036273628362906FFFF2950D8A4F5D7FFD2
:1079D700FF2450D8B408D0281E271E261E256C0069
:1079E7000E262227222822FFFF25C01BF026C01CB7
:1079F700F027C01DF028C01EF0FFFF1200FFFFFF99
:107A0700FF010E0001836F010E5AEC1FF088C0843E
:107A1700F089C085F08BEC34F0010E0001836F0212
:107A27000E5AEC1FF08AC084F08BC085F08BEC34C3
:107A3700F0000E0001836F030E5AEC1FF08CC08418
:107A4700F08DC085F08BEC34F0000E0001836F04DD
:107A57000E5AEC1FF08EC084F08FC085F08BEC348B
:107A6700F0000E0001906F000E0001906FFFFF13F2
:107A77000E0001906501D038D0FFFF000190510141
:107A87000DF35000018825D96EF45000018921DAE1
:107A97006E200EDF6E00019051010DF35000018A38
:107AA70025D96EF45000018B21DA6E200EDF6E00AF
:107AB700019051010DF35000018C25D96EF450004F
:107AC700018D21DA6E200EDF6E00019051010DF35A
:107AD7005000018E25D96EF45000018F21DA6E20F7
:107AE7000EDF6E0001902BC2D7FFFF1200FFFF00D1
:107AF700001F0E040404040400000000001010100E
:107B070000000004041414140001010505151515DF
:107B17000A0A1F11110E04040000000000000000F3
:107B270001000A006400E8031027544543484E4FFC
:107B3700572053697374656D617320656D62617257
:107B47006361646F730D0A0D0A5465737465206D64
:107B5700616E75616C20646520636F6D756E696316
:107B67006163616F2E0D0A446174613A20253032DA
:107B7700642F253032642F2530326420253032645B
:107B87003A253032643A253032640D0A0D0A5665BB
:107B97007273616F20646F2073697374656D613AE6
:107BA7002025730D00544553544520444520424F2A
:107BB7004D424153205245414C495A41444F0D0AC9
:107BC700454D20253032643A253032643A2530322B
:107BD7006420253032642F253032642F25303264FB
:107BE7000D0A4A4F434B45593A2025730D0A505207
:107BF700494E434950414C3A2025730D0A434F4D96
:107C070042555354414F3A2025730D0A00444953B6
:107C17005041524F20414C41524D45204445204947
:107C27004E43454E44494F0D0A454D202530326499
:107C37003A253032643A2530326420253032642FB9
:107C4700253032642F253032640D0A004461746197
:107C57003A20253032642F253032642F25303264A4
:107C670020253032643A25303264002025303264D2
:107C77003A253032643A2530326420253032642F79
:107C870025303264002350726F78696D6F20656DFF
:107C970020253264206469617300446573707265DE
:107CA70073737572697A616E646F2E2E2E00494E5A
:107CB70054455256414C4F3A20253264206469613D
:107CC7007300484F524152494F3A202530326420C1
:107CD700686F7261730053697374656D61732065B2
:107CE7006D6261726361646F7300426F6D626120E0
:107CF7005072696E636970616C2E2E2E00426F6D33
:107D0700626120436F6D62757374616F2E2E2E0052
:107D170023686F72696D6574726F3A253564206DDB
:107D2700696E002A66616C68612076616C2E206C32
:107D3700616472616F00436F6E6669677572616334
:107D4700616F2074656D706F004572726F206E6F82
:107D5700205472616E736475746F7200507265732C
:107D6700732045534320702F20526573657400417B
:107D7700542B434D47533D222B35352573220D0A8E
:107D8700005041525449444120434F4D42555354AA
:107D9700414F00504552494F444F204445205445D8
:107DA70053544553002A66616C74612064652065ED
:107DB7006E657267696100546573746520436F6E01
:107DC700636C7569646F21002020203438203939AD
:107DD7003930362D3536353100456E76696172207A
:107DE700736D7320746573746500656E7669616E73
:107DF700646F20534D532E2E2E00426F6D6261200B
:107E07004C69676164612E2E2E00426F6D6261209E
:107E17004A6F636B65792E2E2E005052455353419E
:107E27004F204441205245444500507265737361A9
:107E37006F2025732042415200253032642F2530B0
:107E470032642F2530326400253032643A253032CF
:107E5700643A25303264005052494E434950414CF0
:107E6700203A20257300434F4D42555354414F202C
:107E77003A20257300416775617264652E2E2E20A6
:107E870025647300496E6963696172205465737470
:107E97006573004D61782E20504152544944413A50
:107EA700005072696E636970616C3A2025730043F4
:107EB7006F6D62757374616F3A2025730020616777
:107EC70075617264652E2E2E200041542B434D4759
:107ED700463D310D0A00417567203331203230317C
