:1000000000F08CEF00F0FFFFFFFF7D82FACF31F0B0
:10001000FBCF32F0E9CF33F0EACF34F0E1CF35F067
:10002000E2CF36F0D9CF37F0DACF38F0F3CF39F06E
:10003000F4CF3AF0F6CF3BF0F7CF3CF0F8CF3DF0FD
:10004000F5CF3EF07DC03FF07EC040F07FC041F074
:1000500080C042F0F2A41AD0F2943C0ED76EB00EDB
:10006000D66E712A050E7118D8B4671EE7EC0FF032
:10007000F5EC3BF0090E716409D0000E716E671E3D
:100080009EEC15F0ABA202D0AB98AB88FFFF9EAA06
:100090001BD0AECF43F00A0E4318D8B40FD00D0ECC
:1000A0004318D8B40BD06650010D000EF324D96E5E
:1000B000010EF420DA6E43C0DFFF662AFFFF3B0E1D
:1000C000666402D0000E666EFFFF42C080F041C041
:1000D0007FF040C07EF03FC07DF03EC0F5FF3DC0E8
:1000E000F8FF3CC0F7FF3BC0F6FF3AC0F4FF39C051
:1000F000F3FF38C0DAFF37C0D9FF36C0E2FF35C0A2
:10010000E1FF34C0EAFF33C0E9FF32C0FBFF31C07A
:10011000FAFF7D921100FFFF82EF3BF0FFFFD7D384
:10012000FFFF250E0001A019D8B437D020EE02F051
:100130008C51D9268D51DA22DE50DE10D8B416D07B
:1001400020EE02F08C51D9268D51DA2201D8BFD38E
:10015000FFFF0500FA6EDE50FD6EDE50FE6EF850B9
:10016000FF6EFA50A0511200FFFFB1D3FFFF8CC009
:10017000D9FF8DC0DAFFDECF92F0DDCF93F092C0D1
:10018000D9FF93C0DAFFA0C0DFFF8CC0D9FF8DC0BC
:10019000DAFFDE2A000EDD229AD3FFFF000E0001F7
:1001A0009F6F000E9E6F000E9B6F05D0FFFF00013A
:1001B0009B858E4B8F2BFFFF8EC0F6FF8FC0F7FF06
:1001C000F86A050EF76404D00800FFFFF55005D06B
:1001D000F6CFE9FFF7CFEAFFEF50300AD8B4E6D701
:1001E0008EC0F6FF8FC0F7FFF86A050EF76404D0E3
:1001F0000800FFFFF55005D0F6CFE9FFF7CFEAFF83
:10020000EF500AEC37F0D8A06BD1000E00019F6FC1
:10021000000E9E6FFFFF9EC080F09FC081F0000E19
:100220000001836F0A0E826F48EC37F080C09EF0A9
:1002300081C09FF0D00E0001926FFF0E936F8EC0B1
:10024000F6FF8FC0F7FFF86A050EF76404D00800C8
:10025000FFFFF55005D0F6CFE9FFF7CFEAFFEF50EB
:100260000001946F956B925194279351952394516B
:100270009E2795519F238E4B8F2B8EC0F6FF8FC0EC
:10028000F7FFF86A050EF76404D00800FFFFF55089
:1002900005D0F6CFE9FFF7CFEAFFEF500AEC37F0D1
:1002A000D8A01ED1B7D7FFFF90C0D9FF91C0DAFF09
:1002B000DFCF92F0020EDE26DFCF93F0000EDD22BC
:1002C00092C0D9FF93C0DAFFDECF9CF0DDCF9DF066
:1002D00000019C519D11D8A404D0A30E9C6F7F0EE9
:1002E0009D6FFFFF000E9A6F000E996F04D0FFFF05
:1002F0000001994B9A2BFFFF99519C25926F9A51BF
:100300009D21936F92C0F6FF93C0F7FFF86A050E28
:10031000F76404D00800FFFFF55005D0F6CFE9FFE1
:10032000F7CFEAFFEF500009D8A4E1D7FFFF0001A3
:100330009E51995D9F519A59D8B005D099519E5FB1
:100340009A519F5B3DD0FFFF000E9F6F000E9E6F86
:1003500037D0FFFF20EE02F08C51D9268D51DA22E2
:10036000DE50DE10D8B416D020EE02F08C51D92623
:100370008D51DA2201D824D0FFFF0500FA6EDE503D
:10038000FD6EDE50FE6EF850FF6EFA50200E120029
:10039000FFFF16D0FFFF8CC0D9FF8DC0DAFFDECF84
:1003A00092F0DDCF93F092C0D9FF93C0DAFF200E18
:1003B000DF6E8CC0D9FF8DC0DAFFDE2A000EDD2291
:1003C000FFFF00019E07D8A09F079E29C3E19F2938
:1003D000D8B45FD0BED7FFFF20EE02F08C51D926F3
:1003E0008D51DA22DE50DE10D8B42AD020EE02F091
:1003F0008C51D9268D51DA2201D81DD0FFFF05007E
:10040000FA6EDE50FD6EDE50FE6EF850FF6EFA5052
:100410009CC0F6FF9DC0F7FFF86A050EF76404D094
:100420000800FFFFF55005D0F6CFE9FFF7CFEAFF50
:10043000EF501200FFFFFFFF00019C4B9D2B29D0C6
:10044000FFFF9CC0F6FF9DC0F7FFF86A8CC0D9FF84
:100450008DC0DAFFDECF92F0DDCF93F092C0D9FFEE
:1004600093C0DAFF050EF76404D00800FFFFF550D3
:1004700005D0F6CFE9FFF7CFEAFFEF50DF6E0001BE
:100480009C4B9D2B8CC0D9FF8DC0DAFFDE2A000E5D
:10049000DD22FFFF9907D8A09A0799299DE19A29A3
:1004A000D8B415D298D7FFFF90C0D9FF91C0DAFF1A
:1004B000DFCF92F0020EDE26DFCF93F0000EDD22BA
:1004C00092C0D9FF93C0DAFFDF50A06FFFFFA00EEC
:1004D0009C6F000E9D6F000E9A6F010E996F26D7CC
:1004E000FFFF00018E51926F8F51936F8E4B8F2BB8
:1004F00092C0F6FF93C0F7FFF86A050EF76404D0C8
:100500000800FFFFF55005D0F6CFE9FFF7CFEAFF6F
:10051000EF500001A06FA051000AD8B4F6D1630AD1
:10052000D8B4C1D7070AD8B407D00D0AD8B404D0BC
:100530001A0AD8B4B8D6CAD7FFFF90C0D9FF91C065
:10054000DAFFDFCF92F0020EDE26DFCF93F0000E4F
:10055000DD2292C0D9FF93C0DAFFDECF97F0DDCF66
:1005600098F0000198AF06D0030E9B13976D981F6B
:10057000D8B0982BFFFF010EA06FFFFF050EA0194A
:10058000D8B414D0A051020DCD0EF324F66E7A0E1D
:10059000F420F76E0900FFFFF550975D0900FFFF9B
:1005A000F5509859D8A002D0A02BE7D7FFFF9E5155
:1005B0009F11D8B409D09BC092F0030E9217D8B403
:1005C00003D09E07D8A09F07FFFF800EA0BF7F0E1D
:1005D000926F9E51A05D9F51800A9259D8B007D06A
:1005E000A0519E5F000EA0BFFF0E9F5B05D0FFFFD6
:1005F000000E9F6F000E9E6FFFFF9BA57FD09BC0DC
:1006000092F0030E9217D8B436D020EE02F08C513F
:10061000D9268D51DA22DE50DE10D8B416D020EE65
:1006200002F08C51D9268D51DA2201D824D0FFFF57
:100630000500FA6EDE50FD6EDE50FE6EF850FF6E65
:10064000FA502D0E1200FFFF16D0FFFF8CC0D9FF0D
:100650008DC0DAFFDECF92F0DDCF93F092C0D9FFEC
:1006600093C0DAFF2D0EDF6E8CC0D9FF8DC0DAFF8C
:10067000DE2A000EDD22FFFF0001FFFF9E519F11C9
:10068000D8B4BED020EE02F08C51D9268D51DA229A
:10069000DE50DE10D8B416D020EE02F08C51D926F0
:1006A0008D51DA2201D824D0FFFF0500FA6EDE500A
:1006B000FD6EDE50FE6EF850FF6EFA50300E1200E6
:1006C000FFFF16D0FFFF8CC0D9FF8DC0DAFFDECF51
:1006D00092F0DDCF93F092C0D9FF93C0DAFF300ED5
:1006E000DF6E8CC0D9FF8DC0DAFFDE2A000EDD225E
:1006F000FFFF00019E07D8A09F07BFD7FFFF9E51B5
:100700009F11D8B440D0FFFF20EE02F08C51D926C3
:100710008D51DA22DE50DE10D8B416D020EE02F071
:100720008C51D9268D51DA2201D824D0FFFF050043
:10073000FA6EDE50FD6EDE50FE6EF850FF6EFA501F
:10074000200E1200FFFF16D0FFFF8CC0D9FF8DC016
:10075000DAFFDECF92F0DDCF93F092C0D9FF93C0E5
:10076000DAFF200EDF6E8CC0D9FF8DC0DAFFDE2AE3
:10077000000EDD22FFFF00019E07D8A09F079E51BB
:100780009F11D8A4C0D7FFFF9BC092F0030E921711
:10079000D8B436D020EE02F08C51D9268D51DA2211
:1007A000DE50DE10D8B416D020EE02F08C51D926DF
:1007B0008D51DA2201D824D0FFFF0500FA6EDE50F9
:1007C000FD6EDE50FE6EF850FF6EFA502D0E1200D8
:1007D000FFFF16D0FFFF8CC0D9FF8DC0DAFFDECF40
:1007E00092F0DDCF93F092C0D9FF93C0DAFF2D0EC7
:1007F000DF6E8CC0D9FF8DC0DAFFDE2A000EDD224D
:10080000FFFFA0C096F05DD0FFFF00019651020DE2
:10081000CD0EF324F66E7A0EF420F76E0900FFFF7A
:10082000F5CF82F00A00FFFFF5CF83F097C080F08C
:1008300098C081F0E7EC3AF080C087F081C088F082
:10084000000E00018A6F0A0E896F38EC3AF0000141
:100850008751300FA06F20EE02F08C51D9268D51B8
:10086000DA22DE50DE10D8B416D020EE02F08C5121
:10087000D9268D51DA2201D824D0FFFF0500FA6E67
:10088000DE50FD6EDE50FE6EF850FF6EFA50A05145
:100890001200FFFF16D0FFFF8CC0D9FF8DC0DAFF1A
:1008A000DECF92F0DDCF93F092C0D9FF93C0DAFF94
:1008B000A0C0DFFF8CC0D9FF8DC0DAFFDE2A000E9A
:1008C000DD22FFFF000196079629D8A49DD7FFFFE0
:1008D00000018E51926F8F51936F8E4B8F2B92C070
:1008E000F6FF93C0F7FFF86A050EF76404D008001E
:1008F000FFFFF55005D0F6CFE9FFF7CFEAFFEF5045
:100900000001A06FA051D8A40BD4FFFF000E00017E
:100910008D6F000E8C6F1200FFFFFFFF010E4AEC7F
:100920003BF00009D8B433D0000E0001F16F000E87
:10093000F46F000E726E060E61EC3AF00001D76F94
:10094000D751D8A405D0000ED06F010ECF6F04D0C0
:10095000FFFFD7C0CFF0D06BFFFFCFC0E8F0DDC006
:10096000DEF0000ED86F000ED86FFFFF070ED865BF
:1009700001D00DD0FFFFD851010D440EF324D96EE4
:10098000000EF420DA6E000EDF6ED82BEED7FFFFDC
:100990000A0E7260EED17E0E0001A16F010EA26FF1
:1009A000760EA36F7E0EA46FD9C0A5F0DAC0A6F0B4
:1009B000C9EC39F00001F85104EC3DF0B5C0CDF0C0
:1009C000B6C0CEF0680E0001A16F010EA26F2B0E13
:1009D000A36F7E0EA46FCDC0A5F0CEC0A6F0C9EC6B
:1009E00039F0C7D1FFFF000E0001E76FE7C08CF0C0
:1009F0000A0EA6EC39F0010E466E000E0001DA6F09
:100A00001E0ED96F010E12D1FFFF90EC37F0F60EDB
:100A10000001C86FFF0EC96FE351CA6FCB6BC8519D
:100A2000CA27C951CB23F851CA5DCB51800ACC6F7C
:100A3000F951800ACC59D8A0C6D1000E466E010EDD
:100A40004A6E020E4CD0FFFF3C0E0001A16F010E5A
:100A5000A26F0B0EA36F7E0EA46FC9EC39F00001DC
:100A6000E351C86FC96BC851F85DF951800ACA6F6C
:100A7000C951800ACA59D8A006D0000E4A6E010E8C
:100A8000FD6F030E726EFFFFD951DA11D8A49BD10E
:100A9000000EFD6F030E51D0FFFF010E466E040ED7
:100AA000C5D0FFFF90EC37F0F60E0001C86FFF0EC7
:100AB000C96FE351CA6FCB6BC851CA27C951CB2349
:100AC000F851CA5DCB51800ACC6FF951800ACC59DC
:100AD000D8A079D1010E496E000E466E050EFFFFBB
:100AE000726E000EDA6F320E2DD0FFFF3C0E000149
:100AF000A16F010EA26F000EA36F7D0EA46FC9EC53
:100B000039F00001E351C86FC96BC851F85DF95164
:100B1000800ACA6FC951800ACA59D8A006D0000EEF
:100B2000496E010EFC6F060E726EFFFFD951DA118D
:100B3000D8A449D1000EFC6F060EFFFF726E000EA6
:100B4000DA6F1E0EFFFFD96F3ED1FFFF010E466E1A
:100B5000070E6CD0FFFF90EC37F0F60E0001C86F67
:100B6000FF0EC96FE351CA6FCB6BC851CA27C95179
:100B7000CB23F851CA5DCB51800ACC6FF951800A62
:100B8000CC59D8A020D1000E466E080E726EE5C07A
:100B9000D9F0DA6B18D1FFFF3C0E0001A16F010EF6
:100BA000A26F130EA36F7D0EA46FC9EC39F0010E76
:100BB0004BEC1CF00001F051D8A40DD0E351C86FEC
:100BC000C96BC851F85DF951800ACA6FC951800AD2
:100BD000CA59D8A008D0FFFF010EFB6FE4C0D9F0BE
:100BE000DA6B090E726EFFFFFB51D8B404D0D951F5
:100BF000DA11D8A4E8D0FFFF0A0E726E000EFB6F68
:100C0000E2D0FFFF3C0E0001A16F010EA26FFB0EB0
:100C1000A36F7D0EA46FC9EC39F0010E4BEC1CF0F4
:100C20000001D951DA11D8A4CED00A0EFFFF726E9E
:100C3000CAD0FFFFEBEC1DF0020E4BEC1CF0FBECFE
:100C400037F00B0E726E000E0001DA6F0A0ED96FCC
:100C5000000EF16FB8D0FFFF7D0E0001A16F010EF5
:100C6000A26FA70EA36F7D0EA46FC9EC39F000012F
:100C7000FD05D8B404D0E30ED16F7F0E04D0FFFF82
:100C8000FA0ED16F7F0EFFFFD26F660EA16F010EBD
:100C9000A26F410EA36F7F0EA46FD1C0A5F0D2C08A
:100CA000A6F0C9EC39F00001FC05D8B404D0E30E7D
:100CB000D36F7F0E04D0FFFFFA0ED36F7F0EFFFFBE
:100CC000D46F510EA16F010EA26F580EA36F7E0E4E
:100CD000A46FD3C0A5F0D4C0A6F0C9EC39F00001D0
:100CE000FB05D8B404D0E30ED56F7F0E04D0FFFF10
:100CF000FA0ED56F7F0EFFFFD66F3C0EA16F010E6F
:100D0000A26F670EA36F7E0EA46FD5C0A5F0D6C0EC
:100D1000A6F0C9EC39F00001D951DA11D8A453D0AA
:100D20000C0E726E000EDA6F960ED96F010E17D090
:100D3000FFFF3E0E0001A16F010EA26FEB0EA36F2D
:100D40007D0EA46FC9EC39F0020EDDEC0AF0000153
:100D5000D951DA11D8A437D0000EDE6F000EFFFF94
:100D6000F46F31D0FFFF000E726E000E0001DE6FD7
:100D70002AD0FFFF7250000AD8B434D6010AD8B482
:100D800043D6030AD8B45FD6010AD8B485D6070A79
:100D9000D8B487D6010AD8B4A8D6030AD8B4D5D611
:100DA000010AD8B4D7D60F0AD8B4F5D6010AD8B4F8
:100DB00028D7030AD8B43DD7010AD8B44CD7070ABC
:100DC000D8B4B6D7CFD7FFFF1200FFFFFFFF8CECE0
:100DD0003AF0A00E00018D6F860E8E6F010E8F6FA0
:100DE000000E906F18EC3BF0000E0001816FC80EF2
:100DF000806FC5EC37F016EC38F0000E0001816F03
:100E0000640E806FC5EC37F0760E00018C6F000E1B
:100E10008D6F14EC17F077EC3CF08DEC36F026EC8F
:100E20001DF0000E0001816F640E806FC5EC37F07D
:100E3000AEEC17F07B0E0001A16F010EA26F9B0EAE
:100E4000A36F7F0EA46FC9EC39F0660E0001A16F8D
:100E5000010EA26FD80EA36F7C0EA46FC9EC39F0FF
:100E6000510E0001A16F010EA26F940EA36F7E0EB2
:100E7000A46FC9EC39F0450E0001A16F010EA26FFD
:100E8000120EA36F7F0EA46FE50EA56F7E0EA66FE8
:100E9000C9EC39F07B0E0001886F010E896F660E78
:100EA0008A6F010E8B6F510E8C6F010E8D6F3C0E91
:100EB0008E6F010E8F6FBDEC1CF0090E0001816F6B
:100EC000C40E806FC5EC37F0FFFF04000001F15144
:100ED000D8A404D07350D8B441EC18F0FFFF63ECF1
:100EE00039F0EDEC39F0CBEC14F085D0FFFF01ECDC
:100EF00011F0A6D0FFFF7C0E0001A16F010EA26FC2
:100F0000570EA36F7F0EA46FC9EC39F0670E000176
:100F1000A16F010EA26F1B0EA36F7E0EA46FC9EC12
:100F200039F0520E0001A16F010EA26F710EA36F76
:100F30007D0EA46FC9EC39F03D0E0001A16F010ECA
:100F4000A26F6B0EA36F7F0EA46FC9EC39F078D03F
:100F5000FFFF7C0E0001A16F010EA26F830EA36F35
:100F60007D0EA46FC9EC39F0670E0001A16F010E70
:100F7000A26F610EA36F7F0EA46FC9EC39F0520E01
:100F80000001A16F010EA26FFD0EA36F7E0EA46F74
:100F9000C9EC39F03D0E0001A16F010EA26F850E64
:100FA000A36F7E0EA46FC9EC39F04AD0FFFFCCECE2
:100FB0000EF046D0FFFF83EC0CF042D0FFFF5DEC5B
:100FC00016F03ED0FFFF1AEC09F03AD0FFFFFBEC21
:100FD00012F036D0FFFFB0EC0DF032D0FFFFBBECCB
:100FE0003BF02ED0FFFF8DEC04F02AD0FFFF000E67
:100FF0000001DE6F25D0FFFF0001DE51000AD8B4EA
:1010000075D7010AD8B476D7030AD8B4A1D7160A7F
:10101000D8B4CCD7010AD8B4CDD7030AD8B4CED728
:10102000010AD8B4CFD70F0AD8B4D0D7010AD8B4A0
:10103000D1D7020AD8B4D2D7070AD8B4D3D7D6D7D3
:10104000FFFF0001DE05D8B49CD0020EDE19D8B433
:1010500098D0D2D0FFFF010EDE6F3E0E01017B6FF4
:10106000040E4AEC3BF00009D8B4A6D0DEC0DDF097
:10107000140E65D0FFFF010EDE6F3E0E0101666F9C
:10108000040E4AEC3BF00009D8B496D0DEC0DDF087
:10109000150E55D0FFFF010EDE6F3E0E0101516FA0
:1010A000040E4AEC3BF00009D8B486D0DEC0DDF077
:1010B000160E45D0FFFF010EDE6F3E0E01013C6FA4
:1010C000040E4AEC3BF00009D8B476D0DEC0DDF067
:1010D000170E35D0FFFF020EDE6F3E0E01017B6F53
:1010E000040E4AEC3BF00009D8B466D0DEC0DDF057
:1010F000180E25D0FFFF3E0E0101666F020E0001A3
:10110000DE6F040E4AEC3BF00009D8B455D0DEC0C7
:10111000DDF0190E0001DE6F010E556E4DD0FFFFA0
:101120003E0E0101516F020E0001DE6F040E4AEC0B
:101130003BF00009D8B440D0DEC0DDF01B0EFFFF4D
:1011400000011CD0FFFF3E0E01013C6F020E0001AA
:10115000DE6F040E4AEC3BF00009D8B42DD000013C
:10116000F251D8A429D01C0EDE6F010EF16F000ED3
:10117000726E22D0FFFF010E6A6E010EFFFFDE6F5E
:101180001BD0FFFF6A50010AD8B464D7030AD8B451
:1011900071D7010AD8B47ED7070AD8B48BD7010A11
:1011A000D8B498D7030AD8B4A5D7010AD8B4B7D70A
:1011B0000F0AD8B4C7D7DED7FFFF030E4AEC3BF0C7
:1011C0000009D8B402D06A0617D0FFFF020E4AEC1D
:1011D0003BF00009D8B402D06A2A0ED0FFFF010EFE
:1011E0004AEC3BF00009D8B407D0000E0001DE6FD6
:1011F000000EDF6F010E6A6EFFFF1C0E0001DE198C
:10120000D8B404D0000EF16F000E466EFFFF7B0EC7
:10121000886F010E896F660E8A6F010E8B6F510EFB
:101220008C6F010E8D6F3C0E8E6F010E8F6FBDECBB
:101230001CF04AD6FFFF7C0E0001A16F010EA26FC9
:10124000B80EA36F7F0EA46FB00EA56F010EA66F30
:10125000C9EC39F0670E0001A16F010EA26FBF0E3D
:10126000A36F7F0EA46FA40EA56F010EA66FC9EC2D
:1012700039F00001F451D8A404D0DA0EC16F7D0E0C
:1012800004D0FFFFCC0EC16F7E0EFFFFC26F520E67
:10129000A16F010EA26F120EA36F7F0EA46FC1C0CB
:1012A000A5F0C2C0A6F0C9EC39F00001DB51D8A40A
:1012B00050D0030E4AEC3BF00009D8B403D0000133
:1012C000DF0747D0FFFF020E4AEC3BF00009D8B41D
:1012D00003D00001DF2B3DD0FFFF010E4AEC3BF0B5
:1012E0000009D8B436D0000E0001F46F000EDF6F95
:1012F000000EDC6F000EDB6F000EC36F000EC36FBD
:10130000FFFF0A0EC36501D021D0FFFFC351010DBD
:10131000B00EF324D96E010EF420DA6EDF508C6F1C
:10132000C351140FA6EC39F00001C351010DA40EF6
:10133000F324D96E010EF420DA6EDF508C6FC351A6
:10134000280FA6EC39F00001C32BDAD7FFFFDDC070
:10135000DEF0FFFF0001DB05D8A41AD1040E4AEC31
:101360003BF00009D8B403D00001DC2B11D1FFFF02
:10137000010E4AEC3BF00009D8B40AD1000E00017E
:10138000DC6F000EDB6F04D1FFFF3E0E01017B6FAF
:10139000040E4AEC3BF00009D8B403D0010E000162
:1013A000DB6FFFFF0001DB51D8B4FFD07B0E806FF5
:1013B000010E816FDC51060F826FDC51060F836FC7
:1013C000E2EC38F00001DC51BF6FC06B020EBF27AA
:1013D000000EC023C05104E10D0EBF5DD8A004D0A3
:1013E000000EDC6F000EDB6FFFFF030E4AEC3BF0DC
:1013F0000009D8B40AD00001DC51010DB00EF3246D
:10140000D96E010EF420DA6EDF2AFFFF020E4AECDD
:101410003BF00009D8B40AD00001DC51010DB00E38
:10142000F324D96E010EF420DA6EDF06FFFF00010F
:10143000DC51010DB00EF324D96E010EF420DA6EEA
:101440003A0EDF600BD0DC51010DB00EF324D96EE3
:10145000010EF420DA6E300EDF60A7D0FFFFDC5102
:10146000010DB00EF324D96E010E71D0FFFF3E0EB8
:101470000101666F040E4AEC3BF00009D8B403D0BA
:10148000010E0001DB6FFFFF0001DB51D8B48DD0EE
:10149000660E806F010E816FDC51060F826FDC518A
:1014A000060F836FE2EC38F00001DC51BF6FC06BB8
:1014B000020EBF27000EC023C05104E10D0EBF5D18
:1014C000D8A004D0000EDC6F000EDB6FFFFF030E10
:1014D0004AEC3BF00009D8B40AD00001DC51010D00
:1014E000A40EF324D96E010EF420DA6EDF2AFFFF7A
:1014F000020E4AEC3BF00009D8B40AD00001DC51DE
:10150000010DA40EF324D96E010EF420DA6EDF066D
:10151000FFFF0001DC51010DA40EF324D96E010E72
:10152000F420DA6E3A0EDF600BD0DC51010DA40E10
:10153000F324D96E010EF420DA6E300EDF6035D060
:10154000FFFFDC51010DA40EF324D96E010EFFFF45
:10155000F420DA6E300EDF6E28D0FFFF3E0E010160
:10156000516F040E4AEC3BF00009D8B41ED0780E3F
:101570000001FF19D8B419D0F451D8A416D0010E27
:10158000F46F000EF76F11D0FFFF000EDF6F0DD06C
:10159000FFFF0001DF51000AD8B4F6D6010AD8B423
:1015A00065D7030AD8B4D9D7EFD7FFFF0001F451AC
:1015B000D8A40AEC12F01200FFFFFFFF0001C76F72
:1015C0000001F651D8A49CD17BD1FFFFE0EC37F0AD
:1015D000DE0E0001A16F7F0EA26FC4EC38F0514AFD
:1015E000522A060E0001F56F8BD1FFFFFA0E936FA2
:1015F0007F0E946FA6EC38F00009D8B40ED0E0EC62
:1016000037F0D90E0001A16F7E0EA26FC4EC38F046
:10161000514A522A060E0001F56FFFFF0001F551F5
:10162000D8A46ED11A0E806F000E816F86EC36F052
:10163000000E0001816F0F0E806FC5EC37F0AA0E0F
:101640000001A16F7F0EA26FC4EC38F033D1FFFF11
:10165000FA0E0001936F7F0E946FA6EC38F000092C
:10166000D8B4B2D0E0EC37F00001F751D8B404D0D0
:10167000A40EBD6F010E04D0FFFFB00EBD6F010EB2
:10168000FFFFBE6F5F0EA16F7D0EA26FBDC0A3F006
:10169000BEC0A4F0C4EC38F0000E0001816F780EDB
:1016A000806FC5EC37F0080EFFFF0001F56F514A5F
:1016B000522A8AD0FFFFFD0E936F7F0E946FA6EC27
:1016C00038F00009D8B480D0E0EC37F00001C7054D
:1016D000D8A418D0BD0EA16F7B0EA26FECC0A3F0F2
:1016E000A46BEDC0A5F0A66BEEC0A7F0A86BEBC095
:1016F000A9F0AA6BEAC0ABF0AC6BE9C0ADF0AE6B81
:10170000C4EC38F0FFFF020E0001C719D8A44BD07B
:10171000FB05D8B404D0D20EBF6F7F0E04D0FFFFFC
:10172000FA0EBF6F7F0EFFFFC06FFC05D8B404D068
:10173000D20EC16F7F0E04D0FFFFFA0EC16F7F0E75
:10174000FFFFC26FFD05D8B404D0D20EC36F7F0E69
:1017500004D0FFFFFA0EC36F7F0EFFFFC46F550E5C
:10176000A16F7B0EA26FECC0A3F0A46BEDC0A5F03F
:10177000A66BEEC0A7F0A86BEBC0A9F0AA6BEAC0FD
:10178000ABF0AC6BE9C0ADF0AE6BC3C0AFF0C4C0A2
:10179000B0F0C1C0B1F0C2C0B2F0BFC0B3F0C0C0C1
:1017A000B4F0C4EC38F0FFFF000E0001816F960E1C
:1017B000806FC5EC37F01A0E0001806F000E816F4C
:1017C00086EC36F01E0E70D7FFFF0001FFFFF551CB
:1017D000D8A496D06FD0FFFFFA0E936F7F0E946F50
:1017E000A6EC38F00009D8A40AD0D80E0001936FF7
:1017F0007F0E946FA6EC38F00009D8B481D0FFFFBB
:10180000020E0001C719D8A40ED0F751D8A403D0F6
:10181000010EF76FDBD7FFFF000EF76F000EF46FBE
:10182000000EDE6FD3D7FFFF514A522ACFD7FFFFFA
:10183000E0EC37F00001F751D8B404D0A40EC56F26
:10184000010E04D0FFFFB00EC56F010EFFFFC66F83
:10185000150EA16F7F0EA26FC5C0A3F0C6C0A4F085
:10186000C4EC38F01E0E0001F56F514A522A48D0E0
:10187000FFFFF551D8A444D0E0EC37F0AA0E0001E8
:10188000A16F7F0EA26FC4EC38F0020E0001816FD1
:10189000260E806FC5EC37F00001F751D8A403D0B5
:1018A000010EF76F07D0FFFF000EF76F000EF46F09
:1018B000020EF66FFFFF000E526E000E516E20D02A
:1018C000FFFF51C0BBF052C0BCF0BC51000AD8A40D
:1018D000F1D7BB51000AD8B478D6010AD8B485D65E
:1018E000030AD8B4B4D6010AD8B4E4D6070AD8B4E7
:1018F00072D7010AD8B49BD7030AD8B4B9D7DAD7BC
:10190000FFFF1200FFFFFFFF0001E35104EC3DF079
:10191000B5C0C2F0B6C0C3F07B0E0001A16F010ECE
:10192000A26F360EA36F7F0EA46FC2C0A5F0C3C016
:10193000A6F0C9EC39F00001E25104EC3DF0B5C06D
:10194000C2F0B6C0C3F0660E0001A16F010EA26F17
:10195000410EA36F7F0EA46FC2C0A5F0C3C0A6F056
:10196000C9EC39F00001E15104EC3DF0B5C0C2F022
:10197000B6C0C3F0510E0001A16F010EA26F580E48
:10198000A36F7E0EA46FC2C0A5F0C3C0A6F0C9ECC1
:1019900039F00001E05104EC3DF0B5C0C2F0B6C032
:1019A000C3F03C0E0001A16F010EA26F670EA36F82
:1019B0007E0EA46FC2C0A5F0C3C0A6F0C9EC39F07A
:1019C000010E4AEC3BF00009D8B419D0E2C08CF00B
:1019D000000EA6EC39F0E1C08CF0010EA6EC39F057
:1019E000E0C08CF0020EA6EC39F0E3C08CF0040EDF
:1019F000A6EC39F0000E0001DF6FDDC0DEF0FFFF66
:101A0000040E4AEC3BF00009D8B497D00001DF2B5C
:101A100094D0FFFF7B0E806F010E816F080E826FE6
:101A20000F0E836FE2EC38F0030E4AEC3BF0000936
:101A3000D8B402D00001E32BFFFF020E4AEC3BF0CA
:101A40000009D8B402D00001E307FFFF630E0001D4
:101A5000E36583D0000EE36F80D0FFFF660E806FDA
:101A6000010E816F080E826F0F0E836FE2EC38F06B
:101A7000030E4AEC3BF00009D8B402D00001E22B7F
:101A8000FFFF020E4AEC3BF00009D8B402D000017F
:101A9000E207FFFF630E0001E2655FD0000EE26F18
:101AA0005CD0FFFF510E806F010E816F0C0E826FB4
:101AB000120E836FE2EC38F0030E4AEC3BF00009A3
:101AC000D8B402D00001E12BFFFF020E4AEC3BF03C
:101AD0000009D8B402D00001E107FFFF630E000146
:101AE000E1653BD0000EE16F38D0FFFF3C0E806F08
:101AF000010E816F0C0E826F120E836FE2EC38F0D4
:101B0000030E4AEC3BF00009D8B402D00001E02BF0
:101B1000FFFF020E4AEC3BF00009D8B402D00001EE
:101B2000E007FFFF630E0001E06517D0000EE06FD5
:101B300014D0FFFF000EDF6F10D0FFFF0001DF5158
:101B4000000AD8B466D7010AD8B487D7030AD8B434
:101B5000A8D7010AD8B4C9D7ECD7FFFF1200FFFFFE
:101B6000FFFF7B0E0001A16F010EA26FFC0EA36FA1
:101B70007B0EA46F5DC0A5F0A66B5CC0A7F0A86B40
:101B80005BC0A9F0AA6B5AC0ABF0AC6B59C0ADF00A
:101B9000AE6BC9EC39F05804D8B405D0E30E00019F
:101BA000BA6F7F0E05D0FFFFFA0E0001BA6F7F0EED
:101BB000FFFFBB6F660EA16F010EA26F7F0EA36FBA
:101BC0007F0EA46FBAC0A5F0BBC0A6F0C9EC39F077
:101BD000740E0001A16F010EA26F2B0EA36F7F0E7A
:101BE000A46F010E5324A56FA66B000EA62354C04C
:101BF000A7F0A86BC9EC39F05704D8B405D0E30EB0
:101C00000001BC6F7F0E05D0FFFFFA0E0001BC6F14
:101C10007F0EFFFFBD6F510EA16F010EA26FB00EC0
:101C2000A36F7E0EA46FBCC0A5F0BDC0A6F0C9EC2A
:101C300039F05604D8B405D0E30E0001BE6F7F0E14
:101C400005D0FFFFFA0E0001BE6F7F0EFFFFBF6FD2
:101C50003C0EA16F010EA26FBE0EA36F7E0EA46F8D
:101C6000BEC0A5F0BFC0A6F0C9EC39F0010E4AEC29
:101C70003BF00009D8B405D0000E0001DF6FDDC0D5
:101C8000DEF0FFFF020E4AEC3BF00009D8B40BD0A7
:101C9000080E0001FA5F3C0EFA6102D03C0EFA6FAA
:101CA000FFFF010E556EFFFF030E4AEC3BF00009EB
:101CB000D8B419D054500001B56FB66B5350B76FFC
:101CC000B86B010EB727000EB823B551B75DB851F8
:101CD000800AB96FB651800AB959D8B05AD0080EE7
:101CE000FA27010E556EFFFF5504D8A452D00E0EF0
:101CF00061EC3AF00001C06FC40EC025806F816BAB
:101D0000FF0E8123000E836F080E826FFDEC1EF024
:101D100000018051546EC40EFA25806F816BFF0E56
:101D20008123000E836F080E826FFDEC1EF0000110
:101D30008051536EFA5161EC3AF05D6E0001FA2960
:101D400061EC3AF05C6E0001FA51020F61EC3AF07E
:101D50005B6E0001FA51030F61EC3AF05A6E00011C
:101D6000FA51040F61EC3AF0596E0001FA51050F77
:101D700061EC3AF0586E0001FA51060F61EC3AF04E
:101D8000576E0001FA51070F61EC3AF0566E000EE3
:101D9000556EFFFF1200FFFFFFFF7B0E0001A16FDA
:101DA000010EA26FCC0EA36F7F0EA46FC9EC39F0A9
:101DB000660E0001A16F010EA26F3A0EA36F7E0E98
:101DC000A46F7AC0A5F0A66B7BC0A7F0A86B7CC0FF
:101DD000A9F0AA6BC9EC39F0860E0001A16F010EC3
:101DE000A26FC60EA36F7F0EA46FC9EC39F0710EFF
:101DF0000001A16F010EA26F490EA36F7E0EA46FAA
:101E000079C0A5F0A66B78C0A7F0A86B77C0A9F041
:101E1000AA6BC9EC39F0040E4AEC3BF00009D8B4C7
:101E200004D0010E686E0001DF2BFFFF010E4AECAB
:101E30003BF00009D8B4B0D0000E686E000E00016F
:101E4000DF6F760E8C6F000E8D6F60EC19F0DDC0C9
:101E5000DEF00001ED2BA0D0FFFF660E806F010EBB
:101E6000816F010E826F020E836FE2EC38F0030E79
:101E70004AEC3BF00009D8A47A2A020E4AEC3BF067
:101E80000009D8B49FD07A069DD0FFFF660E0001EE
:101E9000806F010E816F040E826F050E836FE2EC7E
:101EA00038F0030E4AEC3BF00009D8A47B2A020E5E
:101EB0004AEC3BF00009D8B485D07B0683D0FFFF05
:101EC000660E0001806F010E816F070E826F080E93
:101ED000836FE2EC38F0030E4AEC3BF00009D8A423
:101EE0007C2A020E4AEC3BF00009D8B46BD07C0689
:101EF00069D0FFFF660E0001806F010E816F0C0E2E
:101F0000826F0D0E836FE2EC38F0030E4AEC3BF06B
:101F10000009D8A4792A020E4AEC3BF00009D8B493
:101F200051D079064FD0FFFF660E0001806F010E81
:101F3000816F0F0E826F100E836FE2EC38F0030E8C
:101F40004AEC3BF00009D8A4782A020E4AEC3BF098
:101F50000009D8B437D0780635D0FFFF660E0001EF
:101F6000806F010E816F120E826F130E836FE2EC91
:101F700038F0030E4AEC3BF00009D8A4772A020E91
:101F80004AEC3BF00009D8B41DD077061BD0FFFF08
:101F9000010E0001DF6F16D0FFFF0001DF51010AC3
:101FA000D8B45AD7030AD8B470D7010AD8B487D79F
:101FB000070AD8B49ED7010AD8B4B5D7030AD8B453
:101FC000CCD7E5D7FFFF11EC3AF01200FFFFFFFF7F
:101FD000000E2A6E000E2E6E000E2F6E000E306E5A
:101FE000000E2B6E000E2C6E000E2D6E000E2A6E53
:101FF000FFFF080E2A6401D02DD0FFFF2EC01BF07A
:102000002FC01CF030C01DF0280E0F6EA00E106EF9
:102010003B0E116EF6EC36F001C009F002C00AF07A
:10202000E2EC36F009C00CF00AC00DF00BC00EF067
:1020300072EC1AF00CC01EF00DC01FF00EC020F0A4
:10204000E3EC13F01BC02EF01CC02FF01DC030F0CD
:102050002A2ACED7FFFF2EC01BF02FC01CF030C0A5
:102060001DF0000E1E6E200E1F6E410E206ED8EC6D
:102070001BF01BC02EF01CC02FF01DC030F04CC058
:102080001BF04DC01CF04EC01DF02EC01EF02FC026
:102090001FF030C020F0E3EC13F01BC04CF01CC06C
:1020A0004DF01DC04EF06E2A2EC001F02FC002F080
:1020B00030C003F0CD0E046ECC0E056E3E0E066EE3
:1020C000AFEC1EF0D8B005D0FF0E0001F96FF60E90
:1020D00015D0FFFF000E016E900E026E400E036ED3
:1020E0002EC004F02FC005F030C006F0AFEC1EF09B
:1020F000D8B009D0000E0001F96F630EFFFFF86F32
:10210000010E736E7BD0FFFF050E6E6477D0000E5C
:10211000736E000E6E6E4CC01BF04DC01CF04EC0B6
:102120001DF0000E1E6EC00E1F6E400E206ED8EC0D
:102130001BF01BC02EF01CC02FF01DC030F0000E95
:102140004C6E000E4D6E000E4E6E2EC01BF02FC05A
:102150001CF030C01DF0000E1E6E000E1F6EBF0E74
:10216000206EE3EC13F01BC02BF01CC02CF01DC044
:102170002DF0000E0F6E200E106E410E116E2BC052
:102180000CF02CC00DF02DC00EF072EC1AF00CC04B
:102190001BF00DC01CF00EC01DF0000E1E6E800E58
:1021A0001F6E400E206ED8EC1BF01BC02BF01CC025
:1021B0002CF01DC02DF02DAE06D0000E2B6E000EA3
:1021C0002C6E000E2D6EFFFF000E0F6E200E106E97
:1021D000410E116E2BC00CF02CC00DF02DC00EF076
:1021E00072EC1AF00CC01BF00DC01CF00EC01DF0FC
:1021F00064EC1BF01BC0F8F01CC0F9F0FFFF1200EC
:10220000FFFFFFFF7D0E0001A16F010EA26F1B0EED
:10221000A36F7C0EA46FECC0A5F0A66BEDC0A7F079
:10222000A86BEEC0A9F0AA6BEBC0ABF0AC6BEAC038
:10223000ADF0AE6BC9EC39F0010E01017B6FFFC050
:102240007CF1050E8E6F41D0FFFF3C0E0001A16FA7
:10225000010EA26FC90EA36F7D0EA46FC9EC39F0F9
:1022600046D0FFFF3C0E0001A16F010EA26F9C0E35
:10227000A36F7C0EA46FC9EC39F039D0FFFF3C0E80
:102280000001A16F010EA26F950EA36F7D0EA46FCA
:10229000C9EC39F02CD0FFFF3C0E0001A16F010EFC
:1022A000A26F350EA36F7C0EA46FC9EC39F01FD05E
:1022B000FFFF3C0E0001A16F010EA26F4A0EA36F3B
:1022C0007C0EA46FC9EC39F012D0FFFF0001F3516E
:1022D000010AD8B4B9D7020AD8B4C3D7070AD8B408
:1022E000CDD7010AD8B4D7D7030AD8B4E1D7FFFFB6
:1022F0000001F251D8B40AD0660EA16F010EA26F90
:10230000880EA36F7C0EA46FC9EC39F0FFFF7350E9
:10231000D8B413D0FBEC37F0520E0001A16F010EC0
:10232000A26F4C0EA36F7D0EA46FC9EC39F0000EA6
:102330000001F26F010E456E18D0FFFF0001F85149
:1023400004EC3DF0B5C0C2F0B6C0C3F0530E0001BE
:10235000A16F010EA26F2B0EA36F7E0EA46FC2C0E1
:10236000A5F0C3C0A6F0C9EC39F0FFFF020E0001D2
:10237000F36103D0F251D8B416D0FFFF7450D8B433
:102380000AD03C0EA16F010EA26FEC0EA36F7C0E63
:10239000A46FC9EC39F0FFFF010E4AEC3BF00009D5
:1023A000D8A41EEC37F0FFFF040E4AEC3BF0000906
:1023B000D8B405D0010E0001DE6F010E6A6EFFFF7A
:1023C00082B011D07B0E0001806F010E816F140E60
:1023D000826F140E836FE2EC38F00001F351D8A441
:1023E00002D0010EF36FFFFF0001FD51D8A402D00F
:1023F000040E0BD0FFFFFC51D8A402D0050E05D06F
:10240000FFFFFB51D8A403D0060EFFFFF36FFFFFC1
:102410001200FFFFFFFFD1D0FFFFE0EC37F0DE0E30
:102420000001A16F7F0EA26FC4EC38F0514A522A0E
:10243000050E0001F56FDCD0FFFFFA0E936F7F0EE3
:10244000946FA6EC38F00009D8B40ED0E0EC37F069
:10245000D90E0001A16F7E0EA26FC4EC38F0514A74
:10246000522A050E0001F56FFFFF0001F551D8A4B7
:10247000BFD0000E526E000E516E1A0E806F000E0D
:10248000816F86EC36F0B4D0FFFFFA0E0001936F37
:102490007F0E946FA6EC38F00009D8B483D0E0EC3E
:1024A00037F00001F751D8B404D0A40EBD6F010E6F
:1024B00004D0FFFFB00EBD6F010EFFFFBE6F5F0EB9
:1024C000A16F7D0EA26FBDC0A3F0BEC0A4F0C4EC8E
:1024D00038F0050E0001F56F514A522A89D0FFFFEE
:1024E000FD0E936F7F0E946FA6EC38F00009D8B400
:1024F00059D0E0EC37F0D70E0001A16F7A0EA26F31
:10250000EBC0A3F0A46BEAC0A5F0A66BE9C0A7F0EE
:10251000A86BECC0A9F0AA6BEDC0ABF0AC6BEEC041
:10252000ADF0AE6BE50EAF6F7E0EB06FC4EC38F061
:10253000030E0001816FE80E806FC5EC37F01A0EB4
:102540000001806F000E816F86EC36F0514A522AEE
:102550001E0E0001F56F26D0FFFFFA0E936F7F0E5F
:10256000946FA6EC38F00009D8B411D00001F751EF
:10257000D8A403D0010EF76F05D0FFFF000EF76F50
:10258000000EF46FFFFF000E526E000E516EFFFF43
:10259000D80E0001936F7F0E946FA6EC38F00009FF
:1025A000D8A405D0FFFF0001F551D8A421D0FFFF2A
:1025B000000E526E000E516E1BD0FFFF51C0BBF0DB
:1025C00052C0BCF00001BC51000AD8A4F0D7BB51E6
:1025D000000AD8B421D7010AD8B42ED7030AD8B438
:1025E00053D7010AD8B47BD7070AD8B4B5D7DFD7F9
:1025F000FFFF1200FFFFFFFF7B0E0001A16F010E26
:10260000A26F5F0EA36F7C0EA46FE751B56FB66B20
:10261000B51FB61FB54BB62BE851B525A56F000EFB
:10262000B621A66FC9EC39F0660E0001A16F010E4C
:10263000A26FB00EA36F7C0EA46FE8C0A5F0A66BCE
:10264000C9EC39F0510E0001A16F010EA26FC40E4A
:10265000A36F7C0EA46FE6C0A5F0A66BC9EC39F0A1
:102660000001EF51D8B404D0F20EB76F7F0E04D042
:10267000FFFFF60EB76F7F0EFFFFB86F3C0EA16F26
:10268000010EA26F4C0EA36F7F0EA46FB7C0A5F012
:10269000B8C0A6F0C9EC39F0010E4AEC3BF00009D5
:1026A000D8B411D0E8C08CF0060EA6EC39F0E6C024
:1026B0008CF00B0EA6EC39F0EFC08CF00F0EA6ECF0
:1026C00039F0DDC0DEF0FFFF040E4AEC3BF00009FC
:1026D000D8B469D00001DF2B66D0FFFF660E806F93
:1026E000010E816F0B0E826F0E0E836FE2EC38F0DD
:1026F000030E4AEC3BF00009D8B402D00001E82BED
:10270000FFFF020E4AEC3BF00009D8B459D000019B
:10271000E80756D0FFFF510E806F010E816F090E42
:10272000826F0B0E836FE2EC38F0030E4AEC3BF045
:102730000009D8B402D00001E62BFFFF020E4AECDC
:102740003BF00009D8B402D00001E607FFFF180EE5
:102750000001E66101D034D0FFFF000EE66F30D0FB
:10276000FFFF3C0E806F010E816F090E826F0B0E12
:10277000836FE2EC38F0030E4AEC3BF00009D8B46A
:1027800003D0010E0001EF6FFFFF020E4AEC3BF099
:102790000009D8B415D0000E0001EF6F11D0FFFF73
:1027A000000EDF6F0DD0FFFF0001DF51000AD8B42B
:1027B00094D7010AD8B4AED7030AD8B4D1D7EFD78B
:1027C000FFFF1200FFFFFFFF1DC021F0226A236AF6
:1027D0001C34213601E322802150266E20C021F0D6
:1027E000226A236A1F34213601E322802150256E9C
:1027F0002650D8B40BD02550265CD8B00FD0265028
:1028000000082524216E180E216408D0FFFF1EC089
:102810001BF01FC01CF020C01DF0BAD0FFFF2550D8
:10282000D8B40BD02650255CD8B00FD02550000866
:102830002624216E180E216408D0FFFF1BC01BF058
:102840001CC01CF01DC01DF0A3D0FFFF060E246E9F
:102850001DBE248E20BE248C1C8EFF0E1B16FF0E68
:102860001C16000E1D161F8EFF0E1E16FF0E1F16C5
:10287000000E20162550265CD8B01ED0FFFFD89041
:102880001E361F362036250626502518D8B40ED001
:10289000240624C021F0070E2116D8B407D0EED7A5
:1028A000FFFFD8901D321C321B32262AFFFF255015
:1028B0002618D8B423D0F4D7FFFF2650255CD8B013
:1028C0001DD0FFFFD8901B361C361D36260626501D
:1028D0002518D8B40ED0240624C021F0070E2116E6
:1028E000D8B407D0EED7FFFFD89020321F321E3267
:1028F000252AFFFF25502618D8A4F5D7FFFF24AEC0
:102900000CD0FF0E1B1AFF0E1C1AFF0E1D1A010E13
:102910001B26000E1C22000E1D22FFFF24AC0CD033
:10292000FF0E1E1AFF0E1F1AFF0E201A010E1E2682
:10293000000E1F22000E2022FFFF000E246E1B50EF
:102940001E261C501F221D50202220AE0ED0FF0E2E
:102950001E1AFF0E1F1AFF0E201A010E1E26000E51
:102960001F22000E2022010E246EFFFF1EC001F068
:102970001FC002F020C003F026C004F024C005F000
:102980004DEC1EF001C01BF002C01CF003C01DF096
:10299000FFFF1200FFFFFFFF0001FE51D8A4CBD0C4
:1029A000F451D8B4B7D0C7D0FFFFE0EC37F0890EB0
:1029B0000001A16F7F0EA26FC4EC38F00A0E000177
:1029C000F56F000E526E010EA2D0FFFFF551D8A494
:1029D0002BD0DE0EA16F7F0EA26FC4EC38F0000E7C
:1029E0000001816F640E806FC5EC37F0FA0E0001B4
:1029F000936F7F0E946FA6EC38F00009D8B405D021
:102A0000000E526E000E516E0FD0FFFF000E526E80
:102A1000000E516E1A0E0001806F000E816F86EC61
:102A200036F0780E0001FF6FFFFFB10E0001936FCB
:102A30007F0E946FA6EC38F00009D8B47CD0B10EAC
:102A40000001B56F7F0EB66F2C0EB76FD2EC18F089
:102A5000B5C0BFF0B6C0C0F0EEEC1AF0BFC0C8F011
:102A6000C0C0C9F00001C9BF06D0C95108E10A0EB3
:102A7000C85DD8B003D0FFFF200E3BD0FFFFC9BF19
:102A800011D0C95104E10A0EC85DD8A00BD0C9BF4E
:102A900006D0C95108E10F0EC85DD8B003D0FFFFC2
:102AA000020E27D0FFFFC9BF11D0C95104E1100E9B
:102AB000C85DD8A00BD0C9BF06D0C95108E1140E1B
:102AC000C85DD8B003D0FFFF030E13D0FFFFC9BF0E
:102AD00012D0C95104E1140EC85DD8A00CD0C9BFF2
:102AE00006D0C95109E11F0EC85DD8B004D0FFFF60
:102AF000040EFFFFFF6FFFFF000E526E000E516EBF
:102B0000060EFE6F18D0FFFF000E526E000EFFFF84
:102B1000516E11D0FFFF51C0C6F052C0C7F0C7516F
:102B2000000AD8A4F0D7C651000AD8B43DD7010A8C
:102B3000D8B44BD7E8D7FFFF1200FFFFFFFF00011B
:102B4000FE51D8B405D0FE07FEC009F00A6A05D0D0
:102B5000FFFF000E0A6E000E096EFFFF09C0FEF0B7
:102B6000F551D8B405D0F507F5C00BF00C6A05D0C7
:102B7000FFFF000E0C6E000E0B6EFFFF0BC0F5F09A
:102B8000D951DA11D8B408D0D907D8A0DA07D9C0FA
:102B9000D9F0DAC0DAF005D0FFFF000EDA6F000ED0
:102BA000D96FFFFFF651D8B405D0F607F6C00DF087
:102BB0000E6A05D0FFFF000E0E6E000E0D6EFFFFB9
:102BC0000DC0F6F07550D8B405D0750675C00FF07D
:102BD000106A05D0FFFF000E106E000E0F6EFFFF93
:102BE0000FC075F07550D8A40BD0030E756E7450DD
:102BF000D8A402D0010E02D0FFFF000EFFFF746EBA
:102C0000FFFF6850D8A456D0EE2B3B0EEE6514D0D3
:102C1000000EEE6FED2B3B0EED650ED0000EED6F4E
:102C2000EC2B170EEC6508D0000EEC6FE72BE7C01D
:102C300004F00A0E88EC38F0FFFF0001ED5178181F
:102C4000D8B438D0F051D8B409D04F4A502A4FC028
:102C500006F050C007F0080ED1EC36F0FFFF760EFC
:102C6000066E000E076EE9EC19F03C0E776415D085
:102C70003C0E786412D0180E79640FD077EC37F0E0
:102C8000EEC077F0EDC078F0ECC079F0EBC07AF0F0
:102C9000EAC07BF0E9C07CF00DD0FFFF77C0EEF01A
:102CA00078C0EDF079C0ECF07AC0EBF07BC0EAF0D0
:102CB0007CC0E9F0FFFF1200FFFFFFFF7B0E000169
:102CC000A16F010EA26F390EA36F7D0EA46FC9EC28
:102CD00039F0660E0001A16F010EA26FA20EA36F64
:102CE0007E0EA46FC9EC39F0760E0001A16F010EC3
:102CF000A26FED0EA36F7F0EA46FE5C0A5F0A66BCB
:102D0000C9EC39F0510E0001A16F010EA26FF10E56
:102D1000A36F7E0EA46FC9EC39F0610E0001A16FA4
:102D2000010EA26FED0EA36F7F0EA46FE4C0A5F09D
:102D3000A66BC9EC39F03C0E0001A16F010EA26F29
:102D4000260EA36F7D0EA46F4FC0A5F050C0A6F055
:102D5000C9EC39F0040E4AEC3BF00009D8B402D0BB
:102D60000001DF2BFFFF010E4AEC3BF00009D8B455
:102D70004ED0E5C08CF0070EA6EC39F0E4C08CF024
:102D80000D0EA6EC39F0000E0001DF6FDDC0DEF0A5
:102D90003ED0FFFF660E806F010E816F100E826FB6
:102DA000140E836FE2EC38F0030E4AEC3BF000099E
:102DB000D8B402D00001E52BFFFF020E4AEC3BF035
:102DC0000009D8B42ED00001E5072BD0FFFF510E2B
:102DD000806F010E816F100E826F140E836FE2EC14
:102DE00038F0030E4AEC3BF00009D8B402D00001E1
:102DF000E42BFFFF020E4AEC3BF00009D8B411D0DF
:102E00000001E4070ED0FFFF000EDF6F0AD0FFFFC6
:102E10000001DF51000AD8B4BCD7010AD8B4D6D714
:102E2000F2D7FFFF1200FFFFFFFF66EC36F0000E47
:102E300000018B6FD00E8A6F7FEC36F0000E000120
:102E40008B6F000E8A6F7FEC36F072EC36F0000E5E
:102E500000018B6FD10E8A6F7FEC36F0000120EEFF
:102E600001F08C51D9268D51DA22000E826F010EAD
:102E7000816F6BEC38F000018151C4EC36F0DF6EED
:102E8000000120EE02F08C51D9268D51DA22000E7D
:102E9000826F010E816F6BEC38F000018151C4EC40
:102EA00036F0DF6E000120EE03F08C51D9268D51F3
:102EB000DA22000E826F010E816F6BEC38F0000198
:102EC0008151C4EC36F0DF6E000E0001826F010EFE
:102ED000816F6BEC38F000018151C4EC36F08CC08E
:102EE000D9FF8DC0DAFFDF6E000120EE04F08C51B7
:102EF000D9268D51DA22000E826F010E816F6BECA4
:102F000038F000018151C4EC36F0DF6E000120EE94
:102F100005F08C51D9268D51DA22000E826F010EF8
:102F2000816F6BEC38F000018151C4EC36F0DF6E3C
:102F3000000120EE06F08C51D9268D51DA22000EC8
:102F4000826F000E816F6BEC38F000018151C4EC90
:102F500036F0DF6E6CEC36F01200FFFFFFFF000E64
:102F60000001956F000E946F0C0E61EC3AF00001B9
:102F7000946F140E9419D8B416D0000E956FFFFFFD
:102F8000630E956501D009D0FFFF000E8C6F95513F
:102F9000A6EC39F00001952BF2D7FFFF140E8C6FD1
:102FA0000C0EA6EC39F0FFFF000E61EC3AF00001C8
:102FB000E26F010E61EC3AF00001E16F020E61EC8C
:102FC0003AF00001E06F080E32EC38F08EC04FF09E
:102FD0008FC050F0040E61EC3AF00001E36F060E72
:102FE00061EC3AF00001E86F070E61EC3AF0000185
:102FF000E56F0A0E61EC3AF00001E76F0B0E61EC31
:103000003AF00001E66F0D0E61EC3AF00001E46F5A
:103010000F0E61EC3AF00001EF6F000E956FFFFFAD
:103020000A0E956501D011D0FFFF9551010DB00E2C
:10303000F324D96E010EF420DA6E9551140F61EC71
:103040003AF0DF6E0001952BEAD7FFFF000E956F77
:10305000FFFF0A0E956501D011D0FFFF9551010DBC
:10306000A40EF324D96E010EF420DA6E9551280FC8
:1030700061EC3AF0DF6E0001952BEAD7FFFF1200FA
:10308000FFFFFFFF0001E351C86FC96BC851F85D36
:10309000F951800ACA6FC951800ACA59D8A00FD005
:1030A000F251D8A40CD0F151D8A409D0000E4A6E28
:1030B000000E496E000E4BEC1CF0000E6ED0FFFFB0
:1030C000000E466E0001E251C86FC96BF851C85D31
:1030D000C951800ACA6FF951800ACA59D8A002D0D2
:1030E000010E12D0FFFFE351C86FC96BC851F85DE4
:1030F000F951800ACA6FC951800ACA59D8A006D0AE
:10310000F251D8A403D0000EFFFF4A6EFFFFE15139
:10311000C86FC96BF851C85DC951800ACA6FF951AF
:10312000800ACA59D8A004D0010EF26F010E496E70
:10313000FFFFE351C86FC96BC851F85DF951800AB0
:10314000CA6FC951800ACA59D8A008D0F251D8A470
:1031500005D0000E496E000E4BEC1CF0FFFF000185
:10316000E051C86FC96BF851C85DC951800ACA6F78
:10317000F951800ACA59D8A006D0010E4BEC1CF0B8
:10318000010E0001F26FFFFFF251D8B408D0010E1A
:10319000F46F010EDDEC0AF0010EFFFF456EFFFF3C
:1031A0001200FFFFFFFF900E0001806F010E816F84
:1031B000000E836F000E826F000E856F140E846FF9
:1031C0004EEC38F0B5C080F0B6C081F0B7EC3AF004
:1031D00080C0BAF081C0BBF0000E00018F6F010EFD
:1031E000906FB5C091F0B6C092F097EC1FF08FC011
:1031F000BDF090C0BEF00001BD51BE11D8B458D092
:10320000000EBC6FBAC0BCF042D0FFFFBC51010D34
:10321000F350BD25D96EF450BE21DA6EB751DE18D9
:10322000D8A417D0900EA16F010EA26FE80EA36F65
:103230007F0EA46F900EA56F010EA66F000EA86FF3
:10324000000EA76FC9EC39F0900E0001B56F010EAA
:1032500033D0FFFF900EA16F010EA26FE80EA36F97
:103260007F0EA46F900EA56F010EA66FBC51010DCD
:10327000F350BD25D96EF450BE21DA6EDF50B86F21
:10328000B851A76FA86BC9EC39F00001BC2BFFFF48
:10329000BDC080F0BEC081F0B7EC3AF00001BC5177
:1032A000B86FB96B8051B85D8151B959D8A0ADD70D
:1032B000FFFF000EB56F000EFFFFB66F1200FFFF9D
:1032C000FFFF66EC36F0000E00018B6FD00E8A6FA8
:1032D0007FEC36F0000E00018B6F000E8A6F7FECE2
:1032E00036F0000120EE01F08C51D9268D51DA2202
:1032F000DF5042EC39F000018E6F8E518A6F8B6B7C
:103300007FEC36F0000120EE02F08C51D9268D5171
:10331000DA22DF5042EC39F000018E6F8E518A6F55
:103320008B6B7FEC36F0000120EE03F08C51D92638
:103330008D51DA22DF5042EC39F000018E6F8E5150
:103340008A6F8B6B7FEC36F08CC0D9FF8DC0DAFFB3
:10335000DF5042EC39F000018E6F8E518A6F8B6B1B
:103360007FEC36F0000120EE04F08C51D9268D510F
:10337000DA22DF5042EC39F000018E6F8E518A6FF5
:103380008B6B7FEC36F0000120EE05F08C51D926D6
:103390008D51DA22DF5042EC39F000018E6F8E51F0
:1033A0008A6F8B6B7FEC36F0000120EE06F08C51BB
:1033B000D9268D51DA22DF5042EC39F000018E6FB0
:1033C0008E518A6F8B6B7FEC36F06CEC36F012000E
:1033D000FFFFFFFF54EC36F0000E036ED00E026EBE
:1033E00078EC36F0000E036E000E026E78EC36F0CC
:1033F00060EC36F0000E036ED10E026E78EC36F003
:1034000020EE01F00650D9260750DA22000E036E96
:10341000010E026EAAEC37F00250A0EC36F0DF6E1F
:1034200020EE02F00650D9260750DA22000E036E75
:10343000010E026EAAEC37F00250A0EC36F0DF6EFF
:1034400020EE03F00650D9260750DA22000E036E54
:10345000010E026EAAEC37F00250A0EC36F0DF6EDF
:10346000000E036E010E026EAAEC37F00250A0ECC3
:1034700036F006C0D9FF07C0DAFFDF6E20EE04F099
:103480000650D9260750DA22000E036E010E026E96
:10349000AAEC37F00250A0EC36F0DF6E20EE05F01B
:1034A0000650D9260750DA22000E036E010E026E76
:1034B000AAEC37F00250A0EC36F0DF6E20EE06F0FA
:1034C0000650D9260750DA22000E036E000E026E57
:1034D000AAEC37F00250A0EC36F0DF6E5AEC36F072
:1034E0001200FFFFFFFF0EC012F0136A146A0D34C2
:1034F000123601E313801250156E1550D8B40DD05A
:1035000011C012F0136A146A1034123601E31380EA
:1035100012501A6E1A50D8A408D0FFFF000E0C6E7D
:10352000000E0D6E000E0E6E56D0FFFF1A507B0F70
:1035300015260EC01AF011501A1A800E1A160D8E8A
:10354000108EFF0E0F16FF0E1016000E1116000E35
:10355000166E000E176E000E186E070E196EFFFF26
:103560000CA006D00F50162610501722115018220A
:10357000FFFFD8900E320D320C32D8900F36103635
:103580001136192EECD7090E196EFFFF0CA006D0CC
:103590000F5016261050172211501822FFFFD890F6
:1035A0000E320D320C32D890183217321632192ED4
:1035B000ECD716C001F017C002F018C003F015C018
:1035C00004F01AC005F04DEC1EF001C00CF002C072
:1035D0000DF003C00EF0FFFF1200FFFFFFFF04D04D
:1035E000FFFF0001BF4BC02BFFFFBFC0D9FFC0C012
:1035F000DAFF200EDE18D8B4F3D7BFC0D9FFC0C0A1
:10360000DAFF090EDE18D8B4EBD7000E0001C56F43
:10361000000EC46F000EC36FBFC0D9FFC0C0DAFF79
:103620002D0EDE18D8A402D0C32B28D0FFFFBFC0B8
:10363000D9FFC0C0DAFF2B0EDE18D8A422D01ED0CE
:10364000FFFFC4C080F0C5C081F0000E0001836F91
:103650000A0E826F48EC37F0BFC0D9FFC0C0DAFF56
:10366000DF500001C16FC26B8051C1278151C2235D
:10367000D00EC125C46FFF0EC221C56FFFFFBF4B27
:10368000C02BFFFFBFC0D9FFC0C0DAFFDF500AEC7C
:1036900037F0D8B0D5D70001C351D8B40DD0C4C0CD
:1036A000C1F0C5C0C2F0C11FC21FC14BC22BC1C0F7
:1036B000BFF0C2C0C0F005D0FFFFC4C0BFF0C5C09E
:1036C000C0F0FFFF1200FFFFFFFF1DC01FF0206AC8
:1036D000216A1C341F3601E320801F50296E2950B7
:1036E000D8B439D0170E1F6E1BC020F01CC021F0BB
:1036F0001DC022F01F28236E05D0FFFFD890223274
:1037000021322032FFFF232EF8D72050246E1C8E4A
:10371000FF0E1B16FF0E1C16000E1D161B50256EED
:103720001C50266E1D50276E286A8E0E295E29AE0B
:103730000ED02950800A8F0FD8A00DD0FFFFD8904F
:103740002832273226322532293EF8D719D0FFFFFA
:10375000170E296411D0FFFF000E1B6E000E1C6EA9
:10376000000E1D6E000E1E6E20D0FFFFD890253675
:103770002636273628362906FFFF2950D8A4F5D744
:10378000FFFF2450D8B408D0281E271E261E256C03
:10379000000E262227222822FFFF25C01BF026C06C
:1037A0001CF027C01DF028C01EF0FFFF1200FFFF15
:1037B000FFFF1DC021F0226A236A1C34213601E379
:1037C00022802150286E2850D8B40DD020C021F07E
:1037D000226A236A1F34213601E322802150296E98
:1037E0002950D8A408D0FFFF000E1B6E000E1C6EDF
:1037F000000E1D6E4DD0FFFF000E256E000E266ED2
:10380000000E276E2950890F285E1DC029F0205018
:10381000291A800E29161C8EFF0E1B16FF0E1C1671
:10382000000E1D161F8EFF0E1E16FF0E1F16000E19
:103830002016180E246EFFFFD89025362636273620
:103840001E501B5C1F501C5820501D58D8A007D07C
:103850001E501B5E1F501C5A20501D5A2580FFFF12
:10386000D8901B361C361D36242EE5D725C001F016
:1038700026C002F027C003F028C004F029C005F0DC
:103880004DEC1EF001C01BF002C01CF003C01DF087
:10389000FFFF1200FFFFFFFF0001836F00018305A0
:1038A000D8A41AD0F051D8A417D0EE517018D8B4BB
:1038B00013D0EEC070F06C2A6D2A80BA0DD0020EC3
:1038C000816FBC0E806FC5EC37F0010E0001F06F08
:1038D000000E6D6E000E486EFFFFF051D8A415D09B
:1038E000FB05D8A412D0010E476E080E6D6002D001
:1038F000010E05D0FFFF100E6D6004D0000EFFFF1B
:10390000486E03D0FFFF000E6D6EFFFF6C50E55D4B
:10391000D8B00AD0000E6C6E000EFB6F000EF06F78
:10392000000E476E000E486EFFFF8351D8A40AD0E8
:10393000000EF06F000E486E000E476E000E6D6EAA
:10394000000E6C6EFFFFFB51D8A406D0000E476E30
:10395000000E486E000E6D6EFFFFF051D8B40AD015
:1039600080BA05D0000E486E000E6C6E03D0FFFFCB
:10397000000EF06FFFFF1200FFFFFFFF010E0001BE
:10398000836F010E89EC1DF088C084F089C085F03A
:10399000E3EC1FF0010E0001836F020E89EC1DF0B5
:1039A0008AC084F08BC085F0E3EC1FF0000E0001AC
:1039B000836F030E89EC1DF08CC084F08DC085F000
:1039C000E3EC1FF0000E0001836F040E89EC1DF084
:1039D0008EC084F08FC085F0E3EC1FF0000E000174
:1039E000906F000E906FFFFF130E906501D02BD0EB
:1039F000FFFF9051010DF3508825D96EF4508921B5
:103A0000DA6E200EDF6E9051010DF3508A25D96ECB
:103A1000F4508B21DA6E200EDF6E9051010DF350C1
:103A20008C25D96EF4508D21DA6E200EDF6E905108
:103A3000010DF3508E25D96EF4508F21DA6E200ED1
:103A4000DF6E902BD0D7FFFF1200FFFFFFFF9D0E10
:103A5000F66E7A0EF76E20EE87F02F0E0900FFFF4C
:103A6000F5CFDEFFE806FAE2040E32EC37F0000E86
:103A700032EC37F0320EFFFFE82EFDD7000E0001CA
:103A8000BB6F000EBA6F000EB96F000EBB6FFFFF69
:103A9000040EBB6501D03AD0FFFFB905D8A402D00F
:103AA000000EBB6FFFFF000EBA6FFFFF070EBA6577
:103AB00001D028D0FFFFB951D8A405D0000EB86FAF
:103AC000000EB76F18D0FFFFBB51080D870E846F33
:103AD000000E856FF3508427F4508523BA51010DF1
:103AE000F3508425D96EF4508521DA6EDF50866F4D
:103AF0008651B76FB86BFFFFB75121EC39F0000169
:103B0000BA2BD3D7FFFFB92BBB2BC1D7FFFF1200B6
:103B1000FFFFFFFF0001846F4CD0FFFF00018351C6
:103B20007F0F876F87390F0B856F87510F0B866F5C
:103B3000855132EC37F00001865132EC37F048D035
:103B4000FFFF00018351BF0F876F87390F0B856F10
:103B500087510F0B866F855132EC37F0000186518B
:103B600032EC37F035D0FFFF00018351940F876F9F
:103B700087390F0B856F87510F0B866F855132EC9C
:103B800037F00001865132EC37F022D0FFFF000100
:103B90008351D40F876F87390F0B856F87510F0BB8
:103BA000866F855132EC37F00001865132EC37F0E8
:103BB0000FD0FFFF00018451010AD8B4AED7030A29
:103BC000D8B4BED7010AD8B4CED7070AD8B4DED746
:103BD000FFFF1200FFFFFFFF0E0E61EC3AF0000145
:103BE0008E6F8E518F6F906B905104E13C0E8F5D04
:103BF000D8A006D0905105E1FB0E8F5DD8A005D06E
:103C0000FFFF000E906F3C0E8F6FFFFFEBC08CF03C
:103C10008F51A6EC39F0EAC08CF000018F4B902B4D
:103C20008F51A6EC39F0E9C08CF000018F4B902B3E
:103C30008F51A6EC39F0ECC08CF000018F4B902B2B
:103C40008F51A6EC39F0EDC08CF000018F4B902B1A
:103C50008F51A6EC39F0FDC08CF000018F4B902BFA
:103C60008F51A6EC39F0FCC08CF000018F4B902BEB
:103C70008F51A6EC39F0FBC08CF000018F4B902BDC
:103C80008F51A6EC39F000018F4B902B8FC08CF038
:103C90000E0EA6EC39F01200FFFFFFFF0450D8B45F
:103CA00005D0015002100310D8A40ED0FFFF000E63
:103CB000016E000E026E000E036E4ED0FFFF042A4E
:103CC000D890033202320132FFFF000E0114066E5B
:103CD000000E0214076EFE0E0314086E0650071045
:103CE0000810D8B40DD0EAD7FFFF042A010E012630
:103CF000000E0222000E0322D8900332023201325B
:103D0000FFFF000E0114066E000E0214076EFF0E78
:103D10000314086E065007100810D8B407D0E4D773
:103D2000FFFF0406D890013602360336FFFF02BEBD
:103D300003D0020E0460F4D7FFFF04A0029ED890C7
:103D40000432045003120550D8A4038E01C001F0C0
:103D500002C002F003C003F0FFFF1200FFFFFFFFED
:103D600003AE16D001C007F002C008F003C009F08E
:103D7000071E081E091E072A000E08220922000E2F
:103D80000724016E000E0820026E800E0920036ECB
:103D9000FFFF06AE16D004C007F005C008F006C04D
:103DA00009F0071E081E091E072A000E0822092214
:103DB000000E0724046E000E0820056E800E0920F8
:103DC000066EFFFF000E011A000E021A800E031A83
:103DD000000E041A000E051A800E061A0450015C2B
:103DE0000550025806500358D8B002D0D89002D0DF
:103DF000FFFFD880FFFF1200FFFFFFFF000E000152
:103E0000856F83AF06D0826D831FD8B0832B010EE0
:103E1000856FFFFF81AF06D0806D811FD8B0812BE9
:103E2000010E851BFFFF000E876F000E866F82510B
:103E30008311D8B420D0010E846F05D0FFFFD89035
:103E400082378337842BFFFF83AFF8D7FFFFD890EB
:103E5000863787378251805D83518159D8A005D03C
:103E60008251805F8351815B8681FFFFD8908333CD
:103E70008233842FEBD7FFFF8551D8B404D0866DF1
:103E8000871FD8B0872BFFFF86C080F087C081F0E6
:103E90001200FFFFFFFF3AD0FFFF86C0D9FF87C0A7
:103EA000DAFFDF50D8B411D086C0D9FF87C0DAFF5F
:103EB000DF5000018C6F88C0F6FF89C0F7FF080053
:103EC000FFFFF5508C19D8B41CD0FFFF88C0F6FF57
:103ED00089C0F7FF0800FFFFF55000018C6F8D6B64
:103EE0008C1F8D1F8C4B8D2B86C0D9FF87C0DAFFAE
:103EF000DF508E6F8E518C25866F000E8D21876F5F
:103F000013D0FFFF864B872B884B892BFFFF0001C7
:103F10008A07D8A08B078A29C0E18B29D8A4BCD7EF
:103F2000000E876F000E866FFFFF1200FFFFFFFF7E
:103F300035D0FFFF8FC086F090C087F091C088F029
:103F400092C089F091C080F092C081F0B7EC3AF055
:103F500080C08AF081C08BF04AEC1FF000018651CE
:103F60008711D8A405D08FC08FF090C090F028D0D2
:103F7000FFFF010E8F25806F000E9021816F91C091
:103F8000F6FF92C0F7FF0800FFFFF550826F836BCA
:103F900001EC39F080C08FF081C090F0FFFF00018C
:103FA0008F519011D8B407D08FC0D9FF90C0DAFFDD
:103FB000DF50D8A4BED7FFFF000E8F6F000E906FAA
:103FC000FFFF1200FFFFFFFF000E0001866F000ED3
:103FD000866FFFFF130E866501D00FD0FFFF86515D
:103FE000010DF3508425D96EF4508521DA6EDF502F
:103FF00021EC39F00001862BECD7FFFF1200FFFF08
:106C9C002020202062003C0101010520FFFFABEC0D
:106CAC0036F0C5801200FFFFFFFFABEC36F0C58459
:106CBC001200FFFFFFFFABEC36F0C5821200FFFFA6
:106CCC00FFFFB7EC36F0C5801200FFFFFFFFB7ECFB
:106CDC0036F0C5841200FFFFFFFFB7EC36F0C5821B
:106CEC001200FFFFFFFFABEC36F002C0C9FF120031
:106CFC00FFFFFFFFB7EC36F08AC0C9FF1200FFFFA1
:106D0C00FFFFACA2FDD780C0ADFF1200FFFFFFFF5D
:106D1C00000E32EC37F0010E32EC37F01200FFFFB0
:106D2C00FFFF0001806FFFFFACA2FDD780C0ADFF5D
:106D3C001200FFFFFFFF016E01380F0B0F0B0A0D46
:106D4C0001500F0BF3241200FFFFFFFFC7B4FDD758
:106D5C00C5CF01F01F0E0116D8B41200FFFFF5D7F6
:106D6C00FFFFFFFFC7B4FDD7C5CF80F01F0E00019A
:106D7C008017D8B41200FFFFF4D7FFFFFFFF00010C
:106D8C00806F000180390F0B0F0B0A0D80510F0B18
:106D9C00F3241200FFFFFFFF086E06C004F008503A
:106DAC0088EC38F00750066E076A06C004F0082815
:106DBC0088EC38F01200FFFFFFFF09C001F00AC099
:106DCC0002F0036A8E0E046E000E056E4DEC1EF082
:106DDC0001C009F002C00AF003C00BF01200FFFF63
:106DEC00FFFFC284190EFFFFE82EFDD7FFFFC2A4E0
:106DFC00FDD7C450046E036AC3500324016E000E09
:106E0C000420026E1200FFFFFFFF0001826F000ED4
:106E1C000001816F3A0E826105D02F0E826502D07F
:106E2C00010E816FFFFF81C080F080311200FFFFE7
:106E3C00FFFF000E0001F26F000EF36F010EFB6FEF
:106E4C00010EFD6F010EFC6F000E6C6E000E6D6E70
:106E5C00FBEC37F01200FFFFFFFF0001826F839203
:106E6C000001825184EC39F083801E0E0001816F89
:106E7C003C0EFFFFE82EFDD7812FFBD700F083904F
:106E8C001200FFFFFFFF000180518203F3CF84F05B
:106E9C00F4CF85F080518303F35085278151820311
:106EAC00F350852784C080F085C081F01200FFFF6D
:106EBC00FFFF0BD0FFFF020E036EF20EFFFFE82E5A
:106ECC00FDD7032EFBD700D00400FFFF0106D8A08E
:106EDC0002060128F0E10228D8B41200FFFFEAD71D
:106EEC00FFFFFFFF54EC36F0000E036ED00E026E67
:106EFC0078EC36F0000E036E070E026E78EC36F06E
:106F0C00000E036E000E026E78EC36F05AEC36F082
:106F1C001200FFFFFFFF3C0E0001A16F010EA26FDC
:106F2C00740EA36F7C0EA46FC9EC39F00001D9511B
:106F3C00DA11D8A406D0000EF16F030EF36F000E19
:106F4C00DE6FFFFF1200FFFFFFFFABEC36F0C586D4
:106F5C00ABEC36F0C9CF04F0056AABEC36F002505E
:106F6C000310D8A402D0C58A02D0FFFFC59AFFFF38
:106F7C00C58804C002F005C003F01200FFFFFFFF3C
:106F8C000CD0FFFF020E0001826FF20EFFFFE82E05
:106F9C00FDD7822FFBD700F00400FFFF0001800714
:106FAC00D8A081078029EEE18129D8B41200FFFF17
:106FBC00E8D7FFFFFFFF000E666E000E0001806F2A
:106FCC00010E816F000E836F000E826F000E856FB5
:106FDC003C0E846F4EEC38F0000E0001816F960E63
:106FEC00806FC5EC37F01200FFFFFFFF000E0001B1
:106FFC00806F000E806FFFFF070E806501D00DD0F3
:10700C00FFFF8051010D440EF324D96E000EF420C5
:10701C00DA6E000EDF6E802BEED7FFFF1200FFFF43
:10702C00FFFF66EC36F0000E00018B6FD00E8A6FFE
:10703C007FEC36F0000E00018B6F070E8A6F7FEC31
:10704C0036F0000E00018B6F000E8A6F7FEC36F06D
:10705C006CEC36F01200FFFFFFFF0001936F000194
:10706C00932961EC3AF00001906F9051916F926B03
:10707C009151926F916B935161EC3AF00001906FCA
:10708C009051911391C08EF092C08FF01200FFFFBF
:10709C00FFFF80C086F081C087F00AD0FFFF86C05A
:1070AC00D9FF87C0DAFF82C0DFFF0001864B872B38
:1070BC00FFFF00018407D8A085078429F0E185290A
:1070CC00D8B41200FFFFEAD7FFFFFFFFB7EC36F092
:1070DC00C586B7EC36F0C9CF83F00001846BB7ECF2
:1070EC0036F0000181518211D8A402D0C58A02D099
:1070FC00FFFFC59AFFFFC58883C081F084C082F072
:10710C001200FFFFFFFF056E54EC36F0000E036E0D
:10711C00A00E026E78EC36F005C002F0036A78EC33
:10712C0036F004C002F0036A78EC36F05AEC36F014
:10713C00000E026E0F0E016E5EEC37F01200FFFFB8
:10714C00FFFF000E00018F6F010E906F93C091F046
:10715C0094C092F097EC1FF000018F519011D8B4AD
:10716C0008D0000E816F960E806FC5EC37F0010EC3
:10717C0002D0FFFF000EFFFF1200FFFFFFFF000E0B
:10718C000001B76F000EB86F2C0EB96F6D0EBA6F91
:10719C00A30EB56F000EB66FB70E8C6F000E8D6F11
:1071AC00A1C08EF0A2C08FF0B50E906F000E916F43
:1071BC008EEC00F01200FFFFFFFF6750D8B418D020
:1071CC00000E0001846F820782C084F00CD0FFFF98
:1071DC008451010DF3508025D96EF4508121DA6E63
:1071EC00200EDF6E842BFFFF8351845DD8A0EFD778
:1071FC00FFFF1200FFFFFFFF80C0D9FF81C0DAFF45
:10720C0000018251DE18D8A405D080C080F081C066
:10721C0081F00ED0FFFF80C0D9FF81C0DAFF804B18
:10722C00812BDF50D8A4E7D7000E806F000E816F42
:10723C00FFFF1200FFFFFFFF0001836F000183516E
:10724C000F0B816F8351F00B826F838282390F0B8E
:10725C0084EC39F083804B0EFFFFE82EFDD7839032
:10726C000001815184EC39F083804B0EFFFFE82E36
:10727C00FDD783901200FFFFFFFF0001886F88C0CD
:10728C0080F00001816B000E836F0A0E826FFDECA3
:10729C001EF000018039F00B896F88C080F0816B83
:1072AC00000E836F0A0E826F34EC3CF000018051AB
:1072BC008911896F89511200FFFFFFFF0001E8510E
:1072CC00E75DD8A018D0EF05D8A415D0F151D8A4FB
:1072DC0012D0E651EC19D8A40ED0000EE76FE7C01F
:1072EC008CF00A0EA6EC39F0000E726E010E000145
:1072FC00F16F1C0EDE6FFFFF1200FFFFFFFF00019E
:10730C00806F000180A102D0838402D0FFFF8394A0
:10731C00FFFF80A302D0838602D0FFFF8396FFFF7E
:10732C0080A502D0838802D0FFFF8398FFFF80A73F
:10733C0002D0838A02D0FFFF839AFFFF1200FFFF67
:10734C00FFFF00018D6F66EC36F0000E00018B6FB5
:10735C00A00E8A6F7FEC36F08DC08AF000018B6B2B
:10736C007FEC36F08CC08AF000018B6B7FEC36F032
:10737C006CEC36F0000E0001816F0F0E806FC5ECC7
:10738C0037F01200FFFFFFFFA1C0B1F0A2C0B2F0B6
:10739C00000E0001B36F000EB46FA50EAF6F000EA0
:1073AC00B06FB10E8C6F000E8D6FA3C08EF0A4C0A9
:1073BC008FF0AF0E906F000E916F8EEC00F0B1C09D
:1073CC00D9FFB2C0DAFF000EDF6E1200FFFFFFFF25
:1073DC00000E0001816F8492000E816F15D0FFFFAB
:1073EC0084908151010D440EF324D96E000EF420CB
:1073FC00DA6EDF50806F8047804784508019FB0B1A
:10740C008019846E8480812BFFFF070E8165E7D77E
:10741C0084821200FFFFFFFF1F0E7A6402D0000E61
:10742C007A6EFFFF170E796402D0000E796EFFFFA3
:10743C003B0E786402D0000E786EFFFF0C0E7B645E
:10744C0002D0000E7B6EFFFF3B0E776402D0000E65
:10745C00776EFFFF630E7C6402D0000E7C6EFFFF24
:10746C001200FFFFFFFF000189518A11D8B41CD014
:10747C00010E8B6F05D0FFFFD89089378A378B2B85
:10748C00FFFF8AAFF8D7FFFF8951875D8A51885972
:10749C00D8A004D08951875F8A51885BFFFFD890B0
:1074AC008A3389338B2FEFD7FFFF87C087F088C0D3
:1074BC0088F01200FFFFFFFF00018C6F66EC36F0C6
:1074CC00000E00018B6FA00E8A6F7FEC36F08CC023
:1074DC008AF000018B6B7FEC36F072EC36F0000E0C
:1074EC0000018B6FA10E8A6F7FEC36F0000E00014D
:1074FC00826F000E816F6BEC38F0000181518D6F43
:10750C006CEC36F000018D511200FFFFFFFF810E75
:10751C00C26ECE0EC16E92808090810ED56EE40E3E
:10752C00F26E959A95989596959495929590949CC3
:10753C00948EAC8AAC84AC98AB8EAB88190EAF6EC3
:10754C00F28EF28C9E9A9D8AF2969284928A948004
:10755C00938493869388938A96909692969412002D
:10756C00FFFFFFFF80C084F081C085F004D0FFFFD7
:10757C000001844B852BFFFF84C0F6FF85C0F7FF0D
:10758C00F86A050EF76404D00800FFFFF55005D02B
:10759C00F6CFE9FFF7CFEAFFEF500009D8A4E7D701
:1075AC0080C082F081C083F00001821F831F824B58
:1075BC00832B84518225806F85518321816F12002A
:1075CC00FFFFFFFF000E0001856F000E846F8251DC
:1075DC008311D8B420D0010E866F05D0FFFFD89050
:1075EC0082378337862BFFFF83AFF8D7FFFFD89006
:1075FC00843785378251805D83518159D8A005D05D
:10760C008251805F8351815B8481FFFFD8908333EB
:10761C008233862FEBD7FFFF84C080F085C081F0CA
:10762C001200FFFFFFFF280EC66E000EC56E000E87
:10763C000001806F120E816F7A0E826F000E836FC5
:10764C008DC091F08EC092F08FC093F090C094F0EA
:10765C00020EFFFFD8909137923793379437E82E6C
:10766C00F8D791C084F092C085F093C086F094C096
:10767C0087F0BBEC3CF000018005C86E000EC76EB5
:10768C00948694881200FFFFFFFF0001806F21D0C9
:10769C00FFFF6450D8B41AD0000E646E14D0FFFFF4
:1076AC006050D8B413D0000E606E0DD0FFFF625046
:1076BC00D8B40CD0000E626E06D0FFFF5E50D8B46A
:1076CC0005D0000E5E6EFFFF010E13D0FFFF000E03
:1076DC0010D0FFFF00018051010AD8B4D9D7030A9A
:1076EC00D8B4E4D7010AD8B4DAD7070AD8B4E5D7A6
:1076FC00EDD7FFFF1200FFFF9C0EF66E6C0EF76EBF
:10770C00000EF86E01EEBCF010EE04F00900F5CF9F
:10771C00EEFFE550E150FAE1A00EF66E6C0EF76E3E
:10772C00000EF86E00EEF8F010EE08F00900F5CF40
:10773C00EEFFE550E150FAE101EE00F0BC0EEE6A0E
:10774C00E806FDE100EED9F01F0EEE6AE806FDE159
:10775C0000EE44F0390EEE6AE806FDE17D907D9274
:10776C00000EF86E0001E6EF06F0FFFF7B0E000145
:10777C00A16F010EA26F9B0EA36F7F0EA46FC9ECBD
:10778C0039F0660E0001A16F010EA26FD80EA36F27
:10779C007C0EA46FC9EC39F0510E0001A16F010EE3
:1077AC00A26FB80EA36F7D0EA46FC9EC39F03C0E1E
:1077BC000001A16F010EA26F090EA36F7F0EA46FC3
:1077CC00E50EA56F7E0EA66FC9EC39F0010E4AECE2
:1077DC003BF00009D8A4DDC0DEF01200FFFFFFFF74
:1077EC0081B402D0010E656EFFFF81A407D06550F5
:1077FC00D8B404D0010E646E000E656EFFFF81B824
:10780C0002D0010E636EFFFF81A807D06350D8B47D
:10781C0004D0010E626E000E636EFFFF81BA02D0BF
:10782C00010E616EFFFF81AA07D06150D8B404D05D
:10783C00010E606E000E616EFFFF81B602D0010E6C
:10784C005F6EFFFF81A607D05F50D8B404D0010E45
:10785C005E6E000E5F6EFFFF1200FFFFFFFF000E5B
:10786C000001856F81AF06D0806D811FD8B0812B50
:10787C00010E856FFFFF83AF04D0826D831FD8B0DC
:10788C00832BFFFF82518311D8B41CD0010E846F5F
:10789C0005D0FFFFD89082378337842BFFFF83AF4F
:1078AC00F8D7FFFF8251805D83518159D8A004D055
:1078BC008251805F8351815BFFFFD8908333823389
:1078CC00842FEFD7FFFF8551D8B404D0806D811F72
:1078DC00D8B0812BFFFF80C080F081C081F01200F6
:1078EC00FFFFFFFF000E84EC39F03B0E0001836FAD
:1078FC00790EFFFFE82EFDD7832FFBD700D000F0C9
:10790C00030E32EC37F01E0E0001836F3C0EFFFFAE
:10791C00E82EFDD7832FFBD700F0030E32EC37F0A7
:10792C00270E0001836FFB0EFFFFE82EFDD7832F80
:10793C00FBD700D000F0030E32EC37F0020E32EC25
:10794C0037F0020E32EC37F0080E32EC37F0000E46
:10795C0032EC37F00C0E32EC37F0000E32EC37F024
:10796C00060E32EC37F01200FFFFFFFF000E000195
:10797C00886F000E896F000E8A6F000E8B6F84511A
:10798C00851186118711D8B42ED0010E8C6F07D0BB
:10799C00FFFFD89084378537863787378C2BFFFFCE
:1079AC0087AFF6D7FFFFD890883789378A378B3760
:1079BC008451805D855181598651825987518359F3
:1079CC00D8A009D08451805F8551815B8651825B40
:1079DC008751835B8881FFFFD8908733863385334B
:1079EC0084338C2FDFD7FFFF88C080F089C081F0F3
:1079FC008AC082F08BC083F01200FFFFFFFF0001F2
:107A0C00BF6F630E0001BF6104D0BFC0C0F0C16B7B
:107A1C0005D0FFFF000EC16F630EC06FFFFFBCC12E
:107A2C00BBF0BDC1BCF0BEC1BDF0BFC1BEF0C0C09B
:107A3C0080F0C1C081F0000E836F0A0E826FFDECE6
:107A4C001EF000018051300FBB6F2E0EBC6FC0C0FA
:107A5C0080F0C1C081F0000E836F0A0E826F34EC8F
:107A6C003CF000018051300FBD6F000EBE6FB70EA1
:107A7C00A16F000EA26FBB0EA36F000EA46FC9EC1A
:107A8C0039F0B70E0001B56F000EB66F1200FFFF94
:107A9C0000001F0E04040404040000000000101079
:107AAC001000000004041414140001010505151540
:107ABC00150A0A1F11110E0404000000000000003A
:107ACC000001000A006400E8031027544543484EA7
:107ADC004F572053697374656D617320656D6261D6
:107AEC00726361646F730D0A0D0A546573746520BB
:107AFC006D616E75616C20646520636F6D756E6968
:107B0C00636163616F2E0D0A446174613A20253004
:107B1C0032642F253032642F2530326420253032E8
:107B2C00643A253032643A253032640D0A0D0A0D60
:107B3C000A56657273616F20646F20736973746584
:107B4C006D613A2025730D0A005445535445204469
:107B5C004520424F4D424153205245414C495A41D8
:107B6C00444F0D0A454D20253032643A253032649D
:107B7C003A2530326420253032642F253032642F80
:107B8C00253032640D0A4A4F434B45593A20257330
:107B9C000D0A5052494E434950414C3A2025730D21
:107BAC000A434F4D42555354414F3A2025730D0A09
:107BBC00004449535041524F20414C41524D4520B5
:107BCC00444520494E43454E44494F0D0A454D20EE
:107BDC00253032643A253032643A2530326420251F
:107BEC003032642F253032642F253032640D0A0078
:107BFC00446174613A20253032642F253032642F71
:107C0C002530326420253032643A2530326400202D
:107C1C00253032643A253032643A253032642025DE
:107C2C003032642F2530326400202A66616C686122
:107C3C0020422E207072696E636970616C00202A7C
:107C4C0066616C686120422E20636F6D627573747F
:107C5C00616F002350726F78696D6F20656D202500
:107C6C003264206469617300446573707265737368
:107C7C007572697A616E646F2E2E2E0020414C4510
:107C8C0052544120444520494E43454E44494F00EF
:107C9C00202A66616C68612076616C2E206C6164B0
:107CAC0072616F00494E54455256414C4F3A202553
:107CBC003264206469617300484F524152494F3A13
:107CCC00202530326420686F7261730053697374BD
:107CDC00656D617320656D6261726361646F7300C1
:107CEC002050726573732045534320702F205265CA
:107CFC0073657400426F6D6261205072696E6369C6
:107D0C0070616C2E2E2E00426F6D626120436F6D80
:107D1C0062757374616F2E2E2E0023686F72696DFD
:107D2C006574726F3A253564206D696E00436F6E11
:107D3C0066696775726163616F2074656D706F0041
:107D4C004572726F206E6F205472616E736475741D
:107D5C006F720041542B434D47533D222B35352533
:107D6C0073220D0A005041525449444120434F4D57
:107D7C0042555354414F00504552494F444F2044B3
:107D8C00452054455354455300202A66616C686164
:107D9C0020422E206A6F636B65790054657374659D
:107DAC0020436F6E636C7569646F21002020203452
:107DBC00382039393930362D3536353100202A66A0
:107DCC00616C686120656C65747269636100456EF5
:107DDC007669617220736D732074657374650065C8
:107DEC006E7669616E646F20534D532E2E2E0042B9
:107DFC006F6D6261204C69676164612E2E2E0042AA
:107E0C006F6D6261204A6F636B65792E2E2E005068
:107E1C0052455353414F2044412052454445005054
:107E2C0072657373616F20257320424152002530B7
:107E3C0032642F253032642F2530326400253032E5
:107E4C00643A253032643A25303264005052494E3F
:107E5C00434950414C203A20257300434F4D425525
:107E6C005354414F203A2025730041677561726469
:107E7C00652E2E2E2025647300496E69636961722C
:107E8C00205465737465730056657273616F20536B
:107E9C006F66742E3A004D61782E20504152544931
:107EAC0044413A005072696E636970616C3A2025E6
:107EBC007300436F6D62757374616F3A20257300A4
:107ECC0020616775617264652E2E2E200041542B43
:107EDC00434D47463D310D0A004175672032352030
:107EEC0032303139004D61782E2054455354453A87
:107EFC0000494E464F2056455253414F007665720D
:107F0C0073616F202D20257300415444203025735C
:107F1C003B0D0A0074657461706120256420002398
:107F2C00253032642F2530326400474552414C20B5
:107F3C003A202573004A4F4B4559203A20257300AF
:107F4C004154495641523A20257300444154412F23
:107F5C00484F524100444154414C4F474552005404
:107F6C00454C45464F4E4553007473696E616C2009
:107F7C002564004A6F6B65793A2025730041542BB8
:107F8C004353510D0A0065746170612025640054DF
:107F9C004543484E4F5700286E756C6C2900415470
:107FAC0048300D0A002B4353513A200054313A20EB
:107FBC0025730054323A20257300484F52413A0041
:107FCC00444154413A0046414C4841004552524FBD
:107FDC00520041540D0A004552524F00257325633F
:107FEC0000253364730053696D004E616F004F4B75
:047FFC00003E000043
:020000040020DA
:08000000FFFFFFFFFFFFFFFF00
:020000040030CA
:0E000000FF220F0FFF0181FF004000E00F0004
:00000001FF
