:1000000000F08CEF00F00120FFFF7E82FACF31F08C
:10001000FBCF32F0E9CF33F0EACF34F0E1CF35F067
:10002000E2CF36F0D9CF37F0DACF38F0F3CF39F06E
:10003000F4CF3AF0F6CF3BF0F7CF3CF0F8CF3DF0FD
:10004000F5CF3EF07EC03FF07FC040F080C041F071
:1000500081C042F0F2A41AD0F2943C0ED76EB00EDA
:10006000D66E6D2A050E6D18D8B4631EE8EC0DF03F
:10007000C7EC3AF0090E6D6409D0000E6D6E631E78
:10008000FFEC15F0ABA202D0AB98AB88FFFF9EAAA5
:100090001BD0AECF43F00A0E4318D8B40FD00D0ECC
:1000A0004318D8B40BD06250010D050EF324D96E5D
:1000B000010EF420DA6E43C0DFFF622AFFFF3B0E21
:1000C000626402D0000E626EFFFF42C081F041C048
:1000D00080F040C07FF03FC07EF03EC0F5FF3DC0E5
:1000E000F8FF3CC0F7FF3BC0F6FF3AC0F4FF39C051
:1000F000F3FF38C0DAFF37C0D9FF36C0E2FF35C0A2
:10010000E1FF34C0EAFF33C0E9FF32C0FBFF31C07A
:10011000FAFF7E921100FFFF91EF3BF0FFFFD7D374
:10012000FFFF250E0001A019D8B437D020EE02F051
:100130008C51D9268D51DA22DE50DE10D8B416D07B
:1001400020EE02F08C51D9268D51DA2201D8BFD38E
:10015000FFFF0500FA6EDE50FD6EDE50FE6EF850B9
:10016000FF6EFA50A0511200FFFFB1D3FFFF8CC009
:10017000D9FF8DC0DAFFDECF92F0DDCF93F092C0D1
:10018000D9FF93C0DAFFA0C0DFFF8CC0D9FF8DC0BC
:10019000DAFFDE2A000EDD229AD3FFFF000E0001F7
:1001A0009F6F000E9E6F000E9B6F05D0FFFF00013A
:1001B0009B858E4B8F2BFFFF8EC0F6FF8FC0F7FF06
:1001C000F86A050EF76404D00800FFFFF55005D06B
:1001D000F6CFE9FFF7CFEAFFEF50300AD8B4E6D701
:1001E0008EC0F6FF8FC0F7FFF86A050EF76404D0E3
:1001F0000800FFFFF55005D0F6CFE9FFF7CFEAFF83
:10020000EF503CEC36F0D8A06BD1000E00019F6F90
:10021000000E9E6FFFFF9EC080F09FC081F0000E19
:100220000001836F0A0E826F66EC36F080C09EF08C
:1002300081C09FF0D00E0001926FFF0E936F8EC0B1
:10024000F6FF8FC0F7FFF86A050EF76404D00800C8
:10025000FFFFF55005D0F6CFE9FFF7CFEAFFEF50EB
:100260000001946F956B925194279351952394516B
:100270009E2795519F238E4B8F2B8EC0F6FF8FC0EC
:10028000F7FFF86A050EF76404D00800FFFFF55089
:1002900005D0F6CFE9FFF7CFEAFFEF503CEC36F0A0
:1002A000D8A01ED1B7D7FFFF90C0D9FF91C0DAFF09
:1002B000DFCF92F0020EDE26DFCF93F0000EDD22BC
:1002C00092C0D9FF93C0DAFFDECF9CF0DDCF9DF066
:1002D00000019C519D11D8A404D0A30E9C6F7F0EE9
:1002E0009D6FFFFF000E9A6F000E996F04D0FFFF05
:1002F0000001994B9A2BFFFF99519C25926F9A51BF
:100300009D21936F92C0F6FF93C0F7FFF86A050E28
:10031000F76404D00800FFFFF55005D0F6CFE9FFE1
:10032000F7CFEAFFEF500009D8A4E1D7FFFF0001A3
:100330009E51995D9F519A59D8B005D099519E5FB1
:100340009A519F5B3DD0FFFF000E9F6F000E9E6F86
:1003500037D0FFFF20EE02F08C51D9268D51DA22E2
:10036000DE50DE10D8B416D020EE02F08C51D92623
:100370008D51DA2201D824D0FFFF0500FA6EDE503D
:10038000FD6EDE50FE6EF850FF6EFA50200E120029
:10039000FFFF16D0FFFF8CC0D9FF8DC0DAFFDECF84
:1003A00092F0DDCF93F092C0D9FF93C0DAFF200E18
:1003B000DF6E8CC0D9FF8DC0DAFFDE2A000EDD2291
:1003C000FFFF00019E07D8A09F079E29C3E19F2938
:1003D000D8B45FD0BED7FFFF20EE02F08C51D926F3
:1003E0008D51DA22DE50DE10D8B42AD020EE02F091
:1003F0008C51D9268D51DA2201D81DD0FFFF05007E
:10040000FA6EDE50FD6EDE50FE6EF850FF6EFA5052
:100410009CC0F6FF9DC0F7FFF86A050EF76404D094
:100420000800FFFFF55005D0F6CFE9FFF7CFEAFF50
:10043000EF501200FFFFFFFF00019C4B9D2B29D0C6
:10044000FFFF9CC0F6FF9DC0F7FFF86A8CC0D9FF84
:100450008DC0DAFFDECF92F0DDCF93F092C0D9FFEE
:1004600093C0DAFF050EF76404D00800FFFFF550D3
:1004700005D0F6CFE9FFF7CFEAFFEF50DF6E0001BE
:100480009C4B9D2B8CC0D9FF8DC0DAFFDE2A000E5D
:10049000DD22FFFF9907D8A09A0799299DE19A29A3
:1004A000D8B415D298D7FFFF90C0D9FF91C0DAFF1A
:1004B000DFCF92F0020EDE26DFCF93F0000EDD22BA
:1004C00092C0D9FF93C0DAFFDF50A06FFFFFA00EEC
:1004D0009C6F000E9D6F000E9A6F010E996F26D7CC
:1004E000FFFF00018E51926F8F51936F8E4B8F2BB8
:1004F00092C0F6FF93C0F7FFF86A050EF76404D0C8
:100500000800FFFFF55005D0F6CFE9FFF7CFEAFF6F
:10051000EF500001A06FA051000AD8B4F6D1630AD1
:10052000D8B4C1D7070AD8B407D00D0AD8B404D0BC
:100530001A0AD8B4B8D6CAD7FFFF90C0D9FF91C065
:10054000DAFFDFCF92F0020EDE26DFCF93F0000E4F
:10055000DD2292C0D9FF93C0DAFFDECF97F0DDCF66
:1005600098F0000198AF06D0030E9B13976D981F6B
:10057000D8B0982BFFFF010EA06FFFFF050EA0194A
:10058000D8B414D0A051020DC90EF324F66E7A0E21
:10059000F420F76E0900FFFFF550975D0900FFFF9B
:1005A000F5509859D8A002D0A02BE7D7FFFF9E5155
:1005B0009F11D8B409D09BC092F0030E9217D8B403
:1005C00003D09E07D8A09F07FFFF800EA0BF7F0E1D
:1005D000926F9E51A05D9F51800A9259D8B007D06A
:1005E000A0519E5F000EA0BFFF0E9F5B05D0FFFFD6
:1005F000000E9F6F000E9E6FFFFF9BA57FD09BC0DC
:1006000092F0030E9217D8B436D020EE02F08C513F
:10061000D9268D51DA22DE50DE10D8B416D020EE65
:1006200002F08C51D9268D51DA2201D824D0FFFF57
:100630000500FA6EDE50FD6EDE50FE6EF850FF6E65
:10064000FA502D0E1200FFFF16D0FFFF8CC0D9FF0D
:100650008DC0DAFFDECF92F0DDCF93F092C0D9FFEC
:1006600093C0DAFF2D0EDF6E8CC0D9FF8DC0DAFF8C
:10067000DE2A000EDD22FFFF0001FFFF9E519F11C9
:10068000D8B4BED020EE02F08C51D9268D51DA229A
:10069000DE50DE10D8B416D020EE02F08C51D926F0
:1006A0008D51DA2201D824D0FFFF0500FA6EDE500A
:1006B000FD6EDE50FE6EF850FF6EFA50300E1200E6
:1006C000FFFF16D0FFFF8CC0D9FF8DC0DAFFDECF51
:1006D00092F0DDCF93F092C0D9FF93C0DAFF300ED5
:1006E000DF6E8CC0D9FF8DC0DAFFDE2A000EDD225E
:1006F000FFFF00019E07D8A09F07BFD7FFFF9E51B5
:100700009F11D8B440D0FFFF20EE02F08C51D926C3
:100710008D51DA22DE50DE10D8B416D020EE02F071
:100720008C51D9268D51DA2201D824D0FFFF050043
:10073000FA6EDE50FD6EDE50FE6EF850FF6EFA501F
:10074000200E1200FFFF16D0FFFF8CC0D9FF8DC016
:10075000DAFFDECF92F0DDCF93F092C0D9FF93C0E5
:10076000DAFF200EDF6E8CC0D9FF8DC0DAFFDE2AE3
:10077000000EDD22FFFF00019E07D8A09F079E51BB
:100780009F11D8A4C0D7FFFF9BC092F0030E921711
:10079000D8B436D020EE02F08C51D9268D51DA2211
:1007A000DE50DE10D8B416D020EE02F08C51D926DF
:1007B0008D51DA2201D824D0FFFF0500FA6EDE50F9
:1007C000FD6EDE50FE6EF850FF6EFA502D0E1200D8
:1007D000FFFF16D0FFFF8CC0D9FF8DC0DAFFDECF40
:1007E00092F0DDCF93F092C0D9FF93C0DAFF2D0EC7
:1007F000DF6E8CC0D9FF8DC0DAFFDE2A000EDD224D
:10080000FFFFA0C096F05DD0FFFF00019651020DE2
:10081000C90EF324F66E7A0EF420F76E0900FFFF7E
:10082000F5CF82F00A00FFFFF5CF83F097C080F08C
:1008300098C081F0F2EC39F080C087F081C088F078
:10084000000E00018A6F0A0E896F43EC39F0000137
:100850008751300FA06F20EE02F08C51D9268D51B8
:10086000DA22DE50DE10D8B416D020EE02F08C5121
:10087000D9268D51DA2201D824D0FFFF0500FA6E67
:10088000DE50FD6EDE50FE6EF850FF6EFA50A05145
:100890001200FFFF16D0FFFF8CC0D9FF8DC0DAFF1A
:1008A000DECF92F0DDCF93F092C0D9FF93C0DAFF94
:1008B000A0C0DFFF8CC0D9FF8DC0DAFFDE2A000E9A
:1008C000DD22FFFF000196079629D8A49DD7FFFFE0
:1008D00000018E51926F8F51936F8E4B8F2B92C070
:1008E000F6FF93C0F7FFF86A050EF76404D008001E
:1008F000FFFFF55005D0F6CFE9FFF7CFEAFFEF5045
:100900000001A06FA051D8A40BD4FFFF000E00017E
:100910008D6F000E8C6F1200FFFFFFFF010E55EC74
:100920003AF00009D8B433D0000E0001F16F000E88
:10093000F46F000E6E6E060E6CEC39F00001D96F8C
:10094000D951D8A405D0000ED06F010ECF6F04D0BE
:10095000FFFFD9C0CFF0D06BFFFFCFC0E9F0DFC001
:10096000E0F0000EDA6F000EDA6FFFFF070EDA65B7
:1009700001D00DD0FFFFDA51010D440EF324D96EE2
:10098000000EF420DA6E000EDF6EDA2BEED7FFFFDA
:100990000A0E6E6016D2830E0001A16F010EA26FC7
:1009A0005C0EA36F7E0EA46FDBC0A5F0DCC0A6F0CA
:1009B000DCEC1FF00001F9511FEC3CF0B5C0CDF0AC
:1009C000B6C0CEF06D0E0001A16F010EA26F110E28
:1009D000A36F7E0EA46FCDC0A5F0CEC0A6F0DCEC58
:1009E0001FF0EFD1FFFF000E0001E86FE8C08CF0B0
:1009F0000A0EF9EC38F0010E466E000E0001DC6FB5
:100A00001E0EDB6F010E6E6E26D0FFFFC6EC36F0B9
:100A1000F60E0001C86FFF0EC96FE551CA6FCB6BB0
:100A2000C851CA27C951CB23F951CA5DCB51800A9D
:100A3000CC6FFA51800ACC59D8A0EDD1000E466E89
:100A4000F551D8A4E8D1010E4A6E020E6E6E000E6A
:100A5000DC6F320EDB6FFFFF050E2CD0FFFF410E67
:100A60000001A16F010EA26FF10EA36F7D0EA46FA6
:100A7000DCEC1FF00001E551C86FC96BC851F95D8E
:100A8000FA51800ACA6FC951800ACA59D8A006D043
:100A9000000E4A6E010EFE6F030E6E6EFFFFDB51FD
:100AA000DC11D8A4B8D1000EFE6F030E54D0FFFFA6
:100AB000040E59D0FFFFF56FAED1FFFFC6EC36F044
:100AC000F60E0001C86FFF0EC96FE551CA6FCB6B00
:100AD000C851CA27C951CB23F951CA5DCB51800AED
:100AE000CC6FFA51800ACC59D8A095D1000E466E31
:100AF000F551D8A490D1010E496E050E6E6E000E10
:100B0000DC6F320ECBD0FFFF410E0001A16F010E52
:100B1000A26FF70EA36F7C0EA46FDCEC1FF0000138
:100B2000E551C86FC96BC851F95DFA51800ACA6FA7
:100B3000C951800ACA59D8A006D0000E496E010ECC
:100B4000FD6F060E6E6EFFFFDB51DC11D8A463D182
:100B5000000EFD6F060EFFFF6E6E000EDC6F1E0EA8
:100B60009DD0FFFF070EFFFF6E6E010E466E050E55
:100B70000001A0D7FFFFC6EC36F0F60E0001C86FEB
:100B8000FF0EC96FE551CA6FCB6BC851CA27C95157
:100B9000CB23F951CA5DCB51800ACC6FFA51800A40
:100BA000CC59D8A038D1000E466EF551D8A433D117
:100BB000080E6E6EE6C0DBF0DC6B2DD1FFFF410E40
:100BC0000001A16F010EA26F0A0EA36F7D0EA46F2C
:100BD000DCEC1FF0010EDDEC1CF00001F051D8A49C
:100BE0000DD0E551C86FC96BC851F95DFA51800A43
:100BF000CA6FC951800ACA59D8A008D0FFFF010E98
:100C0000FC6F67C0DBF0DC6B090E6E6EFFFFFC5102
:100C1000D8B404D0DB51DC11D8A4FDD0FFFF0A0EFC
:100C20006E6E000EFC6FF7D0FFFF80AA05D0BF0EDE
:100C30000001D16F7E0E05D0FFFF570E0001D16F6E
:100C40007F0EFFFFD26F410EA16F010EA26F920EB9
:100C5000A36F7F0EA46FD1C0A5F0D2C0A6F0DCECCC
:100C60001FF0010EDDEC1CF00001DB51DC11D8B4EB
:100C700003D0FC51D8A4CFD0FFFF0A0E6E6ECBD0AC
:100C8000FFFF7DEC1EF0020EDDEC1CF031EC37F0C6
:100C90000B0E6E6E000E0001DC6F0A0EFFFFDB6FA5
:100CA000BAD0FFFF820E0001A16F010EA26F9D0E50
:100CB000A36F7D0EA46FDCEC1FF00001FE05D8B41D
:100CC00004D0E30ED36F7F0E04D0FFFFFA0ED36F74
:100CD0007F0EFFFFD46F6B0EA16F010EA26F410E4E
:100CE000A36F7F0EA46FD3C0A5F0D4C0A6F0DCEC38
:100CF0001FF00001FD05D8B404D0E30ED56F7F0EC0
:100D000004D0FFFFFA0ED56F7F0EFFFFD66F560E91
:100D1000A16F010EA26F3E0EA36F7E0EA46FD5C011
:100D2000A5F0D6C0A6F0DCEC1FF00001FC05D8B49D
:100D300004D0E30ED76F7F0E04D0FFFFFA0ED76FFB
:100D40007F0EFFFFD86F410EA16F010EA26F4D0EF7
:100D5000A36F7E0EA46FD7C0A5F0D8C0A6F0DCECC0
:100D60001FF00001DB51DC11D8A455D00C0E6E6EC3
:100D7000000EDC6F780EDB6F000EF76F010E17D0E0
:100D8000FFFF430E0001A16F010EA26FE10EA36FE2
:100D90007D0EA46FDCEC1FF0020E10EC0BF00001D6
:100DA000DB51DC11D8A437D0000EE06F000EFFFF3E
:100DB000F46F31D0FFFF000E6E6E000E0001E06F89
:100DC0002AD0FFFF6E50000AD8B40CD6010AD8B45E
:100DD0001CD6030AD8B442D6010AD8B468D6070A8A
:100DE000D8B46BD6010AD8B48ED6030AD8B4B9D613
:100DF000010AD8B4BFD60F0AD8B4E0D6010AD8B4D5
:100E000013D7030AD8B43CD7010AD8B44AD7070A83
:100E1000D8B4B6D7CFD7FFFF1200FFFFFFFF97EC84
:100E200039F0A00E00018D6F860E8E6F010E8F6F50
:100E3000000E906F23EC3AF0000E0001816FC80E97
:100E4000806FFBEC36F04CEC37F0000E0001816F48
:100E5000640E806FFBEC36F0750E00018C6F000E97
:100E60008D6F38EC18F04DEC3BF0BFEC35F0B8EC82
:100E70001DF0000E0001816F640E806FFBEC36F0F8
:100E8000D2EC18F0800E0001A16F010EA26F9B0E34
:100E9000A36F7F0EA46FDCEC1FF06B0E0001A16F3F
:100EA000010EA26FCF0EA36F7C0EA46FDCEC1FF0BF
:100EB000560E0001A16F010EA26F7A0EA36F7E0E77
:100EC000A46FDCEC1FF04A0E0001A16F010EA26FAF
:100ED0001D0EA36F7F0EA46FD80EA56F7E0EA66F9A
:100EE000DCEC1FF0800E0001886F010E896F6B0E25
:100EF0008A6F010E8B6F560E8C6F010E8D6F410E37
:100F00008E6F010E8F6F4FEC1DF0090E0001816F87
:100F1000C40E806FFBEC36F0FFFF04000001F151BE
:100F2000D8A404D07150D8B493EC17F0FFFFB6ECFE
:100F300038F069EC3CF019EC15F085D0FFFF3FEC80
:100F400011F0A6D0FFFF810E0001A16F010EA26F6C
:100F5000610EA36F7F0EA46FDCEC1FF06C0E00011E
:100F6000A16F010EA26F010EA36F7E0EA46FDCECC9
:100F70001FF0570E0001A16F010EA26F550EA36F57
:100F80007D0EA46FDCEC1FF0420E0001A16F010E7C
:100F9000A26F750EA36F7F0EA46FDCEC1FF078D0EC
:100FA000FFFF810E0001A16F010EA26F670EA36FFC
:100FB0007D0EA46FDCEC1FF06C0E0001A16F010E22
:100FC000A26F6B0EA36F7F0EA46FDCEC1FF0570EA9
:100FD0000001A16F010EA26F080EA36F7F0EA46F18
:100FE000DCEC1FF0420E0001A16F010EA26F6B0E30
:100FF000A36F7E0EA46FDCEC1FF04AD0FFFF24EC41
:1010000010F046D0FFFFBBEC0CF042D0FFFFDFEC4E
:1010100016F03ED0FFFF4DEC09F03AD0FFFF49EC4F
:1010200013F036D0FFFF08EC0FF032D0FFFF8DEC4D
:101030003AF02ED0FFFF8DEC04F02AD0FFFF000E17
:101040000001E06F25D0FFFF0001E051000AD8B495
:1010500075D7010AD8B476D7030AD8B4A1D7160A2F
:10106000D8B4CCD7010AD8B4CDD7030AD8B4CED7D8
:10107000010AD8B4CFD70F0AD8B4D0D7010AD8B450
:10108000D1D7020AD8B4D2D7070AD8B4D3D7D6D783
:10109000FFFF0001E005D8B49CD0020EE019D8B4DF
:1010A00098D0D2D0FFFF010EE06F3E0E0101806F9D
:1010B000040E55EC3AF00009D8B4A6D0E0C0DFF039
:1010C000140E65D0FFFF010EE06F3E0E01016B6F45
:1010D000040E55EC3AF00009D8B496D0E0C0DFF029
:1010E000150E55D0FFFF010EE06F3E0E0101566F49
:1010F000040E55EC3AF00009D8B486D0E0C0DFF019
:10110000160E45D0FFFF010EE06F3E0E0101416F4C
:10111000040E55EC3AF00009D8B476D0E0C0DFF008
:10112000170E35D0FFFF020EE06F3E0E0101806FFB
:10113000040E55EC3AF00009D8B466D0E0C0DFF0F8
:10114000180E25D0FFFF3E0E01016B6F020E00014D
:10115000E06F040E55EC3AF00009D8B455D0E0C069
:10116000DFF0190E0001E06F010E506E4DD0FFFF51
:101170003E0E0101566F020E0001E06F040E55ECA9
:101180003AF00009D8B440D0E0C0DFF01B0EFFFFFA
:1011900000011CD0FFFF3E0E0101416F020E000155
:1011A000E06F040E55EC3AF00009D8B42DD00001E0
:1011B000F251D8A429D01C0EE06F010EF16F000E81
:1011C0006E6E22D0FFFF010E666E010EFFFFE06F14
:1011D0001BD0FFFF6650010AD8B464D7030AD8B405
:1011E00071D7010AD8B47ED7070AD8B48BD7010AC1
:1011F000D8B498D7030AD8B4A5D7010AD8B4B7D7BA
:101200000F0AD8B4C7D7DED7FFFF030E55EC3AF06C
:101210000009D8B402D0660617D0FFFF020E55ECC5
:101220003AF00009D8B402D0662A0ED0FFFF010EB2
:1012300055EC3AF00009D8B407D0000E0001E06F79
:10124000000EE16F010E666EFFFF1C0E0001E0193B
:10125000D8B404D0000EF16F000E466EFFFF705040
:10126000D8B404D0020E7C6E000E706EFFFF7C506E
:10127000D8A452D6800E886F010E896F6B0E8A6FCC
:10128000010E8B6F560E8C6F010E8D6F410E8E6F9F
:10129000010E8F6F4FEC1DF03FD6FFFF810E000156
:1012A000A16F010EA26FB80EA36F7F0EA46FB50ED3
:1012B000A56F010EA66FDCEC1FF06C0E0001A16F94
:1012C000010EA26FBF0EA36F7F0EA46FA90EA56FB4
:1012D000010EA66FDCEC1FF00001F451D8A404D07D
:1012E000D00EC16F7D0E04D0FFFFB20EC16F7E0E17
:1012F000FFFFC26F570EA16F010EA26F1D0EA36FED
:101300007F0EA46FC1C0A5F0C2C0A6F0DCEC1FF038
:101310000001DD51D8A450D0030E55EC3AF000097D
:10132000D8B403D00001E10747D0FFFF020E55EC0F
:101330003AF00009D8B403D00001E12B3DD0FFFF03
:10134000010E55EC3AF00009D8B436D0000E000179
:10135000F46F000EE16F000EDE6F000EDD6F000E09
:10136000C36F000EC36FFFFF0A0EC36501D021D00B
:10137000FFFFC351010DB50EF324D96E010EF42009
:10138000DA6EDF508C6FC351140FF9EC38F00001A6
:10139000C351010DA90EF324D96E010EF420DA6EAB
:1013A000DF508C6FC351280FF9EC38F00001C32BCC
:1013B000DAD7FFFFDFC0E0F0FFFF0001DD05D8A4B2
:1013C0001AD1040E55EC3AF00009D8B403D000014C
:1013D000DE2B11D1FFFF010E55EC3AF00009D8B415
:1013E0000AD1000E0001DE6F000EDD6F04D1FFFF99
:1013F0003E0E0101806F040E55EC3AF00009D8B49E
:1014000003D0010E0001DD6FFFFF0001DD51D8B4F4
:10141000FFD0800E806F010E816FDE51060F826F4C
:10142000DE51060F836F35EC38F00001DE51BF6FDF
:10143000C06B020EBF27000EC023C05104E10D0E89
:10144000BF5DD8A004D0000EDE6F000EDD6FFFFF81
:10145000030E55EC3AF00009D8B40AD00001DE5171
:10146000010DB50EF324D96E010EF420DA6EDF2AD9
:10147000FFFF020E55EC3AF00009D8B40AD0000183
:10148000DE51010DB50EF324D96E010EF420DA6E93
:10149000DF06FFFF0001DE51010DB50EF324D96E0A
:1014A000010EF420DA6E3A0EDF600BD0DE51010D32
:1014B000B50EF324D96E010EF420DA6E300EDF6023
:1014C000A7D0FFFFDE51010DB50EF324D96E010E3A
:1014D00071D0FFFF3E0E01016B6F040E55EC3AF028
:1014E0000009D8B403D0010E0001DD6FFFFF000139
:1014F000DD51D8B48DD06B0E806F010E816FDE513F
:10150000060F826FDE51060F836F35EC38F0000155
:10151000DE51BF6FC06B020EBF27000EC023C0514B
:1015200004E10D0EBF5DD8A004D0000EDE6F000EEA
:10153000DD6FFFFF030E55EC3AF00009D8B40AD076
:101540000001DE51010DA90EF324D96E010EF42025
:10155000DA6EDF2AFFFF020E55EC3AF00009D8B42C
:101560000AD00001DE51010DA90EF324D96E010E3F
:10157000F420DA6EDF06FFFF0001DE51010DA90E37
:10158000F324D96E010EF420DA6E3A0EDF600BD030
:10159000DE51010DA90EF324D96E010EF420DA6E8E
:1015A000300EDF6035D0FFFFDE51010DA90EF324B0
:1015B000D96E010EFFFFF420DA6E300EDF6E28D0F8
:1015C000FFFF3E0E0101566F040E55EC3AF0000984
:1015D000D8B41ED0780E7D18D8B41AD00001F451BA
:1015E000D8A416D0010EF46F000EF86F11D0FFFFD3
:1015F000000EE16F0DD0FFFF0001E151000AD8B4E9
:10160000F6D6010AD8B465D7030AD8B4D9D7EFD72C
:10161000FFFF0001F451D8A458EC12F01200FFFFB4
:10162000FFFF0001C76F0001F751D8B403D0000ECF
:10163000F46F9ED1FFFF010EF46F7AD1FFFF16EC1D
:1016400037F0DE0E0001A16F7F0EA26F17EC38F0AD
:101650004C4A4D2A060E0001F66F8AD1FFFFFA0EA2
:10166000936F7F0E946FF9EC37F00009D8B40ED069
:1016700016EC37F0CC0E0001A16F7E0EA26F17ECB6
:1016800038F04C4A4D2A060E0001F66FFFFF0001AC
:10169000F651D8A46DD11A0E806F000E816FB8EC90
:1016A00035F0000E0001816F0F0E806FFBEC36F0FD
:1016B000AA0E0001A16F7F0EA26F17EC38F032D195
:1016C000FFFFFA0E0001936F7F0E946FF9EC37F075
:1016D0000009D8B4A4D016EC37F00001F851D8B402
:1016E00004D0A90EBD6F010E04D0FFFFB50EBD6F73
:1016F000010EFFFFBE6F430EA16F7D0EA26FBDC036
:10170000A3F0BEC0A4F017EC38F0080EFFFF0001F4
:10171000F66F4C4A4D2A83D0FFFFFD0E936F7F0E6C
:10172000946FF9EC37F00009D8B479D016EC37F0A3
:101730000001C705D8A418D0B90EA16F7B0EA26F07
:10174000EDC0A3F0A46BEEC0A5F0A66BEFC0A7F0B0
:10175000A86BECC0A9F0AA6BEBC0ABF0AC6BEAC015
:10176000ADF0AE6B17EC38F0FFFF020E0001C719A9
:10177000D8A44BD0FC05D8B404D0D20EBF6F7F0ED6
:1017800004D0FFFFFA0EBF6F7F0EFFFFC06FFD0595
:10179000D8B404D0D20EC16F7F0E04D0FFFFFA0E72
:1017A000C16F7F0EFFFFC26FFE05D8B404D0D20E0A
:1017B000C36F7F0E04D0FFFFFA0EC36F7F0EFFFFD3
:1017C000C46F510EA16F7B0EA26FEDC0A3F0A46B8E
:1017D000EEC0A5F0A66BEFC0A7F0A86BECC0A9F017
:1017E000AA6BEBC0ABF0AC6BEAC0ADF0AE6BC3C0A4
:1017F000AFF0C4C0B0F0C1C0B1F0C2C0B2F0BFC061
:10180000B3F0C0C0B4F017EC38F0FFFF1A0E0001BF
:10181000806F000E816FB8EC35F01E0E77D7FFFF9A
:101820000001FFFFF651D8A4A3D07CD0FFFFFA0E31
:10183000936F7F0E946FF9EC37F00001BB6FD80EF9
:10184000936F7F0E946FF9EC37F00001BB11000924
:10185000D8B4E7D7020EC719D8A412D0F851D8A42B
:1018600007D0010EF86F000E4D6E000E4C6ED9D7EA
:10187000FFFF000EF86F000EF46F000EE06FD1D77F
:10188000FFFF4C4A4D2ACDD7FFFF16EC37F0000181
:10189000F851D8B404D0A90EC56F010E04D0FFFFD3
:1018A000B50EC56F010EFFFFC66F200EA16F7F0E34
:1018B000A26FC5C0A3F0C6C0A4F017EC38F0230E89
:1018C0000001F66F4C4A4D2A53D0FFFFF00E936F84
:1018D0007E0E946FF9EC37F00009D8A404D0000113
:1018E000F651D8A445D0FFFF16EC37F0AA0E000140
:1018F000A16F7F0EA26F17EC38F0020E0001816F0E
:10190000260E806FFBEC36F00001F851D8A403D00E
:10191000010EF86F07D0FFFF000EF86F000EF46F96
:10192000640EF76FFFFF000E4D6E000E4C6E20D060
:10193000FFFF4CC0BBF04DC0BCF0BC51000AD8A4A6
:10194000F1D7BB51000AD8B479D6010AD8B486D6EB
:10195000030AD8B4B5D6010AD8B4DED6070AD8B47B
:1019600065D7010AD8B490D7030AD8B4AED7DAD76E
:10197000FFFF1200FFFFFFFF0001E5511FEC3CF0ED
:10198000B5C0C2F0B6C0C3F0800E0001A16F010E59
:10199000A26F360EA36F7F0EA46FC2C0A5F0C3C0A6
:1019A000A6F0DCEC1FF00001E4511FEC3CF0B5C0E8
:1019B000C2F0B6C0C3F06B0E0001A16F010EA26FA2
:1019C000410EA36F7F0EA46FC2C0A5F0C3C0A6F0E6
:1019D000DCEC1FF00001E3511FEC3CF0B5C0C2F09D
:1019E000B6C0C3F0560E0001A16F010EA26F3E0EED
:1019F000A36F7E0EA46FC2C0A5F0C3C0A6F0DCEC3E
:101A00001FF00001E2511FEC3CF0B5C0C2F0B6C0BF
:101A1000C3F0410E0001A16F010EA26F4D0EA36F26
:101A20007E0EA46FC2C0A5F0C3C0A6F0DCEC1FF010
:101A3000010E55EC3AF00009D8B419D0E4C08CF08E
:101A4000000EF9EC38F0E3C08CF0010EF9EC38F040
:101A5000E2C08CF0020EF9EC38F0E5C08CF0040E18
:101A6000F9EC38F0000E0001E16FDFC0E0F0FFFF9D
:101A7000040E55EC3AF00009D8B497D00001E12BE0
:101A800094D0FFFF800E806F010E816F080E826F71
:101A90000F0E836F35EC38F0030E55EC3AF0000969
:101AA000D8B402D00001E52BFFFF020E55EC3AF04E
:101AB0000009D8B402D00001E507FFFF630E000162
:101AC000E56583D0000EE56F80D0FFFF6B0E806F61
:101AD000010E816F080E826F0F0E836F35EC38F0A8
:101AE000030E55EC3AF00009D8B402D00001E42B03
:101AF000FFFF020E55EC3AF00009D8B402D0000105
:101B0000E407FFFF630E0001E4655FD0000EE46FA1
:101B10005CD0FFFF560E806F010E816F0C0E826F3E
:101B2000120E836F35EC38F0030E55EC3AF00009D5
:101B3000D8B402D00001E32BFFFF020E55EC3AF0BF
:101B40000009D8B402D00001E307FFFF630E0001D3
:101B5000E3653BD0000EE36F38D0FFFF410E806F8E
:101B6000010E816F0C0E826F120E836F35EC38F010
:101B7000030E55EC3AF00009D8B402D00001E22B74
:101B8000FFFF020E55EC3AF00009D8B402D0000174
:101B9000E207FFFF630E0001E26517D0000EE26F5F
:101BA00014D0FFFF000EE16F10D0FFFF0001E151E4
:101BB000000AD8B466D7010AD8B487D7030AD8B4C4
:101BC000A8D7010AD8B4C9D7ECD7FFFF1200FFFF8E
:101BD000FFFF000E2A6E000E2E6E000E2F6E000EFE
:101BE000306E000E2B6E000E2C6E000E2D6E000E51
:101BF0002A6EFFFF080E2A6401D02DD0FFFF2EC0F1
:101C00001BF02FC01CF030C01DF0280E0F6EA00E70
:101C1000106E3B0E116E28EC36F001C009F002C0C8
:101C20000AF014EC36F009C00CF00AC00DF00BC03D
:101C30000EF004EC1BF00CC01EF00DC01FF00EC027
:101C400020F031EC14F01BC02EF01CC02FF01DC092
:101C500030F02A2ACED7FFFF2EC01BF02FC01CF079
:101C600030C01DF0000E1E6E200E1F6E410E206E45
:101C70006AEC1CF01BC02EF01CC02FF01DC030F011
:101C800000C11BF001C11CF002C11DF02EC01EF0EE
:101C90002FC01FF030C020F031EC14F01BC000F159
:101CA0001CC001F11DC002F16A2A2EC001F02FC034
:101CB00002F030C003F09A0E046E990E056E3E0ECF
:101CC000066E41EC1FF0D8B008D0FF0E0001FA6F8D
:101CD000F60EF96F010E716E18D0FFFF000E016E47
:101CE000900E026E400E036E2EC004F02FC005F061
:101CF00030C006F041EC1FF0D8B00BD0010E716E71
:101D0000000E0001FA6F630EF96FFFFF050EF56F0D
:101D10007CD0FFFF050E6A6478D0000E716E000E55
:101D20006A6E00C11BF001C11CF002C11DF0000E63
:101D30001E6EC00E1F6E400E206E6AEC1CF01BC0A3
:101D40002EF01CC02FF01DC030F0000E0101006FFE
:101D5000000E016F000E026F2EC01BF02FC01CF092
:101D600030C01DF0000E1E6E000E1F6EBF0E206EE6
:101D700031EC14F01BC02BF01CC02CF01DC02DF05A
:101D8000000E0F6E200E106E410E116E2BC00CF067
:101D90002CC00DF02DC00EF004EC1BF00CC01BF09D
:101DA0000DC01CF00EC01DF0000E1E6E800E1F6ECA
:101DB000400E206E6AEC1CF01BC02BF01CC02CF0F7
:101DC0001DC02DF02DAE06D0000E2B6E000E2C6E19
:101DD000000E2D6EFFFF000E0F6E200E106E410ED6
:101DE000116E2BC00CF02CC00DF02DC00EF004ECC9
:101DF0001BF00CC01BF00DC01CF00EC01DF0F6EC6B
:101E00001BF01BC0F9F01CC0FAF0FFFF1200FFFF2F
:101E1000FFFF800E0001A16F010EA26FF80EA36FED
:101E20007B0EA46F58C0A5F0A66B57C0A7F0A86B97
:101E300056C0A9F0AA6B55C0ABF0AC6B54C0ADF066
:101E4000AE6BDCEC1FF05304D8B405D0E30E0001F8
:101E5000BA6F7F0E05D0FFFFFA0E0001BA6F7F0E3A
:101E6000FFFFBB6F6B0EA16F010EA26F7F0EA36F02
:101E70007F0EA46FBAC0A5F0BBC0A6F0DCEC1FF0CB
:101E8000790E0001A16F010EA26F2B0EA36F7F0EC2
:101E9000A46F010E4E24A56FA66B000EA6234FC0A3
:101EA000A7F0A86BDCEC1FF05204D8B405D0E30E09
:101EB0000001BC6F7F0E05D0FFFFFA0E0001BC6F62
:101EC0007F0EFFFFBD6F560EA16F010EA26F960E23
:101ED000A36F7E0EA46FBCC0A5F0BDC0A6F0DCEC65
:101EE0001FF05104D8B405D0E30E0001BE6F7F0E81
:101EF00005D0FFFFFA0E0001BE6F7F0EFFFFBF6F20
:101F0000410EA16F010EA26FA40EA36F7E0EA46FEF
:101F1000BEC0A5F0BFC0A6F0DCEC1FF0010E55EC72
:101F20003AF00009D8B405D0000E0001E16FDFC01F
:101F3000E0F0FFFF020E55EC3AF00009D8B40BD0E8
:101F4000080E0001FB5F3C0EFB6102D03C0EFB6FF4
:101F5000FFFF010E506EFFFF030E55EC3AF0000933
:101F6000D8B419D04F500001B56FB66B4E50B76F53
:101F7000B86B010EB727000EB823B551B75DB85145
:101F8000800AB96FB651800AB959D8B05AD0080E34
:101F9000FB27010E506EFFFF5004D8A452D00E0E46
:101FA0006CEC39F00001C06FC40EC025806F816BEE
:101FB000FF0E8123000E836F080E826F8FEC1FF0DF
:101FC000000180514F6EC40EFB25806F816BFF0EA8
:101FD0008123000E836F080E826F8FEC1FF00001CB
:101FE00080514E6EFB516CEC39F0586E0001FB29AC
:101FF0006CEC39F0576E0001FB51020F6CEC39F0BC
:10200000566E0001FB51030F6CEC39F0556E000168
:10201000FB51040F6CEC39F0546E0001FB51050FBD
:102020006CEC39F0536E0001FB51060F6CEC39F08B
:10203000526E0001FB51070F6CEC39F0516E000E2F
:10204000506EFFFF1200FFFFFFFF800E0001A16F27
:10205000010EA26FCC0EA36F7F0EA46FDCEC1FF0FD
:102060006B0E0001A16F010EA26F200EA36F7E0EFA
:10207000A46F79C0A5F0A66B7AC0A7F0A86B7BC04F
:10208000A9F0AA6BDCEC1FF08B0E0001A16F010E12
:10209000A26FC60EA36F7F0EA46FDCEC1FF0760E4E
:1020A0000001A16F010EA26F2F0EA36F7E0EA46F11
:1020B00078C0A5F0A66B77C0A7F0A86B76C0A9F092
:1020C000AA6BDCEC1FF0040E55EC3AF00009D8B412
:1020D00004D0010E646E0001E12BFFFF010E55ECF0
:1020E0003AF00009D8B4B0D0000E646E000E0001C2
:1020F000E16F750E8C6F000E8D6FF2EC19F0DFC082
:10210000E0F00001EE2BA0D0FFFF6B0E806F010E00
:10211000816F010E826F020E836F35EC38F0030E73
:1021200055EC3AF00009D8A4792A020E55EC3AF0A1
:102130000009D8B49FD079069DD0FFFF6B0E000137
:10214000806F010E816F040E826F050E836F35EC78
:1021500038F0030E55EC3AF00009D8A47A2A020EA2
:1021600055EC3AF00009D8B485D07A0683D0FFFF49
:102170006B0E0001806F010E816F070E826F080EDB
:10218000836F35EC38F0030E55EC3AF00009D8A413
:102190007B2A020E55EC3AF00009D8B46BD07B06CE
:1021A00069D0FFFF6B0E0001806F010E816F0C0E76
:1021B000826F0D0E836F35EC38F0030E55EC3AF05C
:1021C0000009D8A4782A020E55EC3AF00009D8B4D8
:1021D00051D078064FD0FFFF6B0E0001806F010ECB
:1021E000816F0F0E826F100E836F35EC38F0030E87
:1021F00055EC3AF00009D8A4772A020E55EC3AF0D3
:102200000009D8B437D0770635D0FFFF6B0E000138
:10221000806F010E816F120E826F130E836F35EC8B
:1022200038F0030E55EC3AF00009D8A4762A020ED5
:1022300055EC3AF00009D8B41DD076061BD0FFFF4C
:10224000010E0001E16F16D0FFFF0001E151010A0C
:10225000D8B45AD7030AD8B470D7010AD8B487D7EC
:10226000070AD8B49ED7010AD8B4B5D7030AD8B4A0
:10227000CCD7E5D7FFFF1CEC39F01200FFFFFFFFC2
:10228000840E0001A16F010EA26F170EA36F7C0ECA
:10229000A46FEDC0A5F0A66BEEC0A7F0A86BECC0D4
:1022A000A9F0AA6BEBC0ABF0AC6BDCEC1FF0010E3D
:1022B0000101806F7DC081F1050E936F51D0FFFF4A
:1022C000410E0001A16F010EA26FBF0EA36F7D0E24
:1022D000A46FDCEC1FF059D0FFFF410E0001A16F8D
:1022E000010EA26FFC0EA36F7E0EA46FDCEC1FF03C
:1022F0004CD0FFFF410E0001A16F010EA26F930EA3
:10230000A36F7C0EA46FDCEC1FF026D0FFFF410E04
:102310000001A16F010EA26F8B0EA36F7D0EA46F43
:10232000DCEC1FF019D0FFFF410E0001A16F010E80
:10233000A26F2C0EA36F7C0EA46FDCEC1FF00CD0F0
:10234000FFFF410E0001A16F010EA26F410EA36FAE
:102350007C0EA46FDCEC1FF0FFFF010E456E15D064
:10236000FFFF0001F351010AD8B4A9D7030AD8B47A
:10237000B3D7010AD8B4BDD7070AD8B4C7D7010A62
:10238000D8B4D1D7030AD8B4DBD7FFFF0001F2518C
:10239000D8B40AD06B0EA16F010EA26F7F0EA36F8F
:1023A0007C0EA46FDCEC1FF0FFFF7150D8B413D08B
:1023B00031EC37F0570E0001A16F010EA26F300E05
:1023C000A36F7D0EA46FDCEC1FF0000E0001F26F16
:1023D000010E456E18D0FFFF0001F9511FEC3CF0D3
:1023E000B5C0C2F0B6C0C3F0580E0001A16F010E17
:1023F000A26F110EA36F7E0EA46FC2C0A5F0C3C062
:10240000A6F0DCEC1FF0FFFF020E0001F36103D029
:10241000F251D8B416D0FFFF7250D8B40AD0410E92
:10242000A16F010EA26FE30EA36F7C0EA46FDCEC14
:102430001FF0FFFF010E55EC3AF00009D8A47CEC28
:1024400036F0FFFF040E55EC3AF00009D8B405D081
:10245000010E0001E06F010E666EFFFF82B011D029
:10246000800E0001806F010E816F140E826F140EBA
:10247000836F35EC38F00001F351D8A402D0010E7F
:10248000F36FFFFF0001FE51D8A402D0040E0BD061
:10249000FFFFFD51D8A402D0050E05D0FFFFFC516F
:1024A000D8A403D0060EFFFFF36FFFFF1200FFFF5B
:1024B000FFFFD1D0FFFF16EC37F0DE0E0001A16F59
:1024C0007F0EA26F17EC38F04C4A4D2A050E000122
:1024D000F66FDCD0FFFFFA0E936F7F0E946FF9EC6E
:1024E00037F00009D8B40ED016EC37F0CC0E00014E
:1024F000A16F7E0EA26F17EC38F04C4A4D2A050EE4
:102500000001F66FFFFF0001F651D8A4BFD0000E06
:102510004D6E000E4C6E1A0E806F000E816FB8EC7F
:1025200035F0B4D0FFFFFA0E0001936F7F0E946F69
:10253000F9EC37F00009D8B483D016EC37F000017D
:10254000F851D8B404D0A90EBD6F010E04D0FFFF1E
:10255000B50EBD6F010EFFFFBE6F430EA16F7D0E66
:10256000A26FBDC0A3F0BEC0A4F017EC38F0050EFA
:102570000001F66F4C4A4D2A89D0FFFFFD0E936F84
:102580007F0E946FF9EC37F00009D8B459D016ECEF
:1025900037F0D30E0001A16F7A0EA26FECC0A3F04A
:1025A000A46BEBC0A5F0A66BEAC0A7F0A86BEDC0CA
:1025B000A9F0AA6BEEC0ABF0AC6BEFC0ADF0AE6BA8
:1025C000D80EAF6F7E0EB06F17EC38F0030E00011F
:1025D000816FE80E806FFBEC36F01A0E0001806F01
:1025E000000E816FB8EC35F04C4A4D2A1E0E0001EA
:1025F000F66F26D0FFFFFA0E936F7F0E946FF9EC03
:1026000037F00009D8B411D00001F851D8A403D094
:10261000010EF86F05D0FFFF000EF86F000EF46F8B
:10262000FFFF000E4D6E000E4C6EFFFFD80E000136
:10263000936F7F0E946FF9EC37F00009D8A405D0A2
:10264000FFFF0001F651D8A421D0FFFF000E4D6E10
:10265000000E4C6E1BD0FFFF4CC0BBF04DC0BCF059
:102660000001BC51000AD8A4F0D7BB51000AD8B46D
:1026700021D7010AD8B42ED7030AD8B453D7010AF8
:10268000D8B47BD7070AD8B4B5D7DFD7FFFF12007D
:10269000FFFFFFFF800E0001A16F010EA26F560E1B
:1026A000A36F7C0EA46FE851B56FB66BB51FB61F54
:1026B000B54BB62BE951B525A56F000EB621A66F17
:1026C000DCEC1FF06B0E0001A16F010EA26FA70ED4
:1026D000A36F7C0EA46FE9C0A5F0A66BDCEC1FF025
:1026E000560E0001A16F010EA26FBB0EA36F7C0EF0
:1026F000A46FE7C0A5F0A66BDCEC1FF06F50D8B458
:1027000005D0F20E0001B76F7F0E05D0FFFFF60E69
:102710000001B76F7F0EFFFFB86F410EA16F010E72
:10272000A26F4C0EA36F7F0EA46FB7C0A5F0B8C008
:10273000A6F0DCEC1FF0010E55EC3AF00009D8B41D
:1027400011D0E9C08CF0060EF9EC38F0E7C08CF03F
:102750000B0EF9EC38F06FC08CF00F0EF9EC38F07E
:10276000DFC0E0F0FFFF040E55EC3AF00009D8B4EA
:1027700068D00001E12B65D0FFFF6B0E806F010E6A
:10278000816F0B0E826F0E0E836F35EC38F0030EE7
:1027900055EC3AF00009D8B402D00001E92BFFFF54
:1027A000020E55EC3AF00009D8B458D00001E90700
:1027B00055D0FFFF560E806F010E816F090E826F9C
:1027C0000B0E836F35EC38F0030E55EC3AF0000930
:1027D000D8B402D00001E72BFFFF020E55EC3AF00F
:1027E0000009D8B402D00001E707FFFF180E00016E
:1027F000E76101D033D0FFFF000EE76F2FD0FFFF5E
:10280000410E806F010E816F090E826F0B0E836F78
:1028100035EC38F0030E55EC3AF00009D8B402D08C
:10282000010E6F6EFFFF020E55EC3AF00009D8B4AE
:1028300015D0000E6F6E12D0FFFF000E0001E16F89
:102840000DD0FFFF0001E151000AD8B495D7010A6D
:10285000D8B4AFD7030AD8B4D2D7EED7FFFF12004F
:10286000FFFFFFFF1DC021F0226A236A1C342136BE
:1028700001E322802150266E20C021F0226A236AC3
:102880001F34213601E322802150256E2650D8B412
:102890000BD02550265CD8B00FD026500008252438
:1028A000216E180E216408D0FFFF1EC01BF01FC050
:1028B0001CF020C01DF0BAD0FFFF2550D8B40BD0BB
:1028C0002650255CD8B00FD0255000082624216E54
:1028D000180E216408D0FFFF1BC01BF01CC01CF0A9
:1028E0001DC01DF0A3D0FFFF060E246E1DBE248E5A
:1028F00020BE248C1C8EFF0E1B16FF0E1C16000E15
:102900001D161F8EFF0E1E16FF0E1F16000E201620
:102910002550265CD8B01ED0FFFFD8901E361F363B
:102920002036250626502518D8B40ED0240624C0FB
:1029300021F0070E2116D8B407D0EED7FFFFD890AC
:102940001D321C321B32262AFFFF25502618D8B410
:1029500023D0F4D7FFFF2650255CD8B01DD0FFFF51
:10296000D8901B361C361D36260626502518D8B49E
:102970000ED0240624C021F0070E2116D8B407D0AB
:10298000EED7FFFFD89020321F321E32252AFFFFDC
:1029900025502618D8A4F5D7FFFF24AE0CD0FF0E83
:1029A0001B1AFF0E1C1AFF0E1D1A010E1B26000E0D
:1029B0001C22000E1D22FFFF24AC0CD0FF0E1E1A9D
:1029C000FF0E1F1AFF0E201A010E1E26000E1F22D8
:1029D000000E2022FFFF000E246E1B501E261C50EE
:1029E0001F221D50202220AE0ED0FF0E1E1AFF0EF9
:1029F0001F1AFF0E201A010E1E26000E1F22000EA7
:102A00002022010E246EFFFF1EC001F01FC002F045
:102A100020C003F026C004F024C005F0DFEC1EF057
:102A200001C01BF002C01CF003C01DF0FFFF12002C
:102A3000FFFFFFFF0001FF51D8A4DED0F451D8B44E
:102A4000CAD0DAD0FFFF16EC37F0890E0001A16F73
:102A50007F0EA26F17EC38F0050E0001F66F000E26
:102A60004D6E010E4C6E000EF86FC6D0FFFFF65192
:102A7000D8A43CD0DE0EA16F7F0EA26F17EC38F009
:102A8000000E0001816F640E806FFBEC36F0FA0ED1
:102A90000001936F7F0E946FF9EC37F00009D8B402
:102AA0000DD0000E4D6E000E4C6E000E746E020EB8
:102AB0000001F319D8A41AD0000E16D0FFFF000EA3
:102AC0004D6E000E4C6E1A0E0001806F000E816F6D
:102AD000B8EC35F0742A020E746408D0000E746EDF
:102AE000780E7D6E020E0001FFFFF36FFFFFB10E47
:102AF0000001936F7F0E946FF9EC37F00009D8B4A2
:102B00007BD0B10E0001B56F7F0EB66F2C0EB76F84
:102B100064EC19F0B5C0BFF0B6C0C0F080EC1BF09B
:102B2000BFC0C8F0C0C0C9F00001C9BF06D0C951BC
:102B300008E1080EC85DD8B003D0FFFF200E3BD0DF
:102B4000FFFFC9BF11D0C95104E1080EC85DD8A06C
:102B50000BD0C9BF06D0C95108E10C0EC85DD8B072
:102B600003D0FFFF020E27D0FFFFC9BF11D0C9510C
:102B700004E10C0EC85DD8A00BD0C9BF06D0C95166
:102B800008E1110EC85DD8B003D0FFFF030E13D0CB
:102B9000FFFFC9BF12D0C95104E1110EC85DD8A012
:102BA0000CD0C9BF06D0C95109E11F0EC85DD8B00D
:102BB00004D0FFFF040EFFFF7D6EFFFF000E4D6E81
:102BC000000E4C6E050EFF6F17D0FFFF000E4D6E0E
:102BD000000E4C6E11D0FFFF4CC0C6F04DC0C7F0C8
:102BE000C751000AD8A4F1D7C651000AD8B42AD7D1
:102BF000010AD8B43BD7E9D7FFFF1200FFFFFFFF60
:102C00000001FF51D8B405D0FF07FFC009F00A6AE0
:102C100005D0FFFF000E0A6E000E096EFFFF09C00F
:102C2000FFF0F651D8B405D0F607F6C00BF00C6AE9
:102C300005D0FFFF000E0C6E000E0B6EFFFF0BC0E9
:102C4000F6F0DB51DC11D8B408D0DB07D8A0DC07E4
:102C5000DBC0DBF0DCC0DCF005D0FFFF000EDC6F7A
:102C6000000EDB6FFFFFF751D8B405D0F707F7C0B0
:102C70000DF00E6A05D0FFFF000E0E6E000E0D6EF9
:102C8000FFFF0DC0F7F07350D8B405D0730673C0C2
:102C90000FF0106A05D0FFFF000E106E000E0F6ED1
:102CA000FFFF0FC073F0F551D8B405D0F507F5C09C
:102CB00011F0126A05D0FFFF000E126E000E116EA9
:102CC000FFFF11C0F5F07C50D8B405D07C067CC065
:102CD00013F0146A05D0FFFF000E146E000E136E81
:102CE000FFFF13C07CF07350D8A40BD0020E736E9C
:102CF0007250D8A402D0010E02D0FFFF000EFFFFD9
:102D0000726EFFFF6450D8A457D0EF2B3B0EEF65D7
:102D100014D0000EEF6FEE2B3B0EEE650ED0000EC2
:102D2000EE6FED2B170EED6508D0000EED6FE82B62
:102D3000E8C004F00A0EDBEC37F0FFFF0001EE51B3
:102D40007718D8B439D0F051D8B40AD00101034B68
:102D5000042B03C106F004C107F0080E03EC36F0A3
:102D6000FFFF750E066E000E076E7BEC1AF03C0E30
:102D7000766415D03C0E776412D0180E78640FD0AC
:102D8000ADEC36F0EFC076F0EEC077F0EDC078F045
:102D9000ECC079F0EBC07AF0EAC07BF00DD0FFFF19
:102DA00076C0EFF077C0EEF078C0EDF079C0ECF0CF
:102DB0007AC0EBF07BC0EAF0FFFF1200FFFFFFFFDD
:102DC000800E0001A16F010EA26F1D0EA36F7D0E7C
:102DD000A46FDCEC1FF06B0E0001A16F010EA26F5F
:102DE000880EA36F7E0EA46FDCEC1FF07B0E00013B
:102DF000A16F010EA26FED0EA36F7F0EA46FE6C050
:102E0000A5F0A66BDCEC1FF0560E0001A16F010EC1
:102E1000A26FE40EA36F7E0EA46FDCEC1FF0660EB3
:102E20000001A16F010EA26FED0EA36F7F0EA46FC4
:102E300067C0A5F0A66BDCEC1FF0410E0001A16F8E
:102E4000010EA26F790EA36F7D0EA46F03C1A5F0D2
:102E500004C1A6F0DCEC1FF0040E55EC3AF00009BA
:102E6000D8B402D00001E12BFFFF010E55EC3AF07F
:102E70000009D8B44BD0E6C08CF0070EF9EC38F05E
:102E800067C08CF00D0EF9EC38F0000E0001E16F18
:102E9000DFC0E0F03BD0FFFF6B0E806F010E816F53
:102EA000100E826F140E836F35EC38F0030E55EC64
:102EB0003AF00009D8B402D00001E62BFFFF020E61
:102EC00055EC3AF00009D8B42BD00001E60728D021
:102ED000FFFF560E806F010E816F100E826F140E71
:102EE000836F35EC38F0030E55EC3AF00009D8A4A6
:102EF000672A020E55EC3AF00009D8B411D06706E3
:102F00000FD0FFFF000E0001E16F0AD0FFFF0001AC
:102F1000E151000AD8B4BFD7010AD8B4D9D7F1D744
:102F2000FFFF1200FFFFFFFF0001F151D8A49DD069
:102F3000E551C86FC96BC851F95DFA51800ACA6F73
:102F4000C951800ACA59D8A00BD0F251D8A408D0D0
:102F5000000E4A6E000E496E000EDDEC1CF085D0AE
:102F6000FFFF000E466E0001E451C86FC96BF951B6
:102F7000C85DC951800ACA6FFA51800ACA59D8A0DF
:102F80000BD0F551D8A408D04A50D8A402D0050ED1
:102F9000F56FFFFF010E12D0FFFFE551C86FC96B3F
:102FA000C851F95DFA51800ACA6FC951800ACA59DD
:102FB000D8A006D0F251D8A403D0000EFFFF4A6E6D
:102FC000FFFFE351C86FC96BF951C85DC951800A51
:102FD000CA6FFA51800ACA59D8A00ED0010EF26FFA
:102FE000F551D8A41FD04950D8A402D0050EF56FD2
:102FF000FFFF010E496E16D0FFFFE551C86FC96B88
:10300000C851F95DFA51800ACA6FC951800ACA597C
:10301000D8A008D0F251D8A405D0000E496E000EF9
:10302000DDEC1CF0FFFF0001E251C86FC96BF951E4
:10303000C85DC951800ACA6FFA51800ACA59D8A01E
:1030400008D0010EF26FF551D8A403D0010EDDECCB
:103050001CF0FFFF0001F251D8B407D0010EF46F4D
:10306000010E10EC0BF0010E456EFFFF1200FFFF8A
:10307000FFFF98EC35F0000E00018B6FD00E8A6FC9
:10308000B1EC35F0000E00018B6F000E8A6FB1ECD1
:1030900035F0A4EC35F0000E00018B6FD10E8A6F75
:1030A000B1EC35F0000120EE01F08C51D9268D51A4
:1030B000DA22000E826F010E816FA1EC37F0000161
:1030C0008151F6EC35F0DF6E000120EE02F08C51FC
:1030D000D9268D51DA22000E826F010E816FA1EC8C
:1030E00037F000018151F6EC35F0DF6E000120EE83
:1030F00003F08C51D9268D51DA22000E826F010E19
:10310000816FA1EC37F000018151F6EC35F0DF6EF4
:10311000000E0001826F010E816FA1EC37F00001FB
:103120008151F6EC35F08CC0D9FF8DC0DAFFDF6E2F
:10313000000120EE04F08C51D9268D51DA22000EC8
:10314000826F010E816FA1EC37F000018151F6EC26
:1031500035F0DF6E000120EE05F08C51D9268D513F
:10316000DA22000E826F010E816FA1EC37F00001B0
:103170008151F6EC35F0DF6E000120EE06F08C5147
:10318000D9268D51DA22000E826F000E816FA1ECDC
:1031900037F000018151F6EC35F0DF6E9EEC35F032
:1031A0001200FFFFFFFF000E0001956F000E946FED
:1031B0000C0E6CEC39F00001946F140E9419D8B415
:1031C00016D0000E956FFFFF630E956501D009D0F4
:1031D000FFFF000E8C6F9551F9EC38F00001952B34
:1031E000F2D7FFFF140E8C6F0C0EF9EC38F0FFFFD6
:1031F000000E6CEC39F00001E46F010E6CEC39F05C
:103200000001E36F020E6CEC39F00001E26F080E72
:1032100068EC37F08EC003F18FC004F1040E6CEC43
:1032200039F00001E56F060E6CEC39F00001E96F32
:10323000070E6CEC39F00001E66F0A0E6CEC39F009
:103240000001E86F0B0E6CEC39F00001E76F0D0E1A
:103250006CEC39F0676E0F0E6CEC39F06F6E000E8F
:103260000001956FFFFF0A0E956501D011D0FFFF99
:103270009551010DB50EF324D96E010EF420DA6ECE
:103280009551140F6CEC39F0DF6E0001952BEAD7E5
:10329000FFFF000E956FFFFF0A0E956501D011D05C
:1032A000FFFF9551010DA90EF324D96E010EF420F4
:1032B000DA6E9551280F6CEC39F0DF6E0001952B1A
:1032C000EAD7FFFF1200FFFFFFFF950E0001806F9E
:1032D000010E816F000E836F000E826F000E856FEE
:1032E000140E846F84EC37F0B5C080F0B6C081F066
:1032F000C2EC39F080C0BAF081C0BBF0050E00010D
:103300008F6F010E906FB5C091F0B6C092F0B3EC24
:103310003CF08FC0BDF090C0BEF00001BD51BE11A9
:10332000D8B458D0000EBC6FBAC0BCF042D0FFFF7A
:10333000BC51010DF350BD25D96EF450BE21DA6E9B
:10334000B751DE18D8A417D0950EA16F010EA26F49
:10335000E80EA36F7F0EA46F950EA56F010EA66FEA
:10336000000EA86F000EA76FDCEC1FF0950E000199
:10337000B56F010E33D0FFFF950EA16F010EA26F46
:10338000E80EA36F7F0EA46F950EA56F010EA66FBA
:10339000BC51010DF350BD25D96EF450BE21DA6E3B
:1033A000DF50B86FB851A76FA86BDCEC1FF00001BD
:1033B000BC2BFFFFBDC080F0BEC081F0C2EC39F075
:1033C0000001BC51B86FB96B8051B85D8151B959DA
:1033D000D8A0ADD7FFFF000EB56F000EFFFFB66F90
:1033E0001200FFFFFFFF98EC35F0000E00018B6F1D
:1033F000D00E8A6FB1EC35F0000E00018B6F000E1D
:103400008A6FB1EC35F0000120EE01F08C51D92625
:103410008D51DA22DF5095EC38F000018E6F8E511D
:103420008A6F8B6BB1EC35F0000120EE02F08C510D
:10343000D9268D51DA22DF5095EC38F000018E6FDD
:103440008E518A6F8B6BB1EC35F0000120EE03F0EA
:103450008C51D9268D51DA22DF5095EC38F00001DD
:103460008E6F8E518A6F8B6BB1EC35F08CC0D9FFAB
:103470008DC0DAFFDF5095EC38F000018E6F8E5171
:103480008A6F8B6BB1EC35F0000120EE04F08C51AB
:10349000D9268D51DA22DF5095EC38F000018E6F7D
:1034A0008E518A6F8B6BB1EC35F0000120EE05F088
:1034B0008C51D9268D51DA22DF5095EC38F000017D
:1034C0008E6F8E518A6F8B6BB1EC35F0000120EE60
:1034D00006F08C51D9268D51DA22DF5095EC38F068
:1034E00000018E6F8E518A6F8B6BB1EC35F09EECC4
:1034F00035F01200FFFFFFFF86EC35F0000E036E83
:10350000D00E026EAAEC35F0000E036E000E026EB5
:10351000AAEC35F092EC35F0000E036ED10E026E7F
:10352000AAEC35F020EE01F00650D9260750DA2239
:10353000000E036E010E026EE0EC36F00250D2EC8B
:1035400035F0DF6E20EE02F00650D9260750DA2261
:10355000000E036E010E026EE0EC36F00250D2EC6B
:1035600035F0DF6E20EE03F00650D9260750DA2240
:10357000000E036E010E026EE0EC36F00250D2EC4B
:1035800035F0DF6E000E036E010E026EE0EC36F0D9
:103590000250D2EC35F006C0D9FF07C0DAFFDF6E6B
:1035A00020EE04F00650D9260750DA22000E036EF2
:1035B000010E026EE0EC36F00250D2EC35F0DF6E18
:1035C00020EE05F00650D9260750DA22000E036ED1
:1035D000010E026EE0EC36F00250D2EC35F0DF6EF8
:1035E00020EE06F00650D9260750DA22000E036EB0
:1035F000000E026EE0EC36F00250D2EC35F0DF6ED9
:103600008CEC35F01200FFFFFFFF0EC012F0136AC2
:10361000146A0D34123601E313801250156E1550E2
:10362000D8B40DD011C012F0136A146A10341236D7
:1036300001E3138012501A6E1A50D8A408D0FFFF6D
:10364000000E0C6E000E0D6E000E0E6E56D0FFFFBB
:103650001A507B0F15260EC01AF011501A1A800E40
:103660001A160D8E108EFF0E0F16FF0E1016000E7E
:103670001116000E166E000E176E000E186E070E55
:10368000196EFFFF0CA006D00F50162610501722FF
:1036900011501822FFFFD8900E320D320C32D89004
:1036A0000F3610361136192EECD7090E196EFFFFA2
:1036B0000CA006D00F5016261050172211501822B9
:1036C000FFFFD8900E320D320C32D89018321732DC
:1036D0001632192EECD716C001F017C002F018C030
:1036E00003F015C004F01AC005F0DFEC1EF001C0B5
:1036F0000CF002C00DF003C00EF0FFFF1200FFFF40
:10370000FFFF04D0FFFF0001BF4BC02BFFFFBFC076
:10371000D9FFC0C0DAFF200EDE18D8B4F3D7BFC07F
:10372000D9FFC0C0DAFF090EDE18D8B4EBD7000EFF
:103730000001C56F000EC46F000EC36FBFC0D9FF7C
:10374000C0C0DAFF2D0EDE18D8A402D0C32B28D0BB
:10375000FFFFBFC0D9FFC0C0DAFF2B0EDE18D8A410
:1037600022D01ED0FFFFC4C080F0C5C081F0000E83
:103770000001836F0A0E826F66EC36F0BFC0D9FF7E
:10378000C0C0DAFFDF500001C16FC26B8051C1279A
:103790008151C223D00EC125C46FFF0EC221C56F57
:1037A000FFFFBF4BC02BFFFFBFC0D9FFC0C0DAFF78
:1037B000DF503CEC36F0D8B0D5D70001C351D8B4B7
:1037C0000DD0C4C0C1F0C5C0C2F0C11FC21FC14BE3
:1037D000C22BC1C0BFF0C2C0C0F005D0FFFFC4C043
:1037E000BFF0C5C0C0F0FFFF1200FFFFFFFF1DC00C
:1037F0001FF0206A216A1C341F3601E320801F500D
:10380000296E2950D8B439D0170E1F6E1BC020F076
:103810001CC021F01DC022F01F28236E05D0FFFF21
:10382000D890223221322032FFFF232EF8D72050A9
:10383000246E1C8EFF0E1B16FF0E1C16000E1D168E
:103840001B50256E1C50266E1D50276E286A8E0E4A
:10385000295E29AE0ED02950800A8F0FD8A00DD036
:10386000FFFFD8902832273226322532293EF8D75A
:1038700019D0FFFF170E296411D0FFFF000E1B6E39
:10388000000E1C6E000E1D6E000E1E6E20D0FFFF7F
:10389000D89025362636273628362906FFFF2950A8
:1038A000D8A4F5D7FFFF2450D8B408D0281E271E6F
:1038B000261E256C000E262227222822FFFF25C067
:1038C0001BF026C01CF027C01DF028C01EF0FFFF13
:1038D0001200FFFFFFFF1DC021F0226A236A1C3483
:1038E000213601E322802150286E2850D8B40DD013
:1038F00020C021F0226A236A1F34213601E322808E
:103900002150296E2950D8A408D0FFFF000E1B6E4D
:10391000000E1C6E000E1D6E4DD0FFFF000E256EBA
:10392000000E266E000E276E2950890F285E1DC0DE
:1039300029F02050291A800E29161C8EFF0E1B1606
:10394000FF0E1C16000E1D161F8EFF0E1E16FF0EFC
:103950001F16000E2016180E246EFFFFD890253675
:10396000263627361E501B5C1F501C5820501D58F1
:10397000D8A007D01E501B5E1F501C5A20501D5A45
:103980002580FFFFD8901B361C361D36242EE5D728
:1039900025C001F026C002F027C003F028C004F0C3
:1039A00029C005F0DFEC1EF001C01BF002C01CF0C6
:1039B00003C01DF0FFFF1200FFFFFFFF0001836F38
:1039C00000018305D8A41AD0F051D8A417D0EF5124
:1039D0006C18D8B413D0EFC06CF0682A692A80BA8A
:1039E0000DD0020E816FBC0E806FFBEC36F0010E25
:1039F0000001F06F000E696E000E486EFFFFF0517F
:103A0000D8A415D0FC05D8A412D0010E476E080E1C
:103A1000696002D0010E05D0FFFF100E696004D06E
:103A2000000EFFFF486E03D0FFFF000E696EFFFF20
:103A30006850E65DD8B00AD0000E686E000EFC6FCC
:103A4000000EF06F000E476E000E486EFFFF8351B0
:103A5000D8A40AD0000EF06F000E486E000E476E1C
:103A6000000E696E000E686EFFFFFC51D8A406D0F0
:103A7000000E476E000E486E000E696EFFFFF0519B
:103A8000D8B40AD080BA05D0000E486E000E686E19
:103A900003D0FFFF000EF06FFFFF1200FFFFFFFFDC
:103AA000010E0001836F010E1BEC1EF088C084F034
:103AB00089C085F0BEEC37F0010E0001836F020E65
:103AC0001BEC1EF08AC084F08BC085F0BEEC37F092
:103AD000000E0001836F030E1BEC1EF08CC084F0FF
:103AE0008DC085F0BEEC37F0000E0001836F040E30
:103AF0001BEC1EF08EC084F08FC085F0BEEC37F05A
:103B0000000E0001906F000E906FFFFF130E906586
:103B100001D02BD0FFFF9051010DF3508825D96EB5
:103B2000F4508921DA6E200EDF6E9051010DF350B2
:103B30008A25D96EF4508B21DA6E200EDF6E9051FB
:103B4000010DF3508C25D96EF4508D21DA6E200EC4
:103B5000DF6E9051010DF3508E25D96EF4508F21F8
:103B6000DA6E200EDF6E902BD0D7FFFF1200FFFF22
:103B7000FFFF990EF66E7A0EF76E20EE87F02F0E8D
:103B80000900FFFFF5CFDEFFE806FAE2040E50EC75
:103B900036F0000E50EC36F0320EFFFFE82EFDD767
:103BA000000E0001BB6F000EBA6F000EB96F000E61
:103BB000BB6FFFFF040EBB6501D03AD0FFFFB90514
:103BC000D8A402D0000EBB6FFFFF000EBA6FFFFF3C
:103BD000070EBA6501D028D0FFFFB951D8A405D08F
:103BE000000EB86F000EB76F18D0FFFFBB51080D65
:103BF000870E846F000E856FF3508427F450852361
:103C0000BA51010DF3508425D96EF4508521DA6E36
:103C1000DF50866F8651B76FB86BFFFFB75174ECFA
:103C200038F00001BA2BD3D7FFFFB92BBB2BC1D77C
:103C3000FFFF1200FFFFFFFF0001846F4CD0FFFF6A
:103C4000000183517F0F876F87390F0B856F875175
:103C50000F0B866F855150EC36F00001865150EC09
:103C600036F048D0FFFF00018351BF0F876F8739BF
:103C70000F0B856F87510F0B866F855150EC36F017
:103C80000001865150EC36F035D0FFFF0001835122
:103C9000940F876F87390F0B856F87510F0B866FD6
:103CA000855150EC36F00001865150EC36F022D0B0
:103CB000FFFF00018351D40F876F87390F0B856F8A
:103CC00087510F0B866F855150EC36F000018651FD
:103CD00050EC36F00FD0FFFF00018451010AD8B438
:103CE000AED7030AD8B4BED7010AD8B4CED7070AD4
:103CF000D8B4DED7FFFF1200FFFFFFFF0E0E6CEC03
:103D000039F000018E6F8E518F6F906B905104E1EE
:103D10003C0E8F5DD8A006D0905105E1FB0E8F5D63
:103D2000D8A005D0FFFF000E906F3C0E8F6FFFFFF5
:103D3000ECC08CF08F51F9EC38F0EBC08CF0000146
:103D40008F4B902B8F51F9EC38F0EAC08CF00001CA
:103D50008F4B902B8F51F9EC38F0EDC08CF00001B7
:103D60008F4B902B8F51F9EC38F0EEC08CF00001A6
:103D70008F4B902B8F51F9EC38F0FEC08CF0000186
:103D80008F4B902B8F51F9EC38F0FDC08CF0000177
:103D90008F4B902B8F51F9EC38F0FCC08CF0000168
:103DA0008F4B902B8F51F9EC38F000018F4B902BFB
:103DB0008FC08CF00E0EF9EC38F01200FFFFFFFF01
:103DC0000450D8B405D0015002100310D8A40ED06E
:103DD000FFFF000E016E000E026E000E036E4ED04D
:103DE000FFFF042AD890033202320132FFFF000E97
:103DF0000114066E000E0214076EFE0E0314086E08
:103E0000065007100810D8B40DD0EAD7FFFF042AD7
:103E1000010E0126000E0222000E0322D89003326A
:103E200002320132FFFF000E0114066E000E021472
:103E3000076EFF0E0314086E065007100810D8B462
:103E400007D0E4D7FFFF0406D890013602360336C8
:103E5000FFFF02BE03D0020E0460F4D7FFFF04A0F0
:103E6000029ED8900432045003120550D8A4038E49
:103E700001C001F002C002F003C003F0FFFF120016
:103E8000FFFFFFFF03AE16D001C007F002C008F02D
:103E900003C009F0071E081E091E072A000E08228B
:103EA0000922000E0724016E000E0820026E800E0B
:103EB0000920036EFFFF06AE16D004C007F005C050
:103EC00008F006C009F0071E081E091E072A000E8A
:103ED00008220922000E0724046E000E0820056E39
:103EE000800E0920066EFFFF000E011A000E021A56
:103EF000800E031A000E041A000E051A800E061A10
:103F00000450015C0550025806500358D8B002D046
:103F1000D89002D0FFFFD880FFFF1200FFFFFFFF05
:103F2000000E0001856F83AF06D0826D831FD8B06D
:103F3000832B010E856FFFFF81AF06D0806D811F3F
:103F4000D8B0812B010E851BFFFF000E876F000E7E
:103F5000866F82518311D8B420D0010E846F05D0B2
:103F6000FFFFD89082378337842BFFFF83AFF8D7CA
:103F7000FFFFD890863787378251805D8351815902
:103F8000D8A005D08251805F8351815B8681FFFF7D
:103F9000D89083338233842FEBD7FFFF8551D8B479
:103FA00004D0866D871FD8B0872BFFFF86C080F0B6
:103FB00087C081F01200FFFFFFFFA1C0B1F0A2C0D7
:103FC000B2F0000E0001B36F000EB46FA50EAF6F1C
:103FD000000EB06FB10E8C6F000E8D6FA3C08EF00F
:103FE000A4C08FF0AF0E906F000E916F8EEC00F0BA
:103FF000B1C0D9FFB2C0DAFF000EDF6E1200FFFFC2
:026AFE00FFFF98
:106B01002020202062003C01010105FFFFDDEC3562
:106B1100F0C5801200FFFFFFFFDDEC35F0C58412E8
:106B210000FFFFFFFFDDEC35F0C5821200FFFFFF24
:106B3100FFE9EC35F0C5801200FFFFFFFFE9EC35FE
:106B4100F0C5841200FFFFFFFFE9EC35F0C58212AA
:106B510000FFFFFFFFDDEC35F002C0C9FF1200FFAF
:106B6100FFFFFFE9EC35F08AC0C9FF1200FFFFFF0C
:106B7100FFACA2FDD780C0ADFF1200FFFFFFFF00F9
:106B81000E50EC36F0010E50EC36F01200FFFFFF14
:106B9100FF0001806FFFFFACA2FDD780C0ADFF12E7
:106BA10000FFFFFFFF016E01380F0B0F0B0A0D01F4
:106BB100500F0BF3241200FFFFFFFFC7B4FDD7C531
:106BC100CF01F01F0E0116D8B41200FFFFF5D7FF59
:106BD100FFFFFFC7B4FDD7C5CF80F01F0E000180B6
:106BE10017D8B41200FFFFF4D7FFFFFFFF000180A9
:106BF1006F000180390F0B0F0B0A0D80510F0BF342
:106C0100241200FFFFFFFF086E06C004F00850DBEE
:106C1100EC37F00750066E076A06C004F00828DB5F
:106C2100EC37F01200FFFFFFFF09C001F00AC002BC
:106C3100F0036A8E0E046E000E056EDFEC1EF0018D
:106C4100C009F002C00AF003C00BF01200FFFFFF01
:106C5100FFC284190EFFFFE82EFDD7FFFFC2A4FD7E
:106C6100D7C450046E036AC3500324016E000E049E
:106C710020026E1200FFFFFFFF0001826F000E0075
:106C810001816F3A0E826105D02F0E826502D0011B
:106C91000E816FFFFF81C080F080311200FFFFFF86
:106CA100FF0001826F839200018251D7EC38F0839B
:106CB100801E0E0001816F3C0EFFFFE82EFDD78183
:106CC1002FFBD700F083901200FFFFFFFF00018030
:106CD100518203F3CF84F0F4CF85F080518303F325
:106CE10050852781518203F350852784C080F08528
:106CF100C081F01200FFFFFFFF000E0001F26F00E4
:106D01000EF36F010EFC6F010EFE6F010EFD6F00A1
:106D11000EF46F000E456E000E686E000E696E3146
:106D2100EC37F01200FFFFFFFF0BD0FFFF020E0355
:106D31006EF20EFFFFE82EFDD7032EFBD700D00425
:106D410000FFFF0106D8A002060128F0E10228D8C1
:106D5100B41200FFFFEAD7FFFFFFFF86EC35F0001A
:106D61000E036ED00E026EAAEC35F0000E036E0714
:106D71000E026EAAEC35F0000E036E000E026EAA32
:106D8100EC35F08CEC35F01200FFFFFFFF410E00F7
:106D910001A16F010EA26F6B0EA36F7C0EA46FDCBD
:106DA100EC1FF00001DB51DC11D8A406D0000EF17C
:106DB1006F030EF36F000EE06FFFFF1200FFFFFF86
:106DC100FFDDEC35F0C586DDEC35F0C9CF04F0050B
:106DD1006ADDEC35F002500310D8A402D0C58A0256
:106DE100D0FFFFC59AFFFFC58804C002F005C003AC
:106DF100F01200FFFFFFFF0CD0FFFF020E00018227
:106E01006FF20EFFFFE82EFDD7822FFBD700F004B3
:106E110000FFFF00018007D8A081078029EEE181F2
:106E210029D8B41200FFFFE8D7FFFFFFFF000E6271
:106E31006E050E0001806F010E816F000E836F00E1
:106E41000E826F000E856F3C0E846F84EC37F0006C
:106E51000E0001816F960E806FFBEC36F01200FF81
:106E6100FFFFFF000E0001806F000E806FFFFF0724
:106E71000E806501D00DD0FFFF8051010D440EF34E
:106E810024D96E000EF420DA6E000EDF6E802BEE38
:106E9100D7FFFF1200FFFFFFFF98EC35F0000E0057
:106EA100018B6FD00E8A6FB1EC35F0000E00018BB3
:106EB1006F070E8A6FB1EC35F0000E00018B6F0089
:106EC1000E8A6FB1EC35F09EEC35F01200FFFFFF3A
:106ED100FF0001936F000193296CEC39F0000190E0
:106EE1006F9051916F926B9151926F916B93516C25
:106EF100EC39F00001906F9051911391C08EF09296
:106F0100C08FF01200FFFFFFFF80C086F081C087B5
:106F1100F00AD0FFFF86C0D9FF87C0DAFF82C0DF49
:106F2100FF0001864B872BFFFF00018407D8A08556
:106F3100078429F0E18529D8B41200FFFFEAD7FFC1
:106F4100FFFFFFE9EC35F0C586E9EC35F0C9CF83E9
:106F5100F00001846BE9EC35F0000181518211D818
:106F6100A402D0C58A02D0FFFFC59AFFFFC588835E
:106F7100C081F084C082F01200FFFFFFFF000E000D
:106F810001866F000E866FFFFF130E866501D00F1D
:106F9100D0FFFF8651010DF3508425D96EF4508541
:106FA10021DA6EDF5074EC38F00001862BECD7FF4C
:106FB100FF1200FFFFFFFF056E86EC35F0000E03A8
:106FC1006EA00E026EAAEC35F005C002F0036AAAAB
:106FD100EC35F004C002F0036AAAEC35F08CEC3514
:106FE100F0000E026E0F0E016E94EC36F01200FFEF
:106FF100FFFFFF050E00018F6F010E906F93C0918F
:10700100F094C092F0B3EC3CF000018F519011D894
:10701100B408D0000E816F960E806FFBEC36F00144
:107021000E02D0FFFF000EFFFF1200FFFFFFFF0067
:107031000E0001B76F000EB86F900EB96F6B0EBAEC
:107041006FA30EB56F000EB66FB70E8C6F000E8D6D
:107051006FA1C08EF0A2C08FF0B50E906F000E919F
:107061006F8EEC00F01200FFFFFFFF6350D8B418E1
:10707100D0000E0001846F820782C084F00CD0FF23
:10708100FF8451010DF3508025D96EF4508121DA2E
:107091006E200EDF6E842BFFFF8351845DD8A0EF3D
:1070A100D7FFFF1200FFFFFFFF80C0D9FF81C0DAC9
:1070B100FF00018251DE18D8A405D080C080F08184
:1070C100C081F00ED0FFFF80C0D9FF81C0DAFF8000
:1070D1004B812BDF50D8A4E7D7000E806F000E81C3
:1070E1006FFFFF1200FFFFFFFF0001836F000183AD
:1070F100510F0B816F8351F00B826F838282390FA5
:107101000BD7EC38F083804B0EFFFFE82EFDD783C1
:107111009000018151D7EC38F083804B0EFFFFE8DE
:107121002EFDD783901200FFFFFFFF0001886F88BB
:10713100C080F00001816B000E836F0A0E826F8F99
:10714100EC1FF000018039F00B896F88C080F0815D
:107151006B000E836F0A0E826F0AEC3BF000018018
:10716100518911896F89511200FFFFFFFF0001E969
:1071710051E85DD8A018D06F04D8A415D0F151D82A
:10718100A412D0E751ED19D8A40ED0000EE86FE893
:10719100C08CF00A0EF9EC38F0000E6E6E010E0094
:1071A10001F16F1C0EE06FFFFF1200FFFFFFFF00F8
:1071B10001806F000180A102D0838402D0FFFF8390
:1071C10094FFFF80A302D0838602D0FFFF8396FF46
:1071D100FF80A502D0838802D0FFFF8398FFFF8044
:1071E100A702D0838A02D0FFFF839AFFFF1200FF1C
:1071F100FFFFFF00018D6F98EC35F0000E00018B51
:107201006FA00E8A6FB1EC35F08DC08AF000018B52
:107211006BB1EC35F08CC08AF000018B6BB1EC35B1
:10722100F09EEC35F0000E0001816F0F0E806FFBB8
:10723100EC36F01200FFFFFFFF1F0E796402D00051
:107241000E796EFFFF170E786402D0000E786EFF84
:10725100FF3B0E776402D0000E776EFFFF0C0E7AB3
:107261006402D0000E7A6EFFFF3B0E766402D000FE
:107271000E766EFFFF630E7B6402D0000E7B6EFF05
:10728100FF1200FFFFFFFF000189518A11D8B41CD2
:10729100D0010E8B6F05D0FFFFD89089378A378BCD
:1072A1002BFFFF8AAFF8D7FFFF8951875D8A51888D
:1072B10059D8A004D08951875F8A51885BFFFFD8D4
:1072C100908A3389338B2FEFD7FFFF87C087F088F0
:1072D100C088F01200FFFFFFFF00018C6F98EC35B2
:1072E100F0000E00018B6FA00E8A6FB1EC35F08CAF
:1072F100C08AF000018B6BB1EC35F0A4EC35F000E5
:107301000E00018B6FA10E8A6FB1EC35F0000E00FB
:1073110001826F000E816FA1EC37F0000181518D68
:107321006F9EEC35F000018D511200FFFFFFFF81D0
:107331000EC26ECE0EC16E92808090810ED56EE42B
:107341000EF26E959A95989596959495929590943E
:107351009C948EAC8AAC84AC98AB8EAB88190EAF82
:107361006EF28EF28C9E9A9D8AF2969284928A9403
:1073710080938493869388938A969096929694129A
:1073810000FFFFFFFF80C084F081C085F004D0FFC3
:10739100FF0001844B852BFFFF84C0F6FF85C0F7FA
:1073A100FFF86A050EF76404D00800FFFFF55005E9
:1073B100D0F6CFE9FFF7CFEAFFEF500009D8A4E7F5
:1073C100D780C082F081C083F00001821F831F82B9
:1073D1004B832B84518225806F85518321816F12CC
:1073E10000FFFFFFFF000E0001856F000E846F821A
:1073F100518311D8B420D0010E866F05D0FFFFD87C
:107401009082378337862BFFFF83AFF8D7FFFFD8F2
:1074110090843785378251805D83518159D8A00589
:10742100D08251805F8351815B8481FFFFD890833B
:10743100338233862FEBD7FFFF84C080F085C08174
:10744100F01200FFFFFFFF280EC66E000EC56E0092
:107451000E0001806F120E816F7A0E826F000E8313
:107461006F8DC091F08EC092F08FC093F090C09458
:10747100F0020EFFFFD8909137923793379437E897
:107481002EF8D791C084F092C085F093C086F09415
:10749100C087F0D6EC3BF000018005C86E000EC736
:1074A1006E948694881200FFFFFFFF0001806F2118
:1074B100D0FFFF5F50D8B41AD0000E5F6E14D0FF1A
:1074C100FF5B50D8B413D0000E5B6E0DD0FFFF5D93
:1074D10050D8B40CD0000E5D6E06D0FFFF5950D8C5
:1074E100B405D0000E596EFFFF010E13D0FFFF004F
:1074F1000E10D0FFFF00018051010AD8B4D9D70383
:107501000AD8B4E4D7010AD8B4DAD7070AD8B4E55F
:10751100D7EDD7FFFF1200FFFFFFFF800E0001A193
:107521006F010EA26F9B0EA36F7F0EA46FDCEC1F89
:10753100F06B0E0001A16F010EA26FCF0EA36F7C45
:107541000EA46FDCEC1FF0560E0001A16F010EA21C
:107551006FAE0EA36F7D0EA46FDCEC1FF0410E0029
:1075610001A16F010EA26F140EA36F7F0EA46FD83D
:107571000EA56F7E0EA66FDCEC1FF0010E55EC3AE6
:10758100F00009D8A4DFC0E0F01200FFFFFFFF8187
:10759100B402D0010E09D0FFFF81A408D06050D8F9
:1075A100B405D0010E5F6E000EFFFF606EFFFF811C
:1075B100B802D0010E09D0FFFF81A808D05E50D8D3
:1075C100B405D0010E5D6E000EFFFF5E6EFFFF8100
:1075D100BA02D0010E09D0FFFF81AA08D05C50D8B1
:1075E100B405D0010E5B6E000EFFFF5C6EFFFF81E4
:1075F100B602D0010E09D0FFFF81A608D05A50D89B
:10760100B405D0010E596E000EFFFF5A6EFFFF1236
:1076110000FFFFFFFF000E0001856F81AF06D080E4
:107621006D811FD8B0812B010E856FFFFF83AF04E1
:10763100D0826D831FD8B0832BFFFF82518311D875
:10764100B41CD0010E846F05D0FFFFD89082378320
:1076510037842BFFFF83AFF8D7FFFF8251805D8313
:10766100518159D8A004D08251805F8351815BFF41
:10767100FFD89083338233842FEFD7FFFF8551D812
:10768100B404D0806D811FD8B0812BFFFF80C080F2
:10769100F081C081F01200FFFFFFFF000ED7EC3830
:1076A100F03B0E0001836F790EFFFFE82EFDD783BB
:1076B1002FFBD700D000F0030E50EC36F01E0E0069
:1076C10001836F3C0EFFFFE82EFDD7832FFBD70010
:1076D100F0030E50EC36F0270E0001836FFB0EFF16
:1076E100FFE82EFDD7832FFBD700D000F0030E500B
:1076F100EC36F0020E50EC36F0020E50EC36F0088B
:107701000E50EC36F0000E50EC36F00C0E50EC360C
:10771100F0000E50EC36F0060E50EC36F01200FF81
:10772100FF010EF66E6B0EF76E000EF86E01EEC1E4
:10773100F010EE04F00900F5CFEEFFE550E150FA4C
:10774100E1050EF66E6B0EF76E000EF86E00EEF9A7
:10775100F010EE07F00900F5CFEEFFE550E150FA29
:10776100E1060EF66E000EF76E000EF86E0900F5DA
:10777100CF7CF00900F5CF7DF001EE00F0C10EEEF7
:107781006AE806FDE100EEDBF01E0EEE6AE806FD9A
:10779100E100EE44F0380EEE6AE806FDE17E907EEF
:1077A10092000EF86E00010EEF07F0FFFF000E00D1
:1077B10001886F000E896F000E8A6F000E8B6F8437
:1077C10051851186118711D8B42ED0010E8C6F0707
:1077D100D0FFFFD89084378537863787378C2BFFCA
:1077E100FF87AFF6D7FFFFD890883789378A378B65
:1077F100378451805D8551815986518259875183E2
:1078010059D8A009D08451805F8551815B8651820E
:107811005B8751835B8881FFFFD8908733863385EF
:107821003384338C2FDFD7FFFF88C080F089C0817C
:10783100F08AC082F08BC083F01200FFFFFFFF00CF
:1078410001BF6F630E0001BF6104D0BFC0C0F0C1B2
:107851006B05D0FFFF000EC16F000EC06FFFFFC1AF
:10786100C1BBF0C2C1BCF0C3C1BDF0C4C1BEF0C058
:10787100C080F0C1C081F0000E836F0A0E826F8F4D
:10788100EC1FF000018051300FBB6F2E0EBC6FC09A
:10789100C080F0C1C081F0000E836F0A0E826F0AB2
:1078A100EC3BF000018051300FBD6F000EBE6FB791
:1078B1000EA16F000EA26FBB0EA36F000EA46FDCB2
:1078C100EC1FF0B70E0001B56F000EB66F1200FF8E
:1078D100FFFFFF000E0001816F000E826F84920096
:1078E1000E826FFFFF070E826501D02FD0FFFF824E
:1078F10051010D440EF324D96E000EF420DA6EDF2F
:1079010050D8B402D082518127FFFF849082510167
:107911000D440EF324D96E000EF420DA6EDF508090
:107921006F8047804784508019FB0B8019846E0655
:107931000E0001806FD80EFFFFE82EFDD7802FFBD0
:10794100D700F084800001822BCCD7FFFF848261B5
:10795100508119D8B404D081C061F0010E706EFF5E
:10796100FF1200FFFFFFFF35D0FFFF8FC086F090B1
:10797100C087F091C088F092C089F091C080F092E8
:10798100C081F0C2EC39F080C08AF081C08BF0FF79
:10799100EC3CF0000186518711D8A405D08FC08F2F
:1079A100F090C090F028D0FFFF010E8F25806F006E
:1079B1000E9021816F91C0F6FF92C0F7FF0800FF82
:1079C100FFF550826F836B54EC38F080C08FF081EB
:1079D100C090F0FFFF00018F519011D8B407D08FF4
:1079E100C0D9FF90C0DAFFDF50D8A4BED7FFFF0097
:1079F1000E8F6F000E906FFFFF1200FFFFFFFF3A27
:107A0100D0FFFF86C0D9FF87C0DAFFDF50D8B4119D
:107A1100D086C0D9FF87C0DAFFDF5000018C6F88A4
:107A2100C0F6FF89C0F7FF0800FFFFF5508C19D899
:107A3100B41CD0FFFF88C0F6FF89C0F7FF0800FF24
:107A4100FFF55000018C6F8D6B8C1F8D1F8C4B8D42
:107A51002B86C0D9FF87C0DAFFDF508E6F8E518C25
:107A610025866F000E8D21876F13D0FFFF864B8710
:107A71002B884B892BFFFF00018A07D8A08B078A2F
:107A810029C0E18B29D8A4BCD7000E876F000E86D0
:107A91006FFFFF1200FFFF00001F0E040404040427
:107AA1000000000000101010000000040414141461
:107AB10000010105051515150A0A1F11110E04040F
:107AC100000000000000000001000A006400E8035B
:107AD1001027544543484E4F572053697374656DC1
:107AE100617320656D6261726361646F730D0A0D6C
:107AF1000A5465737465206D616E75616C206465EF
:107B010020636F6D756E69636163616F2E0D0A4449
:107B11006174613A20253032642F253032642F257B
:107B210030326420253032643A253032643A2530CF
:107B310032640D0A0D0A0D0A56657273616F206475
:107B41006F2073697374656D613A2025730D0A00A6
:107B5100544553544520444520424F4D4241532002
:107B61005245414C495A41444F0D0A454D2025305B
:107B710032643A253032643A25303264202530327D
:107B8100642F253032642F253032640D0A4A4F4369
:107B91004B45593A2025730D0A5052494E434950DD
:107BA100414C3A2025730D0A434F4D4255535441E0
:107BB1004F3A2025730D0A004449535041524F203A
:107BC100414C41524D4520444520494E43454E4488
:107BD100494F0D0A454D20253032643A2530326433
:107BE1003A2530326420253032642F253032642F1B
:107BF100253032640D0A00446174613A2025303227
:107C0100642F253032642F253032642025303264D0
:107C11003A253032640020253032643A253032640E
:107C210020253032642F2530326400202A66616CB1
:107C3100686120422E207072696E636970616C0008
:107C4100202A66616C686120422E20636F6D627527
:107C51007374616F002350726F78696D6F20656D69
:107C61002025326420646961730044657370726514
:107C710073737572697A616E646F2E2E2E002041C6
:107C81004C4552544120444520494E43454E4449B8
:107C91004F00202A66616C68612076616C2E206C31
:107CA100616472616F00494E54455256414C4F3ADE
:107CB10020253264206469617300484F5241524962
:107CC1004F3A202530326420686F72617300536926
:107CD1007374656D617320656D6261726361646F58
:107CE10073002050726573732045534320702F2019
:107CF100526573657400426F6D6261205072696EE6
:107D0100636970616C2E2E2E00426F6D626120439B
:107D11006F6D62757374616F2E2E2E00436F6E66E8
:107D2100696775726163616F2074656D706F00457D
:107D310072726F206E6F205472616E736475746F0E
:107D4100720041542B434D47533D222B353525734A
:107D5100220D0A005041525449444120434F4D42A3
:107D6100555354414F00504552494F444F204445CB
:107D71002054455354455300686F72696D657472A0
:107D81006F3A253564206D696E00202A66616C6842
:107D91006120422E206A6F636B65790054657374AC
:107DA1006520436F6E636C7569646F21002020202C
:107DB10034382039393930362D3536353100202ADD
:107DC10066616C686120656C657472696361004508
:107DD1006E7669617220736D7320746573746500CA
:107DE100656E7669616E646F20534D532E2E2E00A1
:107DF100426F6D6261204A6F636B65792E2E2E0092
:107E01005052455353414F2044412052454445006F
:107E11005072657373616F202573204241520025B2
:107E21003032642F253032642F2530326400253002
:107E310032643A253032643A253032640050524976
:107E41004E434950414C203A20257300434F4D4247
:107E5100555354414F203A20257300416775617293
:107E610064652E2E2E2025647300496E6963696155
:107E710072205465737465730056657273616F2067
:107E8100536F66742E3A004D61782E205041525442
:107E91004944413A005072696E636970616C3A20DD
:107EA100257300436F6D62757374616F3A2025739A
:107EB1000020616775617264652E2E2E2000526567
:107EC1006C6967616E646F2E2E2E0041542B434DF9
:107ED10047463D310D0A004A756E2030312032305F
:107EE1003230004D61782E2054455354453A004EAE
:107EF1004F204449414C544F4E4500202A66616C45
:107F010068612047534D00494E464F205645525314
:107F1100414F0076657273616F202D2025730041FA
:107F21005444203025733B0D0A0023253032642F41
:107F31002530326400474552414C203A20257300D8
:107F41004A4F4B4559203A20257300415449564127
:107F5100523A202573004C69676164612E2E2E0010
:107F6100444154412F484F524100444154414C4FE8
:107F71004745520054454C45464F4E4553004A6FC4
:107F81006B65793A2025730041542B4353510D0AF7
:107F910000426F6D626120257300544543484E4F86
:107FA1005700286E756C6C2900415448300D0A0049
:107FB1002B4353513A200054313A20257300543257
:107FC1003A20257300484F52413A00444154413A06
:107FD1000046414C4841004552524F520041540D18
:107FE1000A004552524F00257325630025336473FF
:0F7FF1000053696D004E616F004F4B003E000062
:020000040020DA
:08000000FFFFFFFFFFFFFFFF00
:020000040030CA
:0E000000FF220F0FFF0181FF004000E00F0004
:00000001FF
