:1000000000F076EF00F0FFFFFFFF7482FACF32F0CE
:10001000FBCF33F0E9CF34F0EACF35F0E1CF36F063
:10002000E2CF37F0D9CF38F0DACF39F0F3CF3AF06A
:10003000F4CF3BF0F6CF3CF0F7CF3DF0F8CF3EF0F9
:10004000F5CF3FF074C040F075C041F076C042F08B
:1000500077C043F0F2A419D0F2943C0ED76EB00EE4
:10006000D66E4DEC1FF0652A622A5EEC10F073B07C
:1000700002D0738002D0FFFF7390FFFF090E65640A
:1000800004D0000E656E5EEC1AF0FFFF9EAA06D04B
:100090009E9AAECF30F0316A27EC39F0FFFF43C0B3
:1000A00077F042C076F041C075F040C074F03FC0B8
:1000B000F5FF3EC0F8FF3DC0F7FF3CC0F6FF3BC078
:1000C000F4FF3AC0F3FF39C0DAFF38C0D9FF37C0B8
:1000D000E2FF36C0E1FF35C0EAFF34C0E9FF33C0BC
:1000E000FBFF32C0FAFF74921100FFFF8CEF1FF08C
:1000F000FFFFD7D3FFFF250E0001A019D8B437D0DA
:1001000020EE02F08C51D9268D51DA22DE50DE101D
:10011000D8B416D020EE02F08C51D9268D51DA22B7
:1001200001D8BFD3FFFF0500FA6EDE50FD6EDE5032
:10013000FE6EF850FF6EFA50A0511200FFFFB1D3CF
:10014000FFFF8CC0D9FF8DC0DAFFDECF92F0DDCF8C
:1001500093F092C0D9FF93C0DAFFA0C0DFFF8CC03C
:10016000D9FF8DC0DAFFDE2A000EDD229AD3FFFF11
:10017000000E00019F6F000E9E6F000E9B6F05D05A
:10018000FFFF00019B858E4B8F2BFFFF8EC0F6FF7C
:100190008FC0F7FFF86A050EF76404D00800FFFF70
:1001A000F55005D0F6CFE9FFF7CFEAFFEF50300A60
:1001B000D8B4E6D78EC0F6FF8FC0F7FFF86A050EF9
:1001C000F76404D00800FFFFF55005D0F6CFE9FF33
:1001D000F7CFEAFFEF50FEEC38F0D8A06BD1000E5D
:1001E00000019F6F000E9E6FFFFF9EC080F09FC0BA
:1001F00081F0000E0001836F0A0E826F52EC39F01D
:1002000080C09EF081C09FF0D00E0001926FFF0E63
:10021000936F8EC0F6FF8FC0F7FFF86A050EF76484
:1002200004D00800FFFFF55005D0F6CFE9FFF7CF67
:10023000EAFFEF500001946F956B92519427935110
:10024000952394519E2795519F238E4B8F2B8EC0C3
:10025000F6FF8FC0F7FFF86A050EF76404D00800B8
:10026000FFFFF55005D0F6CFE9FFF7CFEAFFEF50DB
:10027000FEEC38F0D8A01ED1B7D7FFFF90C0D9FF51
:1002800091C0DAFFDFCF92F0020EDE26DFCF93F0CF
:10029000000EDD2292C0D9FF93C0DAFFDECF9CF0C2
:1002A000DDCF9DF000019C519D11D8A404D0AF0E6C
:1002B0009C6F7F0E9D6FFFFF000E9A6F000E996F6F
:1002C00004D0FFFF0001994B9A2BFFFF99519C2509
:1002D000926F9A519D21936F92C0F6FF93C0F7FFE2
:1002E000F86A050EF76404D00800FFFFF55005D04A
:1002F000F6CFE9FFF7CFEAFFEF500009D8A4E1D726
:10030000FFFF00019E51995D9F519A59D8B005D0C9
:1003100099519E5F9A519F5B3DD0FFFF000E9F6FEA
:10032000000E9E6F37D0FFFF20EE02F08C51D926D1
:100330008D51DA22DE50DE10D8B416D020EE02F055
:100340008C51D9268D51DA2201D824D0FFFF050027
:10035000FA6EDE50FD6EDE50FE6EF850FF6EFA5003
:10036000200E1200FFFF16D0FFFF8CC0D9FF8DC0FA
:10037000DAFFDECF92F0DDCF93F092C0D9FF93C0C9
:10038000DAFF200EDF6E8CC0D9FF8DC0DAFFDE2AC7
:10039000000EDD22FFFF00019E07D8A09F079E29C7
:1003A000C3E19F29D8B45FD0BED7FFFF20EE02F093
:1003B0008C51D9268D51DA22DE50DE10D8B42AD0E5
:1003C00020EE02F08C51D9268D51DA2201D81DD0B1
:1003D000FFFF0500FA6EDE50FD6EDE50FE6EF85037
:1003E000FF6EFA509CC0F6FF9DC0F7FFF86A050E3D
:1003F000F76404D00800FFFFF55005D0F6CFE9FF01
:10040000F7CFEAFFEF501200FFFFFFFF00019C4B08
:100410009D2B29D0FFFF9CC0F6FF9DC0F7FFF86A17
:100420008CC0D9FF8DC0DAFFDECF92F0DDCF93F024
:1004300092C0D9FF93C0DAFF050EF76404D008001C
:10044000FFFFF55005D0F6CFE9FFF7CFEAFFEF50F9
:10045000DF6E00019C4B9D2B8CC0D9FF8DC0DAFF55
:10046000DE2A000EDD22FFFF9907D8A09A079929FE
:100470009DE19A29D8B415D298D7FFFF90C0D9FF33
:1004800091C0DAFFDFCF92F0020EDE26DFCF93F0CD
:10049000000EDD2292C0D9FF93C0DAFFDF50A06FBB
:1004A000FFFFA00E9C6F000E9D6F000E9A6F010E55
:1004B000996F26D7FFFF00018E51926F8F51936F76
:1004C0008E4B8F2B92C0F6FF93C0F7FFF86A050E94
:1004D000F76404D00800FFFFF55005D0F6CFE9FF20
:1004E000F7CFEAFFEF500001A06FA051000AD8B487
:1004F000F6D1630AD8B4C1D7070AD8B407D00D0A19
:10050000D8B404D01A0AD8B4B8D6CAD7FFFF90C05E
:10051000D9FF91C0DAFFDFCF92F0020EDE26DFCFE7
:1005200093F0000EDD2292C0D9FF93C0DAFFDECF38
:1005300097F0DDCF98F0000198AF06D0030E9B1323
:10054000976D981FD8B0982BFFFF010EA06FFFFF8B
:10055000050EA019D8B414D0A051020DD90EF32461
:10056000F66E7B0EF420F76E0900FFFFF550975DE5
:100570000900FFFFF5509859D8A002D0A02BE7D76B
:10058000FFFF9E519F11D8B409D09BC092F0030E7B
:100590009217D8B403D09E07D8A09F07FFFF800E04
:1005A000A0BF7F0E926F9E51A05D9F51800A92590D
:1005B000D8B007D0A0519E5F000EA0BFFF0E9F5B7A
:1005C00005D0FFFF000E9F6F000E9E6FFFFF9BA5E3
:1005D0007FD09BC092F0030E9217D8B436D020EE95
:1005E00002F08C51D9268D51DA22DE50DE10D8B4BB
:1005F00016D020EE02F08C51D9268D51DA2201D886
:1006000024D0FFFF0500FA6EDE50FD6EDE50FE6E58
:10061000F850FF6EFA502D0E1200FFFF16D0FFFFAC
:100620008CC0D9FF8DC0DAFFDECF92F0DDCF93F022
:1006300092C0D9FF93C0DAFF2D0EDF6E8CC0D9FFB8
:100640008DC0DAFFDE2A000EDD22FFFF0001FFFF72
:100650009E519F11D8B4BED020EE02F08C51D92605
:100660008D51DA22DE50DE10D8B416D020EE02F022
:100670008C51D9268D51DA2201D824D0FFFF0500F4
:10068000FA6EDE50FD6EDE50FE6EF850FF6EFA50D0
:10069000300E1200FFFF16D0FFFF8CC0D9FF8DC0B7
:1006A000DAFFDECF92F0DDCF93F092C0D9FF93C096
:1006B000DAFF300EDF6E8CC0D9FF8DC0DAFFDE2A84
:1006C000000EDD22FFFF00019E07D8A09F07BFD7C5
:1006D000FFFF9E519F11D8B440D0FFFF20EE02F0E3
:1006E0008C51D9268D51DA22DE50DE10D8B416D0C6
:1006F00020EE02F08C51D9268D51DA2201D824D077
:10070000FFFF0500FA6EDE50FD6EDE50FE6EF85003
:10071000FF6EFA50200E1200FFFF16D0FFFF8CC0B4
:10072000D9FF8DC0DAFFDECF92F0DDCF93F092C01B
:10073000D9FF93C0DAFF200EDF6E8CC0D9FF8DC0C9
:10074000DAFFDE2A000EDD22FFFF00019E07D8A09F
:100750009F079E519F11D8A4C0D7FFFF9BC092F066
:10076000030E9217D8B436D020EE02F08C51D92661
:100770008D51DA22DE50DE10D8B416D020EE02F011
:100780008C51D9268D51DA2201D824D0FFFF0500E3
:10079000FA6EDE50FD6EDE50FE6EF850FF6EFA50BF
:1007A0002D0E1200FFFF16D0FFFF8CC0D9FF8DC0A9
:1007B000DAFFDECF92F0DDCF93F092C0D9FF93C085
:1007C000DAFF2D0EDF6E8CC0D9FF8DC0DAFFDE2A76
:1007D000000EDD22FFFFA0C096F05DD0FFFF0001FC
:1007E0009651020DD90EF324F66E7B0EF420F76EAF
:1007F0000900FFFFF5CF82F00A00FFFFF5CF83F07D
:1008000097C080F098C081F079EC3DF080C087F00F
:1008100081C088F0000E00018A6F0A0E896F6BECB0
:100820003CF000018751300FA06F20EE02F08C5198
:10083000D9268D51DA22DE50DE10D8B416D020EE43
:1008400002F08C51D9268D51DA2201D824D0FFFF35
:100850000500FA6EDE50FD6EDE50FE6EF850FF6E43
:10086000FA50A0511200FFFF16D0FFFF8CC0D9FF35
:100870008DC0DAFFDECF92F0DDCF93F092C0D9FFCA
:1008800093C0DAFFA0C0DFFF8CC0D9FF8DC0DAFFB4
:10089000DE2A000EDD22FFFF000196079629D8A46C
:1008A0009DD7FFFF00018E51926F8F51936F8E4B3A
:1008B0008F2B92C0F6FF93C0F7FFF86A050EF7641E
:1008C00004D00800FFFFF55005D0F6CFE9FFF7CFC1
:1008D000EAFFEF500001A06FA051D8A40BD4FFFF96
:1008E000000E00018D6F000E8C6F1200FFFFFFFFE6
:1008F000BFD3FFFF250E2118D8B437D020EE02F069
:100900000D50D9260E50DA22DE50DE10D8B416D0A3
:1009100020EE02F00D50D9260E50DA2201D8A8D3CD
:10092000FFFF0500FA6EDE50FD6EDE50FE6EF850E1
:10093000FF6EFA5021501200FFFF9AD3FFFF0DC047
:10094000D9FF0EC0DAFFDECF13F0DDCF14F013C0F5
:10095000D9FF14C0DAFF21C0DFFF0DC0D9FF0EC0E0
:10096000DAFFDE2A000EDD2283D3FFFF000E206EA9
:10097000000E1F6E000E1C6E04D0FFFF1C840F4A79
:10098000102AFFFF0FC0F6FF10C0F7FFF86A050E30
:10099000F76404D00800FFFFF55005D0F6CFE9FF5B
:1009A000F7CFEAFFEF50300AD8B4E7D70FC0F6FF11
:1009B00010C0F7FFF86A050EF76404D00800FFFFC7
:1009C000F55005D0F6CFE9FFF7CFEAFFEF50B2ECD4
:1009D00038F0D8A061D1000E206E000E1F6EFFFF10
:1009E0001FC001F020C002F0000E046E0A0E036E5C
:1009F00012EC39F001C01FF002C020F0D00E136ECF
:100A0000FF0E146E0FC0F6FF10C0F7FFF86A050E58
:100A1000F76404D00800FFFFF55005D0F6CFE9FFDA
:100A2000F7CFEAFFEF50156E166A135015261450D3
:100A3000162215501F26165020220F4A102A0FC0CA
:100A4000F6FF10C0F7FFF86A050EF76404D008003F
:100A5000FFFFF55005D0F6CFE9FFF7CFEAFFEF50E3
:100A6000B2EC38F0D8A018D1BAD7FFFF11C0D9FF27
:100A700012C0DAFFDFCF13F0020EDE26DFCF14F054
:100A8000000EDD2213C0D9FF14C0DAFFDECF1DF047
:100A9000DDCF1EF01D501E10D8A404D0AF0E1D6E69
:100AA0007F0E1E6EFFFF000E1B6E000E1A6E03D02F
:100AB000FFFF1A4A1B2AFFFF1A501D24136E1B50FA
:100AC0001E20146E13C0F6FF14C0F7FFF86A050E5F
:100AD000F76404D00800FFFFF55005D0F6CFE9FF1A
:100AE000F7CFEAFFEF500009D8A4E2D7FFFF1F506D
:100AF0001A5C20501B58D8B005D01A501F5E1B50EE
:100B0000205A3DD0FFFF000E206E000E1F6E37D022
:100B1000FFFF20EE02F00D50D9260E50DA22DE50F3
:100B2000DE10D8B416D020EE02F00D50D9260E50AB
:100B3000DA2201D824D0FFFF0500FA6EDE50FD6EE8
:100B4000DE50FE6EF850FF6EFA50200E1200FFFFCE
:100B500016D0FFFF0DC0D9FF0EC0DAFFDECF13F0B5
:100B6000DDCF14F013C0D9FF14C0DAFF200EDF6E02
:100B70000DC0D9FF0EC0DAFFDE2A000EDD22FFFF16
:100B80001F06D8A020061F28C4E12028D8B45DD0B5
:100B9000BFD7FFFF20EE02F00D50D9260E50DA220B
:100BA000DE50DE10D8B429D020EE02F00D50D92648
:100BB0000E50DA2201D81DD0FFFF0500FA6EDE507C
:100BC000FD6EDE50FE6EF850FF6EFA501DC0F6FF4F
:100BD0001EC0F7FFF86A050EF76404D00800FFFF97
:100BE000F55005D0F6CFE9FFF7CFEAFFEF5012003E
:100BF000FFFFFFFF1D4A1E2A28D0FFFF1DC0F6FF82
:100C00001EC0F7FFF86A0DC0D9FF0EC0DAFFDECFB5
:100C100013F0DDCF14F013C0D9FF14C0DAFF050EB6
:100C2000F76404D00800FFFFF55005D0F6CFE9FFC8
:100C3000F7CFEAFFEF50DF6E1D4A1E2A0DC0D9FF25
:100C40000EC0DAFFDE2A000EDD22FFFF1A06D8A052
:100C50001B061A289FE11B28D8B40AD29AD7FFFF97
:100C600011C0D9FF12C0DAFFDFCF13F0020EDE266B
:100C7000DFCF14F0000EDD2213C0D9FF14C0DAFF5D
:100C8000DF50216EFFFF210E1D6E000E1E6E000E46
:100C90001B6E010E1A6E2AD7FFFF0F50136E1050F5
:100CA000146E0F4A102A13C0F6FF14C0F7FFF86A3B
:100CB000050EF76404D00800FFFFF55005D0F6CF0D
:100CC000E9FFF7CFEAFFEF50216E2150000AD8B4B8
:100CD000EBD1630AD8B4C3D7070AD8B407D00D0A3A
:100CE000D8B404D01A0AD8B4C0D6CCD7FFFF11C0EC
:100CF000D9FF12C0DAFFDFCF13F0020EDE26DFCFFE
:100D000014F0000EDD2213C0D9FF14C0DAFFDECFCD
:100D100018F0DDCF19F019AE06D0030E1C12186CB6
:100D2000191ED8B0192AFFFF010E216EFFFF050E14
:100D30002118D8B414D02150020DD90EF324F66E28
:100D40007B0EF420F76E0900FFFFF550185C0900D8
:100D5000FFFFF5501958D8A002D0212AE7D7FFFF8E
:100D60001F502010D8B409D01CC013F0030E131666
:100D7000D8B403D01F06D8A02006FFFF800E21BEE6
:100D80007F0E136E1F50215C2050800A1358D8B07C
:100D900007D021501F5E000E21BEFF0E205A05D045
:100DA000FFFF000E206E000E1F6EFFFF1CA47CD004
:100DB0001CC013F0030E1316D8B436D020EE02F088
:100DC0000D50D9260E50DA22DE50DE10D8B416D0DF
:100DD00020EE02F00D50D9260E50DA2201D824D090
:100DE000FFFF0500FA6EDE50FD6EDE50FE6EF8501D
:100DF000FF6EFA502D0E1200FFFF16D0FFFF0DC040
:100E0000D9FF0EC0DAFFDECF13F0DDCF14F013C030
:100E1000D9FF14C0DAFF2D0EDF6E0DC0D9FF0EC052
:100E2000DAFFDE2A000EDD22FFFF1F502010D8B4AB
:100E3000BCD020EE02F00D50D9260E50DA22DE5042
:100E4000DE10D8B416D020EE02F00D50D9260E5088
:100E5000DA2201D824D0FFFF0500FA6EDE50FD6EC5
:100E6000DE50FE6EF850FF6EFA50300E1200FFFF9B
:100E700016D0FFFF0DC0D9FF0EC0DAFFDECF13F092
:100E8000DDCF14F013C0D9FF14C0DAFF300EDF6ECF
:100E90000DC0D9FF0EC0DAFFDE2A000EDD22FFFFF3
:100EA0001F06D8A02006C0D7FFFF1F502010D8B4BF
:100EB0003FD0FFFF20EE02F00D50D9260E50DA226F
:100EC000DE50DE10D8B416D020EE02F00D50D92638
:100ED0000E50DA2201D824D0FFFF0500FA6EDE5052
:100EE000FD6EDE50FE6EF850FF6EFA50200E1200BE
:100EF000FFFF16D0FFFF0DC0D9FF0EC0DAFFDECF17
:100F000013F0DDCF14F013C0D9FF14C0DAFF200EA8
:100F1000DF6E0DC0D9FF0EC0DAFFDE2A000EDD2223
:100F2000FFFF1F06D8A020061F502010D8A4C1D74D
:100F3000FFFF1CC013F0030E1316D8B436D020EEFA
:100F400002F00D50D9260E50DA22DE50DE10D8B451
:100F500016D020EE02F00D50D9260E50DA2201D81C
:100F600024D0FFFF0500FA6EDE50FD6EDE50FE6EEF
:100F7000F850FF6EFA502D0E1200FFFF16D0FFFF43
:100F80000DC0D9FF0EC0DAFFDECF13F0DDCF14F0B5
:100F900013C0D9FF14C0DAFF2D0EDF6E0DC0D9FFCC
:100FA0000EC0DAFFDE2A000EDD22FFFF21C017F09F
:100FB0005AD0FFFF1750020DD90EF324F66E7B0EA8
:100FC000F420F76E0900FFFFF5CF03F00A00FFFFE2
:100FD000F5CF04F018C001F019C002F019EC3DF093
:100FE00001C008F002C009F0000E0B6E0A0E0A6E76
:100FF00043EC3CF00850300F216E20EE02F00D5013
:10100000D9260E50DA22DE50DE10D8B416D020EEEB
:1010100002F00D50D9260E50DA2201D824D0FFFF5D
:101020000500FA6EDE50FD6EDE50FE6EF850FF6E6B
:10103000FA5021501200FFFF16D0FFFF0DC0D9FF5C
:101040000EC0DAFFDECF13F0DDCF14F013C0D9FFEE
:1010500014C0DAFF21C0DFFF0DC0D9FF0EC0DAFFD8
:10106000DE2A000EDD22FFFF17061728D8A4A1D71D
:10107000FFFF0F50136E1050146E0F4A102A13C04A
:10108000F6FF14C0F7FFF86A050EF76404D00800F5
:10109000FFFFF55005D0F6CFE9FFF7CFEAFFEF509D
:1010A000216E2150D8A425D4FFFF1200FFFFFFFFBF
:1010B000BFEC3CF0A00E00018D6F860E8E6F010E0E
:1010C0008F6F000E906FAAEC3DF0000E0001816F53
:1010D000C80E806FCDEC39F003EC3AF0000E000141
:1010E000816F640E806FCDEC39F0660E00018C6F5D
:1010F000000E8D6FB6EC14F086EC1EF059EC38F053
:1011000035EC1BF0000E0001816F640E806FCDEC9A
:1011100039F06FEC16F0000E0001816F320E806F17
:10112000CDEC39F0FFFF040082B003D0030E0001C4
:10113000DB6FFFFF5CEC1CF0B0EC3AF0F8EC3BF03E
:1011400085D0FFFFB7EC1CF0A6D0FFFFA40E000176
:10115000A16F010EA26FFB0EA36F7E0EA46FD4ECE5
:101160003BF08F0E0001A16F010EA26FA40EA36FC2
:101170007E0EA46FD4EC3BF07A0E0001A16F010E3D
:10118000A26F140EA36F7E0EA46FD4EC3BF0650E1D
:101190000001A16F010EA26FED0EA36F7E0EA46F72
:1011A000D4EC3BF078D0FFFFA40E0001A16F010E3C
:1011B000A26F080EA36F7F0EA46FD4EC3BF08F0ECE
:1011C0000001A16F010EA26F8A0EA36F7F0EA46FA4
:1011D000D4EC3BF07A0E0001A16F010EA26F450E18
:1011E000A36F7F0EA46FD4EC3BF0650E0001A16FDE
:1011F000010EA26FB30EA36F7E0EA46FD4EC3BF072
:101200004AD0FFFF45EC0FF046D0FFFF18EC0EF080
:1012100042D0FFFF5AEC13F03ED0FFFF2FEC0CF052
:101220003AD0FFFF11EC14F036D0FFFF6AEC11F05A
:1012300032D0FFFFEAEC3CF02ED0FFFF43EC0AF087
:101240002AD0FFFF000E0001D76F25D0FFFF00015D
:10125000D751000AD8B475D7010AD8B476D7030A93
:10126000D8B4A1D7160AD8B4CCD7010AD8B4CDD7F0
:10127000030AD8B4CED7010AD8B4CFD70F0AD8B44E
:10128000D0D7010AD8B4D1D7020AD8B4D2D7070A26
:10129000D8B4D3D7D6D7FFFF0001D705D8B49AD09A
:1012A000020ED719D8B496D0D0D0FFFF010ED76F59
:1012B0003E0E0101A36F040EC6EC1FF00009D8B466
:1012C000A4D0D7C0D6F0140E65D0FFFF010ED76FA3
:1012D0003E0E01018E6F040EC6EC1FF00009D8B45B
:1012E00094D0D7C0D6F0150E55D0FFFF010ED76FA2
:1012F0003E0E0101796F040EC6EC1FF00009D8B450
:1013000084D0D7C0D6F0160E45D0FFFF010ED76FA0
:101310003E0E0101646F040EC6EC1FF00009D8B444
:1013200074D0D7C0D6F0170E35D0FFFF020ED76F9E
:101330003E0E0101A36F040EC6EC1FF00009D8B4E5
:1013400064D0D7C0D6F0180E25D0FFFF3E0E0101A5
:101350008E6F020E0001D76F040EC6EC1FF000095D
:10136000D8B453D0D7C0D6F0190E0001D76F010EF4
:101370005E6E4BD0FFFF3E0E0101796F020E000141
:10138000D76F040EC6EC1FF00009D8B43ED0D7C00A
:10139000D6F01B0EFFFF00011AD0FFFF3E0E010129
:1013A000646F020E0001D76F040EC6EC1FF0000937
:1013B000D8B42BD00001D951D8A427D01C0ED76F98
:1013C000020EDA6F22D0FFFF010E5D6E010EFFFFED
:1013D000D76F1BD0FFFF5D50010AD8B466D7030A50
:1013E000D8B473D7010AD8B480D7070AD8B48DD738
:1013F000010AD8B49AD7030AD8B4A7D7010AD8B437
:10140000B9D70F0AD8B4C9D7DED7FFFF030EC6EC91
:101410001FF00009D8B402D05D0617D0FFFF020EFE
:10142000C6EC1FF00009D8B402D05D2A0ED0FFFF31
:10143000010EC6EC1FF00009D8B407D0000E000161
:10144000D76F000ED86F010E5D6EFFFF1C0E0001FE
:10145000D719D8B404D0000EDA6F000E466EFFFF25
:10146000A30E886F010E896F8E0E8A6F010E8B6F2F
:10147000790E8C6F010E8D6F640E8E6F010E8F6F63
:10148000CCEC1AF04FD6FFFF010EC6EC1FF000099E
:10149000D8B41FD0000E0001DA6F010EFB6F2C0EC6
:1014A000FA6FD6C0D7F0000ED36F000ED36FFFFFD8
:1014B000070ED36501D00DD0FFFFD351010D440EAF
:1014C000F324D96E000EF420DA6E000EDF6ED32BFB
:1014D000EED7FFFF0001F951F319D8B42AD0F9C0B3
:1014E000F3F0FA07D8A0FB07FA0EFA19FB11D8A4FB
:1014F00007D0050EDA6F000EFE6F000E4A6E19D08F
:10150000FFFFAA0EFA19FB11D8A407D0080EDA6F54
:10151000000EFD6F000E496E0CD0FFFFFA05FB11A7
:10152000D8A407D00C0EDA6F000EFC6F000E01EC91
:1015300019F0FFFF0C0E0001DA6169D1A30EA16F53
:10154000010EA26FFF0EA36F7C0EA46FFAC0A5F070
:10155000FBC0A6F0D4EC3BF00001FF510DEC1FF0F6
:10156000B7C0CBF0B8C0CCF08E0E0001A16F010E59
:10157000A26F650EA36F7E0EA46FCBC0A5F0CCC08A
:10158000A6F0D4EC3BF043D1FFFF000E0001F16F59
:10159000F1C08CF00A0EB1EC3BF0010E466E030E6A
:1015A000000182D0FFFFFF51C46FC56BF60EC66FFE
:1015B000FF0EC76FDF51C86FC96BC651C827C7512F
:1015C000C923C451C85DC951800ACA6FC551800A78
:1015D000CA59D8A041D1000E466E010E4A6E040EC3
:1015E00063D0FFFFDF51FF5DD8A036D1000E4A6EF9
:1015F000010EFE6F050EDA6F000EFB6FF90E8BD039
:10160000FFFF010E466E060E4FD0FFFFFF51C46F65
:10161000C56BF60EC66FFF0EC76FDF51C86FC96B83
:10162000C651C827C751C923C451C85DC951800AD2
:10163000CA6FC551800ACA59D8A00ED1010E496E91
:10164000000E466E070E30D0FFFFDF51FF5DD8A0C1
:1016500003D1000E496E010EFD6F080EDA6F000E09
:10166000FB6FA90E58D0FFFF010E466E090E1CD06D
:10167000FFFFFF51C46FC56BF60EC66FFF0EC76F3D
:10168000DF51C86FC96BC651C827C751C923C451A0
:10169000C85DC951800ACA6FC551800ACA59D8A00D
:1016A000DBD0000E466E0A0EFFFFDA6FD5D0FFFFCB
:1016B000010E01EC19F00001F951E819D8B406D077
:1016C000ED05D8A403D0F9C0E8F0E92BFFFFEA51FB
:1016D000E95DD8A006D0010EFC6F000EE96F0B0E7D
:1016E000DA6FFFFFFC51D8B403D0DB05D8A4B4D027
:1016F000FFFF0B0EDA6F000EFC6FAED0FFFF50EC59
:1017000015F0E8EC39F0010E716E0C0E0001DA6F85
:10171000000EFB6F010EFFFFFA6F9ED0FFFFA30EBE
:10172000A16F010EA26F3B0EA36F7D0EA46FD4ECD0
:101730003BF00001FE05D8B404D0EE0ECD6F7F0E55
:1017400004D0FFFF620ECD6F7E0EFFFFCE6F8E0EB8
:10175000A16F010EA26F5D0EA36F7F0EA46FCDC0AF
:10176000A5F0CEC0A6F0D4EC3BF00001FD05D8B446
:1017700004D0EE0ECF6F7F0E04D0FFFF620ECF6F4E
:101780007E0EFFFFD06F790EA16F010EA26F750E56
:10179000A36F7E0EA46FCFC0A5F0D0C0A6F0D4EC8E
:1017A0003BF00001FC05D8B404D0EE0ED16F7F0EE3
:1017B00004D0FFFF620ED16F7E0EFFFFD26F640E6A
:1017C000A16F010EA26F850EA36F7E0EA46FD1C014
:1017D000A5F0D2C0A6F0D4EC3BF00001FBAF3CD0AA
:1017E000CF0EFA5DFF0EFB59D8B036D0010EFB6F5D
:1017F0002C0EFA6F000ED76F000EDA6F010E716EAD
:101800002BD0FFFF000EDA6F000ED76F25D0FFFF41
:101810000001DA51020AD8B4B7D6010AD8B4C2D648
:10182000070AD8B4DED6010AD8B4EAD6030AD8B477
:10183000ECD6010AD8B408D70F0AD8B414D7010AD5
:10184000D8B416D7030AD8B432D7010AD8B456D7B9
:10185000070AD8B463D7D5D7FFFF1200FFFFFFFFF9
:10186000A40E0001A16F010EA26FC40EA36F7F0E24
:10187000A46FD80EA56F010EA66FD4EC3BF08F0EAF
:101880000001A16F010EA26FCB0EA36F7F0EA46F9C
:10189000CC0EA56F010EA66FD4EC3BF00001E50560
:1018A000D8B404D0030EB96F7E0E04D0FFFFBF0E74
:1018B000B96F7D0EFFFFBA6F7A0EA16F010EA26F96
:1018C0005A0EA36F7F0EA46FB9C0A5F0BAC0A6F0E0
:1018D000D4EC3BF00001EF05D8B404D0EE0EBB6FA2
:1018E0007F0E04D0FFFFE90EBB6F7F0EFFFFBC6FC2
:1018F000650EA16F010EA26FA70EA36F7F0EA46FDE
:10190000BBC0A5F0BCC0A6F0D4EC3BF00001D451A4
:10191000D8A452D0030EC6EC1FF00009D8B403D0EF
:101920000001D80749D0FFFF020EC6EC1FF00009E6
:10193000D8B403D00001D82B3FD0FFFF010EC6EC76
:101940001FF00009D8B438D0000E0001E56F050E75
:10195000726E000ED86F000ED56F000ED46F000EA1
:10196000BD6F000EBD6FFFFF0A0EBD6501D021D017
:10197000FFFFBD51010DD80EF324D96E010EF420E6
:10198000DA6EDF508C6FBD51140FB1EC3BF00001EB
:10199000BD51010DCC0EF324D96E010EF420DA6E88
:1019A000DF508C6FBD51280FB1EC3BF00001BD2B17
:1019B000DAD7FFFFD6C0D7F0FFFF0001D405D8A4C7
:1019C00019D1040EC6EC1FF00009D8B403D00001F1
:1019D000D52B10D1FFFF010EC6EC1FF00009D8B4C3
:1019E00009D1000E0001D56F000ED46F03D1FFFFA7
:1019F000010EFDD0FFFF3E0E0101A36F040EC6ECE9
:101A00001FF00009D8B403D0010E0001D46FFFFF0E
:101A10000001D451D8B4FED0A30E806F010E816FA7
:101A2000D551060F826FD551060F836FCEEC3AF079
:101A30000001D551B76FB86B020EB727000EB8235F
:101A4000B85104E10D0EB75DD8A004D0000ED56FDB
:101A5000000ED46FFFFF030EC6EC1FF00009D8B4D0
:101A60000AD00001D551010DD80EF324D96E010E14
:101A7000F420DA6EDF2AFFFF020EC6EC1FF0000929
:101A8000D8B40AD00001D551010DD80EF324D96E77
:101A9000010EF420DA6EDF06FFFF0001D551010DC3
:101AA000D80EF324D96E010EF420DA6E3A0EDF6000
:101AB0000BD0D551010DD80EF324D96E010EF420B0
:101AC000DA6E300EDF60A6D0FFFFD551010DD80EC3
:101AD000F324D96E010E71D0FFFF3E0E01018E6F0F
:101AE000040EC6EC1FF00009D8B403D0010E0001AB
:101AF000D46FFFFF0001D451D8B48CD08E0E806F0C
:101B0000010E816FD551060F826FD551060F836F7D
:101B1000CEEC3AF00001D551B76FB86B020EB72783
:101B2000000EB823B85104E10D0EB75DD8A004D063
:101B3000000ED56F000ED46FFFFF030EC6EC1FF032
:101B40000009D8B40AD00001D551010DCC0EF32400
:101B5000D96E010EF420DA6EDF2AFFFF020EC6EC0A
:101B60001FF00009D8B40AD00001D551010DCC0EE8
:101B7000F324D96E010EF420DA6EDF06FFFF0001B8
:101B8000D551010DCC0EF324D96E010EF420DA6E7E
:101B90003A0EDF600BD0D551010DCC0EF324D96E77
:101BA000010EF420DA6E300EDF6034D0FFFFD55125
:101BB000010DCC0EF324D96E010EFFFFF420DA6E76
:101BC000300EDF6E27D0FFFF3E0E0101796F040E4D
:101BD000C6EC1FF00009D8B41DD0010E0001E56F5E
:101BE000000EE66F060E726E15D0FFFF000EFFFFAF
:101BF000D86F10D0FFFF0001D851000AD8B4F7D633
:101C0000010AD8B4F7D6030AD8B466D7010AD8B403
:101C1000DAD7EBD7FFFF0001E505D8A403D0EF0525
:101C2000D8B403D0FFFF000EE56FFFFF1200FFFFE7
:101C3000FFFF0001DF510DEC1FF0B7C0C4F0B8C0CA
:101C4000C5F0A30E0001A16F010EA26F7F0EA36F5E
:101C50007F0EA46FC4C0A5F0C5C0A6F0D4EC3BF0C5
:101C60000001DE510DEC1FF0B7C0C4F0B8C0C5F0E4
:101C70008E0E0001A16F010EA26F5E0EA36F7F0E8C
:101C8000A46FC4C0A5F0C5C0A6F0D4EC3BF0000121
:101C9000DD510DEC1FF0B7C0C4F0B8C0C5F0790E2F
:101CA0000001A16F010EA26F760EA36F7E0EA46FCE
:101CB000C4C0A5F0C5C0A6F0D4EC3BF00001DC51D7
:101CC0000DEC1FF0B7C0C4F0B8C0C5F0640E000141
:101CD000A16F010EA26F860EA36F7E0EA46FC4C00B
:101CE000A5F0C5C0A6F0D4EC3BF0010EC6EC1FF089
:101CF0000009D8B419D0DEC08CF0000EB1EC3BF076
:101D0000DDC08CF0010EB1EC3BF0DCC08CF0020EBB
:101D1000B1EC3BF0DFC08CF0040EB1EC3BF0000EF8
:101D20000001D86FD6C0D7F0FFFF040EC6EC1FF03D
:101D30000009D8B497D00001D82B94D0FFFFA30E90
:101D4000806F010E816F080E826F0F0E836FCEECD5
:101D50003AF0030EC6EC1FF00009D8B402D000011F
:101D6000DF2BFFFF020EC6EC1FF00009D8B402D033
:101D70000001DF07FFFF630E0001DF6583D0000E67
:101D8000DF6F80D0FFFF8E0E806F010E816F080E17
:101D9000826F0F0E836FCEEC3AF0030EC6EC1FF08D
:101DA0000009D8B402D00001DE2BFFFF020EC6EC02
:101DB0001FF00009D8B402D00001DE07FFFF630E58
:101DC0000001DE655FD0000EDE6F5CD0FFFF790E94
:101DD000806F010E816F0C0E826F120E836FCEEC3E
:101DE0003AF0030EC6EC1FF00009D8B402D000018F
:101DF000DD2BFFFF020EC6EC1FF00009D8B402D0A5
:101E00000001DD07FFFF630E0001DD653BD0000E22
:101E1000DD6F38D0FFFF640E806F010E816F0C0EF6
:101E2000826F120E836FCEEC3AF0030EC6EC1FF0F9
:101E30000009D8B402D00001DC2BFFFF020EC6EC73
:101E40001FF00009D8B402D00001DC07FFFF630EC9
:101E50000001DC6517D0000EDC6F14D0FFFF000E10
:101E6000D86F10D0FFFF0001D851000AD8B466D750
:101E7000010AD8B487D7030AD8B4A8D7010AD8B4BE
:101E8000C9D7ECD7FFFF1200FFFFFFFFA30E000131
:101E9000A16F010EA26FD80EA36F7F0EA46FD4ECBA
:101EA0003BF08E0E0001A16F010EA26FB30EA36F67
:101EB0007C0EA46F6AC0A5F0A66B6BC0A7F0A86BE0
:101EC0006CC0A9F0AA6BD4EC3BF0AE0E0001A16F80
:101ED000010EA26FD20EA36F7F0EA46FD4EC3BF065
:101EE000990E0001A16F010EA26FC20EA36F7E0EAC
:101EF000A46F69C0A5F0A66B68C0A7F0A86B67C007
:101F0000A9F0AA6BD4EC3BF0040EC6EC1FF000095C
:101F1000D8B403D073820001D82BFFFF010EC6ECAA
:101F20001FF00009D8B4AFD07392000E0001D86F33
:101F3000660E8C6F000E8D6FFDEC16F0D6C0D7F0DC
:101F4000642AA1D0FFFF8E0E0001806F010E816F09
:101F5000010E826F020E836FCEEC3AF0030EC6ECD8
:101F60001FF00009D8A46A2A020EC6EC1FF000096F
:101F7000D8B49FD06A069DD0FFFF8E0E0001806FFF
:101F8000010E816F040E826F050E836FCEEC3AF066
:101F9000030EC6EC1FF00009D8A46B2A020EC6EC93
:101FA0001FF00009D8B485D06B0683D0FFFF8E0EDA
:101FB0000001806F010E816F070E826F080E836F24
:101FC000CEEC3AF0030EC6EC1FF00009D8A46C2A40
:101FD000020EC6EC1FF00009D8B46BD06C0669D0B5
:101FE000FFFF8E0E0001806F010E816F0C0E826F5D
:101FF0000D0E836FCEEC3AF0030EC6EC1FF0000915
:10200000D8A4692A020EC6EC1FF00009D8B451D03A
:1020100069064FD0FFFF8E0E0001806F010E816FA9
:102020000F0E826F100E836FCEEC3AF0030EC6ECEB
:102030001FF00009D8A4682A020EC6EC1FF00009A0
:10204000D8B437D0680635D0FFFF8E0E0001806F00
:10205000010E816F120E826F130E836FCEEC3AF079
:10206000030EC6EC1FF00009D8A4672A020EC6ECC6
:102070001FF00009D8B41DD067061BD0FFFF010E6A
:102080000001D86F16D0FFFF0001D851010AD8B463
:1020900059D7030AD8B470D7010AD8B487D7070A2A
:1020A000D8B49ED7010AD8B4B5D7030AD8B4CCD7D0
:1020B000E5D7FFFF1CEC3CF01200FFFFFFFF000E16
:1020C0002A6E000E2E6E000E2F6E000E306E000E69
:1020D0002B6E000E2C6E000E2D6E000E2A6EFFFF72
:1020E000080E2A6401D02DD0FFFF2EC01BF02FC098
:1020F0001CF030C01DF0280E0F6EA00E106E3B0EAF
:10210000116EEAEC38F001C009F002C00AF0D6EC1A
:1021100038F009C00CF00AC00DF00BC00EF00FEC47
:1021200018F00CC01EF00DC01FF00EC020F072ECB5
:1021300012F01BC02EF01CC02FF01DC030F02A2A58
:10214000CED7FFFF2EC01BF02FC01CF030C01DF0FB
:10215000000E1E6E200E1F6E410E206EEBEC19F06D
:102160001BC02EF01CC02FF01DC030F04CC01BF067
:102170004DC01CF04EC01DF02EC01EF02FC01FF031
:1021800030C020F072EC12F01BC04CF01CC04DF0BF
:102190001DC04EF0632A2EC001F02FC002F030C0E7
:1021A00003F0CD0E046ECC0E056E3E0E066E09ECED
:1021B0001DF0D8A010D0000E016E900E026E400EE1
:1021C000036E2EC004F02FC005F030C006F009ECFD
:1021D0001DF0D8B003D0FFFF630E76D0FFFF050ED1
:1021E000636475D0000E636E4CC01BF04DC01CF0D4
:1021F0004EC01DF0000E1E6EC00E1F6E400E206EF3
:10220000EBEC19F01BC02EF01CC02FF01DC030F0FD
:10221000000E4C6E000E4D6E000E4E6E2EC01BF06A
:102220002FC01CF030C01DF0000E1E6E000E1F6E81
:10223000BF0E206E72EC12F01BC02BF01CC02CF0F5
:102240001DC02DF0000E0F6E200E106E410E116E8F
:102250002BC00CF02CC00DF02DC00EF00FEC18F0C0
:102260000CC01BF00DC01CF00EC01DF0000E1E6E49
:10227000800E1F6E400E206EEBEC19F01BC02BF091
:102280001CC02CF01DC02DF02DAE06D0000E2B6E04
:10229000000E2C6E000E2D6EFFFF000E0F6E200E36
:1022A000106E410E116E2BC00CF02CC00DF02DC025
:1022B0000EF00FEC18F00CC01BF00DC01CF00EC09F
:1022C0001DF077EC19F01B50FFFF0001FF6FFFFFBF
:1022D0001200FFFFFFFFA30E0001A16F010EA26F0E
:1022E000A90EA36F7C0EA46FE4C0A5F0A66BE3C09B
:1022F000A7F0A86BE2C0A9F0AA6BE1C0ABF0AC6B91
:10230000D4EC3BF00001E005D8B404D0EE0EB76F7A
:102310007F0E04D0FFFF620EB76F7E0EFFFFB86F17
:102320008E0EA16F010EA26F210EA36F7F0EA46F00
:10233000B7C0A5F0B8C0A6F0D4EC3BF06004D8B4A8
:1023400005D0EE0E0001B96F7F0E05D0FFFF620EC3
:102350000001B96F7E0EFFFFBA6F790EA16F010EFB
:10236000A26F350EA36F7E0EA46FB9C0A5F0BAC0E0
:10237000A6F0D4EC3BF05F04D8B405D0EE0E00011B
:10238000BB6F7F0E05D0FFFF620E0001BB6F7E0E9C
:10239000FFFFBC6F640EA16F010EA26F450EA36F0D
:1023A0007E0EA46FBBC0A5F0BCC0A6F0D4EC3BF081
:1023B000010EC6EC1FF00009D8B405D0000E0001D4
:1023C000D86FD6C0D7F0FFFF020EC6EC1FF0000991
:1023D000D8B404D00001E407010E5E6EFFFF030EC7
:1023E000C6EC1FF00009D8B404D00001E42B010EA4
:1023F0005E6EFFFF5E04D8B465D071D0FFFF3C0E67
:1024000094EC3CF00001E36F3D0E94EC3CF00001D5
:10241000E26F3E0E94EC3CF00001E16F3F0E94EC55
:102420003CF00001E06F400E94EC3CF0606E410E19
:1024300094EC3CF03ED0FFFF000EFFFF5E6E4FD0ED
:10244000FFFF420E94EC3CF00001E36F430E94EC6E
:102450003CF00001E26F440E94EC3CF00001E16FAF
:10246000450E94EC3CF00001E06F460E94EC3CF01D
:10247000606E470E94EC3CF01CD0FFFF480E94ECCD
:102480003CF00001E36F490E94EC3CF00001E26F78
:102490004A0E94EC3CF00001E16F4B0E94EC3CF0E2
:1024A0000001E06F4C0E94EC3CF0606E4D0E94EC2D
:1024B0003CF0FFFF5F6EBFD7FFFF000E0001E46F2F
:1024C000010EBBD7FFFF0001E451000AD8B496D734
:1024D000010AD8B4B5D7030AD8B4CFD7EDD7FFFFD8
:1024E0001200FFFFFFFF1DC021F0226A236A1C3487
:1024F000213601E322802150266E20C021F0226A7D
:10250000236A1F34213601E322802150256E265094
:10251000D8B40BD02550265CD8B00FD02650000878
:102520002524216E180E216408D0FFFF1EC01BF069
:102530001FC01CF020C01DF0BAD0FFFF2550D8B43A
:102540000BD02650255CD8B00FD02550000826248B
:10255000216E180E216408D0FFFF1BC01BF01CC0A9
:102560001CF01DC01DF0A3D0FFFF060E246E1DBE83
:10257000248E20BE248C1C8EFF0E1B16FF0E1C16F4
:10258000000E1D161F8EFF0E1E16FF0E1F16000ECC
:1025900020162550265CD8B01ED0FFFFD8901E36DE
:1025A0001F362036250626502518D8B40ED024060E
:1025B00024C021F0070E2116D8B407D0EED7FFFFB4
:1025C000D8901D321C321B32262AFFFF25502618B8
:1025D000D8B423D0F4D7FFFF2650255CD8B01DD047
:1025E000FFFFD8901B361C361D36260626502518B0
:1025F000D8B40ED0240624C021F0070E2116D8B47A
:1026000007D0EED7FFFFD89020321F321E32252A86
:10261000FFFF25502618D8A4F5D7FFFF24AE0CD015
:10262000FF0E1B1AFF0E1C1AFF0E1D1A010E1B2691
:10263000000E1C22000E1D22FFFF24AC0CD0FF0E4A
:102640001E1AFF0E1F1AFF0E201A010E1E26000E64
:102650001F22000E2022FFFF000E246E1B501E269C
:102660001C501F221D50202220AE0ED0FF0E1E1A1D
:10267000FF0E1F1AFF0E201A010E1E26000E1F222B
:10268000000E2022010E246EFFFF1EC001F01FC0AD
:1026900002F020C003F026C004F024C005F0FAECDC
:1026A0001BF001C01BF002C01CF003C01DF0FFFFB7
:1026B0001200FFFFFFFFA30E0001A16F010EA26F2A
:1026C000870EA36F7D0EA46FD4EC3BF08E0E00013D
:1026D000A16F010EA26FDF0EA36F7E0EA46FD4EC6C
:1026E0003BF09E0E0001A16F010EA26FF80EA36FCA
:1026F0007F0EA46FEEC0A5F0A66BD4EC3BF0790E74
:102700000001A16F010EA26F390EA36F7F0EA46F9F
:10271000D4EC3BF0890E0001A16F010EA26FF80E00
:10272000A36F7F0EA46FEAC0A5F0A66BD4EC3BF0BC
:10273000640E0001A16F010EA26F740EA36F7D0ED7
:10274000A46F4FC0A5F050C0A6F0D4EC3BF0040E2F
:10275000C6EC1FF00009D8B402D00001D82BFFFF4F
:10276000010EC6EC1FF00009D8B44ED0EEC08CF0BC
:10277000070EB1EC3BF0EAC08CF00D0EB1EC3BF073
:10278000000E0001D86FD6C0D7F03ED0FFFF8E0EEE
:10279000806F010E816F100E826F140E836FCEEC6E
:1027A0003AF0030EC6EC1FF00009D8B402D00001C5
:1027B000EE2BFFFF020EC6EC1FF00009D8B42ED09E
:1027C0000001EE072BD0FFFF790E806F010E816FA5
:1027D000100E826F140E836FCEEC3AF0030EC6EC2F
:1027E0001FF00009D8B402D00001EA2BFFFF020E4F
:1027F000C6EC1FF00009D8B411D00001EA070ED0D2
:10280000FFFF000ED86F0AD0FFFF0001D851000A69
:10281000D8B4BCD7010AD8B4D6D7F2D7FFFF12007C
:10282000FFFFFFFFA30E0001A16F010EA26FC20EFA
:10283000A36F7C0EA46FF151B76FB86BB71FB81FB1
:10284000B74BB82BF251B725A56F000EB821A66F74
:10285000D4EC3BF08E0E0001A16F010EA26F130E9F
:10286000A36F7D0EA46FF2C0A5F0A66BD4EC3BF075
:10287000790E0001A16F010EA26F270EA36F7D0ECE
:10288000A46FF0C0A5F0A66BD4EC3BF0010EC6EC33
:102890001FF00009D8B40CD0F2C08CF0060EB1ECD9
:1028A0003BF0F0C08CF00B0EB1EC3BF0D6C0D7F093
:1028B000FFFF040EC6EC1FF00009D8B44AD0000197
:1028C000D82B47D0FFFF8E0E806F010E816F0B0E4D
:1028D000826F0E0E836FCEEC3AF0030EC6EC1FF043
:1028E0000009D8B402D00001F22BFFFF020EC6ECA3
:1028F0001FF00009D8B437D00001F20734D0FFFF31
:10290000790E806F010E816F090E826F0B0E836F3F
:10291000CEEC3AF0030EC6EC1FF00009D8B402D09A
:102920000001F02BFFFF020EC6EC1FF00009D8B427
:1029300002D00001F007FFFF180E0001F06101D086
:1029400012D0FFFF000EF06F0ED0FFFF000ED86F09
:102950000AD0FFFF0001D851000AD8B4B3D7010A4A
:10296000D8B4CDD7F2D7FFFF1200FFFFFFFF30EC46
:1029700038F0000E00018B6FD00E8A6F49EC38F0F2
:10298000000E00018B6F000E8A6F49EC38F03CECB2
:1029900038F0000E00018B6FD10E8A6F49EC38F0D1
:1029A000000120EE01F08C51D9268D51DA22000E63
:1029B000826F010E816F3BEC3AF00001815186EC91
:1029C00038F0DF6E000120EE02F08C51D9268D51D7
:1029D000DA22000E826F010E816F3BEC3AF00001AB
:1029E000815186EC38F0DF6E000120EE03F08C514F
:1029F000D9268D51DA22000E826F010E816F3BECD9
:102A00003AF00001815186EC38F0DF6E000E0001D3
:102A1000826F010E816F3BEC3AF00001815186EC30
:102A200038F08CC0D9FF8DC0DAFFDF6E000120EED8
:102A300004F08C51D9268D51DA22000E826F010EDE
:102A4000816F3BEC3AF00001815186EC38F0DF6E8B
:102A5000000120EE05F08C51D9268D51DA22000EAE
:102A6000826F010E816F3BEC3AF00001815186ECE0
:102A700038F0DF6E000120EE06F08C51D9268D5122
:102A8000DA22000E826F000E816F3BEC3AF00001FB
:102A9000815186EC38F0DF6E36EC38F01200FFFF23
:102AA000FFFF0E0E94EC3CF000018E6F7AD0FFFF1A
:102AB000F7C08CF03C0EB1EC3BF0F6C08CF03D0E54
:102AC000B1EC3BF0F5C08CF03E0EB1EC3BF0FEC03B
:102AD0008CF03F0EB1EC3BF0FDC08CF0400EB1EC41
:102AE0003BF0FCC08CF0410EB1EC3BF0010E00015C
:102AF0008C6F0E0EB1EC3BF061D0FFFFF7C08CF095
:102B0000420EB1EC3BF0F6C08CF0430EB1EC3BF062
:102B1000F5C08CF0440EB1EC3BF0FEC08CF0450EDD
:102B2000B1EC3BF0FDC08CF0460EB1EC3BF0FCC0CC
:102B30008CF0470EB1EC3BF0020E00018C6F0E0ED4
:102B4000B1EC3BF03BD0FFFFF7C08CF0480EB1EC8E
:102B50003BF0F6C08CF0490EB1EC3BF0F5C08CF0C8
:102B60004A0EB1EC3BF0FEC08CF04B0EB1EC3BF0EA
:102B7000FDC08CF04C0EB1EC3BF0FCC08CF04D0E67
:102B8000B1EC3BF0000E00018C6F0E0EB1EC3BF08F
:102B900015D0FFFF000E00018C6F0E0EB1EC3BF064
:102BA0000DD0FFFF00018E51000AD8B480D7010A72
:102BB000D8B4A3D7030AD8B4C6D7EBD7FFFF120007
:102BC000FFFFFFFFB80E0001806F010E816F000E46
:102BD000836F000E826F000E856F140E846F75EC8C
:102BE0003AF0B7C080F0B8C081F049EC3DF080C049
:102BF000BCF081C0BDF0140E00018F6F010E906F0C
:102C0000B7C091F0B8C092F0F1EC1DF08FC0BFF0EA
:102C100090C0C0F00001BF51C011D8B458D0000E10
:102C2000BE6FBCC0BEF042D0FFFFBE51010DF350DD
:102C3000BF25D96EF450C021DA6EB951DE18D8A480
:102C400017D0B80EA16F010EA26FF30EA36F7F0E07
:102C5000A46FB80EA56F010EA66F000EA86F000E30
:102C6000A76FD4EC3BF0B80E0001B76F010E33D064
:102C7000FFFFB80EA16F010EA26FF30EA36F7F0EC0
:102C8000A46FB80EA56F010EA66FBE51010DF350D3
:102C9000BF25D96EF450C021DA6EDF50BA6FBA5139
:102CA000A76FA86BD4EC3BF00001BE2BFFFFBFC0A9
:102CB00080F0C0C081F049EC3DF00001BE51BA6F18
:102CC000BB6B8051BA5D8151BB59D8A0ADD7FFFF16
:102CD000000EB76F000EFFFFB86F1200FFFFFFFF7F
:102CE000000E0001956F000E946F0C0E94EC3CF0FA
:102CF0000001946F140E9419D8B416D0000E956F7D
:102D0000FFFF630E956501D009D0FFFF000E8C6FA9
:102D10009551B1EC3BF00001952BF2D7FFFF140E5B
:102D20008C6F0C0EB1EC3BF0FFFF000E94EC3CF00E
:102D30000001DE6F010E94EC3CF00001DD6F020E2D
:102D400094EC3CF00001DC6F080E1FEC3AF08EC0F2
:102D50004FF08FC050F0040E94EC3CF00001DF6F98
:102D6000060E94EC3CF00001F26F070E94EC3CF080
:102D70000001EE6F0A0E94EC3CF00001F16F0B0EB7
:102D800094EC3CF00001F06F0D0E94EC3CF000016F
:102D9000EA6F000E956FFFFF0A0E956501D011D006
:102DA000FFFF9551010DD80EF324D96E010EF420CA
:102DB000DA6E9551140F94EC3CF0DF6E0001952B08
:102DC000EAD7FFFF000E956FFFFF0A0E956501D051
:102DD00011D0FFFF9551010DCC0EF324D96E010ED9
:102DE000F420DA6E9551280F94EC3CF0DF6E000170
:102DF000952BEAD7FFFF1200FFFFFFFF30EC38F002
:102E0000000E00018B6FD00E8A6F49EC38F0000E77
:102E100000018B6F000E8A6F49EC38F0000120EE44
:102E200001F08C51D9268D51DA22DF504BEC3BF06A
:102E300000018E6F8E518A6F8B6B49EC38F0000168
:102E400020EE02F08C51D9268D51DA22DF504BEC66
:102E50003BF000018E6F8E518A6F8B6B49EC38F01E
:102E6000000120EE03F08C51D9268D51DA22DF507B
:102E70004BEC3BF000018E6F8E518A6F8B6B49ECEF
:102E800038F08CC0D9FF8DC0DAFFDF504BEC3BF03F
:102E900000018E6F8E518A6F8B6B49EC38F0000108
:102EA00020EE04F08C51D9268D51DA22DF504BEC04
:102EB0003BF000018E6F8E518A6F8B6B49EC38F0BE
:102EC000000120EE05F08C51D9268D51DA22DF5019
:102ED0004BEC3BF000018E6F8E518A6F8B6B49EC8F
:102EE00038F0000120EE06F08C51D9268D51DA22FF
:102EF000DF504BEC3BF000018E6F8E518A6F8B6B75
:102F000049EC38F036EC38F01200FFFFFFFF1EEC02
:102F100038F0000E036ED00E026E42EC38F0000E58
:102F2000036E000E026E42EC38F02AEC38F0000E10
:102F3000036ED10E026E42EC38F020EE01F0065026
:102F4000D9260750DA22000E036E010E026EB2EC93
:102F500039F0025062EC38F0DF6E20EE02F00650DD
:102F6000D9260750DA22000E036E010E026EB2EC73
:102F700039F0025062EC38F0DF6E20EE03F00650BC
:102F8000D9260750DA22000E036E010E026EB2EC53
:102F900039F0025062EC38F0DF6E000E036E010E65
:102FA000026EB2EC39F0025062EC38F006C0D9FF84
:102FB00007C0DAFFDF6E20EE04F00650D926075076
:102FC000DA22000E036E010E026EB2EC39F00250EE
:102FD00062EC38F0DF6E20EE05F00650D92607507F
:102FE000DA22000E036E010E026EB2EC39F00250CE
:102FF00062EC38F0DF6E20EE06F00650D92607505E
:10300000DA22000E036E000E026EB2EC39F00250AE
:1030100062EC38F0DF6E24EC38F01200FFFFFFFFA7
:103020000EC012F0136A146A0D34123601E31380D5
:103030001250156E1550D8B40DD011C012F0136A8D
:10304000146A1034123601E3138012501A6E1A50AB
:10305000D8A408D0FFFF000E0C6E000E0D6E000EFF
:103060000E6E56D0FFFF1A507B0F15260EC01AF0B9
:1030700011501A1A800E1A160D8E108EFF0E0F1692
:10308000FF0E1016000E1116000E166E000E176EB3
:10309000000E186E070E196EFFFF0CA006D00F5021
:1030A00016261050172211501822FFFFD8900E320A
:1030B0000D320C32D8900F3610361136192EECD74F
:1030C000090E196EFFFF0CA006D00F5016261050E7
:1030D000172211501822FFFFD8900E320D320C32F9
:1030E000D890183217321632192EECD716C001F0CC
:1030F00017C002F018C003F015C004F01AC005F0A4
:10310000FAEC1BF001C00CF002C00DF003C00EF091
:10311000FFFF1200FFFFFFFF04D0FFFF0001C14BC4
:10312000C22BFFFFC1C0D9FFC2C0DAFF200EDE18DC
:10313000D8B4F3D7C1C0D9FFC2C0DAFF090EDE1878
:10314000D8B4EBD7000E0001C76F000EC66F000E9B
:10315000C56FC1C0D9FFC2C0DAFF2D0EDE18D8A4DA
:1031600002D0C52B28D0FFFFC1C0D9FFC2C0DAFFF3
:103170002B0EDE18D8A422D01ED0FFFFC6C080F0D0
:10318000C7C081F0000E0001836F0A0E826F52ECFF
:1031900039F0C1C0D9FFC2C0DAFFDF500001C36FF0
:1031A000C46B8051C3278151C423D00EC325C66F81
:1031B000FF0EC421C76FFFFFC14BC22BFFFFC1C071
:1031C000D9FFC2C0DAFFDF50FEEC38F0D8B0D5D757
:1031D0000001C551D8B40DD0C6C0C3F0C7C0C4F0FB
:1031E000C31FC41FC34BC42BC3C0C1F0C4C0C2F0B3
:1031F00005D0FFFFC6C0C1F0C7C0C2F0FFFF12007C
:10320000FFFFFFFF0001836F00018305D8A41AD0E0
:10321000ED51D8A417D0F951F419D8B413D0F9C08E
:10322000F4F0EB2BEC2B80BA0DD0020E816FBC0EAC
:10323000806FCDEC39F0010E0001ED6F000EEC6FE8
:10324000000E486EFFFFED51D8A415D0FC05D8A4A0
:1032500012D0010E476E080EEC6102D0010E05D0AF
:10326000FFFF0D0EEC6104D0000EFFFF486E03D08F
:10327000FFFF000EEC6FFFFFEB51EE5DD8B00CD0FE
:10328000000EEB6F010EDB6F000EFC6F000EED6F9A
:10329000000E476E000E486EFFFF8351D8A40AD07F
:1032A000000EED6F000E486E000E476E000EEC6FC4
:1032B000000EEB6FFFFFFC51D8A408D0000E476E44
:1032C000000E486E010EDB6F000EEC6FFFFFED0588
:1032D000D8A40AD080BA05D0000E486E000EEB6F5D
:1032E00003D0FFFF000EED6FFFFF1200FFFFFFFF97
:1032F0001DC01FF0206A216A1C341F3601E32080A4
:103300001F50296E2950D8B439D0170E1F6E1BC01C
:1033100020F01CC021F01DC022F01F28236E05D014
:10332000FFFFD890223221322032FFFF232EF8D720
:103330002050246E1C8EFF0E1B16FF0E1C16000E56
:103340001D161B50256E1C50266E1D50276E286AB8
:103350008E0E295E29AE0ED02950800A8F0FD8A07C
:103360000DD0FFFFD8902832273226322532293E51
:10337000F8D719D0FFFF170E296411D0FFFF000EF8
:103380001B6E000E1C6E000E1D6E000E1E6E20D0F9
:10339000FFFFD89025362636273628362906FFFF28
:1033A0002950D8A4F5D7FFFF2450D8B408D0281E40
:1033B000271E261E256C000E262227222822FFFF0C
:1033C00025C01BF026C01CF027C01DF028C01EF031
:1033D000FFFF1200FFFFFFFF1DC021F0226A236ADA
:1033E0001C34213601E322802150286E2850D8B4A5
:1033F0000DD020C021F0226A236A1F34213601E358
:1034000022802150296E2950D8A408D0FFFF000E39
:103410001B6E000E1C6E000E1D6E4DD0FFFF000EC9
:10342000256E000E266E000E276E2950890F285E2D
:103430001DC029F02050291A800E29161C8EFF0E5F
:103440001B16FF0E1C16000E1D161F8EFF0E1E16DD
:10345000FF0E1F16000E2016180E246EFFFFD890C8
:103460002536263627361E501B5C1F501C58205010
:103470001D58D8A007D01E501B5E1F501C5A20504C
:103480001D5A2580FFFFD8901B361C361D36242E72
:10349000E5D725C001F026C002F027C003F028C000
:1034A00004F029C005F0FAEC1BF001C01BF002C0CB
:1034B0001CF003C01DF0FFFF1200FFFFFFFF73B2FF
:1034C00068D0612A640E616402D0640E616EFFFFF1
:1034D0000001F92B3B0EF96514D0000EF96F642A38
:1034E0003B0E64640ED0000E646EF82B170EF86568
:1034F00008D0000EF86FF12BF1C004F00A0E92EC28
:103500003AF0FFFF64506818D8B443D00001ED5181
:10351000D8B409D04F4A502A4FC006F050C007F027
:10352000080EA1EC38F0FFFF722A060E726402D07A
:10353000060E726EFFFF660E066E000E076E86ECBC
:1035400017F03C0E676418D03C0E686415D0180E56
:10355000696412D0020E0001DB6F99EC39F0F9C0FA
:1035600067F064C068F0F8C069F0F7C06AF0F6C0B0
:103570006BF0F5C06CF00DD0FFFF67C0F9F068C0CC
:1035800064F069C0F8F06AC0F7F06BC0F6F06CC088
:10359000F5F0FFFF1200FFFFFFFF010E0001836F38
:1035A000010E98EC1BF088C084F089C085F058ECBF
:1035B0003AF0010E0001836F020E98EC1BF08AC0F6
:1035C00084F08BC085F058EC3AF0000E0001836F58
:1035D000030E98EC1BF08CC084F08DC085F058EC85
:1035E0003AF0000E0001836F040E98EC1BF08EC0C1
:1035F00084F08FC085F058EC3AF0000E0001906F17
:10360000000E906FFFFF130E906501D02BD0FFFFCF
:103610009051010DF3508825D96EF4508921DA6E4E
:10362000200EDF6E9051010DF3508A25D96EF450B3
:103630008B21DA6E200EDF6E9051010DF3508C2538
:10364000D96EF4508D21DA6E200EDF6E9051010D8F
:10365000F3508E25D96EF4508F21DA6E200EDF6E76
:10366000902BD0D7FFFF1200FFFFFFFFB90EF66EC1
:103670007B0EF76E20EE87F01F0E0900FFFFF5CFDF
:10368000DEFFE806FAE2040E3CEC39F0000E3CECFA
:1036900039F0320EFFFFE82EFDD7000E0001AB6FB0
:1036A000000EAA6F000EA96F000EAB6FFFFF040E95
:1036B000AB6501D03AD0FFFFA905D8A402D0000E17
:1036C000AB6FFFFF000EAA6FFFFF070EAA6501D0C8
:1036D00028D0FFFFA951D8A405D0000EA86F000E76
:1036E000A76F18D0FFFFAB51080D870E846F000E37
:1036F000856FF3508427F4508523AA51010DF350B0
:103700008425D96EF4508521DA6EDF50866F86519C
:10371000A76FA86BFFFFA7512AEC3BF00001AA2B73
:10372000D3D7FFFFA92BAB2BC1D7FFFF1200FFFFA1
:10373000FFFF0001846F4CD0FFFF000183517F0F1A
:10374000876F87390F0B856F87510F0B866F8551F8
:103750003CEC39F0000186513CEC39F048D0FFFFD9
:1037600000018351BF0F876F87390F0B856F87511A
:103770000F0B866F85513CEC39F0000186513CEC13
:1037800039F035D0FFFF00018351940F876F8739DF
:103790000F0B856F87510F0B866F85513CEC39F00D
:1037A000000186513CEC39F022D0FFFF000183512B
:1037B000D40F876F87390F0B856F87510F0B866F7B
:1037C00085513CEC39F0000186513CEC39F00FD0CA
:1037D000FFFF00018451010AD8B4AED7030AD8B460
:1037E000BED7010AD8B4CED7070AD8B4DED7FFFFB8
:1037F0001200FFFFFFFF0450D8B405D001500210A3
:103800000310D8A40ED0FFFF000E016E000E026E52
:10381000000E036E4ED0FFFF042AD890033202320E
:103820000132FFFF000E0114066E000E0214076E37
:10383000FE0E0314086E065007100810D8B40DD001
:10384000EAD7FFFF042A010E0126000E0222000E15
:103850000322D890033202320132FFFF000E01141E
:10386000066E000E0214076EFF0E0314086E06505B
:1038700007100810D8B407D0E4D7FFFF0406D8908B
:10388000013602360336FFFF02BE03D0020E04608B
:10389000F4D7FFFF04A0029ED89004320450031214
:1038A0000550D8A4038E01C001F002C002F003C08D
:1038B00003F0FFFF1200FFFFFFFF0001DF51FF5D7C
:1038C000D8A00FD0D905D8B40CD0DA51D8A409D0DB
:1038D000000E4A6E000E496E000E01EC19F0000E4B
:1038E0003BD0FFFF0001DA51D8A43ED0000E466E57
:1038F000FF51DE5DD8A002D0010E4A6EFFFFDF51FE
:10390000FF5DD8A002D0000E4A6EFFFFDF51FF5DC1
:10391000D8A008D0D951D8A405D0000E496E000E09
:1039200001EC19F0FFFF0001FF51DD5DD8A004D0CC
:10393000010ED96F010E496EFFFFFF51DC5DD8A06B
:1039400005D0010ED96F010E01EC19F0FFFF000147
:10395000D951D8B404D0010EFFFF456E05D0FFFF4A
:10396000000EE76F020E726EFFFF1200FFFFFFFFF7
:10397000A30E0001A16F010EA26F740EA36F7F0E44
:10398000A46FD4EC3BF00F0E0001816FA00E806F8E
:10399000CDEC39F09E0E0001A16F7F0EA26FECEC12
:1039A0003AF0000E0001816F640E806FCDEC39F0AB
:1039B000BD0E0001936F7F0E946F68EC39F0000923
:1039C000D8B424D0BD0E0001B76F7F0EB86F2C0E97
:1039D000B96FE1EC15F0B7C0C1F0B8C0C2F08BEC24
:1039E00018F0C1C0C8F0C2C0C9F0790E0001A16FC3
:1039F000010EA26F940EA36F7F0EA46FC8C0A5F036
:103A0000C9C0A6F0D4EC3BF0C4EC38F0FFFF1200C4
:103A1000FFFFFFFF03AE16D001C007F002C008F0A1
:103A200003C009F0071E081E091E072A000E0822FF
:103A30000922000E0724016E000E0820026E800E7F
:103A40000920036EFFFF06AE16D004C007F005C0C4
:103A500008F006C009F0071E081E091E072A000EFE
:103A600008220922000E0724046E000E0820056EAD
:103A7000800E0920066EFFFF000E011A000E021ACA
:103A8000800E031A000E041A000E051A800E061A84
:103A90000450015C0550025806500358D8B002D0BB
:103AA000D89002D0FFFFD880FFFF1200FFFFFFFF7A
:103AB0003AD0FFFF86C0D9FF87C0DAFFDF50D8B405
:103AC00011D086C0D9FF87C0DAFFDF5000018C6FAC
:103AD00088C0F6FF89C0F7FF0800FFFFF5508C197A
:103AE000D8B41CD0FFFF88C0F6FF89C0F7FF0800DC
:103AF000FFFFF55000018C6F8D6B8C1F8D1F8C4B61
:103B00008D2B86C0D9FF87C0DAFFDF508E6F8E51B4
:103B10008C25866F000E8D21876F13D0FFFF864B9B
:103B2000872B884B892BFFFF00018A07D8A08B07C2
:103B30008A29C0E18B29D8A4BCD7000E876F000E5C
:103B4000866FFFFF1200FFFFFFFF000E0001856F71
:103B500083AF06D0826D831FD8B0832B010E856F93
:103B6000FFFF81AF06D0806D811FD8B0812B010E81
:103B7000851BFFFF000E876F000E866F8251831139
:103B8000D8B420D0010E846F05D0FFFFD8908237C3
:103B90008337842BFFFF83AFF8D7FFFFD89086379A
:103BA00087378251805D83518159D8A005D08251D9
:103BB000805F8351815B8681FFFFD890833382339E
:103BC000842FEBD7FFFF8551D8B404D0866D871FB3
:103BD000D8B0872BFFFF86C080F087C081F012002D
:103BE000FFFFFFFF35D0FFFF8FC086F090C087F04A
:103BF00091C088F092C089F091C080F092C081F0AD
:103C000049EC3DF080C08AF081C08BF057EC1DF08C
:103C1000000186518711D8A405D08FC08FF090C0C5
:103C200090F028D0FFFF010E8F25806F000E9021AD
:103C3000816F91C0F6FF92C0F7FF0800FFFFF550BB
:103C4000826F836B0AEC3BF080C08FF081C090F0F4
:103C5000FFFF00018F519011D8B407D08FC0D9FF5A
:103C600090C0DAFFDF50D8A4BED7FFFF000E8F6FE1
:103C7000000E906FFFFF1200FFFFFFFF000E00011C
:103C8000886F000E896F000E8A6F000E8B6F845153
:103C9000851186118711D8B42ED0010E8C6F07D0F4
:103CA000FFFFD89084378537863787378C2BFFFF07
:103CB00087AFF6D7FFFFD890883789378A378B3799
:103CC0008451805D8551815986518259875183592C
:103CD000D8A009D08451805F8551815B8651825B79
:103CE0008751835B8881FFFFD89087338633853384
:103CF00084338C2FDFD7FFFF88C080F089C081F02C
:103D00008AC082F08BC083F01200FFFFFFFF000E1D
:103D10006CEC3BF03B0E0001836F790EFFFFE82E49
:103D2000FDD7832FFBD700D000F0030E3CEC39F019
:103D30001E0E0001836F3C0EFFFFE82EFDD7832F80
:103D4000FBD700F0030E3CEC39F0270E0001836F27
:103D5000FB0EFFFFE82EFDD7832FFBD700D000F02E
:103D6000030E3CEC39F0020E3CEC39F0020E3CEC58
:103D700039F0080E3CEC39F0000E3CEC39F00C0E3A
:103D80003CEC39F0000E3CEC39F0060E3CEC39F01E
:103D90001200FFFFFFFF000E0001856F81AF06D00C
:103DA000806D811FD8B0812B010E856FFFFF83AF1F
:103DB00004D0826D831FD8B0832BFFFF8251831103
:103DC000D8B41CD0010E846F05D0FFFFD890823785
:103DD0008337842BFFFF83AFF8D7FFFF8251805DCD
:103DE00083518159D8A004D08251805F8351815B77
:103DF000FFFFD89083338233842FEFD7FFFF8551A5
:103E0000D8B404D0806D811FD8B0812BFFFF80C053
:103E100080F081C081F01200FFFFFFFF0001B96F49
:103E2000B9C0BAF00001BB6B6DC0BCF06EC0BDF094
:103E30006FC0BEF070C0BFF0BAC080F0BBC081F0F0
:103E4000000E836F0A0E826FA4EC1DF000018051FA
:103E5000300FBC6F2E0EBD6FBAC080F0BBC081F0BA
:103E6000000E836F0A0E826FCAEC1EF000018051B3
:103E7000300FBE6F000EBF6FC00EA16F000EA26F9D
:103E8000BC0EA36F000EA46FD4EC3BF0C00E00017B
:103E9000B76F000EB86F1200FFFFFFFF81B402D0B2
:103EA000010E586EFFFF81A407D05850D8B404D03B
:103EB000010E576E000E586EFFFF81B802D0010E42
:103EC000566EFFFF81A807D05650D8B404D0010E1B
:103ED000556E000E566EFFFF81BA02D0010E546E71
:103EE000FFFF81AA07D05450D8B404D0010E536EFE
:103EF000000E546EFFFF81B602D0010E526EFFFF1E
:103F000081A607D05250D8B404D0010E516E000ED5
:103F1000526EFFFF1200FFFF300EF66E700EF76E4E
:103F2000000EF86E00EEFAF010EE06F00900F5CF84
:103F3000EEFFE550E150FAE1360EF66E700EF76EC8
:103F4000000EF86E00EE6DF010EE06F00900F5CFF1
:103F5000EEFFE550E150FAE101EE00F0E40EEE6A0A
:103F6000E806FDE100EED4F0260EEE6AE806FDE17B
:103F7000736A00EE44F0290EEE6AE806FDE17490E3
:103F80007492000EF86E000157EF08F0FFFF000179
:103F9000806F23D0FFFF5750D8B41CD0000E576E4F
:103FA00014D0FFFF5350D8B415D0000E536E0DD06F
:103FB000FFFF5550D8B40ED0000E556E06D0FFFF4F
:103FC0005150D8B407D0000E516EFFFF010E716E34
:103FD000010E13D0FFFF000E10D0FFFF0001805133
:103FE000010AD8B4D7D7030AD8B4E2D7010AD8B4A3
:103FF000D8D7070AD8B4E3D7EDD7FFFF1200FFFFE9
:107030002C0101010162202020200105FFFF6DECE1
:1070400038F0C5801200FFFFFFFF6DEC38F0C584FB
:107050001200FFFFFFFF6DEC38F0C5821200FFFF4A
:10706000FFFF79EC38F0C5801200FFFFFFFF79ECDD
:1070700038F0C5841200FFFFFFFF79EC38F0C582BD
:107080001200FFFFFFFF6DEC38F002C0C9FF1200D5
:10709000FFFFFFFF79EC38F08AC0C9FF1200FFFF45
:1070A000FFFF016EFFFFACA2FDD701C0ADFF1200D4
:1070B000FFFFFFFF000E3CEC39F0010E3CEC39F015
:1070C0001200FFFFFFFF016E01380F0B0F0B0A0DBF
:1070D00001500F0BF3241200FFFFFFFFC7B4FDD7D1
:1070E000C5CF01F01F0E0116D8B41200FFFFF5D76F
:1070F000FFFFFFFFC7B4FDD7C5CF80F01F0E000113
:107100008017D8B41200FFFFF4D7FFFFFFFF000184
:10711000806F000180390F0B0F0B0A0D80510F0B90
:10712000F3241200FFFFFFFF74B250EF38F0FFFFAF
:107130000001806FFFFFACA2FDD780C0ADFF120041
:10714000FFFFFFFF086E06C004F0085092EC3AF013
:107150000750066E076A06C004F0082892EC3AF061
:107160001200FFFFFFFF036E000E026E3A0E036077
:1071700005D02F0E036402D0010E026EFFFF02C085
:1071800001F001301200FFFFFFFF140E0001806FBD
:10719000010E816F000E836F000E826F000E856FEF
:1071A000500E846F75EC3AF01200FFFFFFFF09C02C
:1071B00001F00AC002F0036A8E0E046E000E056E26
:1071C000FAEC1BF001C009F002C00AF003C00BF09A
:1071D0001200FFFFFFFFC284190EFFFFE82EFDD74C
:1071E000FFFFC2A4FDD7C450046E036AC35003243A
:1071F000016E000E0420026E1200FFFFFFFF00016F
:10720000826F000E0001816F3A0E826105D02F0E51
:10721000826502D0010E816FFFFF81C080F0803156
:107220001200FFFFFFFF01500302F3CF05F0F4CF80
:1072300006F001500402F350062602500302F350F8
:10724000062605C001F006C002F01200FFFFFFFF96
:10725000140E226E010E236EF30E246E7F0E256E29
:10726000140E266E010E276E30C028F031C029F0B2
:107270008EEC3BF01200FFFFFFFF0001826F839254
:10728000000182516CEC3BF083801E0E0001816F87
:107290003C0EFFFFE82EFDD7812FFBD700F0839037
:1072A0001200FFFFFFFF000180518203F3CF84F043
:1072B000F4CF85F080518303F350852781518203F9
:1072C000F350852784C080F085C081F01200FFFF55
:1072D000FFFF140E00018F6F010E906F93C091F0AD
:1072E00094C092F0F1EC1DF000018F519011D8B4D0
:1072F00002D0010E02D0FFFF000EFFFF1200FFFFC1
:10730000FFFF0BD0FFFF020E036EF20EFFFFE82E11
:10731000FDD7032EFBD700D00400FFFF0106D8A045
:1073200002060128F0E10228D8B41200FFFFEAD7D4
:10733000FFFFFFFF1EEC38F0000E036ED00E026E52
:1073400042EC38F0000E036E070E026E42EC38F08D
:10735000000E036E000E026E42EC38F024EC38F0A2
:107360001200FFFFFFFF6DEC38F0C5866DEC38F0C2
:10737000C9CF04F0056A6DEC38F002500310D8A4B0
:1073800002D0C58A02D0FFFFC59AFFFFC58804C09E
:1073900002F005C003F01200FFFFFFFF0CD0FFFF5B
:1073A000020E0001826FF20EFFFFE82EFDD7822F42
:1073B000FBD700F00400FFFF00018007D8A0810781
:1073C0008029EEE18129D8B41200FFFFE8D7FFFF42
:1073D000FFFF000E0001806F000E806FFFFF070EA1
:1073E000806501D00DD0FFFF8051010D440EF324C4
:1073F000D96E000EF420DA6E000EDF6E802BEED711
:10740000FFFF1200FFFFFFFF30EC38F0000E00011D
:107410008B6FD00E8A6F49EC38F0000E00018B6F35
:10742000070E8A6F49EC38F0000E00018B6F000EDA
:107430008A6F49EC38F036EC38F01200FFFFFFFF9E
:107440000001936F0001932994EC3CF00001906FD0
:107450009051916F926B9151926F916B935194EC0B
:107460003CF00001906F9051911391C08EF092C04A
:107470008FF01200FFFFFFFF79EC38F0C58679EC42
:1074800038F0C9CF83F00001846B79EC38F000014B
:1074900081518211D8A402D0C58A02D0FFFFC59ABB
:1074A000FFFFC58883C081F084C082F01200FFFF17
:1074B000FFFF000E0001866F000E866FFFFF130EA8
:1074C000866501D00FD0FFFF8651010DF350842552
:1074D000D96EF4508521DA6EDF502AEC3BF00001C2
:1074E000862BECD7FFFF1200FFFFFFFF80C086F066
:1074F00081C087F00AD0FFFF86C0D9FF87C0DAFFBE
:1075000082C0DFFF0001864B872BFFFF000184074D
:10751000D8A085078429F0E18529D8B41200FFFF9F
:10752000EAD7FFFFFFFF056E1EEC38F0000E036E7A
:10753000A00E026E42EC38F005C002F0036A42EC85
:1075400038F004C002F0036A42EC38F024EC38F062
:10755000000E026E0F0E016E80EC39F01200FFFF7C
:10756000FFFF0001F251F15DD8A015D0F251D8B45F
:1075700012D0F051F819D8A40ED0000EF16FF1C05E
:107580008CF00A0EB1EC3BF0020E0001DA6F1C0E1B
:10759000D76F43EC0AF0FFFF1200FFFFFFFF73A05D
:1075A00018D0000E0001846F820782C084F00CD0D6
:1075B000FFFF8451010DF3508025D96EF4508121D5
:1075C000DA6E200EDF6E842BFFFF8351845DD8A01E
:1075D000EFD7FFFF1200FFFFFFFF000E0001B76FA4
:1075E000000EB86F260EB96F710EBA6FA30EB56F8D
:1075F000000EB66FB70E8C6F000E8D6FA1C08EF0AF
:10760000A2C08FF0B50E906F000E916F78EC00F075
:107610001200FFFFFFFF80C0D9FF81C0DAFF000129
:107620008251DE18D8A405D080C080F081C081F0DE
:107630000ED0FFFF80C0D9FF81C0DAFF804B812BC5
:10764000DF50D8A4E7D7000E806F000E816FFFFFD8
:107650001200FFFFFFFF0001836F000183510F0B3A
:10766000816F8351F00B826F838282390F0B6CEC38
:107670003BF083804B0EFFFFE82EFDD78390000187
:1076800081516CEC3BF083804B0EFFFFE82EFDD761
:1076900083901200FFFFFFFF0001886F88C080F019
:1076A0000001816B000E836F0A0E826FA4EC1DF047
:1076B00000018039F00B896F88C080F0816B000E6B
:1076C000836F0A0E826FCAEC1EF00001805189118F
:1076D000896F89511200FFFFFFFF0001806F0001D9
:1076E00080A102D0838402D0FFFF8394FFFF80A398
:1076F00002D0838602D0FFFF8396FFFF80A502D0D1
:10770000838802D0FFFF8398FFFF80A702D0838A7F
:1077100002D0FFFF839AFFFF1200FFFFFFFF22C08E
:107720002CF023C02DF0000E2E6E000E2F6E260EB4
:107730002A6E000E2B6E2C0E0D6E000E0E6E24C0E7
:107740000FF025C010F02A0E116E000E126E77ECAD
:1077500004F02CC0D9FF2DC0DAFF000EDF6E12003E
:10776000FFFFFFFF00018D6F30EC38F0000E0001CD
:107770008B6FA00E8A6F49EC38F08DC08AF0000143
:107780008B6B49EC38F08CC08AF000018B6B49ECB4
:1077900038F036EC38F0000E0001816F0F0E806F6C
:1077A000CDEC39F01200FFFFFFFFA1C0B3F0A2C083
:1077B000B4F0000E0001B56F000EB66FA50EB16FEC
:1077C000000EB26FB30E8C6F000E8D6FA3C08EF0E3
:1077D000A4C08FF0B10E906F000E916F78EC00F0A6
:1077E000B3C0D9FFB4C0DAFF000EDF6E1200FFFF96
:1077F000FFFF000E0001816F8492000E816F15D093
:10780000FFFF84908151010D440EF324D96E000EC8
:10781000F420DA6EDF50806F8047804784508019F3
:10782000FB0B8019846E8480812BFFFF070E81651E
:10783000E7D784821200FFFFFFFF1F0E6A6402D0A9
:10784000000E6A6EFFFF170E696402D0000E696EAB
:10785000FFFF3B0E686402D0000E686EFFFF0C0E47
:107860006B6402D0000E6B6EFFFF3B0E676402D0AC
:10787000000E676EFFFF630E6C6402D0000E6C6E2C
:10788000FFFF1200FFFFFFFF0A500B10D8B41CD0FF
:10789000010E0C6E05D0FFFFD8900A360B360C2A6D
:1078A000FFFF0BAEF8D7FFFF0A50085C0B500958DA
:1078B000D8A004D00A50085E0B50095AFFFFD89098
:1078C0000B320A320C2EEFD7FFFF08C008F009C0B8
:1078D00009F01200FFFFFFFF000189518A11D8B49F
:1078E0001CD0010E8B6F05D0FFFFD89089378A37E7
:1078F0008B2BFFFF8AAFF8D7FFFF8951875D8A5135
:107900008859D8A004D08951875F8A51885BFFFFCE
:10791000D8908A3389338B2FEFD7FFFF87C087F04A
:1079200088C088F01200FFFFFFFF00018C6F30EC71
:1079300038F0000E00018B6FA00E8A6F49EC38F012
:107940008CC08AF000018B6B49EC38F03CEC38F0CD
:10795000000E00018B6FA10E8A6F49EC38F0000E0B
:107960000001826F000E816F3BEC3AF00001815103
:107970008D6F36EC38F000018D511200FFFFFFFFD4
:10798000810EC26ECE0EC16E92808090810ED56E39
:10799000E40EF26E959A9598959695949592959099
:1079A000AC8AAC84AC98AB8EAB88190EAF6E949C4D
:1079B000948EF28EF28C9E9A9D8AF2969284928A8E
:1079C0009480938493869388938A969096929694C3
:1079D0001200FFFFFFFFA30E0001A16F010EA26FB7
:1079E0004E0EA36F7D0EA46FD4EC3BF08E0E000103
:1079F000A16F010EA26FF20EA36F7D0EA46FD4ECE7
:107A00003BF0640E0001A16F010EA26F510EA36F37
:107A10007F0EA46F2D0EA56F7F0EA66FD4EC3BF0EA
:107A2000010EC6EC1FF00009D8A4D6C0D7F0120092
:107A3000FFFFFFFF000E066E000E056E03500410E0
:107A4000D8B420D0010E076E05D0FFFFD8900336C2
:107A50000436072AFFFF04AEF8D7FFFFD89005369B
:107A600006360350015C04500258D8A005D00350DC
:107A7000015E0450025A0580FFFFD89004320332A1
:107A8000072EEBD7FFFF05C001F006C002F0120081
:107A9000FFFFFFFF80C084F081C085F004D0FFFFAE
:107AA0000001844B852BFFFF84C0F6FF85C0F7FFE4
:107AB000F86A050EF76404D00800FFFFF55005D002
:107AC000F6CFE9FFF7CFEAFFEF500009D8A4E7D7D8
:107AD00080C082F081C083F00001821F831F824B2F
:107AE000832B84518225806F85518321816F120001
:107AF000FFFFFFFF000E0001856F000E846F8251B3
:107B00008311D8B420D0010E866F05D0FFFFD89026
:107B100082378337862BFFFF83AFF8D7FFFFD890DC
:107B2000843785378251805D83518159D8A005D033
:107B30008251805F8351815B8481FFFFD8908333C2
:107B40008233862FEBD7FFFF84C080F085C081F0A1
:107B50001200FFFFFFFF280EC66E000EC56E000E5E
:107B60000001806F120E816F7A0E826F000E836F9C
:107B70008DC091F08EC092F08FC093F090C094F0C1
:107B8000020EFFFFD8909137923793379437E82E43
:107B9000F8D791C084F092C085F093C086F094C06D
:107BA00087F03DEC1EF000018005C86E000EC76E28
:107BB000948694881200FFFF00001F15150E040420
:107BC0000400000000001010100000000404141451
:107BD00014000101050515151501000A006400E8EF
:107BE000031027544553544520444520424F4D42ED
:107BF0004153205245414C495A41444F0D0A454D8D
:107C000020253032643A253032643A2530326420FF
:107C1000253032642F253032642F253032640D0A2E
:107C20004A4F434B45593A2025730D0A5052494E4D
:107C3000434950414C3A2025730D0A434F4D42555C
:107C40005354414F3A2025730D0A00444953504183
:107C5000524F20414C41524D4520444520494E430E
:107C6000454E44494F0D0A454D20253032643A2592
:107C70003032643A2530326420253032642F25308A
:107C800032642F253032640D0A0020253032643AE8
:107C9000253032643A2530326420253032642F2575
:107CA0003032642F2530326400232564204441544F
:107CB000413A20253032642F253032642F2530326E
:107CC00064002350726F78696D6F20656D202532D6
:107CD000642064696173002D204552524F20205466
:107CE00052414E534455544F52200020414C45526E
:107CF000544120444520494E43454E44494F0020BD
:107D00002020416775617264652E2E2025336473CF
:107D1000656300494E54455256414C4F3A20253236
:107D200064206469617300484F524152494F3A20C0
:107D30002530326420686F726173002020544553EF
:107D4000544520434F4E434C5549444F2100202079
:107D5000434F4E54524120464F474F204A554E47BD
:107D60000020205072657373204F4B20702F204DE0
:107D7000454E550023686F72696D6574726F3A25C0
:107D80003564206D696E00436F6E66696775726158
:107D900063616F2074656D706F005072657373203E
:107DA00045534320702F2052657365740041542B56
:107DB000434D47533D222B35352573220D0A00458F
:107DC0004E5649414E444F20534D532E2E2E2000E7
:107DD00046414C4841205052494E434950414C2065
:107DE0000046414C484120434F4D42555354414F6A
:107DF000200020202020343820333436362D3238ED
:107E0000373500454E5649415220534D5320544575
:107E100053544500414A5553544520434F4D425514
:107E20005354414F0046414C484120454C45545223
:107E300049434120005052494E434950414C202D66
:107E40002025732000434F4D42555354414F202D60
:107E50002025732000202020202053495354454DD5
:107E600041204F4B00205072657373616F20257362
:107E70002062617200205052494E434950414C20CB
:107E80003A2025730020434F4D42555354414F2013
:107E90003A2025730046414C48412052454C4F47FB
:107EA000494F2000414A55535445205052455353A1
:107EB000414F00494E49434941522054455354458E
:107EC0005300253032643A253032643A253032642A
:107ED0000046414C4841204A4F434B455920004DF4
:107EE00061782E20504152544944413A0054454C47
:107EF0002F4449534341444F52410052454C4F4750
:107F0000494F2F4441544100544553544520424F5A
:107F10004D4241530041542B434D47463D310D0ADC
:107F2000004A4F4B4559202D20257320004175678D
:107F30002030342032303139004D61782E205445C4
:107F40005354453A00494E464F2056455253414FEF
:107F50000076657273616F202D20257300204A4FD3
:107F60004B4559203A202573004154442030257355
:107F70003B0D0A0054454C4120544553544500479D
:107F80004552414C203A20257300444154414C4F06
:107F90004745520053696E616C3A20256400415494
:107FA0002B4353510D0A0047534D3A2025730028A7
:107FB0006E756C6C2900415448300D0A002B4353F8
:107FC000513A200054313A2025730054323A20258A
:107FD0007300484F52413A00444154413A004641EF
:107FE0004C48410041540D0A004F4B20200045529F
:107FF000524F00257325630025336473003E000053
:020000040020DA
:08000000FFFFFFFFFFFFFFFF00
:020000040030CA
:0E000000FF220F0FFF0181FF004000E00F0004
:00000001FF
