:1000000000F08FEF00F0FFFFFFFF7C82FACF31F0AE
:10001000FBCF32F0E9CF33F0EACF34F0E1CF35F067
:10002000E2CF36F0D9CF37F0DACF38F0F3CF39F06E
:10003000F4CF3AF0F6CF3BF0F7CF3CF0F8CF3DF0FD
:10004000F5CF3EF07CC03FF07DC040F07EC041F077
:100050007FC042F0F2A41DD0F2943C0ED76EB00ED9
:10006000D66E79B002D0798002D0FFFF7990FFFF81
:10007000712A6F2ABBEC0EF0F5EC1DF0090E7164CD
:1000800008D0000E716E2FEC15F0ABA202D0AB9829
:10009000AB88FFFF9EAA1BD0AECF43F00A0E4318D9
:1000A000D8B40FD00D0E4318D8B40BD06450010D46
:1000B000140EF324D96E010EF420DA6E43C0DFFF74
:1000C000642AFFFF3B0E646402D0000E646EFFFFE3
:1000D00042C07FF041C07EF040C07DF03FC07CF068
:1000E0003EC0F5FF3DC0F8FF3CC0F7FF3BC0F6FF48
:1000F0003AC0F4FF39C0F3FF38C0DAFF37C0D9FF88
:1001000036C0E2FF35C0E1FF34C0EAFF33C0E9FF8B
:1001100032C0FBFF31C0FAFF7C921100FFFFE8EF15
:100120001CF0FFFFD7D3FFFF250E0001A019D8B4A4
:1001300037D020EE02F08C51D9268D51DA22DE50D4
:10014000DE10D8B416D020EE02F08C51D9268D5195
:10015000DA2201D8BFD3FFFF0500FA6EDE50FD6E34
:10016000DE50FE6EF850FF6EFA50A0511200FFFFF5
:10017000B1D3FFFF8CC0D9FF8DC0DAFFDECF92F084
:10018000DDCF93F092C0D9FF93C0DAFFA0C0DFFFAC
:100190008CC0D9FF8DC0DAFFDE2A000EDD229AD393
:1001A000FFFF000E00019F6F000E9E6F000E9B6F01
:1001B00005D0FFFF00019B858E4B8F2BFFFF8EC06C
:1001C000F6FF8FC0F7FFF86A050EF76404D0080049
:1001D000FFFFF55005D0F6CFE9FFF7CFEAFFEF506C
:1001E000300AD8B4E6D78EC0F6FF8FC0F7FFF86AA2
:1001F000050EF76404D00800FFFFF55005D0F6CFD8
:10020000E9FFF7CFEAFFEF502FEC3BF0D8A06BD11E
:10021000000E00019F6F000E9E6FFFFF9EC080F0DA
:100220009FC081F0000E0001836F0A0E826F59ECAF
:100230003BF080C09EF081C09FF0D00E0001926F15
:10024000FF0E936F8EC0F6FF8FC0F7FFF86A050EA2
:10025000F76404D00800FFFFF55005D0F6CFE9FFA2
:10026000F7CFEAFFEF500001946F956B92519427FE
:100270009351952394519E2795519F238E4B8F2BFD
:100280008EC0F6FF8FC0F7FFF86A050EF76404D042
:100290000800FFFFF55005D0F6CFE9FFF7CFEAFFE2
:1002A000EF502FEC3BF0D8A01ED1B7D7FFFF90C086
:1002B000D9FF91C0DAFFDFCF92F0020EDE26DFCF4A
:1002C00093F0000EDD2292C0D9FF93C0DAFFDECF9B
:1002D0009CF0DDCF9DF000019C519D11D8A404D06D
:1002E000AB0E9C6F7F0E9D6FFFFF000E9A6F000E8E
:1002F000996F04D0FFFF0001994B9A2BFFFF995192
:100300009C25926F9A519D21936F92C0F6FF93C0E6
:10031000F7FFF86A050EF76404D00800FFFFF550F8
:1003200005D0F6CFE9FFF7CFEAFFEF500009D8A4D8
:10033000E1D7FFFF00019E51995D9F519A59D8B0B6
:1003400005D099519E5F9A519F5B3DD0FFFF000EF3
:100350009F6F000E9E6F37D0FFFF20EE02F08C5192
:10036000D9268D51DA22DE50DE10D8B416D020EE18
:1003700002F08C51D9268D51DA2201D824D0FFFF0A
:100380000500FA6EDE50FD6EDE50FE6EF850FF6E18
:10039000FA50200E1200FFFF16D0FFFF8CC0D9FFCD
:1003A0008DC0DAFFDECF92F0DDCF93F092C0D9FF9F
:1003B00093C0DAFF200EDF6E8CC0D9FF8DC0DAFF4C
:1003C000DE2A000EDD22FFFF00019E07D8A09F0756
:1003D0009E29C3E19F29D8B45FD0BED7FFFF20EE8E
:1003E00002F08C51D9268D51DA22DE50DE10D8B4BD
:1003F0002AD020EE02F08C51D9268D51DA2201D874
:100400001DD0FFFF0500FA6EDE50FD6EDE50FE6E61
:10041000F850FF6EFA509CC0F6FF9DC0F7FFF86AD7
:10042000050EF76404D00800FFFFF55005D0F6CFA5
:10043000E9FFF7CFEAFFEF501200FFFFFFFF0001D7
:100440009C4B9D2B29D0FFFF9CC0F6FF9DC0F7FF62
:10045000F86A8CC0D9FF8DC0DAFFDECF92F0DDCF15
:1004600093F092C0D9FF93C0DAFF050EF76404D071
:100470000800FFFFF55005D0F6CFE9FFF7CFEAFF00
:10048000EF50DF6E00019C4B9D2B8CC0D9FF8DC0BF
:10049000DAFFDE2A000EDD22FFFF9907D8A09A07B7
:1004A00099299DE19A29D8B415D298D7FFFF90C019
:1004B000D9FF91C0DAFFDFCF92F0020EDE26DFCF48
:1004C00093F0000EDD2292C0D9FF93C0DAFFDF5017
:1004D000A06FFFFFA00E9C6F000E9D6F000E9A6F25
:1004E000010E996F26D7FFFF00018E51926F8F5139
:1004F000936F8E4B8F2B92C0F6FF93C0F7FFF86A75
:10050000050EF76404D00800FFFFF55005D0F6CFC4
:10051000E9FFF7CFEAFFEF500001A06FA051000AFA
:10052000D8B4F6D1630AD8B4C1D7070AD8B407D073
:100530000D0AD8B404D01A0AD8B4B8D6CAD7FFFF67
:1005400090C0D9FF91C0DAFFDFCF92F0020EDE2615
:10055000DFCF93F0000EDD2292C0D9FF93C0DAFF07
:10056000DECF97F0DDCF98F0000198AF06D0030EF4
:100570009B13976D981FD8B0982BFFFF010EA06FAB
:10058000FFFF050EA019D8B414D0A051020D370EEC
:10059000F324F66E7C0EF420F76E0900FFFFF55091
:1005A000975D0900FFFFF5509859D8A002D0A02B05
:1005B000E7D7FFFF9E519F11D8B409D09BC092F09E
:1005C000030E9217D8B403D09E07D8A09F07FFFF51
:1005D000800EA0BF7F0E926F9E51A05D9F51800A3A
:1005E0009259D8B007D0A0519E5F000EA0BFFF0E59
:1005F0009F5B05D0FFFF000E9F6F000E9E6FFFFFF9
:100600009BA57FD09BC092F0030E9217D8B436D032
:1006100020EE02F08C51D9268D51DA22DE50DE1008
:10062000D8B416D020EE02F08C51D9268D51DA22A2
:1006300001D824D0FFFF0500FA6EDE50FD6EDE50BB
:10064000FE6EF850FF6EFA502D0E1200FFFF16D00E
:10065000FFFF8CC0D9FF8DC0DAFFDECF92F0DDCF77
:1006600093F092C0D9FF93C0DAFF2D0EDF6E8CC0DD
:10067000D9FF8DC0DAFFDE2A000EDD22FFFF000168
:10068000FFFF9E519F11D8B4BED020EE02F08C51D6
:10069000D9268D51DA22DE50DE10D8B416D020EEE5
:1006A00002F08C51D9268D51DA2201D824D0FFFFD7
:1006B0000500FA6EDE50FD6EDE50FE6EF850FF6EE5
:1006C000FA50300E1200FFFF16D0FFFF8CC0D9FF8A
:1006D0008DC0DAFFDECF92F0DDCF93F092C0D9FF6C
:1006E00093C0DAFF300EDF6E8CC0D9FF8DC0DAFF09
:1006F000DE2A000EDD22FFFF00019E07D8A09F0723
:10070000BFD7FFFF9E519F11D8B440D0FFFF20EE0E
:1007100002F08C51D9268D51DA22DE50DE10D8B489
:1007200016D020EE02F08C51D9268D51DA2201D854
:1007300024D0FFFF0500FA6EDE50FD6EDE50FE6E27
:10074000F850FF6EFA50200E1200FFFF16D0FFFF88
:100750008CC0D9FF8DC0DAFFDECF92F0DDCF93F0F1
:1007600092C0D9FF93C0DAFF200EDF6E8CC0D9FF94
:100770008DC0DAFFDE2A000EDD22FFFF00019E079A
:10078000D8A09F079E519F11D8A4C0D7FFFF9BC040
:1007900092F0030E9217D8B436D020EE02F08C51AE
:1007A000D9268D51DA22DE50DE10D8B416D020EED4
:1007B00002F08C51D9268D51DA2201D824D0FFFFC6
:1007C0000500FA6EDE50FD6EDE50FE6EF850FF6ED4
:1007D000FA502D0E1200FFFF16D0FFFF8CC0D9FF7C
:1007E0008DC0DAFFDECF92F0DDCF93F092C0D9FF5B
:1007F00093C0DAFF2D0EDF6E8CC0D9FF8DC0DAFFFB
:10080000DE2A000EDD22FFFFA0C096F05DD0FFFFC4
:1008100000019651020D370EF324F66E7C0EF42083
:10082000F76E0900FFFFF5CF82F00A00FFFFF5CF5A
:1008300083F097C080F098C081F0DAEC1EF080C0A1
:1008400087F081C088F0000E00018A6F0A0E896F60
:1008500091EC1FF000018751300FA06F20EE02F0E5
:100860008C51D9268D51DA22DE50DE10D8B416D044
:1008700020EE02F08C51D9268D51DA2201D824D0F5
:10088000FFFF0500FA6EDE50FD6EDE50FE6EF85082
:10089000FF6EFA50A0511200FFFF16D0FFFF8CC070
:1008A000D9FF8DC0DAFFDECF92F0DDCF93F092C09A
:1008B000D9FF93C0DAFFA0C0DFFF8CC0D9FF8DC085
:1008C000DAFFDE2A000EDD22FFFF000196079629DF
:1008D000D8A49DD7FFFF00018E51926F8F51936F67
:1008E0008E4B8F2B92C0F6FF93C0F7FFF86A050E70
:1008F000F76404D00800FFFFF55005D0F6CFE9FFFC
:10090000F7CFEAFFEF500001A06FA051D8A40BD49D
:10091000FFFF000E00018D6F000E8C6F1200FFFFB5
:10092000FFFF3BEC1FF0A00E00018D6F860E8E6F57
:10093000010E8F6F000E906FA8EC1EF0000E0001EC
:10094000816FC80E806FBCEC3BF00DEC3CF0000EEC
:100950000001816F640E806FBCEC3BF0720E0001F1
:100960008C6F000E8D6F79EC13F02EEC1DF0B2EC55
:100970003AF087EC19F0000E0001816F640E806F71
:10098000BCEC3BF013EC14F0000E0001816F320E52
:10099000806FBCEC3BF0FFFF040082B003D0030E7D
:1009A0000001DD6FFFFF10EC1BF0BAEC3CF0DFEC58
:1009B0003DF020EC12F085D0FFFFAFEC10F0A6D098
:1009C000FFFF900E0001A16F010EA26F5F0EA36FDB
:1009D0007F0EA46FBBEC3DF07B0E0001A16F010EFA
:1009E000A26F560EA36F7E0EA46FBBEC3DF0660E99
:1009F0000001A16F010EA26F100EA36F7E0EA46FF7
:100A0000BBEC3DF0510E0001A16F010EA26F730E01
:100A1000A36F7F0EA46FBBEC3DF078D0FFFF900E6C
:100A20000001A16F010EA26F220EA36F7E0EA46FB4
:100A3000BBEC3DF07B0E0001A16F010EA26F690EB1
:100A4000A36F7F0EA46FBBEC3DF0660E0001A16F9B
:100A5000010EA26F0F0EA36F7F0EA46FBBEC3DF0D3
:100A6000510E0001A16F010EA26FA50EA36F7E0EA5
:100A7000A46FBBEC3DF04AD0FFFFA2EC0DF046D0D6
:100A8000FFFF2CEC0AF042D0FFFF69EC11F03ED0E2
:100A9000FFFF6AEC08F03AD0FFFFD4EC12F036D03A
:100AA000FFFF7FEC0CF032D0FFFF34EC1EF02ED0B5
:100AB000FFFF7EEC06F02AD0FFFF000E0001D96F89
:100AC00025D0FFFF0001D951000AD8B475D7010A1B
:100AD000D8B476D7030AD8B4A1D7160AD8B4CCD7DD
:100AE000010AD8B4CDD7030AD8B4CED7010AD8B4F6
:100AF000CFD70F0AD8B4D0D7010AD8B4D1D7020AB9
:100B0000D8B4D2D7070AD8B4D3D7D6D7FFFF0001BD
:100B1000D905D8B49AD0020ED919D8B496D0D0D06D
:100B2000FFFF010ED96F3E0E01018F6F040E6EECB8
:100B30001EF00009D8B4A4D0D9C0D8F0140E65D0E6
:100B4000FFFF010ED96F3E0E01017A6F040E6EECAD
:100B50001EF00009D8B494D0D9C0D8F0150E55D0E5
:100B6000FFFF010ED96F3E0E0101656F040E6EECA2
:100B70001EF00009D8B484D0D9C0D8F0160E45D0E4
:100B8000FFFF010ED96F3E0E0101506F040E6EEC97
:100B90001EF00009D8B474D0D9C0D8F0170E35D0E3
:100BA000FFFF020ED96F3E0E01018F6F040E6EEC37
:100BB0001EF00009D8B464D0D9C0D8F0180E25D0E2
:100BC000FFFF3E0E01017A6F020E0001D96F040E85
:100BD0006EEC1EF00009D8B453D0D9C0D8F0190E6D
:100BE0000001D96F010E536E4BD0FFFF3E0E010185
:100BF000656F020E0001D96F040E6EEC1EF0000945
:100C0000D8B43ED0D9C0D8F01B0EFFFF00011AD0D7
:100C1000FFFF3E0E0101506F020E0001D96F040E5E
:100C20006EEC1EF00009D8B42BD00001DB51D8A423
:100C300027D01C0ED96F020EDC6F22D0FFFF010EF1
:100C4000696E010EFFFFD96F1BD0FFFF6950010ACB
:100C5000D8B466D7030AD8B473D7010AD8B480D7FA
:100C6000070AD8B48DD7010AD8B49AD7030AD8B4E2
:100C7000A7D7010AD8B4B9D70F0AD8B4C9D7DED7D5
:100C8000FFFF030E6EEC1EF00009D8B402D0690617
:100C900017D0FFFF020E6EEC1EF00009D8B402D090
:100CA000692A0ED0FFFF010E6EEC1EF00009D8B4C9
:100CB00007D0000E0001D96F000EDA6F010E696EC9
:100CC000FFFF1C0E0001D919D8B404D0000EDC6F50
:100CD000000E466EFFFF8F0E886F010E896F7A0E31
:100CE0008A6F010E8B6F650E8C6F010E8D6F500E2B
:100CF0008E6F010E8F6F1EEC19F04DD6FFFF010EA7
:100D00006EEC1EF00009D8B41FD0000E0001DC6F9D
:100D1000010EF86F2C0EF76FD8C0D9F0000ED36F0C
:100D2000000ED36FFFFF070ED36501D00DD0FFFF7C
:100D3000D351010D440EF324D96E000EF420DA6E67
:100D4000000EDF6ED32BEED7FFFF0001F351EC193D
:100D5000D8B42AD0F3C0ECF0F707D8A0F807FA0E01
:100D6000F719F811D8A407D0050EDC6F000EFC6F40
:100D7000000E4A6E19D0FFFFAA0EF719F811D8A479
:100D800007D0080EDC6F000EFB6F000E496E0CD012
:100D9000FFFFF705F811D8A407D00C0EDC6F000E8A
:100DA000FA6F000EC1EC17F0FFFF0C0E0001DC61C2
:100DB00069D18F0EA16F010EA26F4F0EA36F7D0E32
:100DC000A46FF7C0A5F0F8C0A6F0BBEC3DF00001A1
:100DD000FD51B5EC1DF0B7C0CBF0B8C0CCF07A0E29
:100DE0000001A16F010EA26F660EA36F7E0EA46FAD
:100DF000CBC0A5F0CCC0A6F0BBEC3DF043D1FFFFCB
:100E0000000E0001EA6FEAC08CF00A0E98EC3DF08B
:100E1000010E466E030E000182D0FFFFFD51C46F2C
:100E2000C56BF60EC66FFF0EC76FE151C86FC96B79
:100E3000C651C827C751C923C451C85DC951800ACA
:100E4000CA6FC551800ACA59D8A041D1000E466E5A
:100E5000010E4A6E040E63D0FFFFE151FD5DD8A084
:100E600036D1000E4A6E010EFC6F050EDC6F000ECF
:100E7000F86FF90E8BD0FFFF010E466E060E4FD0B5
:100E8000FFFFFD51C46FC56BF60EC66FFF0EC76F37
:100E9000E151C86FC96BC651C827C751C923C45196
:100EA000C85DC951800ACA6FC551800ACA59D8A005
:100EB0000ED1010E496E000E466E070E30D0FFFFB8
:100EC000E151FD5DD8A003D1000E496E010EFB6F0C
:100ED000080EDC6F000EF86FA90E58D0FFFF010E50
:100EE000466E090E1CD0FFFFFD51C46FC56BF60E98
:100EF000C66FFF0EC76FE151C86FC96BC651C827D7
:100F0000C751C923C451C85DC951800ACA6FC551B0
:100F1000800ACA59D8A0DBD0000E466E0A0EFFFF29
:100F2000DC6FD5D0FFFF010EC1EC17F00001F351CB
:100F30006D18D8B406D0E705D8A403D0F3C06DF07F
:100F4000E32BFFFFE451E35DD8A006D0010EFA6F5A
:100F5000000EE36F0B0EDC6FFFFFFA51D8B403D025
:100F6000DD05D8A4B4D0FFFF0B0EDC6F000EFA6FC6
:100F7000AED0FFFF4CEC1AF0D7EC3BF0010E7A6ECE
:100F80000C0E0001DC6F000EF86F010EFFFFF76F13
:100F90009ED0FFFF8F0EA16F010EA26F9F0EA36F59
:100FA0007D0EA46FBBEC3DF00001FC05D8B404D06D
:100FB000EB0ECD6F7F0E04D0FFFFFA0ECD6F7F0ECC
:100FC000FFFFCE6F7A0EA16F010EA26F270EA36FE7
:100FD0007F0EA46FCDC0A5F0CEC0A6F0BBEC3DF057
:100FE0000001FB05D8B404D0EB0ECF6F7F0E04D008
:100FF000FFFFFA0ECF6F7F0EFFFFD06F650EA16F60
:10100000010EA26F760EA36F7E0EA46FCFC0A5F067
:10101000D0C0A6F0BBEC3DF00001FA05D8B404D076
:10102000EB0ED16F7F0E04D0FFFFFA0ED16F7F0E53
:10103000FFFFD26F500EA16F010EA26F860EA36F3D
:101040007E0EA46FD1C0A5F0D2C0A6F0BBEC3DF0DF
:101050000001F8AF3CD0CF0EF75DFF0EF859D8B0C5
:1010600036D0010EF86F2C0EF76F000ED96F000E00
:10107000DC6F010E7A6E2BD0FFFF000EDC6F000ECE
:10108000D96F25D0FFFF0001DC51020AD8B4B7D6D2
:10109000010AD8B4C2D6070AD8B4DED6010AD8B439
:1010A000EAD6030AD8B4ECD6010AD8B408D70F0A96
:1010B000D8B414D7010AD8B416D7030AD8B432D793
:1010C000010AD8B456D7070AD8B463D7D5D7FFFFDB
:1010D0001200FFFFFFFF900E0001A16F010EA26F33
:1010E000C00EA36F7F0EA46FC40EA56F010EA66F76
:1010F000BBEC3DF07B0E0001A16F010EA26FC70E8D
:10110000A36F7F0EA46FB80EA56F010EA66FBBEC88
:101110003DF00001F451D8A404D0450EC76F7E0EF7
:1011200004D0FFFFDE0EC76F7E0EFFFFC86F660E96
:10113000A16F010EA26F240EA36F7F0EA46FC7C014
:10114000A5F0C8C0A6F0BBEC3DF00001D651D8A474
:1011500052D0030E6EEC1EF00009D8B403D000018B
:10116000DA0749D0FFFF020E6EEC1EF00009D8B47A
:1011700003D00001DA2B3FD0FFFF010E6EEC1EF012
:101180000009D8B438D0000E0001F46F050E7B6E54
:10119000000EDA6F000ED76F000ED66F000EC96F0B
:1011A000000EC96FFFFF0A0EC96501D021D0FFFFF5
:1011B000C951010DC40EF324D96E010EF420DA6E6C
:1011C000DF508C6FC951140F98EC3DF00001C951EC
:1011D000010DB80EF324D96E010EF420DA6EDF5043
:1011E0008C6FC951280F98EC3DF00001C92BDAD75C
:1011F000FFFFD8C0D9F0FFFF0001D605D8A417D152
:10120000040E6EEC1EF00009D8B403D00001D72BF9
:101210000ED1FFFF010E6EEC1EF00009D8B407D10D
:10122000000E0001D76F000ED66F01D1FFFF3E0EFA
:1012300001018F6F040E6EEC1EF00009D8B403D0CC
:10124000010E0001D66FFFFF0001D651D8B4FCD0CB
:101250008F0E806F010E816FD751060F826FD751AD
:10126000060F836FD8EC3CF00001D751C56FC66BF9
:10127000020EC527000EC623C65104E10D0EC55D42
:10128000D8A004D0000ED76F000ED66FFFFF030E5C
:101290006EEC1EF00009D8B40AD00001D751010D40
:1012A000C40EF324D96E010EF420DA6EDF2AFFFF9C
:1012B000020E6EEC1EF00009D8B40AD00001D7511E
:1012C000010DC40EF324D96E010EF420DA6EDF0690
:1012D000FFFF0001D751010DC40EF324D96E010E9A
:1012E000F420DA6E3A0EDF600BD0D751010DC40E38
:1012F000F324D96E010EF420DA6E300EDF60A4D034
:10130000FFFFD751010DC40EF324D96E010E71D029
:10131000FFFF3E0E01017A6F040E6EEC1EF0000915
:10132000D8B403D0010E0001D66FFFFF0001D651E3
:10133000D8B48AD07A0E806F010E816FD751060F14
:10134000826FD751060F836FD8EC3CF00001D75164
:10135000C56FC66B020EC527000EC623C65104E139
:101360000D0EC55DD8A004D0000ED76F000ED66F4D
:10137000FFFF030E6EEC1EF00009D8B40AD0000186
:10138000D751010DB80EF324D96E010EF420DA6E98
:10139000DF2AFFFF020E6EEC1EF00009D8B40AD05F
:1013A0000001D751010DB80EF324D96E010EF420BF
:1013B000DA6EDF06FFFF0001D751010DB80EF324EE
:1013C000D96E010EF420DA6E3A0EDF600BD0D751E1
:1013D000010DB80EF324D96E010EF420DA6E300E32
:1013E000DF6032D0FFFFD751010DB80EF324D96E64
:1013F000010EFFFFF420DA6E300EDF6E25D0FFFF06
:101400003E0E0101656F040E6EEC1EF00009D8B4AB
:101410001BD0780E0001FF19D8B416D0010EF46F5E
:10142000000EF66F11D0FFFF000EDA6F0DD0FFFF38
:101430000001DA51000AD8B4F9D6010AD8B468D745
:10144000030AD8B4DCD7EFD7FFFF0001F451D8A4CA
:1014500059EC0BF01200FFFFFFFF0001E151B5EC6A
:101460001DF0B7C0C4F0B8C0C5F08F0E0001A16F69
:10147000010EA26F540EA36F7F0EA46FC4C0A5F01F
:10148000C5C0A6F0BBEC3DF00001E051B5EC1DF08D
:10149000B7C0C4F0B8C0C5F07A0E0001A16F010E4C
:1014A000A26F280EA36F7F0EA46FC4C0A5F0C5C0A5
:1014B000A6F0BBEC3DF00001DF51B5EC1DF0B7C06C
:1014C000C4F0B8C0C5F0650E0001A16F010EA26F97
:1014D000770EA36F7E0EA46FC4C0A5F0C5C0A6F0A2
:1014E000BBEC3DF00001DE51B5EC1DF0B7C0C4F01F
:1014F000B8C0C5F0500E0001A16F010EA26F870E9B
:10150000A36F7E0EA46FC4C0A5F0C5C0A6F0BBEC4F
:101510003DF0010E6EEC1EF00009D8B419D0E0C009
:101520008CF0000E98EC3DF0DFC08CF0010E98ECD2
:101530003DF0DEC08CF0020E98EC3DF0E1C08CF086
:10154000040E98EC3DF0000E0001DA6FD8C0D9F01F
:10155000FFFF040E6EEC1EF00009D8B497D0000116
:10156000DA2B94D0FFFF8F0E806F010E816F080E73
:10157000826F0F0E836FD8EC3CF0030E6EEC1EF002
:101580000009D8B402D00001E12BFFFF020E6EEC7F
:101590001EF00009D8B402D00001E107FFFF630E7E
:1015A0000001E16583D0000EE16F80D0FFFF7A0E6D
:1015B000806F010E816F080E826F0F0E836FD8EC63
:1015C0003CF0030E6EEC1EF00009D8B402D000010E
:1015D000E02BFFFF020E6EEC1EF00009D8B402D023
:1015E0000001E007FFFF630E0001E0655FD0000E21
:1015F000E06F5CD0FFFF650E806F010E816F0C0EF7
:10160000826F120E836FD8EC3CF0030E6EEC1EF06E
:101610000009D8B402D00001DF2BFFFF020E6EECF0
:101620001EF00009D8B402D00001DF07FFFF630EEF
:101630000001DF653BD0000EDF6F38D0FFFF500E9A
:10164000806F010E816F0C0E826F120E836FD8ECCB
:101650003CF0030E6EEC1EF00009D8B402D000017D
:10166000DE2BFFFF020E6EEC1EF00009D8B402D094
:101670000001DE07FFFF630E0001DE6517D0000EDC
:10168000DE6F14D0FFFF000EDA6F10D0FFFF0001F5
:10169000DA51000AD8B466D7010AD8B487D7030A4A
:1016A000D8B4A8D7010AD8B4C9D7ECD7FFFF120025
:1016B000FFFFFFFF06D1FFFFF2EC3BF0E60E00015B
:1016C000A16F7F0EA26FE1EC1FF0514A522A050E66
:1016D0000001F56F11D1FFFFFA0E936F7F0E946F2B
:1016E000F6EC3CF00009D8B40ED0F2EC3BF0EB0E77
:1016F0000001A16F7E0EA26FE1EC1FF0514A522A49
:10170000050E0001F56FFFFF0001F551D8A4F4D0DC
:10171000000E526E000E516E1A0E806F000E816F19
:10172000ABEC3AF0E9D0FFFFFA0E0001936F7F0EA9
:10173000946FF6EC3CF00009D8B420D0F2EC3BF00A
:101740000001F651D8B404D0B80EBD6F010E04D01C
:10175000FFFFC40EBD6F010EFFFFBE6FFE0EA16F37
:101760007D0EA26FBDC0A3F0BEC0A4F0E1EC1FF0DF
:10177000050E0001F56F514A522ABED0FFFF00014D
:10178000F551D8A4B9D097D0FFFFFD0E936F7F0E0F
:10179000946FF6EC3CF00009D8B4F0D7F2EC3BF0D3
:1017A0000001FA05D8B404D0DA0EBF6F7F0E04D062
:1017B000FFFFFA0EBF6F7F0EFFFFC06FFB05D8B4AF
:1017C00004D0DA0EC16F7F0E04D0FFFFFA0EC16F96
:1017D0007F0EFFFFC26FFC05D8B404D0DA0EC36FD2
:1017E0007F0E04D0FFFFFA0EC36F7F0EFFFFC46FA2
:1017F000410EA16F7C0EA26FF1C0A3F0A46BF2C0EA
:10180000A5F0A66BF3C0A7F0A86BF0C0A9F0AA6B77
:10181000EFC0ABF0AC6BEEC0ADF0AE6BC3C0AFF0E1
:10182000C4C0B0F0C1C0B1F0C2C0B2F0BFC0B3F02C
:10183000C0C0B4F0E1EC1FF0000E0001816FC80ED3
:10184000806FBCEC3BF01A0E0001806F000E816FC0
:10185000ABEC3AF0514A522A1E0E0001F56F8ED7BA
:10186000FFFFFA0E936F7F0E946FF6EC3CF00009C9
:10187000D8B411D00001F651D8A403D0010EF66FF0
:1018800005D0FFFF000EF66F000EF46FFFFF000E95
:10189000526E000E516EFFFFE00E0001936F7F0E3F
:1018A000946FF6EC3CF00009D8B468D7000E526E85
:1018B000000E516E63D7FFFF000E526E000E516E88
:1018C0001BD0FFFF51C0BBF052C0BCF00001BC51A7
:1018D000000AD8A4F0D7BB51000AD8B4ECD6010A4C
:1018E000D8B4F9D6030AD8B41ED7010AD8B44CD755
:1018F000070AD8B4B5D7DFD7FFFF1200FFFFFFFFFD
:101900008F0E0001A16F010EA26F070EA36F7D0E57
:10191000A46F5BC0A5F0A66B5AC0A7F0A86B59C016
:10192000A9F0AA6B58C0ABF0AC6B57C0ADF0AE6B72
:10193000BBEC3DF05604D8B405D0EB0E0001BC6FF3
:101940007F0E05D0FFFFFA0E0001BC6F7F0EFFFF78
:10195000BD6F7A0EA16F010EA26F870EA36F7F0E6F
:10196000A46FBCC0A5F0BDC0A6F0BBEC3DF0880ED6
:101970000001A16F010EA26F490EA36F7F0EA46F2D
:10198000010ED425A56FA66B000EA623D5C0A7F027
:10199000A86BBBEC3DF05504D8B405D0EB0E0001AC
:1019A000BE6F7F0E05D0FFFFFA0E0001BE6F7F0EE7
:1019B000FFFFBF6F650EA16F010EA26FC20EA36F76
:1019C0007E0EA46FBEC0A5F0BFC0A6F0BBEC3DF07C
:1019D0005404D8B405D0EB0E0001C06F7F0E05D0C3
:1019E000FFFFFA0E0001C06F7F0EFFFFC16F500EA8
:1019F000A16F010EA26FD00EA36F7E0EA46FC0C0A8
:101A0000A5F0C1C0A6F0BBEC3DF0010E6EEC1EF0DF
:101A10000009D8B405D0000E0001DA6FD8C0D9F0A3
:101A2000FFFF040E6EEC1EF00009D8A44CEC1AF077
:101A3000020E6EEC1EF00009D8B40BD0080E0001A7
:101A4000F95F3C0EF96102D03C0EF96FFFFF010E09
:101A5000536EFFFF030E6EEC1EF00009D8B419D0D0
:101A60000001D551B76FB86BD451B96FBA6B010E85
:101A7000B927000EBA23B751B95DBA51800ABB6FBE
:101A8000B851800ABB59D8B05AD0080EF927010EB8
:101A9000536EFFFF5304D8A452D00E0E66EC1FF015
:101AA0000001C26FC40EC225806F816BFF0E8123BF
:101AB000000E836F080E826F06EC1CF0000180514F
:101AC000D56FC40EF925806F816BFF0E8123000E48
:101AD000836F080E826F06EC1CF000018051D46FFA
:101AE000F95166EC1FF05B6E0001F92966EC1FF0FE
:101AF0005A6E0001F951020F66EC1FF0596E000199
:101B0000F951030F66EC1FF0586E0001F951040FF4
:101B100066EC1FF0576E0001F951050F66EC1FF0DF
:101B2000566E0001F951060F66EC1FF0556E00016C
:101B3000F951070F66EC1FF0546E000E536EFFFF55
:101B40001200FFFFFFFF8F0E0001A16F010EA26FB9
:101B5000D40EA36F7F0EA46FBBEC3DF07A0E000194
:101B6000A16F010EA26FF80EA36F7C0EA46F76C05A
:101B7000A5F0A66B77C0A7F0A86B78C0A9F0AA6BF8
:101B8000BBEC3DF09A0E0001A16F010EA26FCE0ECC
:101B9000A36F7F0EA46FBBEC3DF0850E0001A16F1B
:101BA000010EA26F960EA36F7E0EA46F75C0A5F0F6
:101BB000A66B74C0A7F0A86B73C0A9F0AA6BBBECAE
:101BC0003DF0040E6EEC1EF00009D8B403D079820B
:101BD0000001DA2BFFFF010E6EEC1EF00009D8B4F5
:101BE000AFD07992000E0001DA6F720E8C6F000E8A
:101BF0008D6FBDEC15F0D8C0D9F00001F22BA0D04C
:101C0000FFFF7A0E806F010E816F010E826F020E50
:101C1000836FD8EC3CF0030E6EEC1EF00009D8A4E4
:101C2000762A020E6EEC1EF00009D8B49FD076061C
:101C30009DD0FFFF7A0E0001806F010E816F040EB0
:101C4000826F050E836FD8EC3CF0030E6EEC1EF035
:101C50000009D8A4772A020E6EEC1EF00009D8B451
:101C600085D0770683D0FFFF7A0E0001806F010ECA
:101C7000816F070E826F080E836FD8EC3CF0030E65
:101C80006EEC1EF00009D8A4782A020E6EEC1EF04D
:101C90000009D8B46BD0780669D0FFFF7A0E000136
:101CA000806F010E816F0C0E826F0D0E836FD8EC6A
:101CB0003CF0030E6EEC1EF00009D8A4752A020E4B
:101CC0006EEC1EF00009D8B451D075064FD0FFFF5E
:101CD0007A0E0001806F010E816F0F0E826F100E61
:101CE000836FD8EC3CF0030E6EEC1EF00009D8A414
:101CF000742A020E6EEC1EF00009D8B437D07406B8
:101D000035D0FFFF7A0E0001806F010E816F120E39
:101D1000826F130E836FD8EC3CF0030E6EEC1EF056
:101D20000009D8A4732A020E6EEC1EF00009D8B484
:101D30001DD073061BD0FFFF010E0001DA6F16D015
:101D4000FFFF0001DA51010AD8B45AD7030AD8B408
:101D500070D7010AD8B487D7070AD8B49ED7010A2A
:101D6000D8B4B5D7030AD8B4CCD7E5D7FFFFBAECBF
:101D70001FF01200FFFFFFFF000E2A6E000E2E6EF6
:101D8000000E2F6E000E306E000E2B6E000E2C6EAD
:101D9000000E2D6E000E2A6EFFFF080E2A6401D081
:101DA0002DD0FFFF2EC01BF02FC01CF030C01DF047
:101DB000280E0F6EA00E106E3B0E116E1BEC3BF04A
:101DC00001C009F002C00AF007EC3BF009C00CF0BA
:101DD0000AC00DF00BC00EF0CFEC16F00CC01EF0D8
:101DE0000DC01FF00EC020F0C7EC0FF01BC02EF08E
:101DF0001CC02FF01DC030F02A2ACED7FFFF2EC006
:101E00001BF02FC01CF030C01DF0000E1E6E200E07
:101E10001F6E410E206EABEC18F01BC02EF01CC0E4
:101E20002FF01DC030F04CC01BF04DC01CF04EC058
:101E30001DF02EC01EF02FC01FF030C020F0C7ECE8
:101E40000FF01BC04CF01CC04DF01DC04EF0702AAE
:101E50002EC001F02FC002F030C003F0CD0E046E92
:101E6000CC0E056E3E0E066E6BEC1BF0D8A010D0AB
:101E7000000E016E900E026E400E036E2EC004F036
:101E80002FC005F030C006F06BEC1BF0D8B003D0CB
:101E9000FFFF630E76D0FFFF050E706475D0000E55
:101EA000706E4CC01BF04DC01CF04EC01DF0000EFB
:101EB0001E6EC00E1F6E400E206EABEC18F01BC0E5
:101EC0002EF01CC02FF01DC030F0000E4C6E000E26
:101ED0004D6E000E4E6E2EC01BF02FC01CF030C099
:101EE0001DF0000E1E6E000E1F6EBF0E206EC7ECA2
:101EF0000FF01BC02BF01CC02CF01DC02DF0000EED
:101F00000F6E200E106E410E116E2BC00CF02CC007
:101F10000DF02DC00EF0CFEC16F00CC01BF00DC074
:101F20001CF00EC01DF0000E1E6E800E1F6E400EC7
:101F3000206EABEC18F01BC02BF01CC02CF01DC0A9
:101F40002DF02DAE06D0000E2B6E000E2C6E000E66
:101F50002D6EFFFF000E0F6E200E106E410E116EE3
:101F60002BC00CF02CC00DF02DC00EF0CFEC16F0F5
:101F70000CC01BF00DC01CF00EC01DF037EC18F0AB
:101F80001B50FFFF0001FD6FFFFF1200FFFFFFFF6F
:101F90001DC021F0226A236A1C34213601E322800D
:101FA0002150266E20C021F0226A236A1F34213678
:101FB00001E322802150256E2650D8B40BD0255045
:101FC000265CD8B00FD0265000082524216E180EAC
:101FD000216408D0FFFF1EC01BF01FC01CF020C0F2
:101FE0001DF0BAD0FFFF2550D8B40BD02650255C89
:101FF000D8B00FD0255000082624216E180E216479
:1020000008D0FFFF1BC01BF01CC01CF01DC01DF042
:10201000A3D0FFFF060E246E1DBE248E20BE248C8E
:102020001C8EFF0E1B16FF0E1C16000E1D161F8E9B
:10203000FF0E1E16FF0E1F16000E20162550265CE2
:10204000D8B01ED0FFFFD8901E361F36203625068A
:1020500026502518D8B40ED0240624C021F0070E2F
:102060002116D8B407D0EED7FFFFD8901D321C320E
:102070001B32262AFFFF25502618D8B423D0F4D7C8
:10208000FFFF2650255CD8B01DD0FFFFD8901B362F
:102090001C361D36260626502518D8B40ED0240628
:1020A00024C021F0070E2116D8B407D0EED7FFFFC9
:1020B000D89020321F321E32252AFFFF25502618C5
:1020C000D8A4F5D7FFFF24AE0CD0FF0E1B1AFF0ECD
:1020D0001C1AFF0E1D1A010E1B26000E1C22000EDC
:1020E0001D22FFFF24AC0CD0FF0E1E1AFF0E1F1A7C
:1020F000FF0E201A010E1E26000E1F22000E2022A7
:10210000FFFF000E246E1B501E261C501F221D5068
:10211000202220AE0ED0FF0E1E1AFF0E1F1AFF0E39
:10212000201A010E1E26000E1F22000E2022010E74
:10213000246EFFFF1EC001F01FC002F020C003F09C
:1021400026C004F024C005F0AEEC1AF001C01BF06C
:1021500002C01CF003C01DF0FFFF1200FFFFFFFFD5
:10216000010E01018F6FFFC090F1050EA26F82B0CA
:102170000BD08F0E0001806F010E816F130E826FE6
:10218000140E836FD8EC3CF0FFFF630E0001FD19C5
:10219000D8A40DD07A0EA16F010EA26FB20EA36F5C
:1021A0007D0EA46FBBEC3DF0D7EC3BF018D0FFFFE9
:1021B0000001FD51B5EC1DF0B7C0C4F0B8C0C5F0CA
:1021C000670E0001A16F010EA26F670EA36F7E0E56
:1021D000A46FC4C0A5F0C5C0A6F0BBEC3DF0FFFFE6
:1021E0000001FA51D8A402D0010E0CD0FFFF0A0E54
:1021F000FC19D8A402D0060E05D0FFFFFB51D8A4CD
:1022000003D0050EFFFFDD6FFFFFDD51D8A403D023
:10221000DB05D8A424D0FFFF500EA16F010EA26FE2
:10222000EB0EA36F7D0EA46FBBEC3DF0010E6EECC8
:102230001EF00009D8B413D0000E0001DB6F010EB0
:10224000FA6F010EFC6F010EFB6F000EE56F000EC2
:102250007B6E000EE66F000EDD6FD7EC3BF0FFFFEC
:102260000001DB51D8B40AD0650EA16F010EA26F38
:102270003B0EA36F7D0EA46FBBEC3DF0FFFF500E35
:102280000001A16F010EA26FE80EA36F7C0EA46F78
:10229000F1C0A5F0A66BF2C0A7F0A86BF3C0A9F03F
:1022A000AA6BF0C0ABF0AC6BEFC0ADF0AE6BEEC0A4
:1022B000AFF0B06BBBEC3DF0040E6EEC1EF000090D
:1022C000D8B404D00001D92B010E696EFFFF1200B3
:1022D000FFFFFFFF8F0E0001A16F010EA26FD80E4E
:1022E000A36F7D0EA46FBBEC3DF07A0E0001A16FD1
:1022F000010EA26FB40EA36F7E0EA46FBBEC3DF077
:102300008A0E0001A16F010EA26FF50EA36F7F0E62
:10231000A46FE8C0A5F0A66BBBEC3DF0650E000114
:10232000A16F010EA26F030EA36F7F0EA46FBBEC13
:102330003DF0750E0001A16F010EA26FF50EA36FA7
:102340007F0EA46FE4C0A5F0A66BBBEC3DF0500E71
:102350000001A16F010EA26FC50EA36F7D0EA46FC9
:102360004FC0A5F050C0A6F0BBEC3DF0040E6EECE3
:102370001EF00009D8B402D00001DA2BFFFF010ED5
:102380006EEC1EF00009D8B44ED0E8C08CF0070EF9
:1023900098EC3DF0E4C08CF00D0E98EC3DF0000E92
:1023A0000001DA6FD8C0D9F03ED0FFFF7A0E806FFF
:1023B000010E816F100E826F140E836FD8EC3CF00B
:1023C000030E6EEC1EF00009D8B402D00001E82B19
:1023D000FFFF020E6EEC1EF00009D8B42ED00001F3
:1023E000E8072BD0FFFF650E806F010E816F100E86
:1023F000826F140E836FD8EC3CF0030E6EEC1EF06F
:102400000009D8B402D00001E42BFFFF020E6EECED
:102410001EF00009D8B411D00001E4070ED0FFFF70
:10242000000EDA6F0AD0FFFF0001DA51000AD8B4BB
:10243000BCD7010AD8B4D6D7F2D7FFFF1200FFFFEE
:10244000FFFF0001FE51D8A4ACD0F451D8B498D00D
:10245000A8D0FFFFF2EC3BF0910E0001A16F7F0EC0
:10246000A26FE1EC1FF00A0E0001F56F000E526E34
:10247000010E83D0FFFFF551D8A40DD0000E526E8F
:10248000000E516E1A0E806F000E816FABEC3AF0A9
:10249000780E0001FF6FFFFFB90E936F7F0E946FF0
:1024A000F6EC3CF00009D8B47CD0B90E0001B76F4F
:1024B0007F0EB86F2C0EB96FA1EC14F0B7C0C1F04D
:1024C000B8C0C2F04BEC17F0C1C0CAF0C2C0CBF02C
:1024D0000001CBBF06D0CB5108E10A0ECA5DD8B0CF
:1024E00003D0FFFF200E3BD0FFFFCBBF11D0CB515D
:1024F00004E10A0ECA5DD8A00BD0CBBF06D0CB51E9
:1025000008E10F0ECA5DD8B003D0FFFF020E27D03E
:10251000FFFFCBBF11D0CB5104E1100ECA5DD8A094
:102520000BD0CBBF06D0CB5108E1140ECA5DD8B09A
:1025300003D0FFFF030E13D0FFFFCBBF12D0CB5150
:1025400004E1140ECA5DD8A00CD0CBBF06D0CB518D
:1025500009E11F0ECA5DD8B004D0FFFF040EFFFFD3
:10256000FF6FFFFF000E526E000E516E0F0EFE6FDA
:1025700018D0FFFF000E526E000EFFFF516E11D0FB
:10258000FFFF51C0C8F052C0C9F0C951000AD8A419
:10259000F0D7C851000AD8B45CD7010AD8B46AD7BA
:1025A000E8D7FFFF1200FFFFFFFF8F0E0001A16FB2
:1025B000010EA26F260EA36F7D0EA46FEA51B76FB6
:1025C000B86BB71FB81FB74BB82BEB51B725A56F2A
:1025D000000EB821A66FBBEC3DF07A0E0001A16F92
:1025E000010EA26F630EA36F7D0EA46FEBC0A5F06A
:1025F000A66BBBEC3DF0650E0001A16F010EA26F52
:10260000770EA36F7D0EA46FE9C0A5F0A66BBBEC9F
:102610003DF0010E6EEC1EF00009D8B40CD0EBC0FA
:102620008CF0060E98EC3DF0E9C08CF00B0E98ECA7
:102630003DF0D8C0D9F0FFFF040E6EEC1EF000098B
:10264000D8B44AD00001DA2B47D0FFFF7A0E806F52
:10265000010E816F0B0E826F0E0E836FD8EC3CF073
:10266000030E6EEC1EF00009D8B402D00001EB2B73
:10267000FFFF020E6EEC1EF00009D8B437D0000147
:10268000EB0734D0FFFF650E806F010E816F090EDE
:10269000826F0B0E836FD8EC3CF0030E6EEC1EF0D5
:1026A0000009D8B402D00001E92BFFFF020E6EEC46
:1026B0001EF00009D8B402D00001E907FFFF180E90
:1026C0000001E96101D012D0FFFF000EE96F0ED0CA
:1026D000FFFF000EDA6F0AD0FFFF0001DA51000A97
:1026E000D8B4B3D7010AD8B4CDD7F2D7FFFF1200C0
:1026F000FFFFFFFF8BEC3AF0000E00018B6FD00E56
:102700008A6FA4EC3AF0000E00018B6F000E8A6F06
:10271000A4EC3AF097EC3AF0000E00018B6FD10E6A
:102720008A6FA4EC3AF0000120EE01F08C51D9261A
:102730008D51DA22000E826F010E816F45EC3CF064
:1027400000018151E9EC3AF0DF6E000120EE02F069
:102750008C51D9268D51DA22000E826F010E816FC5
:1027600045EC3CF000018151E9EC3AF0DF6E0001EC
:1027700020EE03F08C51D9268D51DA22000E826FA3
:10278000010E816F45EC3CF000018151E9EC3AF01B
:10279000DF6E000E0001826F010E816F45EC3CF090
:1027A00000018151E9EC3AF08CC0D9FF8DC0DAFF0D
:1027B000DF6E000120EE04F08C51D9268D51DA2213
:1027C000000E826F010E816F45EC3CF000018151DB
:1027D000E9EC3AF0DF6E000120EE05F08C51D926CD
:1027E0008D51DA22000E826F010E816F45EC3CF0B4
:1027F00000018151E9EC3AF0DF6E000120EE06F0B5
:102800008C51D9268D51DA22000E826F000E816F15
:1028100045EC3CF000018151E9EC3AF0DF6E91ECBF
:102820003AF01200FFFFFFFF000E0001956F000E4F
:10283000946F0C0E66EC1FF00001946F140E941947
:10284000D8B416D0000E956FFFFF630E956501D0CA
:1028500009D0FFFF000E8C6F955198EC3DF0000100
:10286000952BF2D7FFFF140E8C6F0C0E98EC3DF0F9
:10287000FFFF000E66EC1FF00001E06F010E66EC3A
:102880001FF00001DF6F020E66EC1FF00001DE6F2B
:10289000080E29EC3CF08EC04FF08FC050F0040EB3
:1028A00066EC1FF00001E16F060E66EC1FF0000100
:1028B000EB6F070E66EC1FF00001E86F0A0E66EC86
:1028C0001FF00001EA6F0B0E66EC1FF00001E96FCC
:1028D0000D0E66EC1FF00001E46F000E956FFFFF18
:1028E0000A0E956501D011D0FFFF9551010DC40E60
:1028F000F324D96E010EF420DA6E9551140F66ECB4
:102900001FF0DF6E0001952BEAD7FFFF000E956FD9
:10291000FFFF0A0E956501D011D0FFFF9551010D03
:10292000B80EF324D96E010EF420DA6E9551280FFB
:1029300066EC1FF0DF6E0001952BEAD7FFFF120057
:10294000FFFFFFFFA40E0001806F010E816F000EDC
:10295000836F000E826F000E856F140E846F7FEC04
:102960003CF0B7C080F0B8C081F00BEC1FF080C025
:10297000BCF081C0BDF0140E00018F6F010E906F8E
:10298000B7C091F0B8C092F053EC1CF08FC0BFF00C
:1029900090C0C0F00001BF51C011D8B458D0000E93
:1029A000BE6FBCC0BEF042D0FFFFBE51010DF35060
:1029B000BF25D96EF450C021DA6EB951DE18D8A403
:1029C00017D0A40EA16F010EA26FF00EA36F7F0EA1
:1029D000A46FA40EA56F010EA66F000EA86F000EC7
:1029E000A76FBBEC3DF0A40E0001B76F010E33D012
:1029F000FFFFA40EA16F010EA26FF00EA36F7F0E5A
:102A0000A46FA40EA56F010EA66FBE51010DF35069
:102A1000BF25D96EF450C021DA6EDF50BA6FBA51BB
:102A2000A76FA86BBBEC3DF00001BE2BFFFFBFC042
:102A300080F0C0C081F00BEC1FF00001BE51BA6FF6
:102A4000BB6B8051BA5D8151BB59D8A0ADD7FFFF98
:102A5000000EB76F000EFFFFB86F1200FFFFFFFF01
:102A60000001FE51D8B405D0FE07FEC009F00A6A85
:102A700005D0FFFF000E0A6E000E096EFFFF09C0B1
:102A8000FEF0F551D8B405D0F507F5C00BF00C6A8F
:102A900005D0FFFF000E0C6E000E0B6EFFFF0BC08B
:102AA000F5F079B267D06A2A640E6A6402D0640EC7
:102AB0006A6EFFFFF32B3B0EF36514D0000EF36F2D
:102AC000F22B3B0EF2650ED0000EF26FF12B170EBB
:102AD000F16508D0000EF16FEA2BEAC004F00A0E8F
:102AE0009CEC3CF0FFFF0001F2517418D8B442D0C6
:102AF000E751D8B409D04F4A502A4FC006F050C011
:102B000007F0080EF6EC3AF0FFFF7B2A060E7B6416
:102B100002D0060E7B6EFFFF720E066E000E076E71
:102B200046EC16F03C0E736418D03C0E746415D05D
:102B3000180E756412D0020E0001DD6F88EC3BF0B8
:102B4000F3C073F0F2C074F0F1C075F0F0C076F02D
:102B5000EFC077F0EEC078F00DD0FFFF73C0F3F058
:102B600074C0F2F075C0F1F076C0F0F077C0EFF00D
:102B700078C0EEF0FFFF1200FFFFFFFF8BEC3AF092
:102B8000000E00018B6FD00E8A6FA4EC3AF0000E9D
:102B900000018B6F000E8A6FA4EC3AF0000120EE6A
:102BA00001F08C51D9268D51DA22DF5055EC3DF0E1
:102BB00000018E6F8E518A6F8B6BA4EC3AF000018E
:102BC00020EE02F08C51D9268D51DA22DF5055ECDF
:102BD0003DF000018E6F8E518A6F8B6BA4EC3AF042
:102BE000000120EE03F08C51D9268D51DA22DF50FE
:102BF00055EC3DF000018E6F8E518A6F8B6BA4EC0B
:102C00003AF08CC0D9FF8DC0DAFFDF5055EC3DF0B3
:102C100000018E6F8E518A6F8B6BA4EC3AF000012D
:102C200020EE04F08C51D9268D51DA22DF5055EC7C
:102C30003DF000018E6F8E518A6F8B6BA4EC3AF0E1
:102C4000000120EE05F08C51D9268D51DA22DF509B
:102C500055EC3DF000018E6F8E518A6F8B6BA4ECAA
:102C60003AF0000120EE06F08C51D9268D51DA227F
:102C7000DF5055EC3DF000018E6F8E518A6F8B6BEB
:102C8000A4EC3AF091EC3AF01200FFFFFFFF79EC70
:102C90003AF0000E036ED00E026E9DEC3AF0000E7C
:102CA000036E000E026E9DEC3AF085EC3AF0000ED9
:102CB000036ED10E026E9DEC3AF020EE01F006504C
:102CC000D9260750DA22000E036E010E026EA1EC27
:102CD0003BF00250C5EC3AF0DF6E20EE02F00650F9
:102CE000D9260750DA22000E036E010E026EA1EC07
:102CF0003BF00250C5EC3AF0DF6E20EE03F00650D8
:102D0000D9260750DA22000E036E010E026EA1ECE6
:102D10003BF00250C5EC3AF0DF6E000E036E010E80
:102D2000026EA1EC3BF00250C5EC3AF006C0D9FFB0
:102D300007C0DAFFDF6E20EE04F00650D9260750F8
:102D4000DA22000E036E010E026EA1EC3BF002507F
:102D5000C5EC3AF0DF6E20EE05F00650D92607509C
:102D6000DA22000E036E010E026EA1EC3BF002505F
:102D7000C5EC3AF0DF6E20EE06F00650D92607507B
:102D8000DA22000E036E000E026EA1EC3BF0025040
:102D9000C5EC3AF0DF6E7FEC3AF01200FFFFFFFF68
:102DA0000EC012F0136A146A0D34123601E3138058
:102DB0001250156E1550D8B40DD011C012F0136A10
:102DC000146A1034123601E3138012501A6E1A502E
:102DD000D8A408D0FFFF000E0C6E000E0D6E000E82
:102DE0000E6E56D0FFFF1A507B0F15260EC01AF03C
:102DF00011501A1A800E1A160D8E108EFF0E0F1615
:102E0000FF0E1016000E1116000E166E000E176E35
:102E1000000E186E070E196EFFFF0CA006D00F50A3
:102E200016261050172211501822FFFFD8900E328C
:102E30000D320C32D8900F3610361136192EECD7D1
:102E4000090E196EFFFF0CA006D00F501626105069
:102E5000172211501822FFFFD8900E320D320C327B
:102E6000D890183217321632192EECD716C001F04E
:102E700017C002F018C003F015C004F01AC005F026
:102E8000AEEC1AF001C00CF002C00DF003C00EF061
:102E9000FFFF1200FFFFFFFF04D0FFFF0001C14B47
:102EA000C22BFFFFC1C0D9FFC2C0DAFF200EDE185F
:102EB000D8B4F3D7C1C0D9FFC2C0DAFF090EDE18FB
:102EC000D8B4EBD7000E0001C76F000EC66F000E1E
:102ED000C56FC1C0D9FFC2C0DAFF2D0EDE18D8A45D
:102EE00002D0C52B28D0FFFFC1C0D9FFC2C0DAFF76
:102EF0002B0EDE18D8A422D01ED0FFFFC6C080F053
:102F0000C7C081F0000E0001836F0A0E826F59EC7A
:102F10003BF0C1C0D9FFC2C0DAFFDF500001C36F70
:102F2000C46B8051C3278151C423D00EC325C66F03
:102F3000FF0EC421C76FFFFFC14BC22BFFFFC1C0F3
:102F4000D9FFC2C0DAFFDF502FEC3BF0D8B0D5D7A5
:102F50000001C551D8B40DD0C6C0C3F0C7C0C4F07D
:102F6000C31FC41FC34BC42BC3C0C1F0C4C0C2F035
:102F700005D0FFFFC6C0C1F0C7C0C2F0FFFF1200FE
:102F8000FFFFFFFF0001836F00018305D8A41AD063
:102F9000E751D8A417D0F351ED19D8B413D0F3C02A
:102FA000EDF0E52BE62B80BA0DD0020E816FBC0E42
:102FB000806FBCEC3BF0010E0001E76F000EE66F86
:102FC000000E486EFFFFE751D8A415D0FA05D8A42B
:102FD00012D0010E476E080EE66102D0010E05D038
:102FE000FFFF0D0EE66104D0000EFFFF486E03D018
:102FF000FFFF000EE66FFFFFE551E85DD8B00CD093
:10300000000EE56F010EDD6F000EFA6F000EE76F28
:10301000000E476E000E486EFFFF8351D8A40AD001
:10302000000EE76F000E486E000E476E000EE66F52
:10303000000EE56FFFFFFA51D8A408D0000E476ECE
:10304000000E486E010EDD6F000EE66FFFFFE70514
:10305000D8A40AD080BA05D0000E486E000EE56FE5
:1030600003D0FFFF000EE76FFFFF1200FFFFFFFF1F
:103070001DC01FF0206A216A1C341F3601E3208026
:103080001F50296E2950D8B439D0170E1F6E1BC09F
:1030900020F01CC021F01DC022F01F28236E05D097
:1030A000FFFFD890223221322032FFFF232EF8D7A3
:1030B0002050246E1C8EFF0E1B16FF0E1C16000ED9
:1030C0001D161B50256E1C50266E1D50276E286A3B
:1030D0008E0E295E29AE0ED02950800A8F0FD8A0FF
:1030E0000DD0FFFFD8902832273226322532293ED4
:1030F000F8D719D0FFFF170E296411D0FFFF000E7B
:103100001B6E000E1C6E000E1D6E000E1E6E20D07B
:10311000FFFFD89025362636273628362906FFFFAA
:103120002950D8A4F5D7FFFF2450D8B408D0281EC2
:10313000271E261E256C000E262227222822FFFF8E
:1031400025C01BF026C01CF027C01DF028C01EF0B3
:10315000FFFF1200FFFFFFFF1DC021F0226A236A5C
:103160001C34213601E322802150286E2850D8B427
:103170000DD020C021F0226A236A1F34213601E3DA
:1031800022802150296E2950D8A408D0FFFF000EBC
:103190001B6E000E1C6E000E1D6E4DD0FFFF000E4C
:1031A000256E000E266E000E276E2950890F285EB0
:1031B0001DC029F02050291A800E29161C8EFF0EE2
:1031C0001B16FF0E1C16000E1D161F8EFF0E1E1660
:1031D000FF0E1F16000E2016180E246EFFFFD8904B
:1031E0002536263627361E501B5C1F501C58205093
:1031F0001D58D8A007D01E501B5E1F501C5A2050CF
:103200001D5A2580FFFFD8901B361C361D36242EF4
:10321000E5D725C001F026C002F027C003F028C082
:1032200004F029C005F0AEEC1AF001C01BF002C09A
:103230001CF003C01DF0FFFF1200FFFFFFFF010E97
:103240000001836F010EEAEC19F088C084F089C098
:1032500085F062EC3CF0010E0001836F020EEAEC97
:1032600019F08AC084F08BC085F062EC3CF0000E4F
:103270000001836F030EEAEC19F08CC084F08DC05E
:1032800085F062EC3CF0000E0001836F040EEAEC66
:1032900019F08EC084F08FC085F062EC3CF0000E17
:1032A0000001906F000E906FFFFF130E906501D02C
:1032B0002BD0FFFF9051010DF3508825D96EF450AB
:1032C0008921DA6E200EDF6E9051010DF3508A25B0
:1032D000D96EF4508B21DA6E200EDF6E9051010D05
:1032E000F3508C25D96EF4508D21DA6E200EDF6EEE
:1032F0009051010DF3508E25D96EF4508F21DA6E66
:10330000200EDF6E902BD0D7FFFF1200FFFFFFFFD4
:10331000070EF66E7C0EF76E20EE87F02F0E09007A
:10332000FFFFF5CFDEFFE806FAE2040E43EC3BF0C8
:10333000000E43EC3BF0320EFFFFE82EFDD7000EEF
:103340000001BB6F000EBA6F000EB96F000EBB6FAD
:10335000FFFF040EBB6501D03AD0FFFFB905D8A42A
:1033600002D0000EBB6FFFFF000EBA6FFFFF070E0B
:10337000BA6501D028D0FFFFB951D8A405D0000EFE
:10338000B86F000EB76F18D0FFFFBB51080D870E46
:10339000846F000E856FF3508427F4508523BA5153
:1033A000010DF3508425D96EF4508521DA6EDF507B
:1033B000866F8651B76FB86BFFFFB75134EC3DF0A5
:1033C0000001BA2BD3D7FFFFB92BBB2BC1D7FFFF0F
:1033D0001200FFFFFFFF0001846F4CD0FFFF0001D0
:1033E00083517F0F876F87390F0B856F87510F0BC5
:1033F000866F855143EC3BF00001865143EC3BF076
:1034000048D0FFFF00018351BF0F876F87390F0B33
:10341000856F87510F0B866F855143EC3BF00001A0
:10342000865143EC3BF035D0FFFF00018351940FF0
:10343000876F87390F0B856F87510F0B866F85510B
:1034400043EC3BF00001865143EC3BF022D0FFFF00
:1034500000018351D40F876F87390F0B856F875118
:103460000F0B866F855143EC3BF00001865143EC16
:103470003BF00FD0FFFF00018451010AD8B4AED752
:10348000030AD8B4BED7010AD8B4CED7070AD8B435
:10349000DED7FFFF1200FFFFFFFF0E0E66EC1FF0EE
:1034A00000018E6F8E518F6F906B905104E13C0E36
:1034B0008F5DD8A006D0905105E1FB0E8F5DD8A09E
:1034C00005D0FFFF000E906F3C0E8F6FFFFFF0C026
:1034D0008CF08F5198EC3DF0EFC08CF000018F4BD9
:1034E000902B8F5198EC3DF0EEC08CF000018F4B8B
:1034F000902B8F5198EC3DF0F1C08CF000018F4B78
:10350000902B8F5198EC3DF0F2C08CF000018F4B66
:10351000902B8F5198EC3DF0FCC08CF000018F4B4C
:10352000902B8F5198EC3DF0FBC08CF000018F4B3D
:10353000902B8F5198EC3DF0FAC08CF000018F4B2E
:10354000902B8F5198EC3DF000018F4B902B8FC04A
:103550008CF00E0E98EC3DF01200FFFFFFFF0450C0
:10356000D8B405D0015002100310D8A40ED0FFFF2C
:10357000000E016E000E026E000E036E4ED0FFFFB5
:10358000042AD890033202320132FFFF000E0114E8
:10359000066E000E0214076EFE0E0314086E06502F
:1035A00007100810D8B40DD0EAD7FFFF042A010E87
:1035B0000126000E0222000E0322D89003320232AE
:1035C0000132FFFF000E0114066E000E0214076E9A
:1035D000FF0E0314086E065007100810D8B407D069
:1035E000E4D7FFFF0406D890013602360336FFFF0A
:1035F00002BE03D0020E0460F4D7FFFF04A0029EB7
:10360000D8900432045003120550D8A4038E01C090
:1036100001F002C002F003C003F0FFFF1200FFFF41
:10362000FFFF0001E151FD5DD8A00FD0DB05D8B44C
:103630000CD0DC51D8A409D0000E4A6E000E496EA1
:10364000000EC1EC17F0000E3BD0FFFF0001DC5173
:10365000D8A43ED0000E466EFD51E05DD8A002D049
:10366000010E4A6EFFFFE151FD5DD8A002D0000EB1
:103670004A6EFFFFE151FD5DD8A008D0DB51D8A410
:1036800005D0000E496E000EC1EC17F0FFFF0001DF
:10369000FD51DF5DD8A004D0010EDB6F010E496E35
:1036A000FFFFFD51DE5DD8A005D0010EDB6F010EDE
:1036B000C1EC17F0FFFF0001DB51D8B404D0010EBC
:1036C000FFFF456E05D0FFFF000E6C6E020E7B6E95
:1036D000FFFF1200FFFFFFFF03AE16D001C007F08F
:1036E00002C008F003C009F0071E081E091E072AC1
:1036F000000E08220922000E0724016E000E082089
:10370000026E800E0920036EFFFF06AE16D004C0C5
:1037100007F005C008F006C009F0071E081E091EC4
:10372000072A000E08220922000E0724046E000E4C
:103730000820056E800E0920066EFFFF000E011A9C
:10374000000E021A800E031A000E041A000E051A4B
:10375000800E061A0450015C0550025806500358AA
:10376000D8B002D0D89002D0FFFFD880FFFF12005F
:10377000FFFFFFFF3AD0FFFF86C0D9FF87C0DAFF07
:10378000DF50D8B411D086C0D9FF87C0DAFFDF5030
:1037900000018C6F88C0F6FF89C0F7FF0800FFFFAB
:1037A000F5508C19D8B41CD0FFFF88C0F6FF89C033
:1037B000F7FF0800FFFFF55000018C6F8D6B8C1F29
:1037C0008D1F8C4B8D2B86C0D9FF87C0DAFFDF5051
:1037D0008E6F8E518C25866F000E8D21876F13D0D2
:1037E000FFFF864B872B884B892BFFFF00018A0741
:1037F000D8A08B078A29C0E18B29D8A4BCD7000E9A
:10380000876F000E866FFFFF1200FFFFFFFF000EA5
:103810000001856F83AF06D0826D831FD8B0832BE4
:10382000010E856FFFFF81AF06D0806D811FD8B07C
:10383000812B010E851BFFFF000E876F000E866F28
:1038400082518311D8B420D0010E846F05D0FFFFC0
:10385000D89082378337842BFFFF83AFF8D7FFFFE1
:10386000D890863787378251805D83518159D8A09F
:1038700005D08251805F8351815B8681FFFFD890A4
:1038800083338233842FEBD7FFFF8551D8B404D024
:10389000866D871FD8B0872BFFFF86C080F087C05A
:1038A00081F01200FFFFFFFF35D0FFFF8FC086F0D1
:1038B00090C087F091C088F092C089F091C080F0EC
:1038C00092C081F00BEC1FF080C08AF081C08BF0B9
:1038D000B9EC1BF0000186518711D8A405D08FC028
:1038E0008FF090C090F028D0FFFF010E8F25806FE1
:1038F000000E9021816F91C0F6FF92C0F7FF080083
:10390000FFFFF550826F836B14EC3DF080C08FF0A9
:1039100081C090F0FFFF00018F519011D8B407D003
:103920008FC0D9FF90C0DAFFDF50D8A4BED7FFFF09
:10393000000E8F6F000E906FFFFF1200FFFFFFFF62
:10394000000E0001886F000E896F000E8A6F000E56
:103950008B6F8451851186118711D8B42ED0010E3A
:103960008C6F07D0FFFFD89084378537863787372D
:103970008C2BFFFF87AFF6D7FFFFD89088378937AA
:103980008A378B378451805D8551815986518259A0
:1039900087518359D8A009D08451805F8551815BBC
:1039A0008651825B8751835B8881FFFFD890873384
:1039B0008633853384338C2FDFD7FFFF88C080F0B8
:1039C00089C081F08AC082F08BC083F01200FFFFB3
:1039D000E50EF66E740EF76E000EF86E01EED0F086
:1039E00010EE04F00900F5CFEEFFE550E150FAE1EA
:1039F000E90EF66E740EF76E000EF86E00EEF7F03C
:103A000010EE09F00900F5CFEEFFE550E150FAE1C4
:103A1000FE0EF66E3F0EF76E000EF86E0900F5CF43
:103A20007AF00900F5CF7BF001EE00F0D00EEE6ADF
:103A3000E806FDE100EED4F0230EEE6AE806FDE1B3
:103A4000796A00EE44F0350EEE6AE806FDE17C90FE
:103A50007C92000EF86E000190EF04F0FFFF000E64
:103A600076EC3DF03B0E0001836F790EFFFFE82EF0
:103A7000FDD7832FFBD700D000F0030E43EC3BF0C3
:103A80001E0E0001836F3C0EFFFFE82EFDD7832F33
:103A9000FBD700F0030E43EC3BF0270E0001836FD1
:103AA000FB0EFFFFE82EFDD7832FFBD700D000F0E1
:103AB000030E43EC3BF0020E43EC3BF0020E43ECF2
:103AC0003BF0080E43EC3BF0000E43EC3BF00C0ED9
:103AD00043EC3BF0000E43EC3BF0060E43EC3BF0B6
:103AE0001200FFFFFFFF000E0001856F81AF06D0BF
:103AF000806D811FD8B0812B010E856FFFFF83AFD2
:103B000004D0826D831FD8B0832BFFFF82518311B5
:103B1000D8B41CD0010E846F05D0FFFFD890823737
:103B20008337842BFFFF83AFF8D7FFFF8251805D7F
:103B300083518159D8A004D08251805F8351815B29
:103B4000FFFFD89083338233842FEFD7FFFF855157
:103B5000D8B404D0806D811FD8B0812BFFFF80C006
:103B600080F081C081F01200FFFFFFFF0001B96FFC
:103B7000B9C0C2F00001C36BD0C1BEF0D1C1BFF06B
:103B8000D2C1C0F0D3C1C1F0C2C080F0C3C081F0C7
:103B9000000E836F0A0E826F06EC1CF0000180514C
:103BA000300FBE6F2E0EBF6FC2C080F0C3C081F059
:103BB000000E836F0A0E826F72EC1DF000018051BF
:103BC000300FC06F000EC16FBA0EA16F000EA26F52
:103BD000BE0EA36F000EA46FBBEC3DF0BA0E000149
:103BE000B76F000EB86F1200FFFFFFFF81B402D065
:103BF000010E636EFFFF81A407D06350D8B404D0D8
:103C0000010E626E000E636EFFFF81B802D0010EDE
:103C1000616EFFFF81A807D06150D8B404D0010EB7
:103C2000606E000E616EFFFF81BA02D0010E5F6E02
:103C3000FFFF81AA07D05F50D8B404D0010E5E6E9A
:103C4000000E5F6EFFFF81B602D0010E5D6EFFFFBA
:103C500081A607D05D50D8B404D0010E5C6E000E72
:103C60005D6EFFFF1200FFFFFFFF8F0E0001A16FCF
:103C7000010EA26FA30EA36F7F0EA46FBBEC3DF0ED
:103C80007A0E0001A16F010EA26F8B0EA36F7D0E45
:103C9000A46FBBEC3DF0650E0001A16F010EA26F99
:103CA000340EA36F7E0EA46FBBEC3DF0500E0001EE
:103CB000A16F010EA26F1B0EA36F7F0EA46FF70EF4
:103CC000A56F7E0EA66FBBEC3DF0010E6EEC1EF0F4
:103CD0000009D8A4D8C0D9F01200FFFFFFFF0001EF
:103CE000806F23D0FFFF6250D8B41CD0000E626EEC
:103CF00014D0FFFF5E50D8B415D0000E5E6E0DD00C
:103D0000FFFF6050D8B40ED0000E606E06D0FFFFEB
:103D10005C50D8B407D0000E5C6EFFFF010E7A6EC7
:103D2000010E13D0FFFF000E10D0FFFF00018051E5
:103D3000010AD8B4D7D7030AD8B4E2D7010AD8B455
:103D4000D8D7070AD8B4E3D7EDD7FFFF1200FFFF9B
:103D5000FFFF280EC66E000EC56E000E0001806FBC
:103D6000120E816F7A0E826F000E836F8DC091F0FC
:103D70008EC092F08FC093F090C094F0020EFFFFBF
:103D8000D8909137923793379437E82EF8D791C06F
:103D900084F092C085F093C086F094C087F09FECC9
:103DA0001CF000018005C86E000EC76E94869488D2
:103DB0001200FFFFFFFF000E0001856F000E846FF1
:103DC00082518311D8B420D0010E866F05D0FFFF39
:103DD000D89082378337862BFFFF83AFF8D7FFFF5A
:103DE000D890843785378251805D83518159D8A01E
:103DF00005D08251805F8351815B8481FFFFD89021
:103E000083338233862FEBD7FFFF84C080F085C0D9
:103E100081F01200FFFFFFFF80C084F081C085F0B9
:103E200004D0FFFF0001844B852BFFFF84C0F6FF09
:103E300085C0F7FFF86A050EF76404D00800FFFF9D
:103E4000F55005D0F6CFE9FFF7CFEAFFEF500009B4
:103E5000D8A4E7D780C082F081C083F00001821F20
:103E6000831F824B832B84518225806F8551832150
:103E7000816F1200FFFFFFFF810EC26ECE0EC16E7A
:103E800092808090810ED56EE40EF26E959A959890
:103E90009596959495929590949C948EAC8AAC84CA
:103EA000AC98AB8EAB88190EAF6EF28EF28C9E9AE8
:103EB0009D8AF2969284928A9480938493869388C2
:103EC000938A9690969296941200FFFFFFFF00014E
:103ED0008C6F8BEC3AF0000E00018B6FA00E8A6F96
:103EE000A4EC3AF08CC08AF000018B6BA4EC3AF0A1
:103EF00097EC3AF0000E00018B6FA10E8A6FA4ECD4
:103F00003AF0000E0001826F000E816F45EC3CF02C
:103F1000000181518D6F91EC3AF000018D5112003A
:103F2000FFFFFFFF000189518A11D8B41CD0010E98
:103F30008B6F05D0FFFFD89089378A378B2BFFFF17
:103F40008AAFF8D7FFFF8951875D8A518859D8A079
:103F500004D08951875F8A51885BFFFFD8908A33EC
:103F600089338B2FEFD7FFFF87C087F088C088F099
:103F70001200FFFFFFFF1F0E766402D0000E766E68
:103F8000FFFF170E756402D0000E756EFFFF3B0E2B
:103F9000746402D0000E746EFFFF0C0E776402D0C2
:103FA000000E776EFFFF3B0E736402D0000E736E3F
:103FB000FFFF630E786402D0000E786EFFFF1200E0
:103FC000FFFFFFFF000E0001B76F000EB86F760E07
:103FD000B96F750EBA6FA30EB56F000EB66FB70E40
:103FE0008C6F000E8D6FA1C08EF0A2C08FF0B50E49
:103FF000906F000E916F91EC00F01200FFFF010531
:1074E500202020202C013C010101620520FFFFD056
:1074F500EC3AF0C5801200FFFFFFFFD0EC3AF0C573
:10750500841200FFFFFFFFD0EC3AF0C5821200FFA6
:10751500FFFFFFDCEC3AF0C5801200FFFFFFFFDC48
:10752500EC3AF0C5841200FFFFFFFFDCEC3AF0C532
:10753500821200FFFFFFFFD0EC3AF002C0C9FF1234
:1075450000FFFFFFFFDCEC3AF08AC0C9FF1200FF25
:10755500FFFFFFACA2FDD780C0ADFF1200FFFFFF0C
:10756500FF000E43EC3BF0010E43EC3BF01200FF35
:10757500FFFFFF0001806FFFFFACA2FDD780C0AD0C
:10758500FF1200FFFFFFFF016E01380F0B0F0B0A03
:107595000D01500F0BF3241200FFFFFFFFC7B4FDD1
:1075A500D7C5CF01F01F0E0116D8B41200FFFFF5A5
:1075B500D7FFFFFFFFC7B4FDD7C5CF80F01F0E0073
:1075C500018017D8B41200FFFFF4D7FFFFFFFF00BB
:1075D50001806F000180390F0B0F0B0A0D80510FD1
:1075E5000BF3241200FFFFFFFF086E06C004F0082E
:1075F500509CEC3CF00750066E076A06C004F00884
:10760500289CEC3CF01200FFFFFFFF09C001F00AC7
:10761500C002F0036A8E0E046E000E056EAEEC1A03
:10762500F001C009F002C00AF003C00BF01200FF20
:10763500FFFFFFC284190EFFFFE82EFDD7FFFFC233
:10764500A4FDD7C450046E036AC3500324016E0021
:107655000E0420026E1200FFFFFFFF0001826F0083
:107665000E0001816F3A0E826105D02F0E826502F0
:10767500D0010E816FFFFF81C080F080311200FFC5
:10768500FFFFFF0001826F83920001825176EC3D7E
:10769500F083801E0E0001816F3C0EFFFFE82EFD7A
:1076A500D7812FFBD700F083901200FFFFFFFF006B
:1076B5000180518203F3CF84F0F4CF85F0805183AC
:1076C50003F350852781518203F350852784C080B9
:1076D500F085C081F01200FFFFFFFF0BD0FFFF0216
:1076E5000E036EF20EFFFFE82EFDD7032EFBD7002B
:1076F500D00400FFFF0106D8A002060128F0E10230
:1077050028D8B41200FFFFEAD7FFFFFFFF79EC3A54
:10771500F0000E036ED00E026E9DEC3AF0000E03E3
:107725006E070E026E9DEC3AF0000E036E000E021F
:107735006E9DEC3AF07FEC3AF01200FFFFFFFFD0B0
:10774500EC3AF0C586D0EC3AF0C9CF04F0056AD022
:10775500EC3AF002500310D8A402D0C58A02D0FF3B
:10776500FFC59AFFFFC58804C002F005C003F012EB
:1077750000FFFFFFFF0CD0FFFF020E0001826FF23A
:107785000EFFFFE82EFDD7822FFBD700F00400FF88
:10779500FF00018007D8A081078029EEE18129D863
:1077A500B41200FFFFE8D7FFFFFFFF000E000180C6
:1077B5006F000E806FFFFF070E806501D00DD0FFB3
:1077C500FF8051010D440EF324D96E000EF420DA2A
:1077D5006E000EDF6E802BEED7FFFF1200FFFFFF5E
:1077E500FF000E646E140E0001806F010E816F00A4
:1077F5000E836F000E826F000E856F3C0E846F7FC7
:10780500EC3CF0000E0001816F960E806FBCEC3BE6
:10781500F01200FFFFFFFF8BEC3AF0000E00018B2A
:107825006FD00E8A6FA4EC3AF0000E00018B6F0743
:107835000E8A6FA4EC3AF0000E00018B6F000E8AE1
:107845006FA4EC3AF091EC3AF01200FFFFFFFF0055
:1078550001936F0001932966EC1FF00001906F9072
:1078650051916F926B9151926F916B935166EC1F91
:10787500F00001906F9051911391C08EF092C08FDE
:10788500F01200FFFFFFFFDCEC3AF0C586DCEC3AB6
:10789500F0C9CF83F00001846BDCEC3AF000018184
:1078A500518211D8A402D0C58A02D0FFFFC59AFF24
:1078B500FFC58883C081F084C082F01200FFFFFFFE
:1078C500FF000E0001866F000E866FFFFF130E8608
:1078D5006501D00FD0FFFF8651010DF3508425D9E6
:1078E5006EF4508521DA6EDF5034EC3DF0000186F0
:1078F5002BECD7FFFF1200FFFFFFFF80C086F08152
:10790500C087F00AD0FFFF86C0D9FF87C0DAFF82A3
:10791500C0DFFF0001864B872BFFFF00018407D8DE
:10792500A085078429F0E18529D8B41200FFFFEA74
:10793500D7FFFFFFFF056E79EC3AF0000E036EA04E
:107945000E026E9DEC3AF005C002F0036A9DEC3A1A
:10795500F004C002F0036A9DEC3AF07FEC3AF000C7
:107965000E026E0F0E016E6FEC3BF01200FFFFFF73
:10797500FF0001EB51EA5DD8A015D0EB51D8B41248
:10798500D0E951F119D8A40ED0000EEA6FEAC08CE7
:10799500F00A0E98EC3DF0020E0001DC6F1C0ED9CA
:1079A5006F7EEC06F0FFFF1200FFFFFFFF79A018C6
:1079B500D0000E0001846F820782C084F00CD0FFD6
:1079C500FF8451010DF3508025D96EF4508121DAE1
:1079D5006E200EDF6E842BFFFF8351845DD8A0EFF0
:1079E500D7FFFF1200FFFFFFFF140E00018F6F018D
:1079F5000E906F93C091F094C092F053EC1CF00080
:107A0500018F519011D8B408D0000E816F960E8069
:107A15006FBCEC3BF0010E02D0FFFF000EFFFF1222
:107A250000FFFFFFFF80C0D9FF81C0DAFF000182A0
:107A350051DE18D8A405D080C080F081C081F00E39
:107A4500D0FFFF80C0D9FF81C0DAFF804B812BDFDB
:107A550050D8A4E7D7000E806F000E816FFFFF128C
:107A650000FFFFFFFF0001836F000183510F0B81B2
:107A75006F8351F00B826F838282390F0B76EC3D59
:107A8500F083804B0EFFFFE82EFDD7839000018128
:107A95005176EC3DF083804B0EFFFFE82EFDD7833A
:107AA500901200FFFFFFFF0001886F88C080F00083
:107AB50001816B000E836F0A0E826F06EC1CF000CD
:107AC500018039F00B896F88C080F0816B000E83CF
:107AD5006F0A0E826F72EC1DF000018051891189C9
:107AE5006F89511200FFFFFFFF0001806F000180C9
:107AF500A102D0838402D0FFFF8394FFFF80A302FD
:107B0500D0838602D0FFFF8396FFFF80A502D08336
:107B15008802D0FFFF8398FFFF80A702D0838A02E7
:107B2500D0FFFF839AFFFF1200FFFFFFFF00018DCB
:107B35006F8BEC3AF0000E00018B6FA00E8A6FA4DC
:107B4500EC3AF08DC08AF000018B6BA4EC3AF08C16
:107B5500C08AF000018B6BA4EC3AF091EC3AF0008E
:107B65000E0001816F0F0E806FBCEC3BF01200FF21
:107B7500FFFFFFA1C0B3F0A2C0B4F0000E0001B535
:107B85006F000EB66FA50EB16F000EB26FB30E8CFF
:107B95006F000E8D6FA3C08EF0A4C08FF0B10E9054
:107BA5006F000E916F91EC00F0B3C0D9FFB4C0DA4D
:107BB500FF000EDF6E1200FFFFFFFF000E000181C8
:107BC5006F8492000E816F15D0FFFF849081510163
:107BD5000D440EF324D96E000EF420DA6EDF5080CA
:107BE5006F8047804784508019FB0B8019846E8411
:107BF50080812BFFFF070E8165E7D784821200FF86
:107C0500FF00001F0E04040404040000000000101F
:107C150010100000000404141414000101050515DA
:107C250015150A0A1F11110E0404000000000000BA
:107C3500000001000A006400E8031027544553546E
:107C45004520444520424F4D424153205245414C29
:107C5500495A41444F0D0A454D20253032643A2595
:107C65003032643A2530326420253032642F253095
:107C750032642F253032640D0A4A4F434B45593A39
:107C85002025730D0A5052494E434950414C3A2024
:107C950025730D0A434F4D42555354414F3A202504
:107CA500730D0A004449535041524F20414C4152F3
:107CB5004D4520444520494E43454E44494F0D0A04
:107CC500454D20253032643A253032643A2530322C
:107CD5006420253032642F253032642F25303264FC
:107CE5000D0A0020253032643A253032643A2530B9
:107CF500326420253032642F253032642F2530320E
:107D05006400446174613A20253032642F25303295
:107D1500642F2530326420253032643A25303264B0
:107D2500002350726F78696D6F20656D2025326470
:107D350020646961730020414C45525441204445FB
:107D450020494E43454E44494F0020202041677548
:107D5500617264652E2E2025336473656300494E78
:107D650054455256414C4F3A20253264206469618E
:107D75007300484F524152494F3A20253032642012
:107D8500686F7261730053697374656D6173206503
:107D95006D6261726361646F7300202054455354B2
:107DA5004520434F4E434C5549444F21002D204516
:107DB50052524F20205452414E534455544F520075
:107DC50023686F72696D6574726F3A253564206D2D
:107DD500696E00436F6E66696775726163616F20D6
:107DE50074656D706F005072657373204553432041
:107DF500702F2052657365740041542B434D4753D2
:107E05003D222B35352573220D0A00504152544928
:107E1500444120434F4D42555354414F0050455224
:107E2500494F444F20444520544553544553002061
:107E3500202034382039393930362D353635310062
:107E4500456E7669617220736D7320746573746510
:107E5500005052455353414F20444120524544451B
:107E650000205072657373616F2025732062617203
:107E750000205052494E434950414C203A20257329
:107E85000020434F4D42555354414F203A2025730E
:107E950000253032643A253032643A2530326400A8
:107EA500496E696369617220546573746573004D29
:107EB50061782E20504152544944413A005072692C
:107EC5006E636970616C3A20257300436F6D62754E
:107ED5007374616F3A20257300656E7669616E640F
:107EE5006F2E2E2E200041542B434D47463D310D1C
:107EF5000A004175672030342032303139004D6138
:107F0500782E2054455354453A00494E464F205645
:107F1500455253414F0076657273616F202D2025C0
:107F25007300204A4F4B4559203A20257300415490
:107F350044203025733B0D0A00746574617061201F
:107F45002564200023253032642F25303264004714
:107F55004552414C203A20257300444154412F4855
:107F65004F524100444154414C4F474552005445FE
:107F75004C45464F4E4553007473696E616C202520
:107F850064004A6F6B65793A2025730041542B4391
:107F950053510D0A006574617061202564005445D4
:107FA50043484E4F5700286E756C6C290041544864
:107FB500300D0A002B4353513A200054313A202505
:107FC500730054323A20257300484F52413A004419
:107FD5004154413A0046414C4841004552524F52A6
:107FE5000041540D0A004552524F00257325630088
:0B7FF50025336473004F4B003E00007A
:020000040020DA
:08000000FFFFFFFFFFFFFFFF00
:020000040030CA
:0E000000FF220F0FFF0181FF004000E00F0004
:00000001FF
