:1000000000F036EF01F0FFFFFFFF7F82FACF3DF0F7
:10001000FBCF3EF0E9CF3FF0EACF40F0E1CF41F037
:10002000E2CF42F0D9CF43F0DACF44F0F3CF45F03E
:10003000F4CF46F0F6CF47F0F7CF48F0F8CF49F0CD
:10004000F5CF4AF07FC04BF080C04CF081C04DF03E
:1000500082C04EF0F2A4C4D0F2943C0ED76EB00E23
:10006000D66E7350D8B405D0730673C04FF0506A83
:1000700005D0FFFF000E506E000E4F6EFFFF4FC009
:1000800073F07250D8B405D0720672C051F0526A43
:1000900005D0FFFF000E526E000E516EFFFF51C0E3
:1000A00072F07450D8B405D0740674C053F0546A1A
:1000B00005D0FFFF000E546E000E536EFFFF53C0BD
:1000C00074F07150D8B405D0710671C055F0566AFD
:1000D00005D0FFFF000E566E000E556EFFFF55C097
:1000E00071F07550D8B405D0750675C057F0586AD0
:1000F00005D0FFFF000E586E000E576EFFFF57C071
:1001000075F07550D8A404D00F0E756E0001F31F62
:10011000FFFF19EC1BF07250D8A403D0040E726ECE
:10012000691EFFFF7350D8A45BD078EC1CF00A0E58
:10013000736E7E50D8B405D07E067EC059F05A6AE0
:1001400005D0FFFF000E5A6E000E596EFFFF59C01A
:100150007EF00001F551D8B405D0F507F5C05BF08D
:100160005C6A05D0FFFF000E5C6E000E5B6EFFFF49
:100170005BC0F5F0DA51DB11D8B408D0DA07D8A0AB
:10018000DB07DAC0DAF0DBC0DBF005D0FFFF000EE2
:10019000DB6F000EDA6FFFFFF651D8B405D0F6071B
:1001A000F6C05DF05E6A05D0FFFF000E5E6E000EC9
:1001B0005D6EFFFF5DC0F6F0FE51D8B405D0FE07BE
:1001C000FEC05FF0606A05D0FFFF000E606E000E9B
:1001D0005F6EFFFF5FC0FEF0ABA202D0AB98AB88B2
:1001E000FFFF9EAA1BD0AECF61F00A0E6118D8B4F3
:1001F0000FD00D0E6118D8B40BD06850010D1E0E33
:10020000F324D96E010EF420DA6E61C0DFFF682A94
:10021000FFFF3B0E686402D0000E686EFFFF4EC009
:1002200082F04DC081F04CC080F04BC07FF04AC0DE
:10023000F5FF49C0F8FF48C0F7FF47C0F6FF46C0CA
:10024000F4FF45C0F3FF44C0DAFF43C0D9FF42C00A
:10025000E2FF41C0E1FF40C0EAFF3FC0E9FF3EC00E
:10026000FBFF3DC0FAFF7F921100FFFF26EF3CF03D
:10027000FFFFD7D3FFFF250E0001A019D8B437D058
:1002800020EE02F08C51D9268D51DA22DE50DE109C
:10029000D8B416D020EE02F08C51D9268D51DA2236
:1002A00001D8BFD3FFFF0500FA6EDE50FD6EDE50B1
:1002B000FE6EF850FF6EFA50A0511200FFFFB1D34E
:1002C000FFFF8CC0D9FF8DC0DAFFDECF92F0DDCF0B
:1002D00093F092C0D9FF93C0DAFFA0C0DFFF8CC0BB
:1002E000D9FF8DC0DAFFDE2A000EDD229AD3FFFF90
:1002F000000E00019F6F000E9E6F000E9B6F05D0D9
:10030000FFFF00019B858E4B8F2BFFFF8EC0F6FFFA
:100310008FC0F7FFF86A050EF76404D00800FFFFEE
:10032000F55005D0F6CFE9FFF7CFEAFFEF50300ADE
:10033000D8B4E6D78EC0F6FF8FC0F7FFF86A050E77
:10034000F76404D00800FFFFF55005D0F6CFE9FFB1
:10035000F7CFEAFFEF507BEC36F0D8A06BD1000E60
:1003600000019F6F000E9E6FFFFF9EC080F09FC038
:1003700081F0000E0001836F0A0E826FA5EC36F04B
:1003800080C09EF081C09FF0D00E0001926FFF0EE2
:10039000936F8EC0F6FF8FC0F7FFF86A050EF76403
:1003A00004D00800FFFFF55005D0F6CFE9FFF7CFE6
:1003B000EAFFEF500001946F956B9251942793518F
:1003C000952394519E2795519F238E4B8F2B8EC042
:1003D000F6FF8FC0F7FFF86A050EF76404D0080037
:1003E000FFFFF55005D0F6CFE9FFF7CFEAFFEF505A
:1003F0007BEC36F0D8A01ED1B7D7FFFF90C0D9FF55
:1004000091C0DAFFDFCF92F0020EDE26DFCF93F04D
:10041000000EDD2292C0D9FF93C0DAFFDECF9CF040
:10042000DDCF9DF000019C519D11D8A404D0A20EF7
:100430009C6F7F0E9D6FFFFF000E9A6F000E996FED
:1004400004D0FFFF0001994B9A2BFFFF99519C2587
:10045000926F9A519D21936F92C0F6FF93C0F7FF60
:10046000F86A050EF76404D00800FFFFF55005D0C8
:10047000F6CFE9FFF7CFEAFFEF500009D8A4E1D7A4
:10048000FFFF00019E51995D9F519A59D8B005D048
:1004900099519E5F9A519F5B3DD0FFFF000E9F6F69
:1004A000000E9E6F37D0FFFF20EE02F08C51D92650
:1004B0008D51DA22DE50DE10D8B416D020EE02F0D4
:1004C0008C51D9268D51DA2201D824D0FFFF0500A6
:1004D000FA6EDE50FD6EDE50FE6EF850FF6EFA5082
:1004E000200E1200FFFF16D0FFFF8CC0D9FF8DC079
:1004F000DAFFDECF92F0DDCF93F092C0D9FF93C048
:10050000DAFF200EDF6E8CC0D9FF8DC0DAFFDE2A45
:10051000000EDD22FFFF00019E07D8A09F079E2945
:10052000C3E19F29D8B45FD0BED7FFFF20EE02F011
:100530008C51D9268D51DA22DE50DE10D8B42AD063
:1005400020EE02F08C51D9268D51DA2201D81DD02F
:10055000FFFF0500FA6EDE50FD6EDE50FE6EF850B5
:10056000FF6EFA509CC0F6FF9DC0F7FFF86A050EBB
:10057000F76404D00800FFFFF55005D0F6CFE9FF7F
:10058000F7CFEAFFEF501200FFFFFFFF00019C4B87
:100590009D2B29D0FFFF9CC0F6FF9DC0F7FFF86A96
:1005A0008CC0D9FF8DC0DAFFDECF92F0DDCF93F0A3
:1005B00092C0D9FF93C0DAFF050EF76404D008009B
:1005C000FFFFF55005D0F6CFE9FFF7CFEAFFEF5078
:1005D000DF6E00019C4B9D2B8CC0D9FF8DC0DAFFD4
:1005E000DE2A000EDD22FFFF9907D8A09A0799297D
:1005F0009DE19A29D8B415D298D7FFFF90C0D9FFB2
:1006000091C0DAFFDFCF92F0020EDE26DFCF93F04B
:10061000000EDD2292C0D9FF93C0DAFFDF50A06F39
:10062000FFFFA00E9C6F000E9D6F000E9A6F010ED3
:10063000996F26D7FFFF00018E51926F8F51936FF4
:100640008E4B8F2B92C0F6FF93C0F7FFF86A050E12
:10065000F76404D00800FFFFF55005D0F6CFE9FF9E
:10066000F7CFEAFFEF500001A06FA051000AD8B405
:10067000F6D1630AD8B4C1D7070AD8B407D00D0A97
:10068000D8B404D01A0AD8B4B8D6CAD7FFFF90C0DD
:10069000D9FF91C0DAFFDFCF92F0020EDE26DFCF66
:1006A00093F0000EDD2292C0D9FF93C0DAFFDECFB7
:1006B00097F0DDCF98F0000198AF06D0030E9B13A2
:1006C000976D981FD8B0982BFFFF010EA06FFFFF0A
:1006D000050EA019D8B414D0A051020DA10EF32418
:1006E000F66E7A0EF420F76E0900FFFFF550975D65
:1006F0000900FFFFF5509859D8A002D0A02BE7D7EA
:10070000FFFF9E519F11D8B409D09BC092F0030EF9
:100710009217D8B403D09E07D8A09F07FFFF800E82
:10072000A0BF7F0E926F9E51A05D9F51800A92598B
:10073000D8B007D0A0519E5F000EA0BFFF0E9F5BF8
:1007400005D0FFFF000E9F6F000E9E6FFFFF9BA561
:100750007FD09BC092F0030E9217D8B436D020EE13
:1007600002F08C51D9268D51DA22DE50DE10D8B439
:1007700016D020EE02F08C51D9268D51DA2201D804
:1007800024D0FFFF0500FA6EDE50FD6EDE50FE6ED7
:10079000F850FF6EFA502D0E1200FFFF16D0FFFF2B
:1007A0008CC0D9FF8DC0DAFFDECF92F0DDCF93F0A1
:1007B00092C0D9FF93C0DAFF2D0EDF6E8CC0D9FF37
:1007C0008DC0DAFFDE2A000EDD22FFFF0001FFFFF1
:1007D0009E519F11D8B4BED020EE02F08C51D92684
:1007E0008D51DA22DE50DE10D8B416D020EE02F0A1
:1007F0008C51D9268D51DA2201D824D0FFFF050073
:10080000FA6EDE50FD6EDE50FE6EF850FF6EFA504E
:10081000300E1200FFFF16D0FFFF8CC0D9FF8DC035
:10082000DAFFDECF92F0DDCF93F092C0D9FF93C014
:10083000DAFF300EDF6E8CC0D9FF8DC0DAFFDE2A02
:10084000000EDD22FFFF00019E07D8A09F07BFD743
:10085000FFFF9E519F11D8B440D0FFFF20EE02F061
:100860008C51D9268D51DA22DE50DE10D8B416D044
:1008700020EE02F08C51D9268D51DA2201D824D0F5
:10088000FFFF0500FA6EDE50FD6EDE50FE6EF85082
:10089000FF6EFA50200E1200FFFF16D0FFFF8CC033
:1008A000D9FF8DC0DAFFDECF92F0DDCF93F092C09A
:1008B000D9FF93C0DAFF200EDF6E8CC0D9FF8DC048
:1008C000DAFFDE2A000EDD22FFFF00019E07D8A01E
:1008D0009F079E519F11D8A4C0D7FFFF9BC092F0E5
:1008E000030E9217D8B436D020EE02F08C51D926E0
:1008F0008D51DA22DE50DE10D8B416D020EE02F090
:100900008C51D9268D51DA2201D824D0FFFF050061
:10091000FA6EDE50FD6EDE50FE6EF850FF6EFA503D
:100920002D0E1200FFFF16D0FFFF8CC0D9FF8DC027
:10093000DAFFDECF92F0DDCF93F092C0D9FF93C003
:10094000DAFF2D0EDF6E8CC0D9FF8DC0DAFFDE2AF4
:10095000000EDD22FFFFA0C096F05DD0FFFF00017A
:100960009651020DA10EF324F66E7A0EF420F76E66
:100970000900FFFFF5CF82F00A00FFFFF5CF83F0FB
:1009800097C080F098C081F094EC3AF080C087F076
:1009900081C088F0000E00018A6F0A0E896FB5ECE5
:1009A00039F000018751300FA06F20EE02F08C511A
:1009B000D9268D51DA22DE50DE10D8B416D020EEC2
:1009C00002F08C51D9268D51DA2201D824D0FFFFB4
:1009D0000500FA6EDE50FD6EDE50FE6EF850FF6EC2
:1009E000FA50A0511200FFFF16D0FFFF8CC0D9FFB4
:1009F0008DC0DAFFDECF92F0DDCF93F092C0D9FF49
:100A000093C0DAFFA0C0DFFF8CC0D9FF8DC0DAFF32
:100A1000DE2A000EDD22FFFF000196079629D8A4EA
:100A20009DD7FFFF00018E51926F8F51936F8E4BB8
:100A30008F2B92C0F6FF93C0F7FFF86A050EF7649C
:100A400004D00800FFFFF55005D0F6CFE9FFF7CF3F
:100A5000EAFFEF500001A06FA051D8A40BD4FFFF14
:100A6000000E00018D6F000E8C6F1200FFFFFFFF64
:100A700068EC3BF0A00E00018D6F860E8E6F010EAC
:100A80008F6F000E906FC5EC3AF0000E0001816F81
:100A9000C80E806F20EC37F056EC37F0000E0001E6
:100AA000816F640E806F20EC37F0770E00018C6F41
:100AB000000E8D6F26EC17F0ABEC3CF0EFEC35F050
:100AC00048EC1DF0000E0001816F640E806F20EC79
:100AD00037F054EC18F0990E0001A16F010EA26FCF
:100AE0009A0EA36F7F0EA46F42EC39F0840E0001C2
:100AF000A16F010EA26FC10EA36F7C0EA46F42EC1A
:100B000039F06F0E0001A16F010EA26F5B0EA36F93
:100B10007E0EA46F42EC39F0630E0001A16F010E4E
:100B2000A26FFE0EA36F7E0EA46FB90EA56F7E0E90
:100B3000A66F42EC39F0990E0001886F010E896FA3
:100B4000840E8A6F010E8B6F6F0E8C6F010E8D6F8E
:100B50005A0E8E6F010E8F6FDCEC11F0090E000142
:100B6000816FC40E806F20EC37F0FFFF04007150DE
:100B7000D8A404D0030E716E81EC16F0FFFF0001C3
:100B8000F851F7EC3AF01C0E0001DF19D8B407D089
:100B9000F051D8A404D0E3EC1CF07DEC38F0FFFF5A
:100BA0001C0E0001DF19D8A48D947E50D8A48BD0E0
:100BB000F451D8A488D0C6EC14F085D0FFFFAAEC7D
:100BC0000FF0A6D0FFFF9A0E0001A16F010EA26FD9
:100BD0004D0EA36F7F0EA46F42EC39F0850E00011D
:100BE000A16F010EA26FE20EA36F7D0EA46F42EC07
:100BF00039F0700E0001A16F010EA26F470EA36FB6
:100C00007D0EA46F42EC39F05B0E0001A16F010E66
:100C1000A26F610EA36F7F0EA46F42EC39F078D003
:100C2000FFFF9A0E0001A16F010EA26F590EA36F74
:100C30007D0EA46F42EC39F0850E0001A16F010E0C
:100C4000A26F570EA36F7F0EA46F42EC39F0700EA7
:100C50000001A16F010EA26FE90EA36F7E0EA46FBB
:100C600042EC39F05B0E0001A16F010EA26F4C0E39
:100C7000A36F7E0EA46F42EC39F04AD0FFFFC4ECA4
:100C800010F046D0FFFF51EC0DF042D0FFFFA6EC74
:100C900015F03ED0FFFFC2EC09F03AD0FFFFDBECCD
:100CA00013F036D0FFFF81EC0EF032D0FFFFC0EC26
:100CB00017F02ED0FFFF82EC07F02AD0FFFF000EC6
:100CC0000001DF6F25D0FFFF0001DF51000AD8B41B
:100CD00075D7010AD8B476D7030AD8B4A1D7160AB3
:100CE000D8B4CCD7010AD8B4CDD7030AD8B4CED75C
:100CF000010AD8B4CFD70F0AD8B4D0D7010AD8B4D4
:100D0000D1D7020AD8B4D2D7070AD8B4D3D7D6D706
:100D1000FFFF0001DF05D8B49BD0020EDF19D8B465
:100D200097D0CBD0FFFF010EDF6F3E0E0101996F10
:100D3000040EE4EC3BF00009D8B4A5D0DFC0DEF02F
:100D4000140E66D0FFFF010EDF6F3E0E0101846FAF
:100D5000040EE4EC3BF00009D8B495D0DFC0DEF01F
:100D6000150E56D0FFFF010EDF6F3E0E01016F6FB3
:100D7000040EE4EC3BF00009D8B485D0DFC0DEF00F
:100D8000160E46D0FFFF010EDF6F3E0E01015A6FB7
:100D9000040EE4EC3BF00009D8B475D0DFC0DEF0FF
:100DA000170E36D0FFFF020EDF6F3E0E0101996F66
:100DB000040EE4EC3BF00009D8B465D0DFC0DEF0EF
:100DC000180E26D0FFFF3E0E0101846F020E0001B7
:100DD000DF6F040EE4EC3BF00009D8B454D0DFC060
:100DE000DEF0190E0001DF6F010E01010C6F4BD018
:100DF000FFFF3E0E01016F6F020E0001DF6F040E58
:100E0000E4EC3BF00009D8B43ED0DFC0DEF01B0EAE
:100E1000FFFF00011AD0FFFF3E0E01015A6F020EC4
:100E20000001DF6F040EE4EC3BF00009D8B42BD0D6
:100E30000001F151D8A427D01C0EDF6F000E706E98
:100E400022D0FFFF010E6B6E010EFFFFDF6F1BD084
:100E5000FFFF6B50010AD8B465D7030AD8B472D724
:100E6000010AD8B47FD7070AD8B48CD7010AD8B4FE
:100E700099D7030AD8B4A6D7010AD8B4B9D70F0AAC
:100E8000D8B4C9D7DED7FFFF030EE4EC3BF000096E
:100E9000D8A46B06020EE4EC3BF00009D8A46B2A40
:100EA000010EE4EC3BF00009D8B407D0000E0001BD
:100EB000DF6F000EE06F010E6B6EFFFF140E00017E
:100EC000DF19D8A402D0010E02D0FFFF000EFFFFF1
:100ED0006A6EA5EC3BF07450D8A447D6990E000179
:100EE000886F010E896F840E8A6F010E8B6F6F0EF3
:100EF0008C6F010E8D6F5A0E8E6F010E8F6FDCECB2
:100F000011F033D6FFFF010EE4EC3BF00009D8B43A
:100F10000BD0000E0001F46F000E706E000EF86F23
:100F2000DEC0DFF0000ECD6FFFFF0A0E7060FDD156
:100F30009C0E0001A16F010EA26F3D0EA36F7E0EED
:100F4000A46FDAC0A5F0DBC0A6F042EC39F00001D6
:100F5000D851B6EC1FF0BBC0CEF0BCC0CFF0860EAF
:100F60000001A16F010EA26FF20EA36F7D0EA46FA0
:100F7000CEC0A5F0CFC0A6F042EC39F0D6D1FFFF2D
:100F8000000E0001E86FE8C08CF00A0E1FEC39F08B
:100F90008D84000E0001DB6F1E0EDA6F010E19D179
:100FA000FFFFBBEC36F0F60E0001C86FFF0EC96FF5
:100FB000E451CA6FCB6BC851CA27C951CB23D85152
:100FC000CA5DCB51800ACC6FD951800ACC59D8A0C8
:100FD000D6D18D948986020E48D0FFFF5A0E0001AB
:100FE000A16F010EA26FD20EA36F7D0EA46F42EC13
:100FF00039F00001E451C86FC96BC851D85DD951AF
:10100000800ACA6FC951800ACA59D8A005D08996EA
:10101000010EFC6F030E706EFFFFDA51DB11D8A4D6
:10102000AED1000EFC6F030E4DD0FFFF8D84040E79
:10103000D0D0FFFFBBEC36F0F60E0001C86FFF0EFC
:10104000C96FE451CA6FCB6BC851CA27C951CB23B2
:10105000D851CA5DCB51800ACC6FD951800ACC5986
:10106000D8A08DD18C8E8D94050EFFFF706E000E72
:10107000DB6F320EBBD0FFFF5A0E0001A16F010ED5
:10108000A26FE90EA36F7C0EA46F42EC39F0000151
:10109000E451C86FC96BC851D85DD951800ACA6F75
:1010A000C951800ACA59D8A005D08C9E010EFB6F89
:1010B000060E706EFFFFDA51DB11D8A460D1000E6E
:1010C000FB6F060EFFFF706E000EDB6F1E0E8ED0E4
:1010D000FFFF8D84070E7DD0FFFFBBEC36F0F60ED0
:1010E0000001C86FFF0EC96FE451CA6FCB6BC851C6
:1010F000CA27C951CB23D851CA5DCB51800ACC6FC6
:10110000D951800ACC59D8A03AD18D94010EF86FEC
:10111000080E706EE6C0DAF0DB6B31D1FFFF5A0EBD
:101120000001A16F010EA26FFC0EA36F7C0EA46FD5
:1011300042EC39F080A40ED00001E451C86FC96BB5
:10114000C851D85DD951800ACA6FC951800ACA599D
:10115000D8A009D0FFFF010E0001FA6FE5C0DAF058
:10116000DB6B090E706EFFFFFA51D8B404D0DA5170
:10117000DB11D8A404D1FFFF0A0E706E000EFA6FC7
:10118000D0D0FFFF80A405D0A00E0001D06F7E0E4E
:1011900005D0FFFF430E0001D06F7F0EFFFFD16F20
:1011A0005A0EA16F010EA26F910EA36F7F0EA46F56
:1011B000D0C0A5F0D1C0A6F042EC39F00001DA5160
:1011C000DB11D8B403D0FA51D8A4D9D0FFFF8D9049
:1011D0000A0EFFFF706ED3D0FFFF0DEC1EF08D9056
:1011E0000B0E706E000E0001DB6F0A0EFFFFDA6F50
:1011F000C6D0FFFF9B0E0001A16F010EA26F8F0EE4
:10120000A36F7D0EA46F42EC39F00001FC05D8B449
:1012100004D0E20ED26F7F0E04D0FFFFF90ED26F22
:101220007F0EFFFFD36F840EA16F010EA26F2D0EF4
:10123000A36F7F0EA46FD2C0A5F0D3C0A6F042EC7E
:1012400039F00001FB05D8B404D0E20ED46F7F0E54
:1012500004D0FFFFF90ED46F7F0EFFFFD56F6F0E26
:10126000A16F010EA26F1F0EA36F7E0EA46FD4C0DC
:10127000A5F0D5C0A6F042EC39F00001FA05D8B4CB
:1012800004D0E20ED66F7F0E04D0FFFFF90ED66FAA
:101290007F0EFFFFD76F5A0EA16F010EA26F2E0EA9
:1012A000A36F7E0EA46FD6C0A5F0D7C0A6F042EC07
:1012B00039F0000E0001F86FDA51DB11D8A45FD0CD
:1012C0000C0E706E000EDB6F500EDA6F000EF66FB4
:1012D000010EF46F000EE86FE8C08CF00A0E1FECF0
:1012E00039F04DD0FFFF5C0E0001A16F010EA26F1F
:1012F000C20EA36F7D0EA46F42EC39F0020EA6EC75
:101300000BF00001DA51DB11D8A439D0000EDF6FE9
:10131000000EF46F34D0FFFF000E706E000E00015F
:10132000DF6FFFFF000EF86F2AD0FFFF7050000A3A
:10133000D8B425D6010AD8B433D6030AD8B44DD6CA
:10134000010AD8B472D6070AD8B473D6010AD8B441
:1013500092D6030AD8B4BCD6010AD8B4BDD60F0AB7
:10136000D8B4DCD6010AD8B40CD7030AD8B434D721
:10137000010AD8B43ED7070AD8B4B4D7CCD7FFFFF8
:101380001200FFFFFFFF9A0E0001A16F010EA26F76
:10139000B70EA36F7F0EA46FCE0EA56F010EA66FC2
:1013A00042EC39F0850E0001A16F010EA26FBE0E56
:1013B000A36F7F0EA46FC20EA56F010EA66F42EC45
:1013C00039F00001F451D8A404D0B10EC16F7D0EE4
:1013D00004D0FFFF930EC16F7E0EFFFFC26F700E31
:1013E000A16F010EA26FFE0EA36F7E0EA46FC1C08F
:1013F000A5F0C2C0A6F042EC39F00001DC51D8A43F
:1014000050D0030EE4EC3BF00009D8B403D0000147
:10141000E00747D0FFFF020EE4EC3BF00009D8B430
:1014200003D00001E02B3DD0FFFF010EE4EC3BF0C8
:101430000009D8B436D0000E0001F46F000EE06F42
:10144000000EDD6F000EDC6F000EC36F000EC36F69
:10145000FFFF0A0EC36501D021D0FFFFC351010D6C
:10146000CE0EF324D96E010EF420DA6EDF508C6FAD
:10147000C351140F1FEC39F00001C351010DC20E0E
:10148000F324D96E010EF420DA6EDF508C6FC35155
:10149000280F1FEC39F00001C32BDAD7FFFFDEC0A5
:1014A000DFF0FFFF0001DC05D8A43BD1040EE4EC23
:1014B0003BF00009D8B403D00001DD2B32D1FFFF8F
:1014C000010EE4EC3BF00009D8B42BD1000E000172
:1014D000DD6F000EDC6F25D1FFFF3E0E0101996F1D
:1014E000990E0001806F010E816F010E826F010E57
:1014F000836F3FEC38F0040EE4EC3BF00009D8B405
:1015000003D0010E0001DC6FFFFF0001DC51D8B4F5
:1015100015D1990E806F010E816FDD51060F826F1C
:10152000DD51060F836F3FEC38F00001DD51BF6FD6
:10153000C06B020EBF27000EC023C05104E10D0E88
:10154000BF5DD8A004D0000EDD6F000EDC6FFFFF82
:10155000030EE4EC3BF00009D8B40AD00001DD51E1
:10156000010DCE0EF324D96E010EF420DA6EDF2ABF
:10157000FFFF020EE4EC3BF00009D8B40AD00001F2
:10158000DD51010DCE0EF324D96E010EF420DA6E7A
:10159000DF06FFFF0001DD51010DCE0EF324D96EF1
:1015A000010EF420DA6E3A0EDF600BD0DD51010D32
:1015B000CE0EF324D96E010EF420DA6E300EDF6009
:1015C000BDD0FFFFDD51010DCE0EF324D96E010E0B
:1015D0007CD0FFFF3E0E0101846F840E0001806FFE
:1015E000010E816F010E826F010E836F3FEC38F0A8
:1015F000040EE4EC3BF00009D8B403D0010E000166
:10160000DC6FFFFF0001DC51D8B498D0840E806FEE
:10161000010E816FDD51060F826FDD51060F836F62
:101620003FEC38F00001DD51BF6FC06B020EBF27E9
:10163000000EC023C05104E10D0EBF5DD8A004D040
:10164000000EDD6F000EDC6FFFFF030EE4EC3BF0DD
:101650000009D8B40AD00001DD51010DC20EF324F7
:10166000D96E010EF420DA6EDF2AFFFF020EE4ECE1
:101670003BF00009D8B40AD00001DD51010DC20EC3
:10168000F324D96E010EF420DA6EDF06FFFF0001AD
:10169000DD51010DC20EF324D96E010EF420DA6E75
:1016A0003A0EDF600BD0DD51010DC20EF324D96E6E
:1016B000010EF420DA6E300EDF6040D0FFFFDD5106
:1016C000010DC20EF324D96E010EFFFFF420DA6E75
:1016D000300EDF6E33D0FFFF3E0E01016F6F6F0ED5
:1016E0000001806F010E816F010E826F010E836F0A
:1016F0003FEC38F0040EE4EC3BF00009D8B41ED007
:10170000780E0001FF19D8B419D0F451D8A416D01E
:10171000010EF46F000EF76F11D0FFFF000EE06FA7
:101720000DD0FFFF0001E051000AD8B4D5D6010A60
:10173000D8B44FD7030AD8B4CED7EFD7FFFF0001F4
:10174000F451D8A4EAEC12F01200FFFFFFFF0001F1
:10175000C76F0001F651D8B403D0000EF46F9ED1CC
:10176000FFFF010EF46F7AD1FFFF3BEC37F0DD0E87
:101770000001A16F7F0EA26F21EC38F0624A632A4C
:10178000060E0001F56F8AD1FFFFF90E936F7F0EF1
:10179000946F03EC38F00009D8B40ED03BEC37F06E
:1017A000AD0E0001A16F7E0EA26F21EC38F0624AEF
:1017B000632A060E0001F56FFFFF0001F551D8A462
:1017C0006DD11A0E806F000E816FE8EC35F0000EBF
:1017D0000001816F0F0E806F20EC37F0A90E000121
:1017E000A16F7F0EA26F21EC38F032D1FFFFF90E0E
:1017F0000001936F7F0E946F03EC38F00009D8B4AA
:10180000A4D03BEC37F00001F751D8B404D0C20E9D
:10181000BD6F010E04D0FFFFCE0EBD6F010EFFFFA6
:10182000BE6F350EA16F7D0EA26FBDC0A3F0BEC00E
:10183000A4F021EC38F0080EFFFF0001F56F624ABA
:10184000632A83D0FFFFFC0E936F7F0E946F03EC2F
:1018500038F00009D8B479D03BEC37F00001C70567
:10186000D8A418D0910EA16F7B0EA26FECC0A3F08C
:10187000A46BEDC0A5F0A66BEEC0A7F0A86BEBC003
:10188000A9F0AA6BEAC0ABF0AC6BE9C0ADF0AE6BEF
:1018900021EC38F0FFFF020E0001C719D8A44BD08D
:1018A000FA05D8B404D0D10EBF6F7F0E04D0FFFF6D
:1018B000F90EBF6F7F0EFFFFC06FFB05D8B404D0D9
:1018C000D10EC16F7F0E04D0FFFFF90EC16F7F0EE6
:1018D000FFFFC26FFC05D8B404D0D10EC36F7F0EDA
:1018E00004D0FFFFF90EC36F7F0EFFFFC46F290EF8
:1018F000A16F7B0EA26FECC0A3F0A46BEDC0A5F0AE
:10190000A66BEEC0A7F0A86BEBC0A9F0AA6BEAC06B
:10191000ABF0AC6BE9C0ADF0AE6BC3C0AFF0C4C010
:10192000B0F0C1C0B1F0C2C0B2F0BFC0B3F0C0C02F
:10193000B4F021EC38F0FFFF1A0E0001806F000EAA
:10194000816FE8EC35F01E0E77D7FFFF0001FFFF37
:10195000F551D8A4A3D07CD0FFFFF90E936F7F0E72
:10196000946F03EC38F00001BB6FD70E936F7F0EBE
:10197000946F03EC38F00001BB110009D8B4E7D72D
:10198000020EC719D8A412D0F751D8A407D0010E5F
:10199000F76F000E636E000E626ED9D7FFFF000E68
:1019A000F76F000EF46F000EDF6FD1D7FFFF624AB2
:1019B000632ACDD7FFFF3BEC37F00001F751D8B4D5
:1019C00004D0C20EC56F010E04D0FFFFCE0EC56F4E
:1019D000010EFFFFC66F010EA16F7F0EA26FC5C083
:1019E000A3F0C6C0A4F021EC38F0230E0001F56F7F
:1019F000624A632A53D0FFFFD10E936F7E0E946F1D
:101A000003EC38F00009D8A404D00001F551D8A4A3
:101A100045D0FFFF3BEC37F0A90E0001A16F7F0E10
:101A2000A26F21EC38F0020E0001816F260E806F4C
:101A300020EC37F00001F751D8A403D0010EF76F66
:101A400007D0FFFF000EF76F000EF46F640EF66F05
:101A5000FFFF000E636E000E626E20D0FFFF62C0BB
:101A6000BBF063C0BCF0BC51000AD8A4F1D7BB5195
:101A7000000AD8B479D6010AD8B486D6030AD8B4F5
:101A8000B5D6010AD8B4DED6070AD8B465D7010A9C
:101A9000D8B490D7030AD8B4AED7DAD7FFFF120074
:101AA000FFFFFFFF0001E451B6EC1FF0BBC0C8F020
:101AB000BCC0C9F0990E0001A16F010EA26F220EE9
:101AC000A36F7F0EA46FC8C0A5F0C9C0A6F042ECFA
:101AD00039F00001E351B6EC1FF0BBC0C8F0BCC048
:101AE000C9F0840E0001A16F010EA26F2D0EA36F2D
:101AF0007F0EA46FC8C0A5F0C9C0A6F042EC39F0B3
:101B00000001E251B6EC1FF0BBC0C8F0BCC0C9F088
:101B10006F0E0001A16F010EA26F1F0EA36F7E0E4C
:101B2000A46FC8C0A5F0C9C0A6F042EC39F000010E
:101B3000E151B6EC1FF0BBC0C8F0BCC0C9F05A0EF2
:101B40000001A16F010EA26F2E0EA36F7E0EA46F77
:101B5000C8C0A5F0C9C0A6F042EC39F095D0FFFF8F
:101B6000990E0001806F010E816F080E826F0F0EBB
:101B7000836F3FEC38F0030EE4EC3BF00009D8B47F
:101B800002D00001E42BFFFF020EE4EC3BF0000961
:101B9000D8B402D00001E407FFFF630E0001E46542
:101BA00083D0000EE46F80D0FFFF840E806F010EA3
:101BB000816F080E826F0F0E836F3FEC38F0030EBB
:101BC000E4EC3BF00009D8B402D00001E32BFFFFA6
:101BD000020EE4EC3BF00009D8B402D00001E307A8
:101BE000FFFF630E0001E3655FD0000EE36F5CD082
:101BF000FFFF6F0E806F010E816F0C0E826F120E51
:101C0000836F3FEC38F0030EE4EC3BF00009D8B4EE
:101C100002D00001E22BFFFF020EE4EC3BF00009D2
:101C2000D8B402D00001E207FFFF630E0001E265B5
:101C30003BD0000EE26F38D0FFFF5A0E806F010ECE
:101C4000816F0C0E826F120E836F3FEC38F0030E23
:101C5000E4EC3BF00009D8B402D00001E12BFFFF17
:101C6000020EE4EC3BF00009D8B402D00001E10719
:101C7000FFFF630E0001E16517D0000EE16F14D085
:101C8000FFFF000EE06F10D0FFFF0001E051000ADF
:101C9000D8B465D7010AD8B487D7030AD8B4A8D76F
:101CA000010AD8B4C9D7ECD7FFFF010EE4EC3BF032
:101CB0000009D8B41AD0E3C08CF0000E1FEC39F044
:101CC000E2C08CF0010E1FEC39F0E1C08CF0020E86
:101CD0001FEC39F0E4C08CF0040E1FEC39F0000E5C
:101CE0000001E06FDEC0DFF009D0FFFF040EE4EC7E
:101CF0003BF00009D8B402D00001E02BFFFF120036
:101D0000FFFFFFFF990E0001A16F010EA26FD00E21
:101D1000A36F7B0EA46F14C1A5F0A66B13C1A7F02F
:101D2000A86B12C1A9F0AA6B11C1ABF0AC6B10C1CA
:101D3000ADF0AE6B42EC39F001010F05D8B405D01F
:101D4000E20E0001C06F7F0E05D0FFFFF90E00010B
:101D5000C06F7F0EFFFFC16F840EA16F010EA26FD7
:101D6000750EA36F7F0EA46FC0C0A5F0C1C0A6F012
:101D700042EC39F0920E0001A16F010EA26F170E16
:101D8000A36F7F0EA46F010E6424A56FA66B000ED7
:101D9000A62365C0A7F0A86B42EC39F001010E053F
:101DA000D8B405D0E20E0001C26F7F0E05D0FFFF50
:101DB000F90E0001C26F7F0EFFFFC36F6F0EA16FA0
:101DC000010EA26F770EA36F7E0EA46FC2C0A5F0A6
:101DD000C3C0A6F042EC39F001010D05D8B405D01E
:101DE000E20E0001C46F7F0E05D0FFFFF90E000167
:101DF000C46F7F0EFFFFC56F5A0EA16F010EA26F59
:101E0000850EA36F7E0EA46FC4C0A5F0C5C0A6F05A
:101E100042EC39F001010C05D8A45AD00E0EDEECCC
:101E200039F00001C66FC40EC625806F816BFF0EAE
:101E30008123000E836F080E826FD0EC1EF000012C
:101E40008051656EC40EF925806F816BFF0E812372
:101E5000000E836F080E826FD0EC1EF000018051DF
:101E6000646EF951DEEC39F00101146F0001F929BB
:101E7000DEEC39F00101136F0001F951020FDEECC5
:101E800039F00101126F0001F951030FDEEC39F056
:101E90000101116F0001F951040FDEEC39F001016D
:101EA000106F0001F951050FDEEC39F001010F6FE1
:101EB0000001F951060FDEEC39F001010E6F00014F
:101EC000F951070FDEEC39F001010D6F000E0C6FB8
:101ED000FFFF010EE4EC3BF00009D8B406D0000E81
:101EE0000001E06FDEC0DFF032D0FFFF020EE4EC55
:101EF0003BF00009D8B409D0080E0001F95F3C0E90
:101F0000F96121D03C0EF96F1ED0FFFF030EE4EC07
:101F10003BF00009D8B41BD065500001BB6FBC6B0F
:101F20006450BD6FBE6B010EBD27000EBE23BB51BA
:101F3000BD5DBE51800ABF6FBC51800ABF59D8B089
:101F400006D0080EF927FFFF010E01010C6FFFFFFD
:101F50001200FFFFFFFF9D0E0001A16F010EA26F97
:101F6000090EA36F7C0EA46FECC0A5F0A66BEDC0AC
:101F7000A7F0A86BEBC0A9F0AA6BEAC0ABF0AC6B02
:101F800042EC39F0010E0101996FFFC09AF1050E84
:101F9000AC6F50D0FFFF5A0E0001A16F010EA26F6F
:101FA000A00EA36F7D0EA46F42EC39F058D0FFFF56
:101FB0005A0E0001A16F010EA26FDD0EA36F7E0EFF
:101FC000A46F42EC39F04BD0FFFF5A0E0001A16F15
:101FD000010EA26F850EA36F7C0EA46F42EC39F048
:101FE00026D0FFFF5A0E0001A16F010EA26F7D0ED9
:101FF000A36F7D0EA46F42EC39F019D0FFFF5A0E8B
:102000000001A16F010EA26F1E0EA36F7C0EA46FC4
:1020100042EC39F00CD0FFFF5A0E0001A16F010E07
:10202000A26F330EA36F7C0EA46F42EC39F0FFFF5A
:102030008B8215D0FFFF0001F251010AD8B4AAD754
:10204000030AD8B4B4D7010AD8B4BED7070AD8B4A3
:10205000C8D7010AD8B4D2D7030AD8B4DCD7FFFF57
:102060000001F105D8A40AD0840EA16F010EA26F61
:10207000710EA36F7C0EA46F42EC39F0FFFF0001DC
:10208000F051D8B413D0700EA16F010EA26F220EC2
:10209000A36F7D0EA46F42EC39F0000E0001F16FCA
:1020A0008B828C9E8996000EF86F17D0FFFFD85157
:1020B000B6EC1FF0BBC0C8F0BCC0C9F0710E000187
:1020C000A16F010EA26FF20EA36F7D0EA46FC8C0A8
:1020D000A5F0C9C0A6F042EC39F0FFFF020E0001E6
:1020E000F26103D0F105D8A40ED0FFFFF351D8B4AC
:1020F0000AD05A0EA16F010EA26FD50EA36F7C0EEF
:10210000A46F42EC39F0FFFF010EE4EC3BF0000954
:10211000D8B403D05EEC38F00CD0FFFF040EE4EC32
:102120003BF00009D8B405D0010E0001DF6F010EAD
:102130006B6EFFFF82B011D0990E0001806F010E0F
:10214000816F140E826F140E836F3FEC38F0000124
:10215000F251D8A402D0010EF26FFFFF0001FC5132
:10216000D8A402D0040E0BD0FFFFFB51D8A402D09C
:10217000050E05D0FFFFFA51D8A403D0060EFFFFCD
:10218000F26FFFFF1200FFFFFFFF990E0001A16F2A
:10219000010EA26FCB0EA36F7F0EA46F42EC39F03D
:1021A000840E0001A16F010EA26F010EA36F7E0EBF
:1021B000A46F7BC0A5F0A66B7CC0A7F0A86B7DC008
:1021C000A9F0AA6B42EC39F0A40E0001A16F010E38
:1021D000A26FC50EA36F7F0EA46F42EC39F08F0E75
:1021E0000001A16F010EA26F100EA36F7E0EA46FEF
:1021F0007AC0A5F0A66B79C0A7F0A86B78C0A9F04B
:10220000AA6B42EC39F0A1D0FFFF840E0001806F71
:10221000010E816F010E826F020E836F3FEC38F06A
:10222000030EE4EC3BF00009D8A47B2A020EE4EC98
:102230003BF00009D8B49FD07B069DD0FFFF840EF1
:102240000001806F010E816F040E826F050E836F97
:102250003FEC38F0030EE4EC3BF00009D8A47C2AF4
:10226000020EE4EC3BF00009D8B485D07C0683D0A4
:10227000FFFF840E0001806F010E816F070E826FD9
:10228000080E836F3FEC38F0030EE4EC3BF00009DE
:10229000D8A47D2A020EE4EC3BF00009D8B46BD040
:1022A0007D0669D0FFFF840E0001806F010E816FF3
:1022B0000C0E826F0D0E836F3FEC38F0030EE4ECD2
:1022C0003BF00009D8A47A2A020EE4EC3BF00009A6
:1022D000D8B451D07A064FD0FFFF840E0001806F32
:1022E000010E816F0F0E826F100E836F3FEC38F07E
:1022F000030EE4EC3BF00009D8A4792A020EE4ECCA
:102300003BF00009D8B437D0790635D0FFFF840EF2
:102310000001806F010E816F120E826F130E836FAA
:102320003FEC38F0030EE4EC3BF00009D8A4782A27
:10233000020EE4EC3BF00009D8B41DD078061BD0A7
:10234000FFFF010E0001E06F16D0FFFF0001E0511A
:10235000010AD8B459D7030AD8B470D7010AD8B43F
:1023600087D7070AD8B49ED7010AD8B4B5D7030ACD
:10237000D8B4CCD7E5D7FFFF66EC39F0040EE4EC17
:102380003BF00009D8B403D00001E02B12D0FFFFCE
:10239000010EE4EC3BF00009D8B40BD0000E0001B4
:1023A000E06F770E8C6F000E8D6F07EC1AF0DEC0B9
:1023B000DFF0FFFF1200FFFFFFFF000E0001996F2B
:1023C000000E956F000E966F000E976F000E986FBF
:1023D000000E996FFFFF130E996501D077D0FFFFB4
:1023E0009951010DF3508825D96EF4508921DA6E88
:1023F000DF50906F010E9025916F926B000E92232B
:10240000936B92BF93079351946F9151952792517B
:10241000962393519723945198239951010DF3508A
:102420008A25D96EF4508B21DA6EDF50906F020E40
:102430009025916F926B000E9223936B92BF93073E
:102440009351946F915195279251962393519723CD
:10245000945198239951010DF3508C25D96EF45065
:102460008D21DA6EDF50906F030E9025916F926B85
:10247000000E9223936B92BF93079351946F9151E7
:1024800095279251962393519723945198239951CC
:10249000010DF3508E25D96EF4508F21DA6EDF5086
:1024A000906F040E9025916F926B000E9223936BA8
:1024B00092BF93079351946F915195279251962310
:1024C0009351972394519823992B84D7FFFF0101AF
:1024D000DE510001951910E10101DF51000196194B
:1024E0000BE10101E0510001971906E10101E15101
:1024F00000019819D8B437D095C0DEF196C0DFF14D
:1025000097C0E0F198C0E1F1010E836F010EABECD2
:102510001DF088C084F089C085F0C8EC37F0010E4A
:102520000001836F020EABEC1DF08AC084F08BC0FB
:1025300085F0C8EC37F0000E0001836F030EABECA2
:102540001DF08CC084F08DC085F0C8EC37F0000E13
:102550000001836F040EABEC1DF08EC084F08FC0C1
:1025600085F0C8EC37F0FFFF000E0001996FFFFF08
:10257000130E996501D02BD0FFFF9951010DF35037
:102580008825D96EF4508921DA6E200EDF6E9951BC
:10259000010DF3508A25D96EF4508B21DA6E200E8E
:1025A000DF6E9951010DF3508C25D96EF4508D21B9
:1025B000DA6E200EDF6E9951010DF3508E25D96E23
:1025C000F4508F21DA6E200EDF6E992BD0D7FFFFEB
:1025D0001200FFFFFFFFD1D0FFFF3BEC37F0DD0E15
:1025E0000001A16F7F0EA26F21EC38F0624A632ACE
:1025F000050E0001F56FDCD0FFFFF90E936F7F0E23
:10260000946F03EC38F00009D8B40ED03BEC37F0EF
:10261000AD0E0001A16F7E0EA26F21EC38F0624A70
:10262000632A050E0001F56FFFFF0001F551D8A4E4
:10263000BFD0000E636E000E626E1A0E806F000E29
:10264000816FE8EC35F0B4D0FFFFF90E0001936F15
:102650007F0E946F03EC38F00009D8B483D03BECC4
:1026600037F00001F751D8B404D0C20EBD6F010E8F
:1026700004D0FFFFCE0EBD6F010EFFFFBE6F350E03
:10268000A16F7D0EA26FBDC0A3F0BEC0A4F021EC6F
:1026900038F0050E0001F56F624A632A89D0FFFF0A
:1026A000FC0E936F7F0E946F03EC38F00009D8B4E2
:1026B00059D03BEC37F0AB0E0001A16F7A0EA26F40
:1026C000EBC0A3F0A46BEAC0A5F0A66BE9C0A7F02D
:1026D000A86BECC0A9F0AA6BEDC0ABF0AC6BEEC080
:1026E000ADF0AE6BB90EAF6F7E0EB06F21EC38F06F
:1026F000030E0001816FE80E806F20EC37F01A0E98
:102700000001806F000E816FE8EC35F0624A632AA9
:102710001E0E0001F56F26D0FFFFF90E936F7F0E9E
:10272000946F03EC38F00009D8B411D00001F751D0
:10273000D8A403D0010EF76F05D0FFFF000EF76F8E
:10274000000EF46FFFFF000E636E000E626EFFFF5F
:10275000D70E0001936F7F0E946F03EC38F00009E1
:10276000D8A405D0FFFF0001F551D8A421D0FFFF68
:10277000000E636E000E626E1BD0FFFF62C0BBF0E6
:1027800063C0BCF00001BC51000AD8A4F0D7BB5113
:10279000000AD8B421D7010AD8B42ED7030AD8B476
:1027A00053D7010AD8B47BD7070AD8B4B5D7DFD737
:1027B000FFFF1200FFFFFFFF990E0001A16F010E46
:1027C000A26F480EA36F7C0EA46FE851BB6FBC6B69
:1027D000BB1FBC1FBB4BBC2BFD51BB25A56F000E07
:1027E000BC21A66F42EC39F0840E0001A16F010EEE
:1027F000A26F990EA36F7C0EA46FFDC0A5F0A66B0F
:1028000042EC39F06F0E0001A16F010EA26FAD0E08
:10281000A36F7C0EA46FE7C0A5F0A66B42EC39F065
:102820000001EF51D8B404D0F10EBD6F7F0E04D07B
:10283000FFFFF50EBD6F7F0EFFFFBE6F5A0EA16F3B
:10284000010EA26F380EA36F7F0EA46FBDC0A5F05E
:10285000BEC0A6F042EC39F067D0FFFF840E000145
:10286000806F010E816F0B0E826F0E0E836F3FEC37
:1028700038F0030EE4EC3BF00009D8B402D00001BC
:10288000FD2BFFFF020EE4EC3BF00009D8B459D059
:102890000001FD0756D0FFFF6F0E806F010E816FA4
:1028A000090E826F0B0E836F3FEC38F0030EE4ECE1
:1028B0003BF00009D8B402D00001E72BFFFF020E65
:1028C000E4EC3BF00009D8B402D00001E707FFFFB9
:1028D000180E0001E76101D034D0FFFF000EE76F52
:1028E00030D0FFFF5A0E806F010E816F090E826F8C
:1028F0000B0E836F3FEC38F0030EE4EC3BF0000965
:10290000D8B403D0010E0001EF6FFFFF020EE4EC1C
:102910003BF00009D8B415D0000E0001EF6F11D0C4
:10292000FFFF000EE06F0DD0FFFF0001E051000A35
:10293000D8B493D7010AD8B4AED7030AD8B4D1D744
:10294000EFD7FFFF010EE4EC3BF00009D8B412D042
:10295000FDC08CF0060E1FEC39F0E7C08CF00B0EBA
:102960001FEC39F0EFC08CF00F0E1FEC39F0DEC019
:10297000DFF009D0FFFF040EE4EC3BF00009D8B40F
:1029800002D00001E02BFFFF1200FFFFFFFFC9D0C4
:10299000FFFF3BEC37F07F0E0001A16F7F0EA26FAF
:1029A00021EC38F0050E0001F56F000E636E010E8C
:1029B000626E000EF76FC7D0FFFFF551D8A43CD070
:1029C000DD0EA16F7F0EA26F21EC38F0000E00012A
:1029D000816F640E806F20EC37F0F90E0001936F69
:1029E0007F0E946F03EC38F00009D8B40DD0000EC0
:1029F000636E000E626E000E766E020E0001F2191A
:102A0000D8A41AD0000E16D0FFFF000E636E000E81
:102A1000626E1A0E0001806F000E816FE8EC35F0D7
:102A2000762A020E766408D0000E766E780E0001CB
:102A3000FF6F020EFFFFF26FFFFFB00E0001936FFA
:102A40007F0E946F03EC38F00009D8B47CD0B00E40
:102A50000001BB6F7F0EBC6F2C0EBD6F79EC19F0BF
:102A6000BBC0C5F0BCC0C6F091EC1BF0C5C0CEF039
:102A7000C6C0CFF00001CFBF06D0CF5108E1080E8D
:102A8000CE5DD8B003D0FFFF200E3BD0FFFFCFBFFD
:102A900011D0CF5104E1080ECE5DD8A00BD0CFBF2E
:102AA00006D0CF5108E10C0ECE5DD8B003D0FFFFA9
:102AB000020E27D0FFFFCFBF11D0CF5104E10C0E83
:102AC000CE5DD8A00BD0CFBF06D0CF5108E1110EFC
:102AD000CE5DD8B003D0FFFF030E13D0FFFFCFBFF2
:102AE00012D0CF5104E1110ECE5DD8A00CD0CFBFD3
:102AF00006D0CF5109E11F0ECE5DD8B004D0FFFF44
:102B0000040EFFFFFF6FFFFF000E636E000E626E8C
:102B1000050E7E6E18D0FFFF000E636E000E626E13
:102B200012D0FFFF62C0CCF063C0CDF00001CD51E8
:102B3000000AD8A4F0D7CC51000AD8B429D7010A8A
:102B4000D8B43AD7E8D7FFFF1200FFFFFFFF990E76
:102B50000001A16F010EA26F0F0EA36F7D0EA46F77
:102B600042EC39F0840E0001A16F010EA26F690ED4
:102B7000A36F7E0EA46F42EC39F0940E0001A16F9A
:102B8000010EA26FEC0EA36F7F0EA46FE6C0A5F03E
:102B9000A66B42EC39F06F0E0001A16F010EA26F1F
:102BA000C50EA36F7E0EA46F42EC39F07F0E0001BC
:102BB000A16F010EA26FEC0EA36F7F0EA46FE5C094
:102BC000A5F0A66B42EC39F05A0E0001A16F010E80
:102BD000A26F6B0EA36F7D0EA46F0AC1A5F00BC18F
:102BE000A6F042EC39F05DD0FFFF840E0001806F4B
:102BF000010E816F100E826F140E836F3FEC38F060
:102C0000030EE4EC3BF00009D8B402D00001E62B3F
:102C1000FFFF020EE4EC3BF00009D8B44FD00001F6
:102C2000E6074CD0FFFF6F0E806F010E816F100E14
:102C3000826F140E836F3FEC38F0030EE4EC3BF030
:102C40000009D8B402D00001E52BFFFF020EE4EC2E
:102C50003BF00009D8B432D00001E5072FD0FFFFC8
:102C60005A0E806F010E816F0B0E826F140E836FF0
:102C70003FEC38F0020EE4EC3BF00009D8B41ED073
:102C8000000E01010B6F000E0A6F000E00018C6F29
:102C9000080E1FEC39F012D0FFFF000E0001E06FAC
:102CA0000DD0FFFF0001E051000AD8B49DD7010A02
:102CB000D8B4B8D7030AD8B4D2D7EED7FFFF040EE2
:102CC000E4EC3BF00009D8B403D00001E02B16D0AF
:102CD000FFFF010EE4EC3BF00009D8B40FD0E6C0D2
:102CE0008CF0070E1FEC39F0E5C08CF00D0E1FECD8
:102CF00039F0000E0001E06FDEC0DFF0FFFF1200D0
:102D0000FFFFFFFF000E0001B26F000EAD6F000E5F
:102D1000AC6F000EB16F000EB06F000EAF6F000E03
:102D2000AE6FC296C298C29A000EB26FFFFF0E0E2F
:102D3000B26501D043D0FFFF000EB16F000EB06F3F
:102D40000F0EFFFFE82EFDD7C284FFFFC2A4FDD700
:102D5000C4500001AB6FAA6BC350AA25B06F000E20
:102D6000AB21B16FB0C08EF0B1C08FF0000E916F8B
:102D7000660E906F030E936F980E926F000E956F14
:102D8000000E946F000E976F640E966FE7EC18F0CC
:102D900000018E51AC278F51AD23B1BF06D0B15188
:102DA0000BE1320EB05DD8B006D0FFFFFE51D8A4C3
:102DB00002D0010EF06FFFFFB22BB8D7FFFFACC0FF
:102DC00080F0ADC081F0000E836F0F0E826FD0ECEB
:102DD0001EF06E50020D000EF324D96E010EF42089
:102DE000DA6E000180C0DEFF81C0DDFF040E6E647C
:102DF00003D0000E6E6E02D0FFFF6E2AFFFF000EA2
:102E0000B26FFFFF040EB26501D00FD0FFFFB251C9
:102E1000020D000EF324D96E010EF420DA6EDE509E
:102E2000AE27DD50AF23B22BECD7FFFFAEC080F052
:102E3000AFC081F0000E836F050E826FD0EC1EF0E4
:102E400080C0D8F081C0D9F01200FFFFFFFFC8ECAE
:102E500035F0000E00018B6FD00E8A6FE1EC35F07B
:102E6000000E00018B6F000E8A6FE1EC35F0D4ECA0
:102E700035F0000E00018B6FD10E8A6FE1EC35F05A
:102E8000000120EE01F08C51D9268D51DA22000E7E
:102E9000826F010E816FABEC37F00001815126EC9F
:102EA00036F0DF6E000120EE02F08C51D9268D51F4
:102EB000DA22000E826F010E816FABEC37F0000159
:102EC000815126EC36F0DF6E000120EE03F08C51CC
:102ED000D9268D51DA22000E826F010E816FABEC84
:102EE00037F00001815126EC36F0DF6E000E000154
:102EF000826F010E816FABEC37F00001815126EC3F
:102F000036F08CC0D9FF8DC0DAFFDF6E000120EEF5
:102F100004F08C51D9268D51DA22000E826F010EF9
:102F2000816FABEC37F00001815126EC36F0DF6E9B
:102F3000000120EE05F08C51D9268D51DA22000EC9
:102F4000826F010E816FABEC37F00001815126ECEE
:102F500036F0DF6E000120EE06F08C51D9268D513F
:102F6000DA22000E826F000E816FABEC37F00001A9
:102F7000815126EC36F0DF6ECEEC35F01200FFFF0B
:102F8000FFFF990E0001A16F010EA26F9A0EA36FB1
:102F90007F0EA46F42EC39F0840E0001A16F010E88
:102FA000A26FC10EA36F7C0EA46F42EC39F06F0EBE
:102FB0000001A16F010EA26FEF0EA36F7B0EA46F35
:102FC00089A603D0BB6BBB2B03D0FFFF0001BB6BFB
:102FD000FFFFBB51A56FA66B8CAE03D0BC6BBC2BA7
:102FE00003D0FFFF0001BC6BFFFFBC51A76FA86BB4
:102FF0008DA003D0BD6BBD2B03D0FFFF0001BD6BC7
:10300000FFFFBD51A96FAA6B8DA203D0BE6BBE2B73
:1030100003D0FFFF0001BE6BFFFFBE51AB6FAC6B77
:103020008DA403D0BF6BBF2B03D0FFFF0001BF6B8C
:10303000FFFFBF51AD6FAE6B8BA203D0C06BC02B37
:1030400003D0FFFF0001C06BFFFFC051AF6FB06B3B
:1030500080B402D0010E02D0FFFF000EFFFFB16F5F
:10306000B26B80BA02D0010E02D0FFFF000EFFFF4C
:10307000B36FB46B42EC39F05A0E0001A16F010E30
:10308000A26FF50EA36F7E0EA46FB90EA56F7E0E14
:10309000A66F42EC39F0010EE4EC3BF00009D8A435
:1030A000DEC0DFF01200FFFFFFFF000E0001956F92
:1030B000000E946F0C0EDEEC39F00001946F140ECC
:1030C0009419D8B416D0000E956FFFFF630E956566
:1030D00001D009D0FFFF000E8C6F95511FEC39F025
:1030E0000001952BF2D7FFFF140E8C6F0C0E1FEC16
:1030F00039F0FFFF000EDEEC39F00001E36F010E46
:10310000DEEC39F00001E26F020EDEEC39F0000176
:10311000E16F080E72EC37F08EC00AF18FC00BF130
:10312000040EDEEC39F00001E46F060EDEEC39F03F
:103130000001FD6F070EDEEC39F00001E66F0A0EAC
:10314000DEEC39F00001E86F0B0EDEEC39F0000127
:10315000E76F0D0EDEEC39F00001E56F0F0EDEECCF
:1031600039F00001EF6F000E956FFFFF0A0E9565B5
:1031700001D011D0FFFF9551010DCE0EF324D96E71
:10318000010EF420DA6E9551140FDEEC39F0DF6E8B
:103190000001952BEAD7FFFF000E956FFFFF0A0E87
:1031A000956501D011D0FFFF9551010DC20EF3249A
:1031B000D96E010EF420DA6E9551280FDEEC39F04D
:1031C000DF6E0001952BEAD7FFFF1200FFFFFFFF24
:1031D00090C098F091C099F00001981F991F984BEA
:1031E000992B8E519825A26F8F519921A36F94C06E
:1031F00098F095C099F0981F991F984B992B96516C
:103200009825A46F97519921A56F90C098F091C00F
:1032100099F0981F991F984B992B92519825A66F5A
:1032200093519921A76FA2C080F0A3C081F0000E36
:1032300081BFFF0E826F836FA4C084F0A5C085F0AC
:10324000000E85BFFF0E866F876F64EC3AF080C07A
:103250009AF081C09BF082C09CF083C09DF09AC020
:1032600080F09BC081F09CC082F09DC083F0A6C01E
:1032700084F0A7C085F00001000E85BFFF0E866FA9
:10328000876F07EC1CF080C09EF081C09FF082C069
:10329000A0F083C0A1F0000194519E25A86F955124
:1032A0009F21A96F9451A85DA951800A986F9551EB
:1032B000800A9859D8B005D094C08EF095C08FF090
:1032C00015D0FFFFA851965D9751800A986FA951BC
:1032D000800A9859D8B005D096C08EF097C08FF06C
:1032E00005D0FFFFA8C08EF0A9C08FF0FFFF12002D
:1032F000FFFFFFFFAE0E0001806F010E816F000E19
:10330000836F000E826F000E856F140E846F8EEC3B
:1033100037F0BBC080F0BCC081F034EC3AF080C024
:10332000C0F081C0C1F01E0E00018F6F010E906FC2
:10333000BBC091F0BCC092F06AEC1FF08FC0C3F02C
:1033400090C0C4F00001C351C411D8B458D0000ECD
:10335000C26FC0C0C2F042D0FFFFC251010DF35096
:10336000C325D96EF450C421DA6EBD51DE18D8A43D
:1033700017D0AE0EA16F010EA26FE70EA36F7F0EE6
:10338000A46FAE0EA56F010EA66F000EA86F000E03
:10339000A76F42EC39F0AE0E0001BB6F010E33D0C7
:1033A000FFFFAE0EA16F010EA26FE70EA36F7F0E9F
:1033B000A46FAE0EA56F010EA66FC251010DF350A2
:1033C000C325D96EF450C421DA6EDF50BE6FBE51F2
:1033D000A76FA86B42EC39F00001C22BFFFFC3C0FE
:1033E00080F0C4C081F034EC3AF00001C251BE6FED
:1033F000BF6B8051BE5D8151BF59D8A0ADD7FFFFD3
:10340000000EBB6F000EFFFFBC6F1200FFFFFFFF3F
:10341000C8EC35F0000E00018B6FD00E8A6FE1EC26
:1034200035F0000E00018B6F000E8A6FE1EC35F075
:10343000000120EE01F08C51D9268D51DA22DF50A7
:10344000DCEC38F000018E6F8E518A6F8B6BE1ECF3
:1034500035F0000120EE02F08C51D9268D51DA2290
:10346000DF50DCEC38F000018E6F8E518A6F8B6B71
:10347000E1EC35F0000120EE03F08C51D9268D519E
:10348000DA22DF50DCEC38F000018E6F8E518A6F4B
:103490008B6BE1EC35F08CC0D9FF8DC0DAFFDF50CB
:1034A000DCEC38F000018E6F8E518A6F8B6BE1EC93
:1034B00035F0000120EE04F08C51D9268D51DA222E
:1034C000DF50DCEC38F000018E6F8E518A6F8B6B11
:1034D000E1EC35F0000120EE05F08C51D9268D513C
:1034E000DA22DF50DCEC38F000018E6F8E518A6FEB
:1034F0008B6BE1EC35F0000120EE06F08C51D92603
:103500008D51DA22DF50DCEC38F000018E6F8E51E5
:103510008A6F8B6BE1EC35F0CEEC35F01200FFFFDB
:10352000FFFFB6EC35F0000E036ED00E026EDAEC43
:1035300035F0000E036E000E026EDAEC35F0C2ECD0
:1035400035F0000E036ED10E026EDAEC35F020EE8F
:1035500001F00650D9260750DA22000E036E010E44
:10356000026E05EC37F0025002EC36F0DF6E20EE12
:1035700002F00650D9260750DA22000E036E010E23
:10358000026E05EC37F0025002EC36F0DF6E20EEF2
:1035900003F00650D9260750DA22000E036E010E02
:1035A000026E05EC37F0025002EC36F0DF6E000ED2
:1035B000036E010E026E05EC37F0025002EC36F09D
:1035C00006C0D9FF07C0DAFFDF6E20EE04F0065018
:1035D000D9260750DA22000E036E010E026E05ECAA
:1035E00037F0025002EC36F0DF6E20EE05F00650A8
:1035F000D9260750DA22000E036E010E026E05EC8A
:1036000037F0025002EC36F0DF6E20EE06F0065086
:10361000D9260750DA22000E036E000E026E05EC6A
:1036200037F0025002EC36F0DF6EBCEC35F01200E1
:10363000FFFFFFFF81B409D0010E676E6650D8B45A
:103640000FD0010E01011C6F0BD0FFFF81A408D029
:103650006750D8B405D0010E01011C6F000E676ED3
:10366000FFFF81B809D0010E01011B6F6650D8B46D
:103670000ED0010E1A6F0BD0FFFF81A808D00101F8
:103680001B51D8B404D0010E1A6F000E1B6FFFFF40
:1036900081BA09D0010E0101196F6650D8B40ED05D
:1036A000010E186F0BD0FFFF81AA08D0010119513C
:1036B000D8B404D0010E186F000E196FFFFF81B649
:1036C00009D0010E0101176F6650D8B40ED0010E5B
:1036D000166F0BD0FFFF81A608D001011751D8B497
:1036E00004D0010E166F000E176FFFFF81B481A684
:1036F00004D081A802D081BA0BD0FFFF0101152BA5
:10370000070E15650BD0080E156F010E666E06D0FC
:10371000FFFF000E666E000E0101156FFFFF120025
:10372000FFFFFFFF04D0FFFF0001C54BC62BFFFFCB
:10373000C5C0D9FFC6C0DAFF200EDE18D8B4F3D753
:10374000C5C0D9FFC6C0DAFF090EDE18D8B4EBD762
:10375000000E0001CB6F000ECA6F000EC96FC5C00E
:10376000D9FFC6C0DAFF2D0EDE18D8A402D0C92BAF
:1037700028D0FFFFC5C0D9FFC6C0DAFF2B0EDE1868
:10378000D8A422D01ED0FFFFCAC080F0CBC081F0E9
:10379000000E0001836F0A0E826FA5EC36F0C5C0E3
:1037A000D9FFC6C0DAFFDF500001C76FC86B805178
:1037B000C7278151C823D00EC725CA6FFF0EC82165
:1037C000CB6FFFFFC54BC62BFFFFC5C0D9FFC6C0DF
:1037D000DAFFDF507BEC36F0D8B0D5D70001C95105
:1037E000D8B40DD0CAC0C7F0CBC0C8F0C71FC81F1F
:1037F000C74BC82BC7C0C5F0C8C0C6F005D0FFFF77
:10380000CAC0C5F0CBC0C6F0FFFF1200FFFFFFFF2C
:10381000000E0001896F87AF0AD0871F861F851FA2
:10382000846D000E852386238723010E896FFFFF99
:1038300083AF0AD0831F821F811F806D000E8123FA
:1038400082238323010E891BFFFF000E8A6F000E67
:103850008B6F000E8C6F000E8D6F84518511861159
:103860008711D8B42ED0010E886F07D0FFFFD890F3
:103870008437853786378737882BFFFF87AFF6D7A2
:10388000FFFFD8908A378B378C378D378451805D16
:10389000855181598651825987518359D8A009D0C1
:1038A0008451805F8551815B8651825B8751835B48
:1038B0008A81FFFFD8908733863385338433882FFE
:1038C000DFD7FFFF8951D8B408D08D1F8C1F8B1F05
:1038D0008A6D000E8B238C238D23FFFF8AC080F01E
:1038E0008BC081F08CC082F08DC083F01200FFFF8E
:1038F000FFFF0001F805D8A406D0FA05D8B480A4CB
:1039000002D06C2A6D2AFFFF6A50D8A459D0EE2B42
:103910003B0EEE6517D044EC36F0000E0001EE6F62
:10392000ED2B3B0EED650ED0000EED6FEC2B170E60
:10393000EC6508D0000EEC6FE82BE8C004F00A0E2E
:10394000E5EC37F0FFFF0001ED517918D8B438D01D
:1039500080B40AD001010A4B0B2B0AC106F00BC13F
:1039600007F0080E33EC36F0FFFF770E066E000E00
:10397000076E90EC1AF03C0E786415D03C0E79641A
:1039800012D0180E7A640FD0ECEC36F0EEC078F05E
:10399000EDC079F0ECC07AF0EBC07BF0EAC07CF0CF
:1039A000E9C07DF00DD0FFFF78C0EEF079C0EDF0FA
:1039B0007AC0ECF07BC0EBF07CC0EAF07DC0E9F0AF
:1039C000FFFF1200FFFFFFFF0001E351C86FC96B4B
:1039D000C851D85DD951800ACA6FC951800ACA59E5
:1039E000D8B008D0FE51D8B489B604D0040EFE6F0A
:1039F000898611D0FFFFE451C86FC96BC851D85DEB
:103A0000D951800ACA6FC951800ACA59D8A003D0B7
:103A1000F151D8B48996FFFFE151C86FC96BD851F5
:103A2000C85DC951800ACA6FD951800ACA59D8A045
:103A30000CD0FE51D8A409D0F851D8A406D0010E5C
:103A4000F16F030EFE6F010EF86FFFFFE251C86FBA
:103A5000C96BD851C85DC951800ACA6FD951800A53
:103A6000CA59D8A009D0FE51D8B48CBE05D0040ED6
:103A7000FE6F010EF16F8C8EFFFFF105D8A405D00B
:103A8000010EF46F010EA6EC0BF0FFFF1200FFFF1A
:103A9000FFFF710EF66E7A0EF76E20EE87F02F0E96
:103AA0000900FFFFF5CFDEFFE806FAE2040E8FEC17
:103AB00036F0000E8FEC36F0320EFFFFE82EFDD709
:103AC000000E0001BB6F000EBA6F000EB96F000E42
:103AD000BB6FFFFF040EBB6501D03AD0FFFFB905F5
:103AE000D8A402D0000EBB6FFFFF000EBA6FFFFF1D
:103AF000070EBA6501D028D0FFFFB951D8A405D070
:103B0000000EB86F000EB76F18D0FFFFBB51080D45
:103B1000870E846F000E856FF3508427F450852341
:103B2000BA51010DF3508425D96EF4508521DA6E17
:103B3000DF50866F8651B76FB86BFFFFB75109EC46
:103B40003AF00001BA2BD3D7FFFFB92BBB2BC1D75B
:103B5000FFFF1200FFFFFFFF0001846F4CD0FFFF4B
:103B6000000183517F0F876F87390F0B856F875156
:103B70000F0B866F85518FEC36F0000186518FEC6C
:103B800036F048D0FFFF00018351BF0F876F8739A0
:103B90000F0B856F87510F0B866F85518FEC36F0B9
:103BA000000186518FEC36F035D0FFFF00018351C4
:103BB000940F876F87390F0B856F87510F0B866FB7
:103BC00085518FEC36F0000186518FEC36F022D013
:103BD000FFFF00018351D40F876F87390F0B856F6B
:103BE00087510F0B866F85518FEC36F0000186519F
:103BF0008FEC36F00FD0FFFF00018451010AD8B4DA
:103C0000AED7030AD8B4BED7010AD8B4CED7070AB4
:103C1000D8B4DED7FFFF1200FFFFFFFF0E0EDEEC71
:103C200039F000018E6F8E518F6F906B905104E1CF
:103C30003C0E8F5DD8A006D0905105E1FB0E8F5D44
:103C4000D8A005D0FFFF000E906F3C0E8F6FFFFFD6
:103C5000EBC08CF08F511FEC39F0EAC08CF0000102
:103C60008F4B902B8F511FEC39F0E9C08CF0000185
:103C70008F4B902B8F511FEC39F0ECC08CF0000172
:103C80008F4B902B8F511FEC39F0EDC08CF0000161
:103C90008F4B902B8F511FEC39F0FCC08CF0000142
:103CA0008F4B902B8F511FEC39F0FBC08CF0000133
:103CB0008F4B902B8F511FEC39F0FAC08CF0000124
:103CC0008F4B902B8F511FEC39F000018F4B902BB5
:103CD0008FC08CF00E0E1FEC39F01200FFFFFFFFBB
:103CE000710EF66E7A0EF76E20EE08F02F0E0900B8
:103CF000FFFFF5CFDEFFE806FAE2040E68EC36F0CF
:103D0000000E68EC36F0320EFFFFE82EFDD7000EF5
:103D10003C6E000E3B6E000E3A6E000E3C6EFFFFD6
:103D2000040E3C6401D039D0FFFF3A04D8A402D07D
:103D3000000E3C6EFFFF000E3B6EFFFF070E3B6464
:103D400001D027D0FFFF3A50D8A405D0000E396E1D
:103D5000000E386E18D0FFFF3C50080D080E056E9F
:103D6000000E066EF3500526F45006223B50010D5E
:103D7000F3500524D96EF4500620DA6EDF50076E3A
:103D80000750386E396AFFFF38508DEC39F03B2A06
:103D9000D4D7FFFF3A2A3C2AC2D7FFFF1200FFFF09
:103DA000FFFF000E0001856F83AF06D0826D831F79
:103DB000D8B0832B010E856FFFFF81AF06D0806DD9
:103DC000811FD8B0812B010E851BFFFF000E876F6E
:103DD000000E866F82518311D8B420D0010E846FFB
:103DE00005D0FFFFD89082378337842BFFFF83AF46
:103DF000F8D7FFFFD890863787378251805D83518F
:103E00008159D8A005D08251805F8351815B868122
:103E1000FFFFD89083338233842FEBD7FFFF855188
:103E2000D8B404D0866D871FD8B0872BFFFF86C01B
:103E300080F087C081F01200FFFFFFFF3AD0FFFF44
:103E400086C0D9FF87C0DAFFDF50D8B411D086C052
:103E5000D9FF87C0DAFFDF5000018C6F88C0F6FF02
:103E600089C0F7FF0800FFFFF5508C19D8B41CD0AB
:103E7000FFFF88C0F6FF89C0F7FF0800FFFFF5507D
:103E800000018C6F8D6B8C1F8D1F8C4B8D2B86C012
:103E9000D9FF87C0DAFFDF508E6F8E518C25866F79
:103EA000000E8D21876F13D0FFFF864B872B884B29
:103EB000892BFFFF00018A07D8A08B078A29C0E160
:103EC0008B29D8A4BCD7000E876F000E866FFFFF2A
:103ED0001200FFFFFFFF35D0FFFF8FC086F090C0BC
:103EE00087F091C088F092C089F091C080F092C0B4
:103EF00081F034EC3AF080C08AF081C08BF01DEC88
:103F00001FF0000186518711D8A405D08FC08FF013
:103F100090C090F028D0FFFF010E8F25806F000E1B
:103F20009021816F91C0F6FF92C0F7FF0800FFFF5C
:103F3000F550826F836BBCEC38F080C08FF081C08D
:103F400090F0FFFF00018F519011D8B407D08FC0BF
:103F5000D9FF90C0DAFFDF50D8A4BED7FFFF000E14
:103F60008F6F000E906FFFFF1200FFFFFFFF000139
:103F7000C56F630E0001C56104D0C5C0C6F0C76B34
:103F800005D0FFFF000EC76F000EC66FFFFFDAC13E
:103F9000C1F0DBC1C2F0DCC1C3F0DDC1C4F0C6C0FA
:103FA00080F0C7C081F0000E836F0A0E826FD0ECE4
:103FB0001EF000018051300FC16F2E0EC26FC6C0BF
:103FC00080F0C7C081F0000E836F0A0E826F68EC2C
:103FD0003CF000018051300FC36F000EC46FBD0E66
:103FE000A16F000EA26FC10EA36F000EA46F42EC72
:103FF00039F0BD0E0001BB6F000EBC6F1200FFFF59
:106B5C00053C0101010F0A202020202064000000C8
:106B6C00FFFF0DEC36F0C5801200FFFFFFFF0DECB0
:106B7C0036F0C5841200FFFFFFFF0DEC36F0C58226
:106B8C001200FFFFFFFF19EC36F0C5801200FFFF6B
:106B9C00FFFF19EC36F0C5841200FFFFFFFF19EC64
:106BAC0036F0C5821200FFFFFFFF0DEC36F002C07D
:106BBC00C9FF1200FFFFFFFF19EC36F08AC0C9FFB6
:106BCC001200FFFFFFFFACA2FDD780C0ADFF12008B
:106BDC00FFFFFFFF000E8FEC36F0010E8FEC36F04E
:106BEC001200FFFFFFFF0001806FFFFFACA2FDD77B
:106BFC0080C0ADFF1200FFFFFFFF016E01380F0BCD
:106C0C000F0B0A0D01500F0BF3241200FFFFFFFFB7
:106C1C00C7B4FDD7C5CF01F01F0E0116D8B41200B2
:106C2C00FFFFF5D7FFFFFFFFC7B4FDD7C5CF80F03F
:106C3C001F0E00018017D8B41200FFFFF4D7FFFF1E
:106C4C00FFFF0001806F000180390F0B0F0B0A0D45
:106C5C0080510F0BF3241200FFFFFFFF086E06C0DC
:106C6C0004F00850E5EC37F00750066E076A06C0D2
:106C7C0004F00828E5EC37F01200FFFFFFFF2BECC7
:106C8C003BF06FEC1EF0010E746E000E0101DE6F16
:106C9C00000EDF6F000EE06F000EE16F1200FFFFC1
:106CAC00FFFFABEC3CF048EC1DF0010E746E000ED7
:106CBC000101DE6F000EDF6F000EE06F000EE16F62
:106CCC001200FFFFFFFF036E839203509CEC38F021
:106CDC0083801E0E026E3C0EFFFFE82EFDD7022EA7
:106CEC00FBD700D083901200FFFFFFFF0001826FE3
:106CFC00000E0001816F3A0E826105D02F0E826565
:106D0C0002D0010E816FFFFF81C080F08031120034
:106D1C00FFFFFFFF0001826F839200018251FDECA7
:106D2C0038F083801E0E0001816F3C0EFFFFE82EB1
:106D3C00FDD7812FFBD700F083901200FFFFFFFFE0
:106D4C00000180518203F3CF84F0F4CF85F08051A1
:106D5C008303F350852781518203F350852784C028
:106D6C0080F085C081F01200FFFFFFFF5A0E00017A
:106D7C00A16F010EA26F5D0EA36F7C0EA46F42EC8F
:106D8C0039F00001DA51DB11D8A404D0030EF26FF4
:106D9C00000EDF6FFFFF1200FFFFFFFF0BD0FFFFA6
:106DAC00020E036EF20EFFFFE82EFDD7032EFBD76B
:106DBC0000D00400FFFF0106D8A002060128F0E174
:106DCC000228D8B41200FFFFEAD7FFFFFFFFB6EC92
:106DDC0035F0000E036ED00E026EDAEC35F0000EBC
:106DEC00036E070E026EDAEC35F0000E036E000E29
:106DFC00026EDAEC35F0BCEC35F01200FFFFFFFF51
:106E0C000DEC36F0C5860DEC36F0C9CF04F0056AF2
:106E1C000DEC36F002500310D8A402D0C58A02D073
:106E2C00FFFFC59AFFFFC58804C002F005C003F040
:106E3C001200FFFFFFFF0CD0FFFF020E0001826F5C
:106E4C00F20EFFFFE82EFDD7822FFBD700F00400D7
:106E5C00FFFF00018007D8A081078029EEE181297E
:106E6C00D8B41200FFFFE8D7FFFFFFFF000E686EDB
:106E7C001E0E0001806F010E816F000E836F000EDD
:106E8C00826F000E856F3C0E846F8EEC37F0000E17
:106E9C000001816F960E806F20EC37F01200FFFF1F
:106EAC00FFFFC8EC35F0000E00018B6FD00E8A6F1F
:106EBC00E1EC35F0000E00018B6F070E8A6FE1ECF0
:106ECC0035F0000E00018B6F000E8A6FE1EC35F08F
:106EDC00CEEC35F01200FFFFFFFF0001936F0001B5
:106EEC009329DEEC39F00001906F9051916F926B09
:106EFC009151926F916B9351DEEC39F00001906FD0
:106F0C009051911391C08EF092C08FF01200FFFF40
:106F1C00FFFF80C086F081C087F00AD0FFFF86C0DB
:106F2C00D9FF87C0DAFF82C0DFFF0001864B872BB9
:106F3C00FFFF00018407D8A085078429F0E185298B
:106F4C00D8B41200FFFFEAD7FFFFFFFF19EC36F0B1
:106F5C00C58619EC36F0C9CF83F00001846B19ECAF
:106F6C0036F0000181518211D8A402D0C58A02D01A
:106F7C00FFFFC59AFFFFC58883C081F084C082F0F3
:106F8C001200FFFFFFFF000E0001866F000E866FE0
:106F9C00FFFF130E866501D00FD0FFFF8651010D48
:106FAC00F3508425D96EF4508521DA6EDF5009EC4C
:106FBC003AF00001862BECD7FFFF1200FFFFFFFF1A
:106FCC00056EB6EC35F0000E036EA00E026EDAEC18
:106FDC0035F005C002F0036ADAEC35F004C002F0BB
:106FEC00036ADAEC35F0BCEC35F0000E026E0F0ED5
:106FFC00016ED3EC36F01200FFFFFFFF1E0E0001F6
:10700C008F6F010E906F93C091F094C092F06AEC68
:10701C001FF000018F519011D8B408D0000E816F71
:10702C00960E806F20EC37F0010E02D0FFFF000EA1
:10703C00FFFF1200FFFFFFFF000E0001B76F000EF5
:10704C00B86FF00EB96F6B0EBA6FA30EB56F000E62
:10705C00B66FB70E8C6F000E8D6FA1C08EF0A2C0F4
:10706C008FF0B50E906F000E916F38EC01F012009E
:10707C00FFFFFFFF6950D8B418D0000E0001846FD9
:10708C00820782C084F00CD0FFFF8451010DF350B5
:10709C008025D96EF4508121DA6E200EDF6E842BA0
:1070AC00FFFF8351845DD8A0EFD7FFFF1200FFFFD5
:1070BC00FFFF030E0001FE6F000EF16F000EF26F6A
:1070CC00010EFA6F010EFC6F010EFB6F000EF46FD8
:1070DC008C9E89968B92000EF86F000E6C6E000ED3
:1070EC006D6E000EF06F56EC36F01200FFFFFFFFD6
:1070FC000001FD51D8B417D0FD51E85DD8A013D0D4
:10710C00EF05D8A410D0E751EC19D8A40CD0000E80
:10711C00E86FE8C08CF00A0E1FEC39F0000E706EB0
:10712C001C0E0001DF6FFFFF1200FFFFFFFF016E5F
:10713C0001A002D0838402D0FFFF8394FFFF01A241
:10714C0002D0838602D0FFFF8396FFFF01A402D0FA
:10715C00838802D0FFFF8398FFFF01A602D0838AA9
:10716C0002D0FFFF839AFFFF1200FFFFFFFF80C0DA
:10717C00D9FF81C0DAFF00018251DE18D8A405D0F6
:10718C0080C080F081C081F00ED0FFFF80C0D9FF9D
:10719C0081C0DAFF804B812BDF50D8A4E7D7000EDB
:1071AC00806F000E816FFFFF1200FFFFFFFF0001D9
:1071BC00886F88C080F00001816B000E836F0A0E0F
:1071CC00826FD0EC1EF000018039F00B896F88C003
:1071DC0080F0816B000E836F0A0E826F68EC3CF0BE
:1071EC00000180518911896F89511200FFFFFFFF47
:1071FC000001806F000180A102D0838402D0FFFFC8
:10720C008394FFFF80A302D0838602D0FFFF839676
:10721C00FFFF80A502D0838802D0FFFF8398FFFF79
:10722C0080A702D0838A02D0FFFF839AFFFF12004F
:10723C00FFFFFFFF00018D6FC8EC35F0000E000161
:10724C008B6FA00E8A6FE1EC35F08DC08AF00001D7
:10725C008B6BE1EC35F08CC08AF000018B6BE1ECB0
:10726C0035F0CEEC35F0000E0001816F0F0E806F03
:10727C0020EC37F01200FFFFFFFFA1C0B7F0A2C057
:10728C00B8F0000E0001B96F000EBA6FA50EB56F05
:10729C00000EB66FB70E8C6F000E8D6FA3C08EF004
:1072AC00A4C08FF0B50E906F000E916F38EC01F00A
:1072BC00B7C0D9FFB8C0DAFF000EDF6E1200FFFFB7
:1072CC00FFFF1F0E7B6402D0000E7B6EFFFF170EBC
:1072DC007A6402D0000E7A6EFFFF3B0E796402D006
:1072EC00000E796EFFFF0C0E7C6402D0000E7C6EDB
:1072FC00FFFF3B0E786402D0000E786EFFFF630E2A
:10730C007D6402D0000E7D6EFFFF1200FFFFFFFFB9
:10731C00046E04500F0B026E0450F00B036E83824C
:10732C0003380F0B9CEC38F083804B0EFFFFE82EDC
:10733C00FDD7839002509CEC38F083804B0EFFFFFE
:10734C00E82EFDD78390320EFFFFE82EFDD7838009
:10735C008382838483868388838A1200FFFFFFFFE6
:10736C00000189518A11D8B41CD0010E8B6F05D045
:10737C00FFFFD89089378A378B2BFFFF8AAFF8D75E
:10738C00FFFF8951875D8A518859D8A004D0895153
:10739C00875F8A51885BFFFFD8908A3389338B2FA4
:1073AC00EFD7FFFF87C087F088C088F01200FFFF7F
:1073BC00FFFF00018C6FC8EC35F0000E00018B6FE5
:1073CC00A00E8A6FE1EC35F08CC08AF000018B6B5B
:1073DC00E1EC35F0D4EC35F0000E00018B6FA10E12
:1073EC008A6FE1EC35F0000E0001826F000E816FA8
:1073FC00ABEC37F0000181518D6FCEEC35F0000114
:10740C008D511200FFFFFFFF0001836F00018351BC
:10741C000F0B816F8351F00B826F838282390F0BBC
:10742C00FDEC38F083804B0EFFFFE82EFDD78390E8
:10743C0000018151FDEC38F083804B0EFFFFE82EEC
:10744C00FDD78390320EFFFFE82EFDD78380838219
:10745C00838483868388838A1200FFFFFFFF80C0AA
:10746C0084F081C085F004D0FFFF0001844B852B94
:10747C00FFFF84C0F6FF85C0F7FFF86A050EF764BE
:10748C0004D00800FFFFF55005D0F6CFE9FFF7CF89
:10749C00EAFFEF500009D8A4E7D780C082F081C082
:1074AC0083F00001821F831F824B832B8451822522
:1074BC00806F85518321816F1200FFFFFFFF000E4B
:1074CC000001886F000E896F000E8A6F000E8B6FA3
:1074DC00FFFF80A108D084518827855189238651CC
:1074EC008A2387518B23FFFFD890843785378637C3
:1074FC008737D89083338233813380338051811125
:10750C0082118311D8A4E4D788C080F089C081F09F
:10751C008AC082F08BC083F01200FFFFFFFF000EC9
:10752C000001856F000E846F82518311D8B420D076
:10753C00010E866F05D0FFFFD89082378337862BDC
:10754C00FFFF83AFF8D7FFFFD89084378537825180
:10755C00805D83518159D8A005D08251805F8351C1
:10756C00815B8481FFFFD89083338233862FEBD7E6
:10757C00FFFF84C080F085C081F01200FFFFFFFF89
:10758C00280EC66E000EC56E000E0001806F120E26
:10759C00816F7A0E826F000E836F8DC091F08EC05A
:1075AC0092F08FC093F090C094F0020EFFFFD89031
:1075BC009137923793379437E82EF8D791C084F0EF
:1075CC0092C085F093C086F094C087F0EFEC3CF04D
:1075DC0000018005C86E000EC76E94869488120058
:1075EC00FFFFFFFF0001806F00018051D8B423D052
:1075FC00FA05D8A420D08D8280B403D00B0E6D6E0A
:10760C000AD0FFFF080E6D6002D08D800AD0FFFFFC
:10761C00100E6D6003D0FFFF8D9003D0FFFF000EA6
:10762C006D6EFFFF6C50E65DD8B00CD0000E6C6E2A
:10763C00000EFA6F07D0FFFF8D908D92000E6D6ECD
:10764C00000E6C6EFFFF1200FFFFFFFF000E9CECA4
:10765C0038F03B0E046E7A0EFFFFE82EFDD7042E99
:10766C00FBD7030E68EC36F01E0E046E3C0EFFFFCB
:10767C00E82EFDD7042EFBD700D0030E68EC36F0B5
:10768C00270E046EFC0EFFFFE82EFDD7042EFBD751
:10769C00030E68EC36F0020E68EC36F0020E68EC65
:1076AC0036F0080E68EC36F0000E68EC36F00C0E76
:1076BC0068EC36F0000E68EC36F0060E68EC36F02E
:1076CC001200FFFFFFFF010EC26ECE0EC16E928044
:1076DC008090810ED56EE40EF26E000EF16E000EEF
:1076EC00F06E959A95989596959495929590949C04
:1076FC00948EAC8AAC84AC98AB8EAB88190EAF6E02
:10770C00F28EF28C9E9A9D8AF29692848084928A52
:10771C00948092928082938493869388938A959E88
:10772C00929692989690969296949492839E809626
:10773C00809884908492849482921200FFFFFFFFC1
:10774C00000E0001836F000E826F8DA002D0824B61
:10775C00832BFFFF89A604D0020E8227000E832301
:10776C00FFFF8BA204D0030E8227000E8323FFFFA2
:10777C008CAE04D0040E8227000E8323FFFF8DA253
:10778C0004D0050E8227000E8323FFFF8DA404D0A6
:10779C00060E8227000E8323FFFF6F50806F816BD4
:1077AC008251801904E183518119D8B404D082C06C
:1077BC006FF00D0E746EFFFF1200FFFFFFFF000154
:1077CC00806F2BD0FFFF01011C51D8B423D0000EC9
:1077DC001C6F17D0FFFF01011851D8B41BD0000E3D
:1077EC00186F0FD0FFFF01011A51D8B413D0000E3F
:1077FC001A6F07D0FFFF01011651D8B40BD0000E41
:10780C00166FFFFF6650D8A402D0010E746EFFFFF6
:10781C00010E13D0FFFF000E10D0FFFF00018051AE
:10782C00010AD8B4CFD7030AD8B4DCD7010AD8B42C
:10783C00D1D7070AD8B4DED7EDD7FFFF1200FFFF70
:10784C00640EF66E6B0EF76E000EF86E01EEDAF04B
:10785C0010EE08F00900F5CFEEFFE550E150FAE12B
:10786C005D0EF66E6B0EF76E000EF86E00EEF9F014
:10787C0010EE07F00900F5CFEEFFE550E150FAE10C
:10788C005C0EF66E6B0EF76E000EF86E0900F5CFFF
:10789C007EF001EE00F0DA0EEE6AE806FDE100EE95
:1078AC00D8F0210EEE6AE806FDE100EE62F01C0E47
:1078BC00EE6AE806FDE17F907F92000EF86E000103
:1078CC0037EF05F0FFFF000E0001856F81AF06D08A
:1078DC00806D811FD8B0812B010E856FFFFF83AFA8
:1078EC0004D0826D831FD8B0832BFFFF825183118C
:1078FC00D8B41CD0010E846F05D0FFFFD89082370E
:10790C008337842BFFFF83AFF8D7FFFF8251805D55
:10791C0083518159D8A004D08251805F8351815BFF
:10792C00FFFFD89083338233842FEFD7FFFF85512D
:10793C00D8B404D0806D811FD8B0812BFFFF80C0DC
:10794C0080F081C081F01200FFFFFFFF000EFDEC04
:10795C0038F03B0E0001836F790EFFFFE82EFDD748
:10796C00832FFBD700D000F0030E8FEC36F01E0EE9
:10797C000001836F3C0EFFFFE82EFDD7832FFBD752
:10798C0000F0030E8FEC36F0270E0001836FFB0E18
:10799C00FFFFE82EFDD7832FFBD700D000F0030E9E
:1079AC008FEC36F0020E8FEC36F0020E8FEC36F0C8
:1079BC00080E8FEC36F0000E8FEC36F00C0E8FECC0
:1079CC0036F0000E8FEC36F0060E8FEC36F012000F
:1079DC00FFFFFFFF000E0001886F000E896F000E85
:1079EC008A6F000E8B6F8451851186118711D8B464
:1079FC002ED0010E8C6F07D0FFFFD89084378537BF
:107A0C00863787378C2BFFFF87AFF6D7FFFFD890D1
:107A1C00883789378A378B378451805D85518159F6
:107A2C008651825987518359D8A009D08451805FDF
:107A3C008551815B8651825B8751835B8881FFFF17
:107A4C00D89087338633853384338C2FDFD7FFFF71
:107A5C0088C080F089C081F08AC082F08BC083F02E
:107A6C001200FFFF00001F0E0404040404000000B9
:107A7C000000101010000000040414141400010184
:107A8C0005051515150A0A1F11110E040400000036
:107A9C00000000000001000A006400E803102754F5
:107AAC004543484E4F572053697374656D6173207D
:107ABC00656D6261726361646F730D0A0D0A5465C2
:107ACC00737465206D616E75616C20646520636FE5
:107ADC006D756E69636163616F2E0D0A446174612B
:107AEC003A20253032642F253032642F2530326411
:107AFC0020253032643A253032643A253032640D18
:107B0C000A0D0A0D0A56657273616F20646F20733B
:107B1C00697374656D613A2025730D0A00544553E1
:107B2C00544520444520424F4D424153205245413B
:107B3C004C495A41444F0D0A454D20253032643A88
:107B4C00253032643A2530326420253032642F25BA
:107B5C003032642F253032640D0A4A4F434B45595D
:107B6C003A2025730D0A5052494E434950414C3A24
:107B7C002025730D0A434F4D42555354414F3A2023
:107B8C0025730D0A004449535041524F20414C413A
:107B9C00524D4520444520494E43454E44494F0DD6
:107BAC000A454D20253032643A253032643A25306E
:107BBC00326420253032642F253032642F25303248
:107BCC00640D0A00446174613A20253032642F251B
:107BDC003032642F2530326420253032643A25301F
:107BEC0032640025642D25642D25642D25642D25F6
:107BFC00642D2564203E2025642D2564002025302D
:107C0C0032643A2530326420253032642F253032EC
:107C1C006400202A66616C686120422E20707269B3
:107C2C006E636970616C00202A66616C6861204229
:107C3C002E20636F6D62757374616F002350726FC9
:107C4C0078696D6F20656D202532642064696173DD
:107C5C000044657370726573737572697A616E64D2
:107C6C006F2E2E2E0020414C45525441204445206D
:107C7C00494E43454E44494F00202A66616C686169
:107C8C002076616C2E206C616472616F00494E54D9
:107C9C00455256414C4F3A20253264206469617339
:107CAC0000484F524152494F3A20253032642068E7
:107CBC006F7261730053697374656D617320656DC8
:107CCC006261726361646F7300205072657373201C
:107CDC0045534320702F20526573657400426F6DBD
:107CEC006261205072696E636970616C2E2E2E0079
:107CFC00426F6D626120436F6D62757374616F2E9C
:107D0C002E2E00436F6E66696775726163616F201A
:107D1C0074656D706F004572726F206E6F205472B7
:107D2C00616E736475746F720041542B434D4753ED
:107D3C003D222B35352573220D0A005041525449F2
:107D4C00444120434F4D42555354414F00504552EE
:107D5C00494F444F204445205445535445530068E3
:107D6C006F72696D6574726F3A253564206D696E3A
:107D7C0000202A66616C686120422E206A6F636B5A
:107D8C00657900546573746520436F6E636C756917
:107D9C00646F2100202A66616C686120656C6574D3
:107DAC007269636100456E7669617220736D732030
:107DBC00746573746500656E7669616E646F2053CB
:107DCC004D532E2E2E00426F6D6261204A6F636BF5
:107DDC0065792E2E2E005052455353414F2044416D
:107DEC002052454445005072657373616F202573B2
:107DFC002042415200253032642F253032642F2529
:107E0C0030326400253032643A253032643A253001
:107E1C003264005052494E434950414C203A20257F
:107E2C007300434F4D42555354414F203A20257314
:107E3C0000416775617264652E2E2E2025647300D7
:107E4C00496E696369617220546573746573005679
:107E5C00657273616F20536F66742E3A004D6178B2
:107E6C002E20504152544944413A005072696E637D
:107E7C006970616C3A20257300436F6D6275737481
:107E8C00616F3A2025730020616775617264652EFD
:107E9C002E2E200052656C6967616E646F2E2E2E3B
:107EAC000041542B434D47463D310D0A004A756C39
:107EBC002031382032303230004D61782E2054453C
:107ECC005354453A004E4F204449414C544F4E4573
:107EDC0000202A66616C68612047534D00494E466C
:107EEC004F2056455253414F0076657273616F2097
:107EFC002D20257300415444203025733B0D0A007E
:107F0C00746574617061202564200023253032640F
:107F1C002F2530326400474552414C203A202573BE
:107F2C00004A4F4B4559203A20257300415449567D
:107F3C0041523A202573004C69676164612E2E2EE4
:107F4C0000444154412F484F524100444154414C4C
:107F5C004F4745520054454C45464F4E45530074CF
:107F6C0073696E616C202564004A6F6B65793A20E9
:107F7C0025730041542B4353510D0A0065746170F5
:107F8C006120256400426F6D6261202573005445A9
:107F9C0043484E4F5700286E756C6C29004154486D
:107FAC00300D0A002B4353513A200054313A20250E
:107FBC00730054323A20257300484F52413A004422
:107FCC004154413A0046414C4841004552524F52AF
:107FDC000041540D0A004552524F00257325630091
:107FEC00253364730053696D004E616F004F4B0075
:037FFC003E000044
:020000040020DA
:08000000FFFFFFFFFFFFFFFF00
:020000040030CA
:0E000000FF220F0FFF0181FF004000E00F0004
:00000001FF
