:1000000000F08CEF00F0FFFFFFFF7F82FACF31F0AE
:10001000FBCF32F0E9CF33F0EACF34F0E1CF35F067
:10002000E2CF36F0D9CF37F0DACF38F0F3CF39F06E
:10003000F4CF3AF0F6CF3BF0F7CF3CF0F8CF3DF0FD
:10004000F5CF3EF07FC03FF080C040F081C041F06E
:1000500082C042F0F2A41AD0F2943C0ED76EB00ED9
:10006000D66E712A050E7118D8B4671E1CEC11F0FB
:1000700091EC3BF0090E716409D0000E716E671EA1
:10008000DDEC15F0ABA202D0AB98AB88FFFF9EAAC7
:100090001BD0AECF43F00A0E4318D8B40FD00D0ECC
:1000A0004318D8B40BD06650010D000EF324D96E5E
:1000B000010EF420DA6E43C0DFFF662AFFFF3B0E1D
:1000C000666402D0000E666EFFFF42C082F041C03F
:1000D00081F040C080F03FC07FF03EC0F5FF3DC0E2
:1000E000F8FF3CC0F7FF3BC0F6FF3AC0F4FF39C051
:1000F000F3FF38C0DAFF37C0D9FF36C0E2FF35C0A2
:10010000E1FF34C0EAFF33C0E9FF32C0FBFF31C07A
:10011000FAFF7F921100FFFF1EEF3BF0FFFFD7D3E6
:10012000FFFF250E0001A019D8B437D020EE02F051
:100130008C51D9268D51DA22DE50DE10D8B416D07B
:1001400020EE02F08C51D9268D51DA2201D8BFD38E
:10015000FFFF0500FA6EDE50FD6EDE50FE6EF850B9
:10016000FF6EFA50A0511200FFFFB1D3FFFF8CC009
:10017000D9FF8DC0DAFFDECF92F0DDCF93F092C0D1
:10018000D9FF93C0DAFFA0C0DFFF8CC0D9FF8DC0BC
:10019000DAFFDE2A000EDD229AD3FFFF000E0001F7
:1001A0009F6F000E9E6F000E9B6F05D0FFFF00013A
:1001B0009B858E4B8F2BFFFF8EC0F6FF8FC0F7FF06
:1001C000F86A050EF76404D00800FFFFF55005D06B
:1001D000F6CFE9FFF7CFEAFFEF50300AD8B4E6D701
:1001E0008EC0F6FF8FC0F7FFF86A050EF76404D0E3
:1001F0000800FFFFF55005D0F6CFE9FFF7CFEAFF83
:10020000EF50B5EC36F0D8A06BD1000E00019F6F17
:10021000000E9E6FFFFF9EC080F09FC081F0000E19
:100220000001836F0A0E826FDFEC36F080C09EF013
:1002300081C09FF0D00E0001926FFF0E936F8EC0B1
:10024000F6FF8FC0F7FFF86A050EF76404D00800C8
:10025000FFFFF55005D0F6CFE9FFF7CFEAFFEF50EB
:100260000001946F956B925194279351952394516B
:100270009E2795519F238E4B8F2B8EC0F6FF8FC0EC
:10028000F7FFF86A050EF76404D00800FFFFF55089
:1002900005D0F6CFE9FFF7CFEAFFEF50B5EC36F027
:1002A000D8A01ED1B7D7FFFF90C0D9FF91C0DAFF09
:1002B000DFCF92F0020EDE26DFCF93F0000EDD22BC
:1002C00092C0D9FF93C0DAFFDECF9CF0DDCF9DF066
:1002D00000019C519D11D8A404D0A20E9C6F7F0EEA
:1002E0009D6FFFFF000E9A6F000E996F04D0FFFF05
:1002F0000001994B9A2BFFFF99519C25926F9A51BF
:100300009D21936F92C0F6FF93C0F7FFF86A050E28
:10031000F76404D00800FFFFF55005D0F6CFE9FFE1
:10032000F7CFEAFFEF500009D8A4E1D7FFFF0001A3
:100330009E51995D9F519A59D8B005D099519E5FB1
:100340009A519F5B3DD0FFFF000E9F6F000E9E6F86
:1003500037D0FFFF20EE02F08C51D9268D51DA22E2
:10036000DE50DE10D8B416D020EE02F08C51D92623
:100370008D51DA2201D824D0FFFF0500FA6EDE503D
:10038000FD6EDE50FE6EF850FF6EFA50200E120029
:10039000FFFF16D0FFFF8CC0D9FF8DC0DAFFDECF84
:1003A00092F0DDCF93F092C0D9FF93C0DAFF200E18
:1003B000DF6E8CC0D9FF8DC0DAFFDE2A000EDD2291
:1003C000FFFF00019E07D8A09F079E29C3E19F2938
:1003D000D8B45FD0BED7FFFF20EE02F08C51D926F3
:1003E0008D51DA22DE50DE10D8B42AD020EE02F091
:1003F0008C51D9268D51DA2201D81DD0FFFF05007E
:10040000FA6EDE50FD6EDE50FE6EF850FF6EFA5052
:100410009CC0F6FF9DC0F7FFF86A050EF76404D094
:100420000800FFFFF55005D0F6CFE9FFF7CFEAFF50
:10043000EF501200FFFFFFFF00019C4B9D2B29D0C6
:10044000FFFF9CC0F6FF9DC0F7FFF86A8CC0D9FF84
:100450008DC0DAFFDECF92F0DDCF93F092C0D9FFEE
:1004600093C0DAFF050EF76404D00800FFFFF550D3
:1004700005D0F6CFE9FFF7CFEAFFEF50DF6E0001BE
:100480009C4B9D2B8CC0D9FF8DC0DAFFDE2A000E5D
:10049000DD22FFFF9907D8A09A0799299DE19A29A3
:1004A000D8B415D298D7FFFF90C0D9FF91C0DAFF1A
:1004B000DFCF92F0020EDE26DFCF93F0000EDD22BA
:1004C00092C0D9FF93C0DAFFDF50A06FFFFFA00EEC
:1004D0009C6F000E9D6F000E9A6F010E996F26D7CC
:1004E000FFFF00018E51926F8F51936F8E4B8F2BB8
:1004F00092C0F6FF93C0F7FFF86A050EF76404D0C8
:100500000800FFFFF55005D0F6CFE9FFF7CFEAFF6F
:10051000EF500001A06FA051000AD8B4F6D1630AD1
:10052000D8B4C1D7070AD8B407D00D0AD8B404D0BC
:100530001A0AD8B4B8D6CAD7FFFF90C0D9FF91C065
:10054000DAFFDFCF92F0020EDE26DFCF93F0000E4F
:10055000DD2292C0D9FF93C0DAFFDECF97F0DDCF66
:1005600098F0000198AF06D0030E9B13976D981F6B
:10057000D8B0982BFFFF010EA06FFFFF050EA0194A
:10058000D8B414D0A051020DA50EF324F66E7A0E45
:10059000F420F76E0900FFFFF550975D0900FFFF9B
:1005A000F5509859D8A002D0A02BE7D7FFFF9E5155
:1005B0009F11D8B409D09BC092F0030E9217D8B403
:1005C00003D09E07D8A09F07FFFF800EA0BF7F0E1D
:1005D000926F9E51A05D9F51800A9259D8B007D06A
:1005E000A0519E5F000EA0BFFF0E9F5B05D0FFFFD6
:1005F000000E9F6F000E9E6FFFFF9BA57FD09BC0DC
:1006000092F0030E9217D8B436D020EE02F08C513F
:10061000D9268D51DA22DE50DE10D8B416D020EE65
:1006200002F08C51D9268D51DA2201D824D0FFFF57
:100630000500FA6EDE50FD6EDE50FE6EF850FF6E65
:10064000FA502D0E1200FFFF16D0FFFF8CC0D9FF0D
:100650008DC0DAFFDECF92F0DDCF93F092C0D9FFEC
:1006600093C0DAFF2D0EDF6E8CC0D9FF8DC0DAFF8C
:10067000DE2A000EDD22FFFF0001FFFF9E519F11C9
:10068000D8B4BED020EE02F08C51D9268D51DA229A
:10069000DE50DE10D8B416D020EE02F08C51D926F0
:1006A0008D51DA2201D824D0FFFF0500FA6EDE500A
:1006B000FD6EDE50FE6EF850FF6EFA50300E1200E6
:1006C000FFFF16D0FFFF8CC0D9FF8DC0DAFFDECF51
:1006D00092F0DDCF93F092C0D9FF93C0DAFF300ED5
:1006E000DF6E8CC0D9FF8DC0DAFFDE2A000EDD225E
:1006F000FFFF00019E07D8A09F07BFD7FFFF9E51B5
:100700009F11D8B440D0FFFF20EE02F08C51D926C3
:100710008D51DA22DE50DE10D8B416D020EE02F071
:100720008C51D9268D51DA2201D824D0FFFF050043
:10073000FA6EDE50FD6EDE50FE6EF850FF6EFA501F
:10074000200E1200FFFF16D0FFFF8CC0D9FF8DC016
:10075000DAFFDECF92F0DDCF93F092C0D9FF93C0E5
:10076000DAFF200EDF6E8CC0D9FF8DC0DAFFDE2AE3
:10077000000EDD22FFFF00019E07D8A09F079E51BB
:100780009F11D8A4C0D7FFFF9BC092F0030E921711
:10079000D8B436D020EE02F08C51D9268D51DA2211
:1007A000DE50DE10D8B416D020EE02F08C51D926DF
:1007B0008D51DA2201D824D0FFFF0500FA6EDE50F9
:1007C000FD6EDE50FE6EF850FF6EFA502D0E1200D8
:1007D000FFFF16D0FFFF8CC0D9FF8DC0DAFFDECF40
:1007E00092F0DDCF93F092C0D9FF93C0DAFF2D0EC7
:1007F000DF6E8CC0D9FF8DC0DAFFDE2A000EDD224D
:10080000FFFFA0C096F05DD0FFFF00019651020DE2
:10081000A50EF324F66E7A0EF420F76E0900FFFFA2
:10082000F5CF82F00A00FFFFF5CF83F097C080F08C
:1008300098C081F083EC3AF080C087F081C088F0E6
:10084000000E00018A6F0A0E896F04EC3AF0000175
:100850008751300FA06F20EE02F08C51D9268D51B8
:10086000DA22DE50DE10D8B416D020EE02F08C5121
:10087000D9268D51DA2201D824D0FFFF0500FA6E67
:10088000DE50FD6EDE50FE6EF850FF6EFA50A05145
:100890001200FFFF16D0FFFF8CC0D9FF8DC0DAFF1A
:1008A000DECF92F0DDCF93F092C0D9FF93C0DAFF94
:1008B000A0C0DFFF8CC0D9FF8DC0DAFFDE2A000E9A
:1008C000DD22FFFF000196079629D8A49DD7FFFFE0
:1008D00000018E51926F8F51936F8E4B8F2B92C070
:1008E000F6FF93C0F7FFF86A050EF76404D008001E
:1008F000FFFFF55005D0F6CFE9FFF7CFEAFFEF5045
:100900000001A06FA051D8A40BD4FFFF000E00017E
:100910008D6F000E8C6F1200FFFFFFFF010EE6ECE3
:100920003AF00009D8B433D0000E0001F16F000E88
:10093000F46F000E726E060E2DEC3AF00001D96FC6
:10094000D951D8A405D0000ED06F010ECF6F04D0BE
:10095000FFFFD9C0CFF0D06BFFFFCFC0E9F0DFC001
:10096000E0F0000EDA6F000EDA6FFFFF070EDA65B7
:1009700001D00DD0FFFFDA51010D440EF324D96EE2
:10098000000EF420DA6E000EDF6EDA2BEED7FFFFDA
:100990000A0E726002D27E0E0001A16F010EA26FDC
:1009A0003D0EA36F7E0EA46FDBC0A5F0DCC0A6F0E9
:1009B00095EC39F00001F851A4EC3CF0B5C0CDF055
:1009C000B6C0CEF0680E0001A16F010EA26FF20E4C
:1009D000A36F7D0EA46FCDC0A5F0CEC0A6F095ECA0
:1009E00039F0DBD1FFFF000E0001E86FE8C08CF0AA
:1009F0000A0E72EC39F0010E466E000E0001DC6F3B
:100A00001E0EDB6F010E25D1FFFF3FEC37F0F60E17
:100A10000001C86FFF0EC96FE551CA6FCB6BC8519B
:100A2000CA27C951CB23F851CA5DCB51800ACC6F7C
:100A3000F951800ACC59D8A0DAD1000E466E010EC9
:100A40004A6E020E4CD0FFFF3C0E0001A16F010E5A
:100A5000A26FD20EA36F7D0EA46F95EC39F000014A
:100A6000E551C86FC96BC851F85DF951800ACA6F6A
:100A7000C951800ACA59D8A006D0000E4A6E010E8C
:100A8000FD6F030E726EFFFFDB51DC11D8A4AFD1F6
:100A9000000EFD6F030E51D0FFFF010E466E040ED7
:100AA000D8D0FFFF3FEC37F0F60E0001C86FFF0E05
:100AB000C96FE551CA6FCB6BC851CA27C951CB2347
:100AC000F851CA5DCB51800ACC6FF951800ACC59DC
:100AD000D8A08DD1010E496E000E466E050EFFFFA7
:100AE000726E000EDC6F320EC5D0FFFF3C0E0001AF
:100AF000A16F010EA26FD80EA36F7C0EA46F95ECB0
:100B000039F00001E551C86FC96BC851F85DF95162
:100B1000800ACA6FC951800ACA59D8A006D0000EEF
:100B2000496E010EFC6F060E726EFFFFDB51DC1189
:100B3000D8A45DD1000EFC6F060EFFFF726E000E92
:100B4000DC6F1E0E97D0FFFF010E466E070E81D0A0
:100B5000FFFF3FEC37F0F60E0001C86FFF0EC96FC4
:100B6000E551CA6FCB6BC851CA27C951CB23F85185
:100B7000CA5DCB51800ACC6FF951800ACC59D8A0FC
:100B800036D1000E466E080E726EE6C0DBF0DC6BEE
:100B90002ED1FFFF3C0E0001A16F010EA26FEB0EE4
:100BA000A36F7C0EA46F95EC39F0010E84EC1CF061
:100BB0000001F051D8A40DD0E551C86FC96BC851E0
:100BC000F85DF951800ACA6FC951800ACA59D8A084
:100BD00008D0FFFF010EFB6F6BC0DBF0DC6B090E72
:100BE000726EFFFFFB51D8B404D0DB51DC11D8A4E6
:100BF000FED0FFFF0A0E726E000EFB6FF8D0FFFFF3
:100C000080AA05D0A00E0001D16F7E0E05D0FFFF97
:100C1000430E0001D16F7F0EFFFFD26F3C0EA16F1C
:100C2000010EA26F910EA36F7F0EA46FD1C0A5F02D
:100C3000D2C0A6F095EC39F0010E84EC1CF0000156
:100C4000DB51DC11D8B403D0FB51D8A4D0D0FFFFC6
:100C50000A0EFFFF726ECBD0FFFF24EC1EF0020ED7
:100C600084EC1CF0AAEC37F00B0E726E000E000143
:100C7000DC6F0A0EFFFFDB6FBAD0FFFF7D0E0001B5
:100C8000A16F010EA26F7E0EA36F7D0EA46F95EC77
:100C900039F00001FD05D8B404D0E20ED36F7F0E09
:100CA00004D0FFFFF90ED36F7F0EFFFFD46F660EE7
:100CB000A16F010EA26F2D0EA36F7F0EA46FD3C084
:100CC000A5F0D4C0A6F095EC39F00001FC05D8B42D
:100CD00004D0E20ED56F7F0E04D0FFFFF90ED56F62
:100CE0007F0EFFFFD66F510EA16F010EA26F1F0E78
:100CF000A36F7E0EA46FD5C0A5F0D6C0A6F095EC6C
:100D000039F00001FB05D8B404D0E20ED76F7F0E96
:100D100004D0FFFFF90ED76F7F0EFFFFD86F3C0E98
:100D2000A16F010EA26F2E0EA36F7E0EA46FD7C00F
:100D3000A5F0D8C0A6F095EC39F00001DB51DC112C
:100D4000D8A455D00C0E726E000EDC6F780EDB6FDF
:100D5000000EF66F010E17D0FFFF3E0E0001A16FCF
:100D6000010EA26FC20EA36F7D0EA46F95EC39F039
:100D7000020EF1EC0AF00001DB51DC11D8A437D0EF
:100D8000000EE06F000EFFFFF46F31D0FFFF000E8A
:100D9000726E000E0001E06F2AD0FFFF7250000A51
:100DA000D8B420D6010AD8B42FD6030AD8B44BD66B
:100DB000010AD8B471D6070AD8B473D6010AD8B4D8
:100DC00094D6030AD8B4BFD6010AD8B4C1D60F0A44
:100DD000D8B4DFD6010AD8B412D7030AD8B43CD7A6
:100DE000010AD8B44AD7070AD8B4B6D7CFD7FFFF7D
:100DF0001200FFFFFFFF58EC3AF0A00E00018D6FCC
:100E0000860E8E6F010E8F6F000E906FB4EC3AF06D
:100E1000000E0001816FC80E806F74EC37F0C5ECD6
:100E200037F0000E0001816F640E806F74EC37F0B4
:100E3000780E00018C6F000E8D6F50EC17F017ECE0
:100E40003CF038EC36F05FEC1DF0000E0001816FD5
:100E5000640E806F74EC37F0EAEC17F07B0E000143
:100E6000A16F010EA26F9A0EA36F7F0EA46F95EC77
:100E700039F0660E0001A16F010EA26FB00EA36FD4
:100E80007C0EA46F95EC39F0510E0001A16F010E9C
:100E9000A26F5B0EA36F7E0EA46F95EC39F0450E2A
:100EA0000001A16F010EA26FFE0EA36F7E0EA46F54
:100EB000B90EA56F7E0EA66F95EC39F07B0E000182
:100EC000886F010E896F660E8A6F010E8B6F510E4F
:100ED0008C6F010E8D6F3C0E8E6F010E8F6FF6ECD6
:100EE0001CF0090E0001816FC40E806F74EC37F0A6
:100EF000FFFF04000001F151D8A404D07450D8B40D
:100F00007CEC18F0FFFF2FEC39F0B9EC39F0F7EC7E
:100F100014F085D0FFFFC9EC0DF0A6D0FFFF7C0ECA
:100F20000001A16F010EA26F4D0EA36F7F0EA46F83
:100F300095EC39F0670E0001A16F010EA26FE20E71
:100F4000A36F7D0EA46F95EC39F0520E0001A16FD6
:100F5000010EA26F360EA36F7D0EA46F95EC39F0D3
:100F60003D0E0001A16F010EA26F610EA36F7F0EF7
:100F7000A46F95EC39F078D0FFFF7C0E0001A16FD3
:100F8000010EA26F480EA36F7D0EA46F95EC39F091
:100F9000670E0001A16F010EA26F570EA36F7F0EA7
:100FA000A46F95EC39F0520E0001A16F010EA26FF3
:100FB000E90EA36F7E0EA46F95EC39F03D0E000193
:100FC000A16F010EA26F4C0EA36F7E0EA46F95EC65
:100FD00039F04AD0FFFF01EC10F046D0FFFF9CEC47
:100FE0000CF042D0FFFF9CEC16F03ED0FFFF2EEC41
:100FF00009F03AD0FFFF27EC13F036D0FFFFE5EC05
:101000000EF032D0FFFF57EC3BF02ED0FFFF8DECFF
:1010100004F02AD0FFFF000E0001E06F25D0FFFF93
:101020000001E051000AD8B475D7010AD8B476D7C8
:10103000030AD8B4A1D7160AD8B4CCD7010AD8B4B9
:10104000CDD7030AD8B4CED7010AD8B4CFD70F0A68
:10105000D8B4D0D7010AD8B4D1D7020AD8B4D2D7DD
:10106000070AD8B4D3D7D6D7FFFF0001E005D8B41C
:101070009CD0020EE019D8B498D0D2D0FFFF010E58
:10108000E06F3E0E01017B6F040EE6EC3AF00009C2
:10109000D8B4A6D0E0C0DFF0140E65D0FFFF010E7B
:1010A000E06F3E0E0101666F040EE6EC3AF00009B7
:1010B000D8B496D0E0C0DFF0150E55D0FFFF010E7A
:1010C000E06F3E0E0101516F040EE6EC3AF00009AC
:1010D000D8B486D0E0C0DFF0160E45D0FFFF010E79
:1010E000E06F3E0E01013C6F040EE6EC3AF00009A1
:1010F000D8B476D0E0C0DFF0170E35D0FFFF020E77
:10110000E06F3E0E01017B6F040EE6EC3AF0000941
:10111000D8B466D0E0C0DFF0180E25D0FFFF3E0E39
:101120000101666F020E0001E06F040EE6EC3AF07A
:101130000009D8B455D0E0C0DFF0190E0001E06F0F
:10114000010E556E4DD0FFFF3E0E0101516F020E94
:101150000001E06F040EE6EC3AF00009D8B440D08C
:10116000E0C0DFF01B0EFFFF00011CD0FFFF3E0EB2
:1011700001013C6F020E0001E06F040EE6EC3AF054
:101180000009D8B42DD00001F251D8A429D01C0EEA
:10119000E06F010EF16F000E726E22D0FFFF010EA4
:1011A0006A6E010EFFFFE06F1BD0FFFF6A50010A5D
:1011B000D8B464D7030AD8B471D7010AD8B47ED79B
:1011C000070AD8B48BD7010AD8B498D7030AD8B481
:1011D000A5D7010AD8B4B7D70F0AD8B4C7D7DED776
:1011E000FFFF030EE6EC3AF00009D8B402D06A061D
:1011F00017D0FFFF020EE6EC3AF00009D8B402D097
:101200006A2A0ED0FFFF010EE6EC3AF00009D8B4CE
:1012100007D0000E0001E06F000EE16F010E6A6E54
:10122000FFFF1C0E0001E019D8B404D0000EF16FCE
:10123000000E466EFFFF7B0E886F010E896F660EF3
:101240008A6F010E8B6F510E8C6F010E8D6F3C0EED
:101250008E6F010E8F6FF6EC1CF04AD6FFFF7C0EEE
:101260000001A16F010EA26FB70EA36F7F0EA46FD6
:10127000B00EA56F010EA66F95EC39F0670E000158
:10128000A16F010EA26FBE0EA36F7F0EA46FA40EFE
:10129000A56F010EA66F95EC39F00001F451D8A4AA
:1012A00004D0B10EC16F7D0E04D0FFFF930EC16F4D
:1012B0007E0EFFFFC26F520EA16F010EA26FFE0ED7
:1012C000A36F7E0EA46FC1C0A5F0C2C0A6F095ECBE
:1012D00039F00001DD51D8A450D0030EE6EC3AF00D
:1012E0000009D8B403D00001E10747D0FFFF020E88
:1012F000E6EC3AF00009D8B403D00001E12B3DD070
:10130000FFFF010EE6EC3AF00009D8B436D0000E2B
:101310000001F46F000EE16F000EDE6F000EDD6F56
:10132000000EC36F000EC36FFFFF0A0EC36501D02E
:1013300021D0FFFFC351010DB00EF324D96E010E71
:10134000F420DA6EDF508C6FC351140F72EC39F059
:101350000001C351010DA40EF324D96E010EF42037
:10136000DA6EDF508C6FC351280F72EC39F0000138
:10137000C32BDAD7FFFFDFC0E0F0FFFF0001DD0580
:10138000D8A41AD1040EE6EC3AF00009D8B403D080
:101390000001DE2B11D1FFFF010EE6EC3AF000094F
:1013A000D8B40AD1000E0001DE6F000EDD6F04D14B
:1013B000FFFF3E0E01017B6F040EE6EC3AF00009E0
:1013C000D8B403D0010E0001DD6FFFFF0001DD5135
:1013D000D8B4FFD07B0E806F010E816FDE51060FF7
:1013E000826FDE51060F836FAEEC38F00001DE51E4
:1013F000BF6FC06B020EBF27000EC023C05104E1B7
:101400000D0EBF5DD8A004D0000EDE6F000EDD6FA4
:10141000FFFF030EE6EC3AF00009D8B40AD0000151
:10142000DE51010DB00EF324D96E010EF420DA6EF8
:10143000DF2AFFFF020EE6EC3AF00009D8B40AD02A
:101440000001DE51010DB00EF324D96E010EF4201F
:10145000DA6EDF06FFFF0001DE51010DB00EF3244E
:10146000D96E010EF420DA6E3A0EDF600BD0DE5139
:10147000010DB00EF324D96E010EF420DA6E300E99
:10148000DF60A7D0FFFFDE51010DB00EF324D96E4F
:10149000010E71D0FFFF3E0E0101666F040EE6ECF7
:1014A0003AF00009D8B403D0010E0001DD6FFFFF50
:1014B0000001DD51D8B48DD0660E806F010E816FB2
:1014C000DE51060F826FDE51060F836FAEEC38F0EF
:1014D0000001DE51BF6FC06B020EBF27000EC0239C
:1014E000C05104E10D0EBF5DD8A004D0000EDE6F28
:1014F000000EDD6FFFFF030EE6EC3AF00009D8B4F2
:101500000AD00001DE51010DA40EF324D96E010EA4
:10151000F420DA6EDF2AFFFF020EE6EC3AF0000953
:10152000D8B40AD00001DE51010DA40EF324D96E07
:10153000010EF420DA6EDF06FFFF0001DE51010D1F
:10154000A40EF324D96E010EF420DA6E3A0EDF6099
:101550000BD0DE51010DA40EF324D96E010EF42040
:10156000DA6E300EDF6035D0FFFFDE51010DA40EC4
:10157000F324D96E010EFFFFF420DA6E300EDF6E19
:1015800028D0FFFF3E0E0101516F040EE6EC3AF049
:101590000009D8B41ED0780E0001FF19D8B419D0B4
:1015A000F451D8A416D0010EF46F000EF76F11D0CD
:1015B000FFFF000EE16F0DD0FFFF0001E151000AB7
:1015C000D8B4F6D6010AD8B465D7030AD8B4D9D7A7
:1015D000EFD7FFFF0001F451D8A436EC12F012004F
:1015E000FFFFFFFF0001C76F0001F651D8B403D021
:1015F000000EF46F9ED1FFFF010EF46F7AD1FFFF52
:101600008FEC37F0DD0E0001A16F7F0EA26F90EC22
:1016100038F0514A522A060E0001F56F8AD1FFFFB9
:10162000F90E936F7F0E946F72EC38F00009D8B406
:101630000ED08FEC37F0AD0E0001A16F7E0EA26FC1
:1016400090EC38F0514A522A060E0001F56FFFFF68
:101650000001F551D8A46DD11A0E806F000E816F74
:1016600031EC36F0000E0001816F0F0E806F74ECCC
:1016700037F0A90E0001A16F7F0EA26F90EC38F039
:1016800032D1FFFFF90E0001936F7F0E946F72EC61
:1016900038F00009D8B4A4D08FEC37F00001F7512E
:1016A000D8B404D0A40EBD6F010E04D0FFFFB00E5D
:1016B000BD6F010EFFFFBE6F240EA16F7D0EA26FE6
:1016C000BDC0A3F0BEC0A4F090EC38F0080EFFFF40
:1016D0000001F56F514A522A83D0FFFFFC0E936F31
:1016E0007F0E946F72EC38F00009D8B479D08FEC8B
:1016F00037F00001C705D8A418D0950EA16F7B0E56
:10170000A26FEDC0A3F0A46BEEC0A5F0A66BEFC076
:10171000A7F0A86BECC0A9F0AA6BEBC0ABF0AC6B68
:10172000EAC0ADF0AE6B90EC38F0FFFF020E0001A6
:10173000C719D8A44BD0FB05D8B404D0D10EBF6FC5
:101740007F0E04D0FFFFF90EBF6F7F0EFFFFC06F4B
:10175000FC05D8B404D0D10EC16F7F0E04D0FFFFBA
:10176000F90EC16F7F0EFFFFC26FFD05D8B404D024
:10177000D10EC36F7F0E04D0FFFFF90EC36F7F0E33
:10178000FFFFC46F2D0EA16F7B0EA26FEDC0A3F003
:10179000A46BEEC0A5F0A66BEFC0A7F0A86BECC0E1
:1017A000A9F0AA6BEBC0ABF0AC6BEAC0ADF0AE6BCE
:1017B000C3C0AFF0C4C0B0F0C1C0B1F0C2C0B2F09D
:1017C000BFC0B3F0C0C0B4F090EC38F0FFFF1A0E09
:1017D0000001806F000E816F31EC36F01E0E77D75E
:1017E000FFFF0001FFFFF551D8A4A3D07CD0FFFF7D
:1017F000F90E936F7F0E946F72EC38F00001BB6F9F
:10180000D70E936F7F0E946F72EC38F00001BB110E
:101810000009D8B4E7D7020EC719D8A412D0F751DF
:10182000D8A407D0010EF76F000E526E000E516E55
:10183000D9D7FFFF000EF76F000EF46F000EE06FB8
:10184000D1D7FFFF514A522ACDD7FFFF8FEC37F097
:101850000001F751D8B404D0A40EC56F010E04D016
:10186000FFFFB00EC56F010EFFFFC66F010EA16F27
:101870007F0EA26FC5C0A3F0C6C0A4F090EC38F0F4
:10188000230E0001F56F514A522A53D0FFFFD10EAB
:10189000936F7E0E946F72EC38F00009D8A404D0D8
:1018A0000001F551D8A445D0FFFF8FEC37F0A90E09
:1018B0000001A16F7F0EA26F90EC38F0020E0001C4
:1018C000816F260E806F74EC37F00001F751D8A4B9
:1018D00003D0010EF76F07D0FFFF000EF76F000E69
:1018E000F46F640EF66FFFFF000E526E000E516E25
:1018F00020D0FFFF51C0BBF052C0BCF0BC51000A69
:10190000D8A4F1D7BB51000AD8B479D6010AD8B40B
:1019100086D6030AD8B4B5D6010AD8B4DED6070AEB
:10192000D8B465D7010AD8B490D7030AD8B4AED7D3
:10193000DAD7FFFF1200FFFFFFFF0001E551A4EC23
:101940003CF0B5C0C2F0B6C0C3F07B0E0001A16F81
:10195000010EA26F220EA36F7F0EA46FC2C0A5F06E
:10196000C3C0A6F095EC39F00001E451A4EC3CF0C2
:10197000B5C0C2F0B6C0C3F0660E0001A16F010E83
:10198000A26F2D0EA36F7F0EA46FC2C0A5F0C3C0BF
:10199000A6F095EC39F00001E351A4EC3CF0B5C0A1
:1019A000C2F0B6C0C3F0510E0001A16F010EA26FCC
:1019B0001F0EA36F7E0EA46FC2C0A5F0C3C0A6F019
:1019C00095EC39F00001E251A4EC3CF0B5C0C2F056
:1019D000B6C0C3F03C0E0001A16F010EA26F2E0E27
:1019E000A36F7E0EA46FC2C0A5F0C3C0A6F095EC95
:1019F00039F0010EE6EC3AF00009D8B419D0E4C091
:101A00008CF0000E72EC39F0E3C08CF0010E72EC39
:101A100039F0E2C08CF0020E72EC39F0E5C08CF0C7
:101A2000040E72EC39F0000E0001E16FDFC0E0F04F
:101A3000FFFF040EE6EC3AF00009D8B497D000019D
:101A4000E12B94D0FFFF7B0E806F010E816F080E9B
:101A5000826F0F0E836FAEEC38F0030EE6EC3AF0B7
:101A60000009D8B402D00001E52BFFFF020EE6EC1E
:101A70003AF00009D8B402D00001E507FFFF630E79
:101A80000001E56583D0000EE56F80D0FFFF660E94
:101A9000806F010E816F080E826F0F0E836FAEECA8
:101AA00038F0030EE6EC3AF00009D8B402D0000199
:101AB000E42BFFFF020EE6EC3AF00009D8B402D0A6
:101AC0000001E407FFFF630E0001E4655FD0000E34
:101AD000E46F5CD0FFFF510E806F010E816F0C0E22
:101AE000826F120E836FAEEC38F0030EE6EC3AF024
:101AF0000009D8B402D00001E32BFFFF020EE6EC90
:101B00003AF00009D8B402D00001E307FFFF630EEA
:101B10000001E3653BD0000EE36F38D0FFFF3C0EC1
:101B2000806F010E816F0C0E826F120E836FAEEC10
:101B300038F0030EE6EC3AF00009D8B402D0000108
:101B4000E22BFFFF020EE6EC3AF00009D8B402D017
:101B50000001E207FFFF630E0001E26517D0000EEF
:101B6000E26F14D0FFFF000EE16F10D0FFFF000105
:101B7000E151000AD8B466D7010AD8B487D7030A5E
:101B8000D8B4A8D7010AD8B4C9D7ECD7FFFF120040
:101B9000FFFFFFFF7D0E0001A16F010EA26FF30E8C
:101BA000A36F7B0EA46FEDC0A5F0A66BEEC0A7F0EF
:101BB000A86BEFC0A9F0AA6BECC0ABF0AC6BEBC0AC
:101BC000ADF0AE6B95EC39F0010E01017B6FFFC0FB
:101BD0007CF1050E8E6F51D0FFFF3C0E0001A16F0E
:101BE000010EA26FA00EA36F7D0EA46F95EC39F0CD
:101BF00059D0FFFF3C0E0001A16F010EA26FDD0E58
:101C0000A36F7E0EA46F95EC39F04CD0FFFF3C0E15
:101C10000001A16F010EA26F740EA36F7C0EA46F62
:101C200095EC39F026D0FFFF3C0E0001A16F010EAC
:101C3000A26F6C0EA36F7D0EA46F95EC39F019D0D6
:101C4000FFFF3C0E0001A16F010EA26F0D0EA36FEE
:101C50007C0EA46F95EC39F00CD0FFFF3C0E000118
:101C6000A16F010EA26F220EA36F7C0EA46F95ECE4
:101C700039F0FFFF010E456E15D0FFFF0001F35153
:101C8000010AD8B4A9D7030AD8B4B3D7010AD8B483
:101C9000BDD7070AD8B4C7D7010AD8B4D1D7030A29
:101CA000D8B4DBD7FFFF0001F251D8B40AD0660EDA
:101CB000A16F010EA26F600EA36F7C0EA46F95EC56
:101CC00039F0FFFF7450D8B413D0AAEC37F0520E9D
:101CD0000001A16F010EA26F110EA36F7D0EA46F04
:101CE00095EC39F0000E0001F26F010E456E18D030
:101CF000FFFF0001F851A4EC3CF0B5C0C2F0B6C043
:101D0000C3F0530E0001A16F010EA26FF20EA36F7C
:101D10007D0EA46FC2C0A5F0C3C0A6F095EC39F04B
:101D2000FFFF020E0001F36103D0F251D8B416D0C8
:101D3000FFFF7550D8B40AD03C0EA16F010EA26F00
:101D4000C40EA36F7C0EA46F95EC39F0FFFF010E5B
:101D5000E6EC3AF00009D8A4F5EC36F0FFFF040EEB
:101D6000E6EC3AF00009D8B405D0010E0001E06FAE
:101D7000010E6A6EFFFF82B011D07B0E0001806FF2
:101D8000010E816F140E826F140E836FAEEC38F06B
:101D90000001F351D8A402D0010EF36FFFFF000140
:101DA000FD51D8A402D0040E0BD0FFFFFC51D8A4E3
:101DB00002D0050E05D0FFFFFB51D8A403D0060EBC
:101DC000FFFFF36FFFFF1200FFFFFFFF7B0E00011D
:101DD000A16F010EA26FD40EA36F7B0EA46F5DC026
:101DE000A5F0A66B5CC0A7F0A86B5BC0A9F0AA6BBE
:101DF0005AC0ABF0AC6B59C0ADF0AE6B95EC39F09E
:101E00005804D8B405D0E20E0001BA6F7F0E05D099
:101E1000FFFFF90E0001BA6F7F0EFFFFBB6F660E6A
:101E2000A16F010EA26F750EA36F7F0EA46FBAC0D3
:101E3000A5F0BBC0A6F095EC39F0740E0001A16FBF
:101E4000010EA26F170EA36F7F0EA46F010E532415
:101E5000A56FA66B000EA62354C0A7F0A86B95EC47
:101E600039F05704D8B405D0E20E0001BC6F7F0EE4
:101E700005D0FFFFF90E0001BC6F7F0EFFFFBD6FA5
:101E8000510EA16F010EA26F770EA36F7E0EA46F8D
:101E9000BCC0A5F0BDC0A6F095EC39F05604D8B48E
:101EA00005D0E20E0001BE6F7F0E05D0FFFFF90ED8
:101EB0000001BE6F7F0EFFFFBF6F3C0EA16F010ED2
:101EC000A26F850EA36F7E0EA46FBEC0A5F0BFC02B
:101ED000A6F095EC39F0010EE6EC3AF00009D8B422
:101EE00005D0000E0001E16FDFC0E0F0FFFF020E41
:101EF000E6EC3AF00009D8B40BD0080E0001FA5F06
:101F00003C0EFA6102D03C0EFA6FFFFF010E556ED7
:101F1000FFFF030EE6EC3AF00009D8B419D0545094
:101F20000001B56FB66B5350B76FB86B010EB72792
:101F3000000EB823B551B75DB851800AB96FB651DC
:101F4000800AB959D8B05AD0080EFA27010E556E3A
:101F5000FFFF5504D8A452D00E0E2DEC3AF000012C
:101F6000C06FC40EC025806F816BFF0E8123000EF1
:101F7000836F080E826F36EC1FF000018051546EA3
:101F8000C40EFA25806F816BFF0E8123000E836FD4
:101F9000080E826F36EC1FF000018051536EFA512B
:101FA0002DEC3AF05D6E0001FA292DEC3AF05C6EF2
:101FB0000001FA51020F2DEC3AF05B6E0001FA516C
:101FC000030F2DEC3AF05A6E0001FA51040F2DEC7C
:101FD0003AF0596E0001FA51050F2DEC3AF0586EA7
:101FE0000001FA51060F2DEC3AF0576E0001FA513C
:101FF000070F2DEC3AF0566E000E556EFFFF1200E3
:10200000FFFFFFFF7B0E0001A16F010EA26FCB0E41
:10201000A36F7F0EA46F95EC39F0660E0001A16FDF
:10202000010EA26F010EA36F7E0EA46F7CC0A5F0FF
:10203000A66B7DC0A7F0A86B7EC0A9F0AA6B95EC3B
:1020400039F0860E0001A16F010EA26FC50EA36FBD
:102050007F0EA46F95EC39F0710E0001A16F010E97
:10206000A26F100EA36F7E0EA46F7BC0A5F0A66BAF
:102070007AC0A7F0A86B79C0A9F0AA6B95EC39F0EB
:10208000040EE6EC3AF00009D8B404D0010E686EF4
:102090000001E12BFFFF010EE6EC3AF00009D8B495
:1020A000B0D0000E686E000E0001E16F780E8C6FEC
:1020B000000E8D6F99EC19F0DFC0E0F00001EE2BFF
:1020C000A0D0FFFF660E806F010E816F010E826F40
:1020D000020E836FAEEC38F0030EE6EC3AF0000926
:1020E000D8A47C2A020EE6EC3AF00009D8B49FD0BE
:1020F0007C069DD0FFFF660E0001806F010E816F90
:10210000040E826F050E836FAEEC38F0030EE6EC22
:102110003AF00009D8A47D2A020EE6EC3AF0000954
:10212000D8B485D07D0683D0FFFF660E0001806F96
:10213000010E816F070E826F080E836FAEEC38F0D0
:10214000030EE6EC3AF00009D8A47E2A020EE6EC73
:102150003AF00009D8B46BD07E0669D0FFFF660E56
:102160000001806F010E816F0C0E826F0D0E836F68
:10217000AEEC38F0030EE6EC3AF00009D8A47B2A66
:10218000020EE6EC3AF00009D8B451D07B064FD0ED
:10219000FFFF660E0001806F010E816F0F0E826FD0
:1021A000100E836FAEEC38F0030EE6EC3AF0000947
:1021B000D8A47A2A020EE6EC3AF00009D8B437D057
:1021C0007A0635D0FFFF660E0001806F010E816F29
:1021D000120E826F130E836FAEEC38F0030EE6EC36
:1021E0003AF00009D8A4792A020EE6EC3AF0000988
:1021F000D8B41DD079061BD0FFFF010E0001E16F9E
:1022000016D0FFFF0001E151010AD8B45AD7030AE2
:10221000D8B470D7010AD8B487D7070AD8B49ED7E4
:10222000010AD8B4B5D7030AD8B4CCD7E5D7FFFF95
:10223000DDEC39F01200FFFFFFFF000E2A6E000EEA
:102240002E6E000E2F6E000E306E000E2B6E000EE6
:102250002C6E000E2D6E000E2A6EFFFF080E2A64F3
:1022600001D02DD0FFFF2EC01BF02FC01CF030C0BE
:102270001DF0280E0F6EA00E106E3B0E116EA1EC1D
:1022800036F001C009F002C00AF08DEC36F009C04A
:102290000CF00AC00DF00BC00EF0ABEC1AF00CC045
:1022A0001EF00DC01FF00EC020F00FEC14F01BC08C
:1022B0002EF01CC02FF01DC030F02A2ACED7FFFF11
:1022C0002EC01BF02FC01CF030C01DF0000E1E6E83
:1022D000200E1F6E410E206E11EC1CF01BC02EF064
:1022E0001CC02FF01DC030F04CC01BF04DC01CF0C6
:1022F0004EC01DF02EC01EF02FC01FF030C020F0C9
:102300000FEC14F01BC04CF01CC04DF01DC04EF083
:102310006E2A2EC001F02FC002F030C003F0CD0EA7
:10232000046ECC0E056E3E0E066EE8EC1EF0D8B0C4
:1023300005D0FF0E0001F96FF60E15D0FFFF000E5D
:10234000016E900E026E400E036E2EC004F02FC080
:1023500005F030C006F0E8EC1EF0D8B009D0000E51
:102360000001F96F630EFFFFF86F010E746E7BD0F2
:10237000FFFF050E6E6477D0000E746E000E6E6E59
:102380004CC01BF04DC01CF04EC01DF0000E1E6E68
:10239000C00E1F6E400E206E11EC1CF01BC02EF004
:1023A0001CC02FF01DC030F0000E4C6E000E4D6EA4
:1023B000000E4E6E2EC01BF02FC01CF030C01DF062
:1023C000000E1E6E000E1F6EBF0E206E0FEC14F07E
:1023D0001BC02BF01CC02CF01DC02DF0000E0F6E8A
:1023E000200E106E410E116E2BC00CF02CC00DF0A3
:1023F0002DC00EF0ABEC1AF00CC01BF00DC01CF0A1
:102400000EC01DF0000E1E6E800E1F6E400E206E60
:1024100011EC1CF01BC02BF01CC02CF01DC02DF0CB
:102420002DAE06D0000E2B6E000E2C6E000E2D6E03
:10243000FFFF000E0F6E200E106E410E116E2BC0AE
:102440000CF02CC00DF02DC00EF0ABEC1AF00CC04F
:102450001BF00DC01CF00EC01DF09DEC1BF01BC04E
:10246000F8F01CC0F9F0FFFF1200FFFFFFFFD1D012
:10247000FFFF8FEC37F0DD0E0001A16F7F0EA26F22
:1024800090EC38F0514A522A050E0001F56FDCD06D
:10249000FFFFF90E936F7F0E946F72EC38F0000916
:1024A000D8B40ED08FEC37F0AD0E0001A16F7E0EC8
:1024B000A26F90EC38F0514A522A050E0001F56FD8
:1024C000FFFF0001F551D8A4BFD0000E526E000EE0
:1024D000516E1A0E806F000E816F31EC36F0B4D061
:1024E000FFFFF90E0001936F7F0E946F72EC38F0CE
:1024F0000009D8B483D08FEC37F00001F751D8B47D
:1025000004D0A40EBD6F010E04D0FFFFB00EBD6F4E
:10251000010EFFFFBE6F240EA16F7D0EA26FBDC026
:10252000A3F0BEC0A4F090EC38F0050E0001F56FEA
:10253000514A522A89D0FFFFFC0E936F7F0E946F91
:1025400072EC38F00009D8B459D08FEC37F0AF0EE8
:102550000001A16F7A0EA26FECC0A3F0A46BEBC0D8
:10256000A5F0A66BEAC0A7F0A86BEDC0A9F0AA6B16
:10257000EEC0ABF0AC6BEFC0ADF0AE6BB90EAF6FB1
:102580007E0EB06F90EC38F0030E0001816FE80E04
:10259000806F74EC37F01A0E0001806F000E816FAF
:1025A00031EC36F0514A522A1E0E0001F56F26D04A
:1025B000FFFFF90E936F7F0E946F72EC38F00009F5
:1025C000D8B411D00001F751D8A403D0010EF76F91
:1025D00005D0FFFF000EF76F000EF46FFFFF000E37
:1025E000526E000E516EFFFFD70E0001936F7F0EEB
:1025F000946F72EC38F00009D8A405D0FFFF0001F9
:10260000F551D8A421D0FFFF000E526E000E516E7E
:102610001BD0FFFF51C0BBF052C0BCF00001BC5149
:10262000000AD8A4F0D7BB51000AD8B421D7010AB8
:10263000D8B42ED7030AD8B453D7010AD8B47BD75D
:10264000070AD8B4B5D7DFD7FFFF1200FFFFFFFF9F
:102650007B0E0001A16F010EA26F370EA36F7C0EDF
:10266000A46FE851B56FB66BB51FB61FB54BB62B4F
:10267000E951B525A56F000EB621A66F95EC39F08E
:10268000660E0001A16F010EA26F880EA36F7C0E73
:10269000A46FE9C0A5F0A66B95EC39F0510E0001CE
:1026A000A16F010EA26F9C0EA36F7C0EA46FE7C0FA
:1026B000A5F0A66B95EC39F07350D8B405D0F10EA7
:1026C0000001B76F7F0E05D0FFFFF50E0001B76F59
:1026D0007F0EFFFFB86F3C0EA16F010EA26F380E88
:1026E000A36F7F0EA46FB7C0A5F0B8C0A6F095EC9D
:1026F00039F0010EE6EC3AF00009D8B411D0E9C087
:102700008CF0060E72EC39F0E7C08CF00B0E72EC18
:1027100039F073C08CF00F0E72EC39F0DFC0E0F0CE
:10272000FFFF040EE6EC3AF00009D8B468D00001CF
:10273000E12B65D0FFFF660E806F010E816F0B0EDF
:10274000826F0E0E836FAEEC38F0030EE6EC3AF0BB
:102750000009D8B402D00001E92BFFFF020EE6EC1D
:102760003AF00009D8B458D00001E90755D0FFFF6E
:10277000510E806F010E816F090E826F0B0E836FF9
:10278000AEEC38F0030EE6EC3AF00009D8B402D013
:102790000001E72BFFFF020EE6EC3AF00009D8B487
:1027A00002D00001E707FFFF180E0001E76101D02A
:1027B00033D0FFFF000EE76F2FD0FFFF3C0E806F7E
:1027C000010E816F090E826F0B0E836FAEEC38F035
:1027D000030EE6EC3AF00009D8B402D0010E736E95
:1027E000FFFF020EE6EC3AF00009D8B415D0000E57
:1027F000736E12D0FFFF000E0001E16F0DD0FFFFDE
:102800000001E151000AD8B495D7010AD8B4AFD776
:10281000030AD8B4D2D7EED7FFFF1200FFFFFFFFA5
:102820001DC021F0226A236A1C34213601E3228074
:102830002150266E20C021F0226A236A1F342136DF
:1028400001E322802150256E2650D8B40BD02550AC
:10285000265CD8B00FD0265000082524216E180E13
:10286000216408D0FFFF1EC01BF01FC01CF020C059
:102870001DF0BAD0FFFF2550D8B40BD02650255CF0
:10288000D8B00FD0255000082624216E180E2164E0
:1028900008D0FFFF1BC01BF01CC01CF01DC01DF0AA
:1028A000A3D0FFFF060E246E1DBE248E20BE248CF6
:1028B0001C8EFF0E1B16FF0E1C16000E1D161F8E03
:1028C000FF0E1E16FF0E1F16000E20162550265C4A
:1028D000D8B01ED0FFFFD8901E361F3620362506F2
:1028E00026502518D8B40ED0240624C021F0070E97
:1028F0002116D8B407D0EED7FFFFD8901D321C3276
:102900001B32262AFFFF25502618D8B423D0F4D72F
:10291000FFFF2650255CD8B01DD0FFFFD8901B3696
:102920001C361D36260626502518D8B40ED024068F
:1029300024C021F0070E2116D8B407D0EED7FFFF30
:10294000D89020321F321E32252AFFFF255026182C
:10295000D8A4F5D7FFFF24AE0CD0FF0E1B1AFF0E34
:102960001C1AFF0E1D1A010E1B26000E1C22000E43
:102970001D22FFFF24AC0CD0FF0E1E1AFF0E1F1AE3
:10298000FF0E201A010E1E26000E1F22000E20220E
:10299000FFFF000E246E1B501E261C501F221D50D0
:1029A000202220AE0ED0FF0E1E1AFF0E1F1AFF0EA1
:1029B000201A010E1E26000E1F22000E2022010EDC
:1029C000246EFFFF1EC001F01FC002F020C003F004
:1029D00026C004F024C005F086EC1EF001C01BF0F8
:1029E00002C01CF003C01DF0FFFF1200FFFFFFFF3D
:1029F0000001FE51D8A4DED0F451D8B4CAD0DAD048
:102A0000FFFF8FEC37F07F0E0001A16F7F0EA26FEA
:102A100090EC38F0050E0001F56F000E526E010EBD
:102A2000516E000EF76FC6D0FFFFF551D8A43CD011
:102A3000DD0EA16F7F0EA26F90EC38F0000E00014A
:102A4000816F640E806F74EC37F0F90E0001936FA4
:102A50007F0E946F72EC38F00009D8B40DD0000EE0
:102A6000526E000E516E000E776E020E0001F319C9
:102A7000D8A41AD0000E16D0FFFF000E526E000E22
:102A8000516E1A0E0001806F000E816F31EC36F02E
:102A9000772A020E776408D0000E776E780E000158
:102AA000FF6F020EFFFFF36FFFFFB00E0001936F89
:102AB0007F0E946F72EC38F00009D8B47BD0B00E62
:102AC0000001B56F7F0EB66F2C0EB76F0BEC19F0CF
:102AD000B5C0BFF0B6C0C0F027EC1BF0BFC0C8F057
:102AE000C0C0C9F00001C9BF06D0C95108E1080E35
:102AF000C85DD8B003D0FFFF200E3BD0FFFFC9BF99
:102B000011D0C95104E1080EC85DD8A00BD0C9BFCF
:102B100006D0C95108E10C0EC85DD8B003D0FFFF44
:102B2000020E27D0FFFFC9BF11D0C95104E10C0E1E
:102B3000C85DD8A00BD0C9BF06D0C95108E1110E9D
:102B4000C85DD8B003D0FFFF030E13D0FFFFC9BF8D
:102B500012D0C95104E1110EC85DD8A00CD0C9BF74
:102B600006D0C95109E11F0EC85DD8B004D0FFFFDF
:102B7000040EFFFFFF6FFFFF000E526E000E516E3E
:102B8000050EFE6F17D0FFFF000E526E000E516E45
:102B900011D0FFFF51C0C6F052C0C7F0C751000AA4
:102BA000D8A4F1D7C651000AD8B42AD7010AD8B49C
:102BB0003BD7E9D7FFFF1200FFFFFFFF0001FE51E7
:102BC000D8B405D0FE07FEC009F00A6A05D0FFFFA1
:102BD000000E0A6E000E096EFFFF09C0FEF0F551EF
:102BE000D8B405D0F507F5C00BF00C6A05D0FFFF8F
:102BF000000E0C6E000E0B6EFFFF0BC0F5F0DB51EC
:102C0000DC11D8B408D0DB07D8A0DC07DBC0DBF0D0
:102C1000DCC0DCF005D0FFFF000EDC6F000EDB6FC8
:102C2000FFFFF651D8B405D0F607F6C00DF00E6AD6
:102C300005D0FFFF000E0E6E000E0D6EFFFF0DC0E3
:102C4000F6F07650D8B405D0760676C00FF0106A4C
:102C500005D0FFFF000E106E000E0F6EFFFF0FC0BD
:102C600076F07650D8A40BD0020E766E7550D8A4AC
:102C700002D0010E02D0FFFF000EFFFF756EFFFFB6
:102C80006850D8A456D0EF2B3B0EEF6514D0000E41
:102C9000EF6FEE2B3B0EEE650ED0000EEE6FED2BC0
:102CA000170EED6508D0000EED6FE82BE8C004F0BC
:102CB0000A0E54EC38F0FFFF0001EE517A18D8B438
:102CC00038D0F051D8B409D04F4A502A4FC006F03E
:102CD00050C007F0080E7CEC36F0FFFF780E066E51
:102CE000000E076E22EC1AF03C0E796415D03C0EF3
:102CF0007A6412D0180E7B640FD026EC37F0EFC048
:102D000079F0EEC07AF0EDC07BF0ECC07CF0EBC067
:102D10007DF0EAC07EF00DD0FFFF79C0EFF07AC001
:102D2000EEF07BC0EDF07CC0ECF07DC0EBF07EC03F
:102D3000EAF0FFFF1200FFFFFFFF7B0E0001A16F13
:102D4000010EA26FFE0EA36F7C0EA46F95EC39F0FE
:102D5000660E0001A16F010EA26F690EA36F7E0EB9
:102D6000A46F95EC39F0760E0001A16F010EA26FF1
:102D7000EC0EA36F7F0EA46FE6C0A5F0A66B95ECDA
:102D800039F0510E0001A16F010EA26FC50EA36FA5
:102D90007E0EA46F95EC39F0610E0001A16F010E5B
:102DA000A26FEC0EA36F7F0EA46F6BC0A5F0A66B95
:102DB00095EC39F03C0E0001A16F010EA26F5A0E86
:102DC000A36F7D0EA46F4FC0A5F050C0A6F095EC88
:102DD00039F0040EE6EC3AF00009D8B402D0000154
:102DE000E12BFFFF010EE6EC3AF00009D8B44BD01E
:102DF000E6C08CF0070E72EC39F06BC08CF00D0E53
:102E000072EC39F0000E0001E16FDFC0E0F03BD062
:102E1000FFFF660E806F010E816F100E826F140E21
:102E2000836FAEEC38F0030EE6EC3AF00009D8B44C
:102E300002D00001E62BFFFF020EE6EC3AF000099B
:102E4000D8B42BD00001E60728D0FFFF510E806FC9
:102E5000010E816F100E826F140E836FAEEC38F08E
:102E6000030EE6EC3AF00009D8A46B2A020EE6EC59
:102E70003AF00009D8B411D06B060FD0FFFF000E56
:102E80000001E16F0AD0FFFF0001E151000AD8B450
:102E9000BFD7010AD8B4D9D7F1D7FFFF1200FFFF7F
:102EA000FFFF11EC36F0000E00018B6FD00E8A6F21
:102EB0002AEC36F0000E00018B6F000E8A6F2AECB0
:102EC00036F01DEC36F0000E00018B6FD10E8A6FCC
:102ED0002AEC36F0000120EE01F08C51D9268D51FC
:102EE000DA22000E826F010E816F1AEC38F00001B9
:102EF00081516FEC36F0DF6E000120EE02F08C5154
:102F0000D9268D51DA22000E826F010E816F1AECE4
:102F100038F0000181516FEC36F0DF6E000120EED9
:102F200003F08C51D9268D51DA22000E826F010EEA
:102F3000816F1AEC38F0000181516FEC36F0DF6ED2
:102F4000000E0001826F010E816F1AEC38F0000153
:102F500081516FEC36F08CC0D9FF8DC0DAFFDF6E87
:102F6000000120EE04F08C51D9268D51DA22000E9A
:102F7000826F010E816F1AEC38F0000181516FEC05
:102F800036F0DF6E000120EE05F08C51D9268D5110
:102F9000DA22000E826F010E816F1AEC38F0000108
:102FA00081516FEC36F0DF6E000120EE06F08C519F
:102FB000D9268D51DA22000E826F000E816F1AEC35
:102FC00038F0000181516FEC36F0DF6E17EC36F00F
:102FD0001200FFFFFFFF000E0001956F000E946FBF
:102FE0000C0E2DEC3AF00001946F140E9419D8B425
:102FF00016D0000E956FFFFF630E956501D009D0C6
:10300000FFFF000E8C6F955172EC39F00001952B8B
:10301000F2D7FFFF140E8C6F0C0E72EC39F0FFFF2D
:10302000000E2DEC3AF00001E46F010E2DEC3AF0A9
:103030000001E36F020E2DEC3AF00001E26F080E82
:10304000E1EC37F08EC04FF08FC050F0040E2DEC45
:103050003AF00001E56F060E2DEC3AF00001E96F41
:10306000070E2DEC3AF00001E66F0A0E2DEC3AF057
:103070000001E86F0B0E2DEC3AF00001E76F0D0E2A
:103080002DEC3AF06B6E0F0E2DEC3AF0736E000ED5
:103090000001956FFFFF0A0E956501D011D0FFFF6B
:1030A0009551010DB00EF324D96E010EF420DA6EA5
:1030B0009551140F2DEC3AF0DF6E0001952BEAD7F5
:1030C000FFFF000E956FFFFF0A0E956501D011D02E
:1030D000FFFF9551010DA40EF324D96E010EF420CB
:1030E000DA6E9551280F2DEC3AF0DF6E0001952B2A
:1030F000EAD7FFFF1200FFFFFFFF0001F151D8A444
:1031000087D0E551C86FC96BC851F85DF951800A85
:10311000CA6FC951800ACA59D8A00BD0F251D8A49D
:1031200008D0000E4A6E000E496E000E84EC1CF0B2
:103130006FD0FFFF000E466E0001E451C86FC96BEF
:10314000F851C85DC951800ACA6FF951800ACA593D
:10315000D8A002D0010E12D0FFFFE551C86FC96B95
:10316000C851F85DF951800ACA6FC951800ACA591D
:10317000D8A006D0F251D8A403D0000EFFFF4A6EAB
:10318000FFFFE351C86FC96BF851C85DC951800A90
:10319000CA6FF951800ACA59D8A004D0010EF26F43
:1031A000010E496EFFFFE551C86FC96BC851F85D4C
:1031B000F951800ACA6FC951800ACA59D8A008D0EB
:1031C000F251D8A405D0000E496E000E84EC1CF01C
:1031D000FFFF0001E251C86FC96BF851C85DC951CA
:1031E000800ACA6FF951800ACA59D8A006D0010EC8
:1031F00084EC1CF0010E0001F26FFFFFF251D8B415
:1032000007D0010EF46F010EF1EC0AF0010E456ECD
:10321000FFFF1200FFFFFFFF900E0001806F010E05
:10322000816F000E836F000E826F000E856F140E8B
:10323000846FFDEC37F0B5C080F0B6C081F0D0EC03
:103240001FF080C0BAF081C0BBF0000E00018F6F8C
:10325000010E906FB5C091F0B6C092F0EEEC3CF06C
:103260008FC0BDF090C0BEF00001BD51BE11D8B4FA
:1032700058D0000EBC6FBAC0BCF042D0FFFFBC51AA
:10328000010DF350BD25D96EF450BE21DA6EB75151
:10329000DE18D8A417D0900EA16F010EA26FE70E12
:1032A000A36F7F0EA46F900EA56F010EA66F000E88
:1032B000A86F000EA76F95EC39F0900E0001B56F66
:1032C000010E33D0FFFF900EA16F010EA26FE70E2B
:1032D000A36F7F0EA46F900EA56F010EA66FBC5159
:1032E000010DF350BD25D96EF450BE21DA6EDF50CA
:1032F000B86FB851A76FA86B95EC39F00001BC2BE3
:10330000FFFFBDC080F0BEC081F0D0EC1FF0000117
:10331000BC51B86FB96B8051B85D8151B959D8A013
:10332000ADD7FFFF000EB56F000EFFFFB66F1200A6
:10333000FFFFFFFF11EC36F0000E00018B6FD00E87
:103340008A6F2AEC36F0000E00018B6F000E8A6F38
:103350002AEC36F0000120EE01F08C51D9268D5177
:10336000DA22DF500EEC39F000018E6F8E518A6F39
:103370008B6B2AEC36F0000120EE02F08C51D9263E
:103380008D51DA22DF500EEC39F000018E6F8E5134
:103390008A6F8B6B2AEC36F0000120EE03F08C5123
:1033A000D9268D51DA22DF500EEC39F000018E6FF4
:1033B0008E518A6F8B6B2AEC36F08CC0D9FF8DC092
:1033C000DAFFDF500EEC39F000018E6F8E518A6FFC
:1033D0008B6B2AEC36F0000120EE04F08C51D926DC
:1033E0008D51DA22DF500EEC39F000018E6F8E51D4
:1033F0008A6F8B6B2AEC36F0000120EE05F08C51C1
:10340000D9268D51DA22DF500EEC39F000018E6F93
:103410008E518A6F8B6B2AEC36F0000120EE06F09D
:103420008C51D9268D51DA22DF500EEC39F0000193
:103430008E6F8E518A6F8B6B2AEC36F017EC36F05C
:103440001200FFFFFFFFFFEC35F0000E036ED00E01
:10345000026E23EC36F0000E036E000E026E23ECBB
:1034600036F00BEC36F0000E036ED10E026E23EC3C
:1034700036F020EE01F00650D9260750DA22000E71
:10348000036E010E026E59EC37F002504BEC36F031
:10349000DF6E20EE02F00650D9260750DA22000E29
:1034A000036E010E026E59EC37F002504BEC36F011
:1034B000DF6E20EE03F00650D9260750DA22000E08
:1034C000036E010E026E59EC37F002504BEC36F0F1
:1034D000DF6E000E036E010E026E59EC37F00250E3
:1034E0004BEC36F006C0D9FF07C0DAFFDF6E20EEE6
:1034F00004F00650D9260750DA22000E036E010EA2
:10350000026E59EC37F002504BEC36F0DF6E20EED5
:1035100005F00650D9260750DA22000E036E010E80
:10352000026E59EC37F002504BEC36F0DF6E20EEB5
:1035300006F00650D9260750DA22000E036E000E60
:10354000026E59EC37F002504BEC36F0DF6E05ECB2
:1035500036F01200FFFFFFFF0EC012F0136A146A6C
:103560000D34123601E313801250156E1550D8B485
:103570000DD011C012F0136A146A1034123601E330
:10358000138012501A6E1A50D8A408D0FFFF000EF4
:103590000C6E000E0D6E000E0E6E56D0FFFF1A5010
:1035A0007B0F15260EC01AF011501A1A800E1A162B
:1035B0000D8E108EFF0E0F16FF0E1016000E111638
:1035C000000E166E000E176E000E186E070E196EA6
:1035D000FFFF0CA006D00F501626105017221150D6
:1035E0001822FFFFD8900E320D320C32D8900F36D1
:1035F00010361136192EECD7090E196EFFFF0CA0EC
:1036000006D00F5016261050172211501822FFFF17
:10361000D8900E320D320C32D89018321732163242
:10362000192EECD716C001F017C002F018C003F035
:1036300015C004F01AC005F086EC1EF001C00CF0B5
:1036400002C00DF003C00EF0FFFF1200FFFFFFFFEE
:1036500004D0FFFF0001BF4BC02BFFFFBFC0D9FF4D
:10366000C0C0DAFF200EDE18D8B4F3D7BFC0D9FF30
:10367000C0C0DAFF090EDE18D8B4EBD7000E000187
:10368000C56F000EC46F000EC36FBFC0D9FFC0C0AE
:10369000DAFF2D0EDE18D8A402D0C32B28D0FFFFEE
:1036A000BFC0D9FFC0C0DAFF2B0EDE18D8A422D0CD
:1036B0001ED0FFFFC4C080F0C5C081F0000E000125
:1036C000836F0A0E826FDFEC36F0BFC0D9FFC0C037
:1036D000DAFFDF500001C16FC26B8051C1278151F9
:1036E000C223D00EC125C46FFF0EC221C56FFFFFDC
:1036F000BF4BC02BFFFFBFC0D9FFC0C0DAFFDF50F8
:10370000B5EC36F0D8B0D5D70001C351D8B40DD040
:10371000C4C0C1F0C5C0C2F0C11FC21FC14BC22B83
:10372000C1C0BFF0C2C0C0F005D0FFFFC4C0BFF031
:10373000C5C0C0F0FFFF1200FFFFFFFF1DC01FF05C
:10374000206A216A1C341F3601E320801F50296E35
:103750002950D8B439D0170E1F6E1BC020F01CC0E2
:1037600021F01DC022F01F28236E05D0FFFFD89046
:10377000223221322032FFFF232EF8D72050246E30
:103780001C8EFF0E1B16FF0E1C16000E1D161B5066
:10379000256E1C50266E1D50276E286A8E0E295EDF
:1037A00029AE0ED02950800A8F0FD8A00DD0FFFF70
:1037B000D8902832273226322532293EF8D719D020
:1037C000FFFF170E296411D0FFFF000E1B6E000EC5
:1037D0001C6E000E1D6E000E1E6E20D0FFFFD890D6
:1037E00025362636273628362906FFFF2950D8A445
:1037F000F5D7FFFF2450D8B408D0281E271E261E58
:10380000256C000E262227222822FFFF25C01BF050
:1038100026C01CF027C01DF028C01EF0FFFF1200BC
:10382000FFFFFFFF1DC021F0226A236A1C342136EE
:1038300001E322802150286E2850D8B40DD020C03A
:1038400021F0226A236A1F34213601E322802150AD
:10385000296E2950D8A408D0FFFF000E1B6E000E61
:103860001C6E000E1D6E4DD0FFFF000E256E000E6B
:10387000266E000E276E2950890F285E1DC029F084
:103880002050291A800E29161C8EFF0E1B16FF0EC3
:103890001C16000E1D161F8EFF0E1E16FF0E1F1685
:1038A000000E2016180E246EFFFFD89025362636FF
:1038B00027361E501B5C1F501C5820501D58D8A086
:1038C00007D01E501B5E1F501C5A20501D5A2580C9
:1038D000FFFFD8901B361C361D36242EE5D725C099
:1038E00001F026C002F027C003F028C004F029C070
:1038F00005F086EC1EF001C01BF002C01CF003C0F6
:103900001DF0FFFF1200FFFFFFFF0001836F0001AA
:103910008305D8A41AD0F051D8A417D0EF5170184D
:10392000D8B413D0EFC070F06C2A6D2A80BA0DD0D5
:10393000020E816FBC0E806F74EC37F0010E000137
:10394000F06F000E6D6E000E486EFFFFF051D8A4B0
:1039500015D0FB05D8A412D0010E476E080E6D607D
:1039600002D0010E05D0FFFF100E6D6004D0000ED6
:10397000FFFF486E03D0FFFF000E6D6EFFFF6C501F
:10398000E65DD8B00AD0000E6C6E000EFB6F000E24
:10399000F06F000E476E000E486EFFFF8351D8A4F3
:1039A0000AD0000EF06F000E486E000E476E000E3B
:1039B0006D6E000E6C6EFFFFFB51D8A406D0000E9A
:1039C000476E000E486E000E6D6EFFFFF051D8B4CA
:1039D0000AD080BA05D0000E486E000E6C6E03D07F
:1039E000FFFF000EF06FFFFF1200FFFFFFFF010E51
:1039F0000001836F010EC2EC1DF088C084F089C005
:103A000085F037EC38F0010E0001836F020EC2EC36
:103A10001DF08AC084F08BC085F037EC38F0000EC2
:103A20000001836F030EC2EC1DF08CC084F08DC0CA
:103A300085F037EC38F0000E0001836F040EC2EC05
:103A40001DF08EC084F08FC085F037EC38F0000E8A
:103A50000001906F000E906FFFFF130E906501D074
:103A60002BD0FFFF9051010DF3508825D96EF450F3
:103A70008921DA6E200EDF6E9051010DF3508A25F8
:103A8000D96EF4508B21DA6E200EDF6E9051010D4D
:103A9000F3508C25D96EF4508D21DA6E200EDF6E36
:103AA0009051010DF3508E25D96EF4508F21DA6EAE
:103AB000200EDF6E902BD0D7FFFF1200FFFFFFFF1D
:103AC000750EF66E7A0EF76E20EE87F02F0E090057
:103AD000FFFFF5CFDEFFE806FAE2040EC9EC36F090
:103AE000000EC9EC36F0320EFFFFE82EFDD7000EB7
:103AF0000001BB6F000EBA6F000EB96F000EBB6FF6
:103B0000FFFF040EBB6501D03AD0FFFFB905D8A472
:103B100002D0000EBB6FFFFF000EBA6FFFFF070E53
:103B2000BA6501D028D0FFFFB951D8A405D0000E46
:103B3000B86F000EB76F18D0FFFFBB51080D870E8E
:103B4000846F000E856FF3508427F4508523BA519B
:103B5000010DF3508425D96EF4508521DA6EDF50C3
:103B6000866F8651B76FB86BFFFFB751EDEC38F039
:103B70000001BA2BD3D7FFFFB92BBB2BC1D7FFFF57
:103B80001200FFFFFFFF0001846F4CD0FFFF000118
:103B900083517F0F876F87390F0B856F87510F0B0D
:103BA000866F8551C9EC36F000018651C9EC36F0BC
:103BB00048D0FFFF00018351BF0F876F87390F0B7C
:103BC000856F87510F0B866F8551C9EC36F0000168
:103BD0008651C9EC36F035D0FFFF00018351940FB8
:103BE000876F87390F0B856F87510F0B866F855154
:103BF000C9EC36F000018651C9EC36F022D0FFFF47
:103C000000018351D40F876F87390F0B856F875160
:103C10000F0B866F8551C9EC36F000018651C9EC57
:103C200036F00FD0FFFF00018451010AD8B4AED79F
:103C3000030AD8B4BED7010AD8B4CED7070AD8B47D
:103C4000DED7FFFF1200FFFFFFFF0E0E2DEC3AF054
:103C500000018E6F8E518F6F906B905104E13C0E7E
:103C60008F5DD8A006D0905105E1FB0E8F5DD8A0E6
:103C700005D0FFFF000E906F3C0E8F6FFFFFECC072
:103C80008CF08F5172EC39F0EBC08CF000018F4B4F
:103C9000902B8F5172EC39F0EAC08CF000018F4B01
:103CA000902B8F5172EC39F0EDC08CF000018F4BEE
:103CB000902B8F5172EC39F0EEC08CF000018F4BDD
:103CC000902B8F5172EC39F0FDC08CF000018F4BBE
:103CD000902B8F5172EC39F0FCC08CF000018F4BAF
:103CE000902B8F5172EC39F0FBC08CF000018F4BA0
:103CF000902B8F5172EC39F000018F4B902B8FC0BD
:103D00008CF00E0E72EC39F01200FFFFFFFF045032
:103D1000D8B405D0015002100310D8A40ED0FFFF74
:103D2000000E016E000E026E000E036E4ED0FFFFFD
:103D3000042AD890033202320132FFFF000E011430
:103D4000066E000E0214076EFE0E0314086E065077
:103D500007100810D8B40DD0EAD7FFFF042A010ECF
:103D60000126000E0222000E0322D89003320232F6
:103D70000132FFFF000E0114066E000E0214076EE2
:103D8000FF0E0314086E065007100810D8B407D0B1
:103D9000E4D7FFFF0406D890013602360336FFFF52
:103DA00002BE03D0020E0460F4D7FFFF04A0029EFF
:103DB000D8900432045003120550D8A4038E01C0D9
:103DC00001F002C002F003C003F0FFFF1200FFFF8A
:103DD000FFFF03AE16D001C007F002C008F003C019
:103DE00009F0071E081E091E072A000E08220922D4
:103DF000000E0724016E000E0820026E800E0920BE
:103E0000036EFFFF06AE16D004C007F005C008F031
:103E100006C009F0071E081E091E072A000E082208
:103E20000922000E0724046E000E0820056E800E85
:103E30000920066EFFFF000E011A000E021A800E06
:103E4000031A000E041A000E051A800E061A0450FA
:103E5000015C0550025806500358D8B002D0D890E3
:103E600002D0FFFFD880FFFF1200FFFFFFFF000E10
:103E70000001856F83AF06D0826D831FD8B0832B7E
:103E8000010E856FFFFF81AF06D0806D811FD8B016
:103E9000812B010E851BFFFF000E876F000E866FC2
:103EA00082518311D8B420D0010E846F05D0FFFF5A
:103EB000D89082378337842BFFFF83AFF8D7FFFF7B
:103EC000D890863787378251805D83518159D8A039
:103ED00005D08251805F8351815B8681FFFFD8903E
:103EE00083338233842FEBD7FFFF8551D8B404D0BE
:103EF000866D871FD8B0872BFFFF86C080F087C0F4
:103F000081F01200FFFFFFFF3AD0FFFF86C0D9FF0C
:103F100087C0DAFFDF50D8B411D086C0D9FF87C080
:103F2000DAFFDF5000018C6F88C0F6FF89C0F7FF11
:103F30000800FFFFF5508C19D8B41CD0FFFF88C0D3
:103F4000F6FF89C0F7FF0800FFFFF55000018C6FF6
:103F50008D6B8C1F8D1F8C4B8D2B86C0D9FF87C01E
:103F6000DAFFDF508E6F8E518C25866F000E8D210B
:103F7000876F13D0FFFF864B872B884B892BFFFF62
:103F800000018A07D8A08B078A29C0E18B29D8A411
:103F9000BCD7000E876F000E866FFFFF1200FFFF79
:103FA000FFFF80C084F081C085F004D0FFFF0001D6
:103FB000844B852BFFFF84C0F6FF85C0F7FFF86AAE
:103FC000050EF76404D00800FFFFF55005D0F6CFCA
:103FD000E9FFF7CFEAFFEF500009D8A4E7D780C088
:103FE00082F081C083F00001821F831F824B832BEC
:103FF00084518225806F85518321816F1200FFFFDC
:106BF2002020202062003C0101010520FFFF56EC0D
:106C020036F0C5801200FFFFFFFF56EC36F0C58458
:106C12001200FFFFFFFF56EC36F0C5821200FFFFA5
:106C2200FFFF62EC36F0C5801200FFFFFFFF62EC4F
:106C320036F0C5841200FFFFFFFF62EC36F0C5821A
:106C42001200FFFFFFFF56EC36F002C0C9FF120030
:106C5200FFFFFFFF62EC36F08AC0C9FF1200FFFFA0
:106C6200FFFFACA2FDD780C0ADFF1200FFFFFFFF08
:106C7200000EC9EC36F0010EC9EC36F01200FFFF2F
:106C8200FFFF0001806FFFFFACA2FDD780C0ADFF08
:106C92001200FFFFFFFF016E01380F0B0F0B0A0DF1
:106CA20001500F0BF3241200FFFFFFFFC7B4FDD703
:106CB200C5CF01F01F0E0116D8B41200FFFFF5D7A1
:106CC200FFFFFFFFC7B4FDD7C5CF80F01F0E000145
:106CD2008017D8B41200FFFFF4D7FFFFFFFF0001B7
:106CE200806F000180390F0B0F0B0A0D80510F0BC3
:106CF200F3241200FFFFFFFF086E06C004F00850E5
:106D020054EC38F00750066E076A06C004F00828F3
:106D120054EC38F01200FFFFFFFF09C001F00AC077
:106D220002F0036A8E0E046E000E056E86EC1EF0F3
:106D320001C009F002C00AF003C00BF01200FFFF0D
:106D4200FFFFC284190EFFFFE82EFDD7FFFFC2A48A
:106D5200FDD7C450046E036AC3500324016E000EB3
:106D62000420026E1200FFFFFFFF0001826F000E7F
:106D72000001816F3A0E826105D02F0E826502D02A
:106D8200010E816FFFFF81C080F080311200FFFF92
:106D9200FFFF0001826F83920001825150EC39F0B3
:106DA20083801E0E0001816F3C0EFFFFE82EFDD78F
:106DB200812FFBD700F083901200FFFFFFFF00013D
:106DC20080518203F3CF84F0F4CF85F080518303A6
:106DD200F350852781518203F350852784C080F0C8
:106DE20085C081F01200FFFFFFFF000E0001F26F6D
:106DF200000EF36F010EFB6F010EFD6F010EFC6FB3
:106E0200000EF46F000E456E000E6C6E000E6D6E7D
:106E1200AAEC37F01200FFFFFFFF0BD0FFFF020EBC
:106E2200036EF20EFFFFE82EFDD7032EFBD700D034
:106E32000400FFFF0106D8A002060128F0E10228A3
:106E4200D8B41200FFFFEAD7FFFFFFFFFFEC35F0D7
:106E5200000E036ED00E026E23EC36F0000E036EAF
:106E6200070E026E23EC36F0000E036E000E026E69
:106E720023EC36F005EC36F01200FFFFFFFF3C0E6C
:106E82000001A16F010EA26F4C0EA36F7C0EA46FC6
:106E920095EC39F00001DB51DC11D8A406D0000ECC
:106EA200F16F030EF36F000EE06FFFFF1200FFFFA2
:106EB200FFFF56EC36F0C58656EC36F0C9CF04F02B
:106EC200056A56EC36F002500310D8A402D0C58AE7
:106ED20002D0FFFFC59AFFFFC58804C002F005C0BB
:106EE20003F01200FFFFFFFF0CD0FFFF020E0001B4
:106EF200826FF20EFFFFE82EFDD7822FFBD700F044
:106F02000400FFFF00018007D8A081078029EEE17D
:106F12008129D8B41200FFFFE8D7FFFFFFFF000E60
:106F2200666E000E0001806F010E816F000E836F8E
:106F3200000E826F000E856F3C0E846FFDEC37F001
:106F4200000E0001816F960E806F74EC37F0120014
:106F5200FFFFFFFF000E0001806F000E806FFFFF3A
:106F6200070E806501D00DD0FFFF8051010D440E48
:106F7200F324D96E000EF420DA6E000EDF6E802B41
:106F8200EED7FFFF1200FFFFFFFF11EC36F0000EFD
:106F920000018B6FD00E8A6F2AEC36F0000E0001D2
:106FA2008B6F070E8A6F2AEC36F0000E00018B6F92
:106FB200000E8A6F2AEC36F017EC36F01200FFFF53
:106FC200FFFF0001936F000193292DEC3AF00001BD
:106FD200906F9051916F926B9151926F916B93510F
:106FE2002DEC3AF00001906F9051911391C08EF008
:106FF20092C08FF01200FFFFFFFF80C086F081C0B9
:1070020087F00AD0FFFF86C0D9FF87C0DAFF82C0AF
:10701200DFFF0001864B872BFFFF00018407D8A00A
:1070220085078429F0E18529D8B41200FFFFEAD749
:10703200FFFFFFFF62EC36F0C58662EC36F0C9CF87
:1070420083F00001846B62EC36F000018151821101
:10705200D8A402D0C58A02D0FFFFC59AFFFFC58817
:1070620083C081F084C082F01200FFFFFFFF000E98
:107072000001866F000E866FFFFF130E866501D03A
:107082000FD0FFFF8651010DF3508425D96EF450C5
:107092008521DA6EDF50EDEC38F00001862BECD75B
:1070A200FFFF1200FFFFFFFF056EFFEC35F0000E41
:1070B200036EA00E026E23EC36F005C002F0036AE6
:1070C20023EC36F004C002F0036A23EC36F005EC40
:1070D20036F0000E026E0F0E016E0DEC37F012004C
:1070E200FFFFFFFF000E00018F6F010E906F93C034
:1070F20091F094C092F0EEEC3CF000018F519011AF
:10710200D8B408D0000E816F960E806F74EC37F001
:10711200010E02D0FFFF000EFFFF1200FFFFFFFF74
:10712200000E0001B76F000EB86F820EB96F6C0EC1
:10713200BA6FA30EB56F000EB66FB70E8C6F000E4E
:107142008D6FA1C08EF0A2C08FF0B50E906F000EB1
:10715200916F8EEC00F01200FFFFFFFF6750D8B472
:1071620018D0000E0001846F820782C084F00CD018
:10717200FFFF8451010DF3508025D96EF450812117
:10718200DA6E200EDF6E842BFFFF8351845DD8A060
:10719200EFD7FFFF1200FFFFFFFF80C0D9FF81C0C2
:1071A200DAFF00018251DE18D8A405D080C080F039
:1071B20081C081F00ED0FFFF80C0D9FF81C0DAFF0D
:1071C200804B812BDF50D8A4E7D7000E806F000ED2
:1071D200816FFFFF1200FFFFFFFF0001836F0001BD
:1071E20083510F0B816F8351F00B826F838282393F
:1071F2000F0B50EC39F083804B0EFFFFE82EFDD7CA
:1072020083900001815150EC39F083804B0EFFFFD7
:10721200E82EFDD783901200FFFFFFFF0001886F69
:1072220088C080F00001816B000E836F0A0E826FAE
:1072320036EC1FF000018039F00B896F88C080F0B6
:10724200816B000E836F0A0E826FD4EC3BF000015B
:1072520080518911896F89511200FFFFFFFF0001E0
:10726200E951E85DD8A018D07304D8A415D0F15123
:10727200D8A412D0E751ED19D8A40ED0000EE86FB1
:10728200E8C08CF00A0E72EC39F0000E726E010E3C
:107292000001F16F1C0EE06FFFFF1200FFFFFFFF06
:1072A2000001806F000180A102D0838402D0FFFF21
:1072B2008394FFFF80A302D0838602D0FFFF8396D0
:1072C200FFFF80A502D0838802D0FFFF8398FFFFD3
:1072D20080A702D0838A02D0FFFF839AFFFF1200A9
:1072E200FFFFFFFF00018D6F11EC36F0000E000171
:1072F2008B6FA00E8A6F2AEC36F08DC08AF00001E7
:107302008B6B2AEC36F08CC08AF000018B6B2AEC76
:1073120036F017EC36F0000E0001816F0F0E806F11
:1073220074EC37F01200FFFFFFFFA1C0B1F0A2C062
:10733200B2F0000E0001B36F000EB46FA50EAF6F76
:10734200000EB06FB10E8C6F000E8D6FA3C08EF069
:10735200A4C08FF0AF0E906F000E916F8EEC00F014
:10736200B1C0D9FFB2C0DAFF000EDF6E1200FFFF1C
:10737200FFFF000E0001816F8492000E816F15D015
:10738200FFFF84908151010D440EF324D96E000E4B
:10739200F420DA6EDF50806F804780478450801976
:1073A200FB0B8019846E8480812BFFFF070E8165A1
:1073B200E7D784821200FFFFFFFF1F0E7C6402D01A
:1073C200000E7C6EFFFF170E7B6402D0000E7B6EF8
:1073D200FFFF3B0E7A6402D0000E7A6EFFFF0C0EA6
:1073E2007D6402D0000E7D6EFFFF3B0E796402D0F9
:1073F200000E796EFFFF630E7E6402D0000E7E6E79
:10740200FFFF1200FFFFFFFF000189518A11D8B46C
:107412001CD0010E8B6F05D0FFFFD89089378A37B9
:107422008B2BFFFF8AAFF8D7FFFF8951875D8A5107
:107432008859D8A004D08951875F8A51885BFFFFA1
:10744200D8908A3389338B2FEFD7FFFF87C087F01D
:1074520088C088F01200FFFFFFFF00018C6F11EC63
:1074620036F0000E00018B6FA00E8A6F2AEC36F008
:107472008CC08AF000018B6B2AEC36F01DEC36F0E2
:10748200000E00018B6FA10E8A6F2AEC36F0000EFF
:107492000001826F000E816F1AEC38F000018151F9
:1074A2008D6F17EC36F000018D511200FFFFFFFFC8
:1074B200810EC26ECE0EC16E92808090810ED56E0C
:1074C200E40EF26E959A959895969594959295906C
:1074D200949C948EAC8AAC84AC98AB8EAB88190E1B
:1074E200AF6EF28EF28C9E9A9D8AF2969284928A66
:1074F2009480938493869388938A96909692969496
:107502001200FFFFFFFF000E0001856F000E846F67
:1075120082518311D8B420D0010E866F05D0FFFFAF
:10752200D89082378337862BFFFF83AFF8D7FFFFD0
:10753200D890843785378251805D83518159D8A094
:1075420005D08251805F8351815B8481FFFFD89097
:1075520083338233862FEBD7FFFF84C080F085C050
:1075620081F01200FFFFFFFF280EC66E000EC56EEF
:10757200000E0001806F120E816F7A0E826F000E74
:10758200836F8DC091F08EC092F08FC093F090C047
:1075920094F0020EFFFFD8909137923793379437C9
:1075A200E82EF8D791C084F092C085F093C086F09F
:1075B20094C087F05BEC3CF000018005C86E000EC1
:1075C200C76E948694881200FFFFFFFF0001806F50
:1075D20021D0FFFF6450D8B41AD0000E646E14D0CC
:1075E200FFFF6050D8B413D0000E606E0DD0FFFFC5
:1075F2006250D8B40CD0000E626E06D0FFFF5E500F
:10760200D8B405D0000E5E6EFFFF010E13D0FFFF4F
:10761200000E10D0FFFF00018051010AD8B4D9D763
:10762200030AD8B4E4D7010AD8B4DAD7070AD8B41F
:10763200E5D7EDD7FFFF1200FFFFF20EF66E6B0EDD
:10764200F76E000EF86E01EEBCF010EE04F00900C9
:10765200F5CFEEFFE550E150FAE1F60EF66E6B0E55
:10766200F76E000EF86E00EEF8F010EE08F009006A
:10767200F5CFEEFFE550E150FAE101EE00F0BC0E6D
:10768200EE6AE806FDE100EEDBF01D0EEE6AE806AA
:10769200FDE100EE44F03B0EEE6AE806FDE17F906C
:1076A2007F92000EF86E0001FAEF06F0FFFF7B0EEC
:1076B2000001A16F010EA26F9A0EA36F7F0EA46F3D
:1076C20095EC39F0660E0001A16F010EA26FB00EAB
:1076D200A36F7C0EA46F95EC39F0510E0001A16FDF
:1076E200010EA26F8F0EA36F7D0EA46F95EC39F081
:1076F2003C0E0001A16F010EA26FF50EA36F7E0E6C
:10770200A46FB90EA56F7E0EA66F95EC39F0010E2F
:10771200E6EC3AF00009D8A4DFC0E0F01200FFFF67
:10772200FFFF81B402D0010E09D0FFFF81A408D06F
:107732006550D8B405D0010E646E000EFFFF656E71
:10774200FFFF81B802D0010E09D0FFFF81A808D047
:107752006350D8B405D0010E626E000EFFFF636E57
:10776200FFFF81BA02D0010E09D0FFFF81AA08D023
:107772006150D8B405D0010E606E000EFFFF616E3D
:10778200FFFF81B602D0010E09D0FFFF81A608D00B
:107792005F50D8B405D0010E5E6E000EFFFF5F6E23
:1077A200FFFF1200FFFFFFFF000E0001856F81AF98
:1077B20006D0806D811FD8B0812B010E856FFFFF2F
:1077C20083AF04D0826D831FD8B0832BFFFF825119
:1077D2008311D8B41CD0010E846F05D0FFFFD8905E
:1077E20082378337842BFFFF83AFF8D7FFFF8251A5
:1077F200805D83518159D8A004D08251805F83512A
:10780200815BFFFFD89083338233842FEFD7FFFF52
:107812008551D8B404D0806D811FD8B0812BFFFF71
:1078220080C080F081C081F01200FFFFFFFF000ED8
:1078320050EC39F03B0E0001836F790EFFFFE82E0A
:10784200FDD7832FFBD700D000F0030EC9EC36F032
:107852001E0E0001836F3C0EFFFFE82EFDD7832F23
:10786200FBD700F0030EC9EC36F0270E0001836F40
:10787200FB0EFFFFE82EFDD7832FFBD700D000F0D1
:10788200030EC9EC36F0020EC9EC36F0020EC9EC5A
:1078920036F0080EC9EC36F0000EC9EC36F00C0ECC
:1078A200C9EC36F0000EC9EC36F0060EC9EC36F023
:1078B2001200FFFFFFFF000E0001886F000E896FAC
:1078C200000E8A6F000E8B6F84518511861187110D
:1078D200D8B42ED0010E8C6F07D0FFFFD89084371A
:1078E2008537863787378C2BFFFF87AFF6D7FFFFA9
:1078F200D890883789378A378B378451805D855194
:1079020081598651825987518359D8A009D084510F
:10791200805F8551815B8651825B8751835B888161
:10792200FFFFD89087338633853384338C2FDFD79C
:10793200FFFF88C080F089C081F08AC082F08BC0CE
:1079420083F01200FFFFFFFF0001BF6F630E000113
:10795200BF6104D0BFC0C0F0C16B05D0FFFF000EF5
:10796200C16F000EC06FFFFFBCC1BBF0BDC1BCF058
:10797200BEC1BDF0BFC1BEF0C0C080F0C1C081F0C9
:10798200000E836F0A0E826F36EC1FF000018051E9
:10799200300FBB6F2E0EBC6FC0C080F0C1C081F033
:1079A200000E836F0A0E826FD4EC3BF0000180510F
:1079B200300FBD6F000EBE6FB70EA16F000EA26F2B
:1079C200BB0EA36F000EA46F95EC39F0B70E000149
:1079D200B56F000EB66F1200FFFFFFFF35D0FFFF3D
:1079E2008FC086F090C087F091C088F092C089F075
:1079F20091C080F092C081F0D0EC1FF080C08AF07C
:107A020081C08BF083EC1FF0000186518711D8A44E
:107A120005D08FC08FF090C090F028D0FFFF010EEC
:107A22008F25806F000E9021816F91C0F6FF92C06A
:107A3200F7FF0800FFFFF550826F836BCDEC38F043
:107A420080C08FF081C090F0FFFF00018F51901134
:107A5200D8B407D08FC0D9FF90C0DAFFDF50D8A4C6
:107A6200BED7FFFF000E8F6F000E906FFFFF120058
:107A7200FFFF00001F0E04040404040000000000C5
:107A82001010100000000404141414000101050574
:107A92001515150A0A1F11110E040400000000003A
:107AA20000000001000A006400E803102754454367
:107AB200484E4F572053697374656D617320656D2D
:107AC2006261726361646F730D0A0D0A54657374A7
:107AD20065206D616E75616C20646520636F6D75E4
:107AE2006E69636163616F2E0D0A446174613A20AD
:107AF200253032642F253032642F25303264202520
:107B02003032643A253032643A253032640D0A0D3F
:107B12000A0D0A56657273616F20646F2073697370
:107B220074656D613A2025730D0A0054455354451E
:107B320020444520424F4D424153205245414C4939
:107B42005A41444F0D0A454D20253032643A2530C2
:107B520032643A2530326420253032642F253032A7
:107B6200642F253032640D0A4A4F434B45593A205F
:107B720025730D0A5052494E434950414C3A202533
:107B8200730D0A434F4D42555354414F3A202573CA
:107B92000D0A004449535041524F20414C41524D2D
:107BA2004520444520494E43454E44494F0D0A4520
:107BB2004D20253032643A253032643A2530326421
:107BC20020253032642F253032642F253032640D67
:107BD2000A00446174613A20253032642F25303224
:107BE200642F2530326420253032643A25303264E5
:107BF2000020253032643A253032643A253032642E
:107C020020253032642F2530326400202A66616CD0
:107C1200686120422E207072696E636970616C0027
:107C2200202A66616C686120422E20636F6D627546
:107C32007374616F002350726F78696D6F20656D88
:107C42002025326420646961730044657370726533
:107C520073737572697A616E646F2E2E2E002041E5
:107C62004C4552544120444520494E43454E4449D7
:107C72004F00202A66616C68612076616C2E206C50
:107C8200616472616F00494E54455256414C4F3AFD
:107C920020253264206469617300484F5241524981
:107CA2004F3A202530326420686F72617300536945
:107CB2007374656D617320656D6261726361646F77
:107CC20073002050726573732045534320702F2038
:107CD200526573657400426F6D6261205072696E05
:107CE200636970616C2E2E2E00426F6D62612043BB
:107CF2006F6D62757374616F2E2E2E00436F6E6608
:107D0200696775726163616F2074656D706F00459C
:107D120072726F206E6F205472616E736475746F2D
:107D2200720041542B434D47533D222B3535257369
:107D3200220D0A005041525449444120434F4D42C2
:107D4200555354414F00504552494F444F204445EA
:107D52002054455354455300686F72696D657472BF
:107D62006F3A253564206D696E00202A66616C6861
:107D72006120422E206A6F636B65790054657374CB
:107D82006520436F6E636C7569646F21002020204B
:107D920034382039393930362D3536353100202AFC
:107DA20066616C686120656C657472696361004527
:107DB2006E7669617220736D7320746573746500E9
:107DC200656E7669616E646F20534D532E2E2E00C0
:107DD200426F6D6261204A6F636B65792E2E2E00B1
:107DE2005052455353414F2044412052454445008F
:107DF2005072657373616F202573204241520025D2
:107E02003032642F253032642F2530326400253021
:107E120032643A253032643A253032640050524995
:107E22004E434950414C203A20257300434F4D4266
:107E3200555354414F203A202573004167756172B2
:107E420064652E2E2E2025647300496E6963696174
:107E520072205465737465730056657273616F2086
:107E6200536F66742E3A004D61782E205041525461
:107E72004944413A005072696E636970616C3A20FC
:107E8200257300436F6D62757374616F3A202573B9
:107E92000020616775617264652E2E2E2000526586
:107EA2006C6967616E646F2E2E2E0041542B434D18
:107EB20047463D310D0A004E6F7620323520323072
:107EC2003139004D61782E2054455354453A004EC5
:107ED2004F204449414C544F4E4500202A66616C64
:107EE20068612047534D00494E464F205645525334
:107EF200414F0076657273616F202D20257300411A
:107F02005444203025733B0D0A007465746170611E
:107F1200202564200023253032642F25303264006E
:107F2200474552414C203A202573004A4F4B455950
:107F3200203A202573004154495641523A20257374
:107F4200004C69676164612E2E2E00444154412F1A
:107F5200484F524100444154414C4F47455200540E
:107F6200454C45464F4E4553007473696E616C2013
:107F72002564004A6F6B65793A2025730041542BC2
:107F82004353510D0A0065746170612025640042FB
:107F92006F6D626120257300544543484E4F570070
:107FA200286E756C6C2900415448300D0A002B4331
:107FB20053513A200054313A2025730054323A206A
:107FC200257300484F52413A00444154413A004619
:107FD200414C4841004552524F520041540D0A0053
:107FE2004552524F002573256300253364730053B5
:0D7FF200696D004E616F004F4B003E0000B6
:020000040020DA
:08000000FFFFFFFFFFFFFFFF00
:020000040030CA
:0E000000FF220F0FFF0181FF004000E00F0004
:00000001FF
