:1000000000F035EF01F0FFFFFFFF7F82FACF3DF0F8
:10001000FBCF3EF0E9CF3FF0EACF40F0E1CF41F037
:10002000E2CF42F0D9CF43F0DACF44F0F3CF45F03E
:10003000F4CF46F0F6CF47F0F7CF48F0F8CF49F0CD
:10004000F5CF4AF07FC04BF080C04CF081C04DF03E
:1000500082C04EF0F2A4C3D0F2943C0ED76EB00E24
:10006000D66E7350D8B405D0730673C04FF0506A83
:1000700005D0FFFF000E506E000E4F6EFFFF4FC009
:1000800073F07250D8B405D0720672C051F0526A43
:1000900005D0FFFF000E526E000E516EFFFF51C0E3
:1000A00072F07450D8B405D0740674C053F0546A1A
:1000B00005D0FFFF000E546E000E536EFFFF53C0BD
:1000C00074F07150D8B405D0710671C055F0566AFD
:1000D00005D0FFFF000E566E000E556EFFFF55C097
:1000E00071F07550D8B405D0750675C057F0586AD0
:1000F00005D0FFFF000E586E000E576EFFFF57C071
:1001000075F07550D8A403D00F0E756E701EFFFFEA
:1001100030EC1BF07250D8A403D0040E726E681E2F
:10012000FFFF7350D8A45BD08FEC1CF00A0E736EE7
:100130007E50D8B405D07E067EC059F05A6A05D0EC
:10014000FFFF000E5A6E000E596EFFFF59C07EF081
:100150000001F651D8B405D0F607F6C05BF05C6A32
:1001600005D0FFFF000E5C6E000E5B6EFFFF5BC0F4
:10017000F6F0DD51DE11D8B408D0DD07D8A0DE07D7
:10018000DDC0DDF0DEC0DEF005D0FFFF000EDE6F6B
:10019000000EDD6FFFFFF751D8B405D0F707F7C0A9
:1001A0005DF05E6A05D0FFFF000E5E6E000E5D6EB4
:1001B000FFFF5DC0F7F0FE51D8B405D0FE07FEC0CA
:1001C0005FF0606A05D0FFFF000E606E000E5F6E8C
:1001D000FFFF5FC0FEF0ABA202D0AB98AB88FFFF81
:1001E0009EAA1BD0AECF61F00A0E6118D8B40FD012
:1001F0000D0E6118D8B40BD06750010D230EF324F7
:10020000D96E010EF420DA6E61C0DFFF672AFFFFAE
:100210003B0E676402D0000E676EFFFF4EC082F097
:100220004DC081F04CC080F04BC07FF04AC0F5FF5C
:1002300049C0F8FF48C0F7FF47C0F6FF46C0F4FFCB
:1002400045C0F3FF44C0DAFF43C0D9FF42C0E2FF1C
:1002500041C0E1FF40C0EAFF3FC0E9FF3EC0FBFFF5
:100260003DC0FAFF7F921100FFFFDCEF3BF0FFFF84
:10027000D7D3FFFF250E0001A019D8B437D020EE48
:1002800002F08C51D9268D51DA22DE50DE10D8B41E
:1002900016D020EE02F08C51D9268D51DA2201D8E9
:1002A000BFD3FFFF0500FA6EDE50FD6EDE50FE6E1E
:1002B000F850FF6EFA50A0511200FFFFB1D3FFFFBC
:1002C0008CC0D9FF8DC0DAFFDECF92F0DDCF93F086
:1002D00092C0D9FF93C0DAFFA0C0DFFF8CC0D9FF66
:1002E0008DC0DAFFDE2A000EDD229AD3FFFF000E5A
:1002F00000019F6F000E9E6F000E9B6F05D0FFFFE9
:1003000000019B858E4B8F2BFFFF8EC0F6FF8FC0A9
:10031000F7FFF86A050EF76404D00800FFFFF550F8
:1003200005D0F6CFE9FFF7CFEAFFEF50300AD8B497
:10033000E6D78EC0F6FF8FC0F7FFF86A050EF764A8
:1003400004D00800FFFFF55005D0F6CFE9FFF7CF46
:10035000EAFFEF5064EC36F0D8A06BD1000E00013C
:100360009F6F000E9E6FFFFF9EC080F09FC081F0C8
:10037000000E0001836F0A0E826F8EEC36F080C093
:100380009EF081C09FF0D00E0001926FFF0E936F20
:100390008EC0F6FF8FC0F7FFF86A050EF76404D031
:1003A0000800FFFFF55005D0F6CFE9FFF7CFEAFFD1
:1003B000EF500001946F956B9251942793519523C0
:1003C00094519E2795519F238E4B8F2B8EC0F6FF05
:1003D0008FC0F7FFF86A050EF76404D00800FFFF2E
:1003E000F55005D0F6CFE9FFF7CFEAFFEF5064EC08
:1003F00036F0D8A01ED1B7D7FFFF90C0D9FF91C06B
:10040000DAFFDFCF92F0020EDE26DFCF93F0000E90
:10041000DD2292C0D9FF93C0DAFFDECF9CF0DDCFA2
:100420009DF000019C519D11D8A404D0A20E9C6F98
:100430007F0E9D6FFFFF000E9A6F000E996F04D024
:10044000FFFF0001994B9A2BFFFF99519C25926F5A
:100450009A519D21936F92C0F6FF93C0F7FFF86AFF
:10046000050EF76404D00800FFFFF55005D0F6CF65
:10047000E9FFF7CFEAFFEF500009D8A4E1D7FFFF6B
:1004800000019E51995D9F519A59D8B005D099515C
:100490009E5F9A519F5B3DD0FFFF000E9F6F000E45
:1004A0009E6F37D0FFFF20EE02F08C51D9268D5180
:1004B000DA22DE50DE10D8B416D020EE02F08C51D5
:1004C000D9268D51DA2201D824D0FFFF0500FA6E1B
:1004D000DE50FD6EDE50FE6EF850FF6EFA50200EBC
:1004E0001200FFFF16D0FFFF8CC0D9FF8DC0DAFFCE
:1004F000DECF92F0DDCF93F092C0D9FF93C0DAFF48
:10050000200EDF6E8CC0D9FF8DC0DAFFDE2A000E10
:10051000DD22FFFF00019E07D8A09F079E29C3E1AF
:100520009F29D8B45FD0BED7FFFF20EE02F08C51D8
:10053000D9268D51DA22DE50DE10D8B42AD020EE32
:1005400002F08C51D9268D51DA2201D81DD0FFFF3F
:100550000500FA6EDE50FD6EDE50FE6EF850FF6E46
:10056000FA509CC0F6FF9DC0F7FFF86A050EF764CD
:1005700004D00800FFFFF55005D0F6CFE9FFF7CF14
:10058000EAFFEF501200FFFFFFFF00019C4B9D2B85
:1005900029D0FFFF9CC0F6FF9DC0F7FFF86A8CC012
:1005A000D9FF8DC0DAFFDECF92F0DDCF93F092C09D
:1005B000D9FF93C0DAFF050EF76404D00800FFFFEF
:1005C000F55005D0F6CFE9FFF7CFEAFFEF50DF6E29
:1005D00000019C4B9D2B8CC0D9FF8DC0DAFFDE2A19
:1005E000000EDD22FFFF9907D8A09A0799299DE107
:1005F0009A29D8B415D298D7FFFF90C0D9FF91C0DF
:10060000DAFFDFCF92F0020EDE26DFCF93F0000E8E
:10061000DD2292C0D9FF93C0DAFFDF50A06FFFFF49
:10062000A00E9C6F000E9D6F000E9A6F010E996FC9
:1006300026D7FFFF00018E51926F8F51936F8E4B23
:100640008F2B92C0F6FF93C0F7FFF86A050EF76490
:1006500004D00800FFFFF55005D0F6CFE9FFF7CF33
:10066000EAFFEF500001A06FA051000AD8B4F6D104
:10067000630AD8B4C1D7070AD8B407D00D0AD8B4D2
:1006800004D01A0AD8B4B8D6CAD7FFFF90C0D9FF91
:1006900091C0DAFFDFCF92F0020EDE26DFCF93F0BB
:1006A000000EDD2292C0D9FF93C0DAFFDECF97F0B3
:1006B000DDCF98F0000198AF06D0030E9B13976D25
:1006C000981FD8B0982BFFFF010EA06FFFFF050EFB
:1006D000A019D8B414D0A051020DA10EF324F66EC7
:1006E0007A0EF420F76E0900FFFFF550975D0900C0
:1006F000FFFFF5509859D8A002D0A02BE7D7FFFFF5
:100700009E519F11D8B409D09BC092F0030E92174E
:10071000D8B403D09E07D8A09F07FFFF800EA0BFCC
:100720007F0E926F9E51A05D9F51800A9259D8B062
:1007300007D0A0519E5F000EA0BFFF0E9F5B05D0AB
:10074000FFFF000E9F6F000E9E6FFFFF9BA57FD0E7
:100750009BC092F0030E9217D8B436D020EE02F070
:100760008C51D9268D51DA22DE50DE10D8B416D045
:1007700020EE02F08C51D9268D51DA2201D824D0F6
:10078000FFFF0500FA6EDE50FD6EDE50FE6EF85083
:10079000FF6EFA502D0E1200FFFF16D0FFFF8CC027
:1007A000D9FF8DC0DAFFDECF92F0DDCF93F092C09B
:1007B000D9FF93C0DAFF2D0EDF6E8CC0D9FF8DC03C
:1007C000DAFFDE2A000EDD22FFFF0001FFFF9E514F
:1007D0009F11D8B4BED020EE02F08C51D9268D5195
:1007E000DA22DE50DE10D8B416D020EE02F08C51A2
:1007F000D9268D51DA2201D824D0FFFF0500FA6EE8
:10080000DE50FD6EDE50FE6EF850FF6EFA50300E78
:100810001200FFFF16D0FFFF8CC0D9FF8DC0DAFF9A
:10082000DECF92F0DDCF93F092C0D9FF93C0DAFF14
:10083000300EDF6E8CC0D9FF8DC0DAFFDE2A000ECD
:10084000DD22FFFF00019E07D8A09F07BFD7FFFF53
:100850009E519F11D8B440D0FFFF20EE02F08C5182
:10086000D9268D51DA22DE50DE10D8B416D020EE13
:1008700002F08C51D9268D51DA2201D824D0FFFF05
:100880000500FA6EDE50FD6EDE50FE6EF850FF6E13
:10089000FA50200E1200FFFF16D0FFFF8CC0D9FFC8
:1008A0008DC0DAFFDECF92F0DDCF93F092C0D9FF9A
:1008B00093C0DAFF200EDF6E8CC0D9FF8DC0DAFF47
:1008C000DE2A000EDD22FFFF00019E07D8A09F0751
:1008D0009E519F11D8A4C0D7FFFF9BC092F0030E7A
:1008E0009217D8B436D020EE02F08C51D9268D5113
:1008F000DA22DE50DE10D8B416D020EE02F08C5191
:10090000D9268D51DA2201D824D0FFFF0500FA6ED6
:10091000DE50FD6EDE50FE6EF850FF6EFA502D0E6A
:100920001200FFFF16D0FFFF8CC0D9FF8DC0DAFF89
:10093000DECF92F0DDCF93F092C0D9FF93C0DAFF03
:100940002D0EDF6E8CC0D9FF8DC0DAFFDE2A000EBF
:10095000DD22FFFFA0C096F05DD0FFFF00019651A1
:10096000020DA10EF324F66E7A0EF420F76E090044
:10097000FFFFF5CF82F00A00FFFFF5CF83F097C0AD
:1009800080F098C081F04AEC3AF080C087F081C0D6
:1009900088F0000E00018A6F0A0E896F9BEC39F017
:1009A00000018751300FA06F20EE02F08C51D92644
:1009B0008D51DA22DE50DE10D8B416D020EE02F0CF
:1009C0008C51D9268D51DA2201D824D0FFFF0500A1
:1009D000FA6EDE50FD6EDE50FE6EF850FF6EFA507D
:1009E000A0511200FFFF16D0FFFF8CC0D9FF8DC0B1
:1009F000DAFFDECF92F0DDCF93F092C0D9FF93C043
:100A0000DAFFA0C0DFFF8CC0D9FF8DC0DAFFDE2A7D
:100A1000000EDD22FFFF000196079629D8A49DD77E
:100A2000FFFF00018E51926F8F51936F8E4B8F2B72
:100A300092C0F6FF93C0F7FFF86A050EF76404D082
:100A40000800FFFFF55005D0F6CFE9FFF7CFEAFF2A
:100A5000EF500001A06FA051D8A40BD4FFFF000EEF
:100A600000018D6F000E8C6F1200FFFFFFFF1EEC68
:100A70003BF0A00E00018D6F860E8E6F010E8F6F02
:100A8000000E906F7BEC3AF0000E0001816FC80EF3
:100A9000806F09EC37F03FEC37F0000E0001816FFA
:100AA000640E806F09EC37F0770E00018C6F000E3A
:100AB0008D6F3EEC17F061EC3CF0D8EC35F062EC59
:100AC0001DF0000E0001816F640E806F09EC37F09D
:100AD000FEEC18F09E0E0001A16F010EA26F9A0E9F
:100AE000A36F7F0EA46F28EC39F0890E0001A16F6F
:100AF000010EA26FC10EA36F7C0EA46F28EC39F01B
:100B0000740E0001A16F010EA26F5B0EA36F7E0E2B
:100B1000A46F28EC39F0680E0001A16F010EA26FDE
:100B2000FE0EA36F7E0EA46FB90EA56F7E0EA66F8C
:100B300028EC39F09E0E0001886F010E896F890E36
:100B40008A6F010E8B6F740E8C6F010E8D6F5F0EAE
:100B50008E6F010E8F6FF7EC11F0090E0001816F9F
:100B6000C40E806F09EC37F0FFFF04007150D8A469
:100B700004D0030E716E99EC16F0FFFF0001F951DD
:100B8000ADEC3AF01C0E0001E219D8B407D06F505A
:100B9000D8A404D0FCEC1CF077EC37F0FFFF1C0E5F
:100BA0000001E219D8A48D947E50D8A48BD0F551C1
:100BB000D8A488D0E1EC14F085D0FFFFC3EC0FF08F
:100BC000A6D0FFFF9F0E0001A16F010EA26F4D0E78
:100BD000A36F7F0EA46F28EC39F08A0E0001A16F7D
:100BE000010EA26FE20EA36F7D0EA46F28EC39F008
:100BF000750E0001A16F010EA26F470EA36F7D0E4F
:100C0000A46F28EC39F0600E0001A16F010EA26FF5
:100C1000610EA36F7F0EA46F28EC39F078D0FFFF30
:100C20009F0E0001A16F010EA26F590EA36F7D0EE2
:100C3000A46F28EC39F08A0E0001A16F010EA26F9B
:100C4000570EA36F7F0EA46F28EC39F0750E0001CC
:100C5000A16F010EA26FE90EA36F7E0EA46F28ECA8
:100C600039F0600E0001A16F010EA26F4C0EA36F50
:100C70007E0EA46F28EC39F04AD0FFFFDFEC10F0B5
:100C800046D0FFFF6AEC0DF042D0FFFFC1EC15F03B
:100C90003ED0FFFFDBEC09F03AD0FFFFF6EC13F09B
:100CA00036D0FFFF9AEC0EF032D0FFFFD8EC17F0F1
:100CB0002ED0FFFF8EEC07F02AD0FFFF000E0001C0
:100CC000E26F25D0FFFF0001E251000AD8B475D7CA
:100CD000010AD8B476D7030AD8B4A1D7160AD8B473
:100CE000CCD7010AD8B4CDD7030AD8B4CED7010ADD
:100CF000D8B4CFD70F0AD8B4D0D7010AD8B4D1D737
:100D0000020AD8B4D2D7070AD8B4D3D7D6D7FFFFB0
:100D10000001E205D8B49FD0020EE219D8B49BD0EE
:100D2000D7D0FFFF010E0001E26F3E0E01019E6F62
:100D3000040E9AEC3BF00009D8B4A9D0E2C0E1F06F
:100D4000140E85D0FFFF010E0001E26F3E0E01017F
:100D5000896F040E9AEC3BF00009D8B498D0E2C039
:100D6000E1F0150E74D0FFFF010E0001E26F3E0EA0
:100D70000101746F040E9AEC3BF00009D8B487D0DF
:100D8000E2C0E1F0160E63D0FFFF010E0001E26F3A
:100D90003E0E01015F6F040E9AEC3BF00009D8B4DF
:100DA00076D0E2C0E1F0170E52D0FFFF020E000134
:100DB000E26F3E0E01019E6F040E9AEC3BF00009BB
:100DC000D8B465D0E2C0E1F0180E41D0FFFF3E0E6E
:100DD0000101896F020E0001E26F040E9AEC3BF0F4
:100DE0000009D8B454D0E2C0E1F0190E0001E26F5E
:100DF000010E01010C6F4BD0FFFF3E0E746F020E0F
:100E00000001E26F040E9AEC3BF00009D8B43FD029
:100E1000E2C0E1F01B0E1BD0FFFF3E0E01015F6F31
:100E2000020E0001E26F040E9AEC3BF00009D8B408
:100E30002ED00001F351D8A42AD01C0EE26F000E70
:100E40006E6E25D0FFFF010E0101206F010EFFFF26
:100E50000001E26F1CD0FFFF01012051010AD8B44C
:100E600060D7030AD8B46ED7010AD8B47CD7070A72
:100E7000D8B48AD7010AD8B498D7030AD8B4A6D769
:100E8000010AD8B4B9D70F0AD8B4C6D7DBD7FFFF49
:100E9000030E9AEC3BF00009D8B402D00101200700
:100EA000FFFF020E9AEC3BF00009D8B402D001011A
:100EB000202BFFFF010E9AEC3BF00009D8B408D0BC
:100EC000000E0001E26F000EE36F010E0101206FC2
:100ED000FFFF140E0001E219D8A402D0010E02D0C7
:100EE000FFFF000EFFFF01011E6F5BEC3BF0745033
:100EF000D8A43AD69E0E0001886F010E896F890E24
:100F00008A6F010E8B6F740E8C6F010E8D6F5F0EEA
:100F10008E6F010E8F6FF7EC11F026D6FFFF010EDA
:100F20009AEC3BF00009D8B41FD0000E0001F56F19
:100F3000000E6E6E000EF96F060EC4EC39F0000163
:100F4000DA6FDA51D8A405D0000ED16F010ED06F40
:100F500004D0FFFFDAC0D0F0D16BFFFFD0C0EBF0C0
:100F6000E1C0E2F0000ECD6FFFFF0A0E6E60F6D119
:100F7000A10E0001A16F010EA26F3D0EA36F7E0EA8
:100F8000A46FDDC0A5F0DEC0A6F028EC39F00001AA
:100F9000DB51EEEC3CF0BBC0CEF0BCC0CFF08B0E12
:100FA0000001A16F010EA26FF20EA36F7D0EA46F60
:100FB000CEC0A5F0CFC0A6F028EC39F0CFD1FFFF0E
:100FC000000E0001EA6FEAC08CF00A0E05EC39F061
:100FD0008D84000E0001DE6F1E0EDD6F010E19D133
:100FE000FFFFA4EC36F0F60E0001C86FFF0EC96FCC
:100FF000E751CA6FCB6BC851CA27C951CB23DB510C
:10100000CA5DCB51800ACC6FDC51800ACC59D8A084
:10101000CFD18D948986020E48D0FFFF5F0E00016C
:10102000A16F010EA26FD20EA36F7D0EA46F28ECEC
:1010300039F00001E751C86FC96BC851DB5DDC5165
:10104000800ACA6FC951800ACA59D8A005D08996AA
:10105000010EFD6F030E6E6EFFFFDD51DE11D8A491
:10106000A7D1000EFD6F030E4DD0FFFF8D84040E3F
:10107000D0D0FFFFA4EC36F0F60E0001C86FFF0ED3
:10108000C96FE751CA6FCB6BC851CA27C951CB236F
:10109000DB51CA5DCB51800ACC6FDC51800ACC5940
:1010A000D8A086D18C8E8D94050EFFFF6E6E000E3B
:1010B000DE6F320EBBD0FFFF5F0E0001A16F010E8D
:1010C000A26FE90EA36F7C0EA46F28EC39F000012B
:1010D000E751C86FC96BC851DB5DDC51800ACA6F2C
:1010E000C951800ACA59D8A005D08C9E010EFC6F48
:1010F000060E6E6EFFFFDD51DE11D8A459D1000E31
:10110000FC6F060EFFFF6E6E000EDE6F1E0E8ED0A1
:10111000FFFF8D84070E7DD0FFFFA4EC36F0F60EA6
:101120000001C86FFF0EC96FE751CA6FCB6BC85182
:10113000CA27C951CB23DB51CA5DCB51800ACC6F82
:10114000DC51800ACC59D8A033D18D94010EF96FAF
:10115000080E6E6EE8C0DDF0DE6B2AD1FFFF5F0E79
:101160000001A16F010EA26FFC0EA36F7C0EA46F95
:1011700028EC39F080AA0ED00001E751C86FC96B86
:10118000C851DB5DDC51800ACA6FC951800ACA5957
:10119000D8A009D0FFFF010E0001FB6F69C0DDF090
:1011A000DE6B090E6E6EFFFFFB51D8B404D0DD512B
:1011B000DE11D8A4FDD0FFFF0A0E6E6E000EFB6F8D
:1011C000C9D0FFFF80AA05D0A00E0001D26F7E0E0D
:1011D00005D0FFFF430E0001D26F7F0EFFFFD36FDC
:1011E0005F0EA16F010EA26F910EA36F7F0EA46F11
:1011F000D2C0A5F0D3C0A6F028EC39F00001DD5133
:10120000DE11D8B403D0FB51D8A4D2D0FFFF8D900B
:101210000A0EFFFF6E6ECCD0FFFF27EC1EF08D9004
:101220000B0E6E6E000E0001DE6F0A0EFFFFDD6F0B
:10123000BFD0FFFFA00E0001A16F010EA26F8F0EA5
:10124000A36F7D0EA46F28EC39F00001FD05D8B422
:1012500004D0E20ED46F7F0E04D0FFFFF90ED46FDE
:101260007F0EFFFFD56F890EA16F010EA26F2D0EAD
:10127000A36F7F0EA46FD4C0A5F0D5C0A6F028EC54
:1012800039F00001FC05D8B404D0E20ED66F7F0E11
:1012900004D0FFFFF90ED66F7F0EFFFFD76F740EDD
:1012A000A16F010EA26F1F0EA36F7E0EA46FD6C09A
:1012B000A5F0D7C0A6F028EC39F00001FB05D8B4A2
:1012C00004D0E20ED86F7F0E04D0FFFFF90ED86F66
:1012D0007F0EFFFFD96F5F0EA16F010EA26F2E0E62
:1012E000A36F7E0EA46FD8C0A5F0D9C0A6F028ECDD
:1012F00039F0000E0001F96FDD51DE11D8A458D08D
:101300000C0E6E6E000EDE6F780EDD6F000EF76F46
:10131000010E17D0FFFF610E0001A16F010EA26F39
:10132000C20EA36F7D0EA46F28EC39F0020EBFEC45
:101330000BF00001DD51DE11D8A43AD0000EE26FAF
:10134000000EFFFFF56F34D0FFFF000E6E6E000E33
:101350000001E26FFFFF000EF96F2AD0FFFF6E5011
:10136000000AD8B42CD6010AD8B43AD6030AD8B4A5
:1013700054D6010AD8B479D6070AD8B47AD6010A65
:10138000D8B499D6030AD8B4C3D6010AD8B4C4D6FF
:101390000F0AD8B4E3D6010AD8B413D7030AD8B4D5
:1013A0003BD7010AD8B445D7070AD8B4B3D7CCD7AE
:1013B000FFFF1200FFFFFFFF9F0E0001A16F010E54
:1013C000A26FB70EA36F7F0EA46FD30EA56F010E91
:1013D000A66F28EC39F08A0E0001A16F010EA26FF2
:1013E000BE0EA36F7F0EA46FC70EA56F010EA66F72
:1013F00028EC39F00001F551D8A404D0B10EC16F2A
:101400007D0E04D0FFFF930EC16F7E0EFFFFC26FF3
:10141000750EA16F010EA26FFE0EA36F7E0EA46F5C
:10142000C1C0A5F0C2C0A6F028EC39F00001DF5120
:10143000D8A450D0030E9AEC3BF00009D8B403D0E6
:101440000001E30747D0FFFF020E9AEC3BF00009D2
:10145000D8B403D00001E32B3DD0FFFF010E9AEC7E
:101460003BF00009D8B436D0000E0001F56F000E35
:10147000E36F000EE06F000EDF6F000EC36F000E13
:10148000C36FFFFF0A0EC36501D021D0FFFFC35118
:10149000010DD30EF324D96E010EF420DA6EDF5065
:1014A0008C6FC351140F05EC39F00001C351010DCD
:1014B000C70EF324D96E010EF420DA6EDF508C6F64
:1014C000C351280F05EC39F00001C32BDAD7FFFF19
:1014D000E1C0E2F0FFFF0001DF05D8A43BD1040E1C
:1014E0009AEC3BF00009D8B403D00001E02B32D1D4
:1014F000FFFF010E9AEC3BF00009D8B42BD1000E8F
:101500000001E06F000EDF6F25D1FFFF3E0E0101ED
:101510009E6F9E0E0001806F010E816F010E826F23
:10152000010E836F44EC38F0040E9AEC3BF0000996
:10153000D8B403D0010E0001DF6FFFFF0001DF51BF
:10154000D8B415D19E0E806F010E816FE051060F49
:10155000826FE051060F836F44EC38F00001E051D8
:10156000BF6FC06B020EBF27000EC023C05104E145
:101570000D0EBF5DD8A004D0000EE06F000EDF6F2F
:10158000FFFF030E9AEC3BF00009D8B40AD000012B
:10159000E051010DD30EF324D96E010EF420DA6E62
:1015A000DF2AFFFF020E9AEC3BF00009D8B40AD004
:1015B0000001E051010DD30EF324D96E010EF42089
:1015C000DA6EDF06FFFF0001E051010DD30EF324B8
:1015D000D96E010EF420DA6E3A0EDF600BD0E051C6
:1015E000010DD30EF324D96E010EF420DA6E300E05
:1015F000DF60BDD0FFFFE051010DD30EF324D96EA3
:10160000010E7CD0FFFF3E0E0101896F890E0001A3
:10161000806F010E816F010E826F010E836F44ECAB
:1016200038F0040E9AEC3BF00009D8B403D0010E58
:101630000001DF6FFFFF0001DF51D8B498D0890EA1
:10164000806F010E816FE051060F826FE051060F2F
:10165000836F44EC38F00001E051BF6FC06B020EA5
:10166000BF27000EC023C05104E10D0EBF5DD8A0FE
:1016700004D0000EE06F000EDF6FFFFF030E9AEC48
:101680003BF00009D8B40AD00001E051010DC70EAB
:10169000F324D96E010EF420DA6EDF2AFFFF020E6A
:1016A0009AEC3BF00009D8B40AD00001E051010DDA
:1016B000C70EF324D96E010EF420DA6EDF06FFFFA9
:1016C0000001E051010DC70EF324D96E010EF42084
:1016D000DA6E3A0EDF600BD0E051010DC70EF32435
:1016E000D96E010EF420DA6E300EDF6040D0FFFFBD
:1016F000E051010DC70EF324D96E010EFFFFF42057
:10170000DA6E300EDF6E33D0FFFF3E0E0101746FD4
:10171000740E0001806F010E816F010E826F010E49
:10172000836F44EC38F0040E9AEC3BF00009D8B417
:101730001ED0780E0001FF19D8B419D0F551D8A4E5
:1017400016D0010EF56F000EF86F11D0FFFF000EDE
:10175000E36F0DD0FFFF0001E351000AD8B4D5D6E6
:10176000010AD8B44FD7030AD8B4CED7EFD7FFFFBA
:101770000001F551D8A405EC13F01200FFFFFFFFA4
:101780000001C76F0001F751D8B403D0000EF56F08
:101790009ED1FFFF010EF56F7AD1FFFF24EC37F0E9
:1017A000DD0E0001A16F7F0EA26F26EC38F0624AB9
:1017B000632A060E0001F66F8AD1FFFFF90E936FC0
:1017C0007F0E946F08EC38F00009D8B40ED024ECEA
:1017D00037F0AD0E0001A16F7E0EA26F26EC38F03F
:1017E000624A632A060E0001F66FFFFF0001F65100
:1017F000D8A46DD11A0E806F000E816FD1EC35F038
:10180000000E0001816F0F0E806F09EC37F0A90EFA
:101810000001A16F7F0EA26F26EC38F032D1FFFFDE
:10182000F90E0001936F7F0E946F08EC38F00009F9
:10183000D8B4A4D024EC37F00001F851D8B404D0C7
:10184000C70EBD6F010E04D0FFFFD30EBD6F010E9A
:10185000FFFFBE6F350EA16F7D0EA26FBDC0A3F05E
:10186000BEC0A4F026EC38F0080EFFFF0001F66FB2
:10187000624A632A83D0FFFFFC0E936F7F0E946F42
:1018800008EC38F00009D8B479D024EC37F0000126
:10189000C705D8A418D0910EA16F7B0EA26FEFC020
:1018A000A3F0A46BF0C0A5F0A66BF1C0A7F0A86BE5
:1018B000EEC0A9F0AA6BEDC0ABF0AC6BECC0ADF024
:1018C000AE6B26EC38F0FFFF020E0001C719D8A45A
:1018D0004BD0FB05D8B404D0D10EBF6F7F0E04D01F
:1018E000FFFFF90EBF6F7F0EFFFFC06FFC05D8B47E
:1018F00004D0D10EC16F7F0E04D0FFFFF90EC16F6F
:101900007F0EFFFFC26FFD05D8B404D0D10EC36FA8
:101910007F0E04D0FFFFF90EC36F7F0EFFFFC46F71
:10192000290EA16F7B0EA26FEFC0A3F0A46BF0C0D5
:10193000A5F0A66BF1C0A7F0A86BEEC0A9F0AA6B4A
:10194000EDC0ABF0AC6BECC0ADF0AE6BC3C0AFF0B4
:10195000C4C0B0F0C1C0B1F0C2C0B2F0BFC0B3F0FB
:10196000C0C0B4F026EC38F0FFFF1A0E0001806F03
:10197000000E816FD1EC35F01E0E77D7FFFF00010E
:10198000FFFFF651D8A4A3D07CD0FFFFF90E936FD0
:101990007F0E946F08EC38F00001BB6FD70E936F89
:1019A0007F0E946F08EC38F00001BB110009D8B429
:1019B000E7D7020EC719D8A412D0F851D8A407D07F
:1019C000010EF86F000E636E000E626ED9D7FFFF36
:1019D000000EF86F000EF56F000EE26FD1D7FFFF1B
:1019E000624A632ACDD7FFFF24EC37F00001F8519B
:1019F000D8B404D0C70EC56F010E04D0FFFFD30EBC
:101A0000C56F010EFFFFC66F010EA16F7F0EA26FA3
:101A1000C5C0A3F0C6C0A4F026EC38F0230E000128
:101A2000F66F624A632A53D0FFFFD10E936F7E0E8A
:101A3000946F08EC38F00009D8A404D00001F651E6
:101A4000D8A445D0FFFF24EC37F0A90E0001A16F08
:101A50007F0EA26F26EC38F0020E0001816F260E79
:101A6000806F09EC37F00001F851D8A403D0010EC3
:101A7000F86F07D0FFFF000EF86F000EF56F640ED1
:101A8000F76FFFFF000E636E000E626E20D0FFFF47
:101A900062C0BBF063C0BCF0BC51000AD8A4F1D74F
:101AA000BB51000AD8B479D6010AD8B486D6030A45
:101AB000D8B4B5D6010AD8B4DED6070AD8B465D7EB
:101AC000010AD8B490D7030AD8B4AED7DAD7FFFF4B
:101AD0001200FFFFFFFF0001E751EEEC3CF0BBC03E
:101AE000C8F0BCC0C9F09E0E0001A16F010EA26F2C
:101AF000220EA36F7F0EA46FC8C0A5F0C9C0A6F0C8
:101B000028EC39F00001E651EEEC3CF0BBC0C8F027
:101B1000BCC0C9F0890E0001A16F010EA26F2D0E8D
:101B2000A36F7F0EA46FC8C0A5F0C9C0A6F028ECB3
:101B300039F00001E551EEEC3CF0BBC0C8F0BCC090
:101B4000C9F0740E0001A16F010EA26F1F0EA36FEA
:101B50007E0EA46FC8C0A5F0C9C0A6F028EC39F06D
:101B60000001E451EEEC3CF0BBC0C8F0BCC0C9F0D1
:101B70005F0E0001A16F010EA26F2E0EA36F7E0EED
:101B8000A46FC8C0A5F0C9C0A6F028EC39F095D064
:101B9000FFFF9E0E0001806F010E816F080E826FA5
:101BA0000F0E836F44EC38F0030E9AEC3BF0000903
:101BB000D8B402D00001E72BFFFF020E9AEC3BF0F5
:101BC0000009D8B402D00001E707FFFF630E00014F
:101BD000E76583D0000EE76F80D0FFFF890E806F2E
:101BE000010E816F080E826F0F0E836F44EC38F088
:101BF000030E9AEC3BF00009D8B402D00001E62BAA
:101C0000FFFF020E9AEC3BF00009D8B402D00001AD
:101C1000E607FFFF630E0001E6655FD0000EE66F8A
:101C20005CD0FFFF740E806F010E816F0C0E826F0F
:101C3000120E836F44EC38F0030E9AEC3BF000096F
:101C4000D8B402D00001E52BFFFF020E9AEC3BF066
:101C50000009D8B402D00001E507FFFF630E0001C0
:101C6000E5653BD0000EE56F38D0FFFF5F0E806F5B
:101C7000010E816F0C0E826F120E836F44EC38F0F0
:101C8000030E9AEC3BF00009D8B402D00001E42B1B
:101C9000FFFF020E9AEC3BF00009D8B402D000011D
:101CA000E407FFFF630E0001E46517D0000EE46F48
:101CB00014D0FFFF000EE36F10D0FFFF0001E351CF
:101CC000000AD8B465D7010AD8B487D7030AD8B4B4
:101CD000A8D7010AD8B4C9D7ECD7FFFF010E9AECF8
:101CE0003BF00009D8B41AD0E6C08CF0000E05EC29
:101CF00039F0E5C08CF0010E05EC39F0E4C08CF051
:101D0000020E05EC39F0E7C08CF0040E05EC39F05A
:101D1000000E0001E36FE1C0E2F009D0FFFF040E06
:101D20009AEC3BF00009D8B402D00001E32BFFFF8E
:101D30001200FFFFFFFF9E0E0001A16F010EA26FB8
:101D4000D00EA36F7B0EA46F14C1A5F0A66B13C1B8
:101D5000A7F0A86B12C1A9F0AA6B11C1ABF0AC6BD4
:101D600010C1ADF0AE6B28EC39F001010F05D8B40D
:101D700005D0E20E0001C06F7F0E05D0FFFFF90E07
:101D80000001C06F7F0EFFFFC16F890EA16F010EB2
:101D9000A26F750EA36F7F0EA46FC0C0A5F0C1C067
:101DA000A6F028EC39F0970E0001A16F010EA26F8A
:101DB000170EA36F7F0EA46F010E6424A56FA66B90
:101DC000000EA62365C0A7F0A86B28EC39F001012E
:101DD0000E05D8B405D0E20E0001C26F7F0E05D00B
:101DE000FFFFF90E0001C26F7F0EFFFFC36F740E7D
:101DF000A16F010EA26F770EA36F7E0EA46FC2C0FB
:101E0000A5F0C3C0A6F028EC39F001010D05D8B447
:101E100005D0E20E0001C46F7F0E05D0FFFFF90E62
:101E20000001C46F7F0EFFFFC56F5F0EA16F010E33
:101E3000A26F850EA36F7E0EA46FC4C0A5F0C5C0AF
:101E4000A6F028EC39F001010C05D8A45AD00E0EEA
:101E5000C4EC39F00001C66FC40EC625806F816BDB
:101E6000FF0E8123000E836F080E826FEAEC1EF0D6
:101E700000018051656EC40EFA25806F816BFF0EE4
:101E80008123000E836F080E826FEAEC1EF00001C2
:101E90008051646EFA51C4EC39F00101146F0001F5
:101EA000FA29C4EC39F00101136F0001FA51020F55
:101EB000C4EC39F00101126F0001FA51030FC4ECB8
:101EC00039F00101116F0001FA51040FC4EC39F02F
:101ED0000101106F0001FA51050FC4EC39F0010146
:101EE0000F6F0001FA51060FC4EC39F001010E6FBB
:101EF0000001FA51070FC4EC39F001010D6F000E1B
:101F00000C6FFFFF010E9AEC3BF00009D8B406D02D
:101F1000000E0001E36FE1C0E2F032D0FFFF020EDD
:101F20009AEC3BF00009D8B409D0080E0001FA5F22
:101F30003C0EFA6121D03C0EFA6F1ED0FFFF030E5B
:101F40009AEC3BF00009D8B41BD065500001BB6F80
:101F5000BC6B6450BD6FBE6B010EBD27000EBE236F
:101F6000BB51BD5DBE51800ABF6FBC51800ABF59D5
:101F7000D8B006D0080EFA27FFFF010E01010C6F42
:101F8000FFFF1200FFFFFFFFA20E0001A16F010E75
:101F9000A26F090EA36F7C0EA46FEFC0A5F0A66B15
:101FA000F0C0A7F0A86BEEC0A9F0AA6BEDC0ABF033
:101FB000AC6B28EC39F0010E01019E6FFFC09FF160
:101FC000050EB16F50D0FFFF5F0E0001A16F010E33
:101FD000A26FA00EA36F7D0EA46F28EC39F058D02D
:101FE000FFFF5F0E0001A16F010EA26FDD0EA36F58
:101FF0007E0EA46F28EC39F04BD0FFFF5F0E00017E
:10200000A16F010EA26F850EA36F7C0EA46F28EC4A
:1020100039F026D0FFFF5F0E0001A16F010EA26F05
:102020007D0EA36F7D0EA46F28EC39F019D0FFFF51
:102030005F0E0001A16F010EA26F1E0EA36F7C0E3A
:10204000A46F28EC39F00CD0FFFF5F0E0001A16FE8
:10205000010EA26F330EA36F7C0EA46F28EC39F033
:10206000FFFF8B8215D0FFFF0001F451010AD8B4A5
:10207000AAD7030AD8B4B4D7010AD8B4BED7070A7E
:10208000D8B4C8D7010AD8B4D2D7030AD8B4DCD799
:10209000FFFF0001F305D8A40AD0890EA16F010E3D
:1020A000A26F710EA36F7C0EA46F28EC39F0FFFFB6
:1020B0006F50D8B414D0750E0001A16F010EA26F3D
:1020C000220EA36F7D0EA46F28EC39F0000E0001E4
:1020D000F36F8B828C9E8996000EF96F18D0FFFFEC
:1020E0000001DB51EEEC3CF0BBC0C8F0BCC0C9F055
:1020F000760E0001A16F010EA26FF20EA36F7D0E8E
:10210000A46FC8C0A5F0C9C0A6F028EC39F0FFFF45
:10211000020E0001F46103D0F305D8A40ED0FFFF36
:102120007050D8B40AD05F0EA16F010EA26FD50E09
:10213000A36F7C0EA46F28EC39F0FFFF010E9AEC20
:102140003BF00009D8B403D063EC38F00DD0FFFFAA
:10215000040E9AEC3BF00009D8B406D0010E000141
:10216000E26F010E0101206FFFFF82B011D09E0EC1
:102170000001806F010E816F140E826F140E836F49
:1021800044EC38F00001F451D8A402D0010EF46FF1
:10219000FFFF0001FD51D8A402D0040E0BD0FFFFB9
:1021A000FC51D8A402D0050E05D0FFFFFB51D8A4E6
:1021B00003D0060EFFFFF46FFFFF1200FFFFFFFFCB
:1021C0009E0E0001A16F010EA26FCB0EA36F7F0EBA
:1021D000A46F28EC39F0890E0001A16F010EA26FE7
:1021E000010EA36F7E0EA46F7BC0A5F0A66B7CC012
:1021F000A7F0A86B7DC0A9F0AA6B28EC39F0A90E56
:102200000001A16F010EA26FC50EA36F7F0EA46F18
:1022100028EC39F0940E0001A16F010EA26F100E90
:10222000A36F7E0EA46F7AC0A5F0A66B79C0A7F04D
:10223000A86B78C0A9F0AA6B28EC39F0A1D0FFFFF9
:10224000890E0001806F010E816F010E826F020EF8
:10225000836F44EC38F0030E9AEC3BF00009D8A4ED
:102260007B2A020E9AEC3BF00009D8B49FD07B0683
:102270009DD0FFFF890E0001806F010E816F040E5B
:10228000826F050E836F44EC38F0030E9AEC3BF03E
:102290000009D8A47C2A020E9AEC3BF00009D8B4BD
:1022A00085D07C0683D0FFFF890E0001806F010E70
:1022B000816F070E826F080E836F44EC38F0030EB7
:1022C0009AEC3BF00009D8A47D2A020E9AEC3BF070
:1022D0000009D8B46BD07D0669D0FFFF890E0001DC
:1022E000806F010E816F0C0E826F0D0E836F44ECB8
:1022F00038F0030E9AEC3BF00009D8A47A2A020EBB
:102300009AEC3BF00009D8B451D07A064FD0FFFFC9
:10231000890E0001806F010E816F0F0E826F100E0B
:10232000836F44EC38F0030E9AEC3BF00009D8A41C
:10233000792A020E9AEC3BF00009D8B437D079061E
:1023400035D0FFFF890E0001806F010E816F120EE4
:10235000826F130E836F44EC38F0030E9AEC3BF05F
:102360000009D8A4782A020E9AEC3BF00009D8B4F0
:102370001DD078061BD0FFFF010E0001E36F16D0C1
:10238000FFFF0001E351010AD8B459D7030AD8B4BA
:1023900070D7010AD8B487D7070AD8B49ED7010AE4
:1023A000D8B4B5D7030AD8B4CCD7E5D7FFFF4CECE7
:1023B00039F0040E9AEC3BF00009D8B403D00001C8
:1023C000E32B12D0FFFF010E9AEC3BF00009D8B4CA
:1023D0000BD0000E0001E36F770E8C6F000E8D6F37
:1023E0001EEC1AF0E1C0E2F0FFFF1200FFFFFFFF5A
:1023F000000E0001996F000E956F000E966F000E93
:10240000976F000E986F000E996FFFFF130E99657E
:1024100001D077D0FFFF9951010DF3508825D96E77
:10242000F4508921DA6EDF50906F010E9025916F84
:10243000926B000E9223936B92BF93079351946F0C
:102440009151952792519623935197239451982314
:102450009951010DF3508A25D96EF4508B21DA6E13
:10246000DF50906F020E9025916F926B000E9223B9
:10247000936B92BF93079351946F9151952792510B
:10248000962393519723945198239951010DF3501A
:102490008C25D96EF4508D21DA6EDF50906F030ECB
:1024A0009025916F926B000E9223936B92BF9307CE
:1024B0009351946F9151952792519623935197235D
:1024C000945198239951010DF3508E25D96EF450F3
:1024D0008F21DA6EDF50906F040E9025916F926B12
:1024E000000E9223936B92BF93079351946F915177
:1024F0009527925196239351972394519823992B82
:1025000084D7FFFF0101E3510001951910E101019A
:10251000E451000196190BE10101E5510001971901
:1025200006E10101E65100019819D8B437D095C0F1
:10253000E3F196C0E4F197C0E5F198C0E6F1010E31
:10254000836F010EC5EC1DF088C084F089C085F052
:10255000CDEC37F0010E0001836F020EC5EC1DF0CB
:102560008AC084F08BC085F0CDEC37F0000E0001FE
:10257000836F030EC5EC1DF08CC084F08DC085F018
:10258000CDEC37F0000E0001836F040EC5EC1DF09A
:102590008EC084F08FC085F0CDEC37F0FFFF000EC9
:1025A0000001996FFFFF130E996501D02BD0FFFF3B
:1025B0009951010DF3508825D96EF4508921DA6EB6
:1025C000200EDF6E9951010DF3508A25D96EF4501B
:1025D0008B21DA6E200EDF6E9951010DF3508C25A0
:1025E000D96EF4508D21DA6E200EDF6E9951010DF7
:1025F000F3508E25D96EF4508F21DA6E200EDF6EE7
:10260000992BD0D7FFFF1200FFFFFFFFD1D0FFFFB4
:1026100024EC37F0DD0E0001A16F7F0EA26F26ECD7
:1026200038F0624A632A050E0001F66FDCD0FFFF26
:10263000F90E936F7F0E946F08EC38F00009D8B450
:102640000ED024EC37F0AD0E0001A16F7E0EA26F0C
:1026500026EC38F0624A632A050E0001F66FFFFF90
:102660000001F651D8A4BFD0000E636E000E626E5A
:102670001A0E806F000E816FD1EC35F0B4D0FFFFE1
:10268000F90E0001936F7F0E946F08EC38F000098B
:10269000D8B483D024EC37F00001F851D8B404D07A
:1026A000C70EBD6F010E04D0FFFFD30EBD6F010E2C
:1026B000FFFFBE6F350EA16F7D0EA26FBDC0A3F0F0
:1026C000BEC0A4F026EC38F0050E0001F66F624A99
:1026D000632A89D0FFFFFC0E936F7F0E946F08EC86
:1026E00038F00009D8B459D024EC37F0AB0E000113
:1026F000A16F7A0EA26FEEC0A3F0A46BEDC0A5F09F
:10270000A66BECC0A7F0A86BEFC0A9F0AA6BF0C055
:10271000ABF0AC6BF1C0ADF0AE6BB90EAF6F7E0E2F
:10272000B06F26EC38F0030E0001816FE80E806F69
:1027300009EC37F01A0E0001806F000E816FD1ECAA
:1027400035F0624A632A1E0E0001F66F26D0FFFFA5
:10275000F90E936F7F0E946F08EC38F00009D8B42F
:1027600011D00001F851D8A403D0010EF86F05D0A4
:10277000FFFF000EF86F000EF56FFFFF000E636E97
:10278000000E626EFFFFD70E0001936F7F0E946FF5
:1027900008EC38F00009D8A405D0FFFF0001F6517D
:1027A000D8A421D0FFFF000E636E000E626E1BD016
:1027B000FFFF62C0BBF063C0BCF00001BC51000A67
:1027C000D8A4F0D7BB51000AD8B421D7010AD8B495
:1027D0002ED7030AD8B453D7010AD8B47BD7070A37
:1027E000D8B4B5D7DFD7FFFF1200FFFFFFFF9E0E63
:1027F0000001A16F010EA26F480EA36F7C0EA46FA3
:10280000EA51BB6FBC6BBB1FBC1FBB4BBC2BEB515E
:10281000BB25A56F000EBC21A66F28EC39F0890EF0
:102820000001A16F010EA26F990EA36F7C0EA46F21
:10283000EBC0A5F0A66B28EC39F0740E0001A16F77
:10284000010EA26FAD0EA36F7C0EA46FE9C0A5F0C0
:10285000A66B28EC39F00001F251D8B404D0F10E87
:10286000BD6F7F0E04D0FFFFF50EBD6F7F0EFFFF23
:10287000BE6F5F0EA16F010EA26F380EA36F7F0EA9
:10288000A46FBDC0A5F0BEC0A6F028EC39F067D09B
:10289000FFFF890E0001806F010E816F0B0E826FAA
:1028A0000E0E836F44EC38F0030E9AEC3BF00009F7
:1028B000D8B402D00001EB2BFFFF020E9AEC3BF0E4
:1028C0000009D8B459D00001EB0756D0FFFF740EB1
:1028D000806F010E816F090E826F0B0E836F44ECC7
:1028E00038F0030E9AEC3BF00009D8B402D0000196
:1028F000E92BFFFF020E9AEC3BF00009D8B402D09E
:102900000001E907FFFF180E0001E96101D034D092
:10291000FFFF000EE96F30D0FFFF5F0E806F010EEA
:10292000816F090E826F0B0E836F44EC38F0030E3B
:102930009AEC3BF00009D8B403D0010E0001F26F0D
:10294000FFFF020E9AEC3BF00009D8B415D0000E40
:102950000001F26F11D0FFFF000EE36F0DD0FFFFFB
:102960000001E351000AD8B493D7010AD8B4AED716
:10297000030AD8B4D1D7EFD7FFFF010E9AEC3BF092
:102980000009D8B412D0EBC08CF0060E05EC39F07B
:10299000E9C08CF00B0E05EC39F0F2C08CF00F0E94
:1029A00005EC39F0E1C0E2F009D0FFFF040E9AEC2B
:1029B0003BF00009D8B402D00001E32BFFFF120066
:1029C000FFFFFFFFC9D0FFFF24EC37F07F0E0001AF
:1029D000A16F7F0EA26F26EC38F0050E0001F66F96
:1029E000000E636E010E626E000EF86FC7D0FFFF1F
:1029F000F651D8A43CD0DD0EA16F7F0EA26F26EC5D
:102A000038F0000E0001816F640E806F09EC37F022
:102A1000F90E0001936F7F0E946F08EC38F00009F7
:102A2000D8B40DD0000E636E000E626E000E766E8E
:102A3000020E0001F419D8A41AD0000E16D0FFFF20
:102A4000000E636E000E626E1A0E0001806F000EA3
:102A5000816FD1EC35F0762A020E766408D0000E34
:102A6000766E780E0001FF6F020EFFFFF46FFFFF1E
:102A7000B00E0001936F7F0E946F08EC38F00009E0
:102A8000D8B47CD0B00E0001BB6F7F0EBC6F2C0E93
:102A9000BD6F90EC19F0BBC0C5F0BCC0C6F0A8EC8F
:102AA0001BF0C5C0CEF0C6C0CFF00001CFBF06D02E
:102AB000CF5108E1080ECE5DD8B003D0FFFF200E45
:102AC0003BD0FFFFCFBF11D0CF5104E1080ECE5D48
:102AD000D8A00BD0CFBF06D0CF5108E10C0ECE5DF1
:102AE000D8B003D0FFFF020E27D0FFFFCFBF11D019
:102AF000CF5104E10C0ECE5DD8A00BD0CFBF06D0D5
:102B0000CF5108E1110ECE5DD8B003D0FFFF030E08
:102B100013D0FFFFCFBF12D0CF5104E1110ECE5D15
:102B2000D8A00CD0CFBF06D0CF5109E11F0ECE5D8B
:102B3000D8B004D0FFFF040EFFFFFF6FFFFF000EB1
:102B4000636E000E626E050E7E6E18D0FFFF000EE3
:102B5000636E000E626E12D0FFFF62C0CCF063C0E5
:102B6000CDF00001CD51000AD8A4F0D7CC51000A15
:102B7000D8B429D7010AD8B43AD7E8D7FFFF120052
:102B8000FFFFFFFF9E0E0001A16F010EA26F0F0E4F
:102B9000A36F7D0EA46F28EC39F0890E0001A16FA0
:102BA000010EA26F690EA36F7E0EA46F28EC39F0A0
:102BB000990E0001A16F010EA26FEC0EA36F7F0EA4
:102BC000A46FE8C0A5F0A66B28EC39F0740E0001E4
:102BD000A16F010EA26FC50EA36F7E0EA46F28EC2D
:102BE00039F0840E0001A16F010EA26FEC0EA36FED
:102BF0007F0EA46F69C0A5F0A66B28EC39F05F0EBC
:102C00000001A16F010EA26F6B0EA36F7D0EA46F6A
:102C10000AC1A5F00BC1A6F028EC39F05AD0FFFF8D
:102C2000890E0001806F010E816F100E826F140EED
:102C3000836F44EC38F0030E9AEC3BF00009D8B4F3
:102C400002D00001E82BFFFF020E9AEC3BF00009D6
:102C5000D8B44CD00001E80749D0FFFF740E806F54
:102C6000010E816F100E826F140E836F44EC38F0EA
:102C7000030E9AEC3BF00009D8A4692A020E9AECE4
:102C80003BF00009D8B432D0690630D0FFFF5F0EA8
:102C90000001806F010E816F0B0E826F140E836F27
:102CA00044EC38F0020E9AEC3BF00009D8B41ED088
:102CB000000E01010B6F000E0A6F000E00018C6FF9
:102CC000080E05EC39F012D0FFFF000E0001E36F93
:102CD0000DD0FFFF0001E351000AD8B4A0D7010ACC
:102CE000D8B4BBD7030AD8B4D1D7EED7FFFF040EB0
:102CF0009AEC3BF00009D8B403D00001E32B16D0C6
:102D0000FFFF010E9AEC3BF00009D8B40FD0E8C0E9
:102D10008CF0070E05EC39F069C08CF00D0E05EC57
:102D200039F0000E0001E36FE1C0E2F0FFFF120096
:102D3000FFFFFFFF000E0001B26F000EAD6F000E2F
:102D4000AC6F000EB16F000EB06F000EAF6F000ED3
:102D5000AE6FC296C298C29A000EB26FFFFF0E0EFF
:102D6000B26501D043D0FFFF000EB16F000EB06F0F
:102D70000F0EFFFFE82EFDD7C284FFFFC2A4FDD7D0
:102D8000C4500001AB6FAA6BC350AA25B06F000EF0
:102D9000AB21B16FB0C08EF0B1C08FF0000E916F5B
:102DA000660E906F030E936F980E926F000E956FE4
:102DB000000E946F000E976F640E966F6CEC18F017
:102DC00000018E51AC278F51AD23B1BF06D0B15158
:102DD0000BE1320EB05DD8B006D0FFFFFE51D8A493
:102DE00002D0010E6F6EFFFFB22BB8D7FFFFACC051
:102DF00080F0ADC081F0000E836F0F0E826FEAECA1
:102E00001EF06C50020D000EF324D96E010EF4205A
:102E1000DA6E000180C0DEFF81C0DDFF040E6C644D
:102E200003D0000E6C6E02D0FFFF6C2AFFFF000E75
:102E3000B26FFFFF040EB26501D00FD0FFFFB25199
:102E4000020D000EF324D96E010EF420DA6EDE506E
:102E5000AE27DD50AF23B22BECD7FFFFAEC080F022
:102E6000AFC081F0000E836F050E826FEAEC1EF09A
:102E700080C0DBF081C0DCF01200FFFFFFFFB1EC8F
:102E800035F0000E00018B6FD00E8A6FCAEC35F062
:102E9000000E00018B6F000E8A6FCAEC35F0BDEC9E
:102EA00035F0000E00018B6FD10E8A6FCAEC35F041
:102EB000000120EE01F08C51D9268D51DA22000E4E
:102EC000826F010E816FB0EC37F0000181510FEC81
:102ED00036F0DF6E000120EE02F08C51D9268D51C4
:102EE000DA22000E826F010E816FB0EC37F0000124
:102EF00081510FEC36F0DF6E000120EE03F08C51B3
:102F0000D9268D51DA22000E826F010E816FB0EC4E
:102F100037F0000181510FEC36F0DF6E000E00013A
:102F2000826F010E816FB0EC37F0000181510FEC20
:102F300036F08CC0D9FF8DC0DAFFDF6E000120EEC5
:102F400004F08C51D9268D51DA22000E826F010EC9
:102F5000816FB0EC37F0000181510FEC36F0DF6E7D
:102F6000000120EE05F08C51D9268D51DA22000E99
:102F7000826F010E816FB0EC37F0000181510FECD0
:102F800036F0DF6E000120EE06F08C51D9268D510F
:102F9000DA22000E826F000E816FB0EC37F0000174
:102FA00081510FEC36F0DF6EB7EC35F01200FFFF09
:102FB000FFFF9E0E0001A16F010EA26F9A0EA36F7C
:102FC0007F0EA46F28EC39F0890E0001A16F010E6D
:102FD000A26FC10EA36F7C0EA46F28EC39F0740EA3
:102FE0000001A16F010EA26FEF0EA36F7B0EA46F05
:102FF00089A603D0BB6BBB2B03D0FFFF0001BB6BCB
:10300000FFFFBB51A56FA66B8CAE03D0BC6BBC2B76
:1030100003D0FFFF0001BC6BFFFFBC51A76FA86B83
:103020008DA003D0BD6BBD2B03D0FFFF0001BD6B96
:10303000FFFFBD51A96FAA6B8DA203D0BE6BBE2B43
:1030400003D0FFFF0001BE6BFFFFBE51AB6FAC6B47
:103050008DA403D0BF6BBF2B03D0FFFF0001BF6B5C
:10306000FFFFBF51AD6FAE6B8BA203D0C06BC02B07
:1030700003D0FFFF0001C06BFFFFC051AF6FB06B0B
:1030800080BA02D0010E02D0FFFF000EFFFFB16F29
:10309000B26B80B402D0010E02D0FFFF000EFFFF22
:1030A000B36FB46B28EC39F05F0E0001A16F010E15
:1030B000A26FF50EA36F7E0EA46FB90EA56F7E0EE4
:1030C000A66F28EC39F0010E9AEC3BF00009D8A469
:1030D000E1C0E2F01200FFFFFFFF90C098F091C046
:1030E00099F00001981F991F984B992B8E519825A4
:1030F000A26F8F519921A36F94C098F095C099F059
:10310000981F991F984B992B96519825A46F97510A
:103110009921A56F90C098F091C099F0981F991FC0
:10312000984B992B92519825A66F93519921A76F8F
:10313000A2C080F0A3C081F0000E81BFFF0E826F9D
:10314000836FA4C084F0A5C085F0000E85BFFF0E7C
:10315000866F876FD0EC1FF080C09AF081C09BF023
:1031600082C09CF083C09DF09AC080F09BC081F02B
:103170009CC082F09DC083F0A6C084F0A7C085F0FB
:103180000001000E85BFFF0E866F876F1EEC1CF0DE
:1031900080C09EF081C09FF082C0A0F083C0A1F0EB
:1031A000000194519E25A86F95519F21A96F9451BC
:1031B000A85DA951800A986F9551800A9859D8B096
:1031C00005D094C08EF095C08FF015D0FFFFA851A8
:1031D000965D9751800A986FA951800A9859D8B086
:1031E00005D096C08EF097C08FF005D0FFFFA8C025
:1031F0008EF0A9C08FF0FFFF1200FFFFFFFF000E4F
:103200000001956F000E946F0C0EC4EC39F00001B4
:10321000946F140E9419D8B416D0000E956FFFFF5A
:10322000630E956501D009D0FFFF000E8C6F95519C
:1032300005EC39F00001952BF2D7FFFF140E8C6FCF
:103240000C0E05EC39F0FFFF000EC4EC39F0000164
:10325000E66F010EC4EC39F00001E56F020EC4EC1C
:1032600039F00001E46F080E5BEC37F08EC00AF114
:103270008FC00BF1040EC4EC39F00001E76F060EAD
:10328000C4EC39F00001EB6F070EC4EC39F000011B
:10329000E86F0A0EC4EC39F00001EA6F0B0EC4ECC3
:1032A00039F00001E96F0D0EC4EC39F0696E0F0EB4
:1032B000C4EC39F00001F26F000E956FFFFF0A0EAB
:1032C000956501D011D0FFFF9551010DD30EF32468
:1032D000D96E010EF420DA6E9551140FC4EC39F05A
:1032E000DF6E0001952BEAD7FFFF000E956FFFFF01
:1032F0000A0E956501D011D0FFFF9551010DC70E43
:10330000F324D96E010EF420DA6E9551280FC4EC27
:1033100039F0DF6E0001952BEAD7FFFF1200FFFFA7
:10332000FFFFB30E0001806F010E816F000E836FEF
:10333000000E826F000E856F140E846F93EC37F0D1
:10334000BBC080F0BCC081F01AEC3AF080C0C0F085
:1033500081C0C1F0230E00018F6F010E906FBBC0C2
:1033600091F0BCC092F084EC1FF08FC0C3F090C00D
:10337000C4F00001C351C411D8B458D0000EC26FBC
:10338000C0C0C2F042D0FFFFC251010DF350C325AF
:10339000D96EF450C421DA6EBD51DE18D8A417D00E
:1033A000B30EA16F010EA26FE70EA36F7F0EA46F85
:1033B000B30EA56F010EA66F000EA86F000EA76FCB
:1033C00028EC39F0B30E0001BB6F010E33D0FFFFC4
:1033D000B30EA16F010EA26FE70EA36F7F0EA46F55
:1033E000B30EA56F010EA66FC251010DF350C32598
:1033F000D96EF450C421DA6EDF50BE6FBE51A76F94
:10340000A86B28EC39F00001C22BFFFFC3C080F08D
:10341000C4C081F01AEC3AF00001C251BE6FBF6B1C
:103420008051BE5D8151BF59D8A0ADD7FFFF000EBE
:10343000BB6F000EFFFFBC6F1200FFFFFFFFB1EC80
:1034400035F0000E00018B6FD00E8A6FCAEC35F09C
:10345000000E00018B6F000E8A6FCAEC35F0000180
:1034600020EE01F08C51D9268D51DA22DF50C2ECCA
:1034700038F000018E6F8E518A6F8B6BCAEC35F07D
:10348000000120EE02F08C51D9268D51DA22DF5056
:10349000C2EC38F000018E6F8E518A6F8B6BCAECD4
:1034A00035F0000120EE03F08C51D9268D51DA223F
:1034B000DF50C2EC38F000018E6F8E518A6F8B6B3B
:1034C000CAEC35F08CC0D9FF8DC0DAFFDF50C2ECFA
:1034D00038F000018E6F8E518A6F8B6BCAEC35F01D
:1034E000000120EE04F08C51D9268D51DA22DF50F4
:1034F000C2EC38F000018E6F8E518A6F8B6BCAEC74
:1035000035F0000120EE05F08C51D9268D51DA22DC
:10351000DF50C2EC38F000018E6F8E518A6F8B6BDA
:10352000CAEC35F0000120EE06F08C51D9268D5101
:10353000DA22DF50C2EC38F000018E6F8E518A6FB4
:103540008B6BCAEC35F0B7EC35F01200FFFFFFFFD4
:103550009FEC35F0000E036ED00E026EC3EC35F01A
:10356000000E036E000E026EC3EC35F0ABEC35F0CE
:10357000000E036ED10E026EC3EC35F020EE01F0AA
:103580000650D9260750DA22000E036E010E026E95
:10359000EEEC36F00250EBEC35F0DF6E20EE02F090
:1035A0000650D9260750DA22000E036E010E026E75
:1035B000EEEC36F00250EBEC35F0DF6E20EE03F06F
:1035C0000650D9260750DA22000E036E010E026E55
:1035D000EEEC36F00250EBEC35F0DF6E000E036ED1
:1035E000010E026EEEEC36F00250EBEC35F006C048
:1035F000D9FF07C0DAFFDF6E20EE04F00650D926AF
:103600000750DA22000E036E010E026EEEEC36F069
:103610000250EBEC35F0DF6E20EE05F00650D926B7
:103620000750DA22000E036E010E026EEEEC36F049
:103630000250EBEC35F0DF6E20EE06F00650D92696
:103640000750DA22000E036E000E026EEEEC36F02A
:103650000250EBEC35F0DF6EA5EC35F01200FFFF09
:10366000FFFF81B409D0010E01011D6F6650D8B46F
:103670000ED0010E1C6F0BD0FFFF81A408D00101FA
:103680001D51D8B404D0010E1C6F000E1D6FFFFF3A
:1036900081B809D0010E01011B6F6650D8B40ED05D
:1036A000010E1A6F0BD0FFFF81A808D001011B513A
:1036B000D8B404D0010E1A6F000E1B6FFFFF81BA41
:1036C00009D0010E0101196F6650D8B40ED0010E59
:1036D000186F0BD0FFFF81AA08D001011951D8B48F
:1036E00004D0010E186F000E196FFFFF81B609D0CC
:1036F000010E0101176F6650D8B40ED0010E166F7F
:103700000BD0FFFF81A608D001011751D8B404D017
:10371000010E166F000E176FFFFF81B481A604D053
:1037200081A802D081BA0BD0FFFF0101152B0F0E2B
:1037300015650BD00F0E156F010E666E06D0FFFFDC
:10374000000E666E000E0101156FFFFF1200FFFFF5
:10375000FFFF04D0FFFF0001C54BC62BFFFFC5C014
:10376000D9FFC6C0DAFF200EDE18D8B4F3D7C5C023
:10377000D9FFC6C0DAFF090EDE18D8B4EBD7000EA9
:103780000001CB6F000ECA6F000EC96FC5C0D9FF14
:10379000C6C0DAFF2D0EDE18D8A402D0C92B28D05F
:1037A000FFFFC5C0D9FFC6C0DAFF2B0EDE18D8A4B4
:1037B00022D01ED0FFFFCAC080F0CBC081F0000E27
:1037C0000001836F0A0E826F8EEC36F0C5C0D9FF00
:1037D000C6C0DAFFDF500001C76FC86B8051C72732
:1037E0008151C823D00EC725CA6FFF0EC821CB6FE9
:1037F000FFFFC54BC62BFFFFC5C0D9FFC6C0DAFF10
:10380000DF5064EC36F0D8B0D5D70001C951D8B438
:103810000DD0CAC0C7F0CBC0C8F0C71FC81FC74B68
:10382000C82BC7C0C5F0C8C0C6F005D0FFFFCAC0CE
:10383000C5F0CBC0C6F0FFFF1200FFFFFFFF000E78
:103840000001896F87AF0AD0871F861F851F846D8F
:10385000000E852386238723010E896FFFFF83AF28
:103860000AD0831F821F811F806D000E8123822357
:103870008323010E891BFFFF000E8A6F000E8B6FE2
:10388000000E8C6F000E8D6F84518511861187118B
:10389000D8B42ED0010E886F07D0FFFFD8908437A0
:1038A000853786378737882BFFFF87AFF6D7FFFF2F
:1038B000D8908A378B378C378D378451805D85510E
:1038C00081598651825987518359D8A009D0845192
:1038D000805F8551815B8651825B8751835B8A81E2
:1038E000FFFFD8908733863385338433882FDFD723
:1038F000FFFF8951D8B408D08D1F8C1F8B1F8A6D94
:10390000000E8B238C238D23FFFF8AC080F08BC099
:1039100081F08CC082F08DC083F01200FFFFFFFFAA
:103920000001F905D8A406D0FB05D8B480AA02D0BE
:103930006A2A6B2AFFFF01011E51D8A45AD0000148
:10394000F12B3B0EF16517D02DEC36F0000E000187
:10395000F16FF02B3B0EF0650ED0000EF06FEF2BE9
:10396000170EEF6508D0000EEF6FEA2BEAC004F0E7
:103970000A0EEAEC37F0FFFF0001F0517918D8B4D5
:1039800038D080BA0AD001010A4B0B2B0AC106F0CD
:103990000BC107F0080E1CEC36F0FFFF770E066E29
:1039A000000E076EA7EC1AF03C0E786415D03C0EA2
:1039B000796412D0180E7A640FD0D5EC36F0F1C0CD
:1039C00078F0F0C079F0EFC07AF0EEC07BF0EDC097
:1039D0007CF0ECC07DF00DD0FFFF78C0F1F079C035
:1039E000F0F07AC0EFF07BC0EEF07CC0EDF07DC06F
:1039F000ECF0FFFF1200FFFFFFFF0001E651C86F70
:103A0000C96BC851DB5DDC51800ACA6FC951800A9D
:103A1000CA59D8B008D0FE51D8B489B604D0040E23
:103A2000FE6F898611D0FFFFE751C86FC96BC8517F
:103A3000DB5DDC51800ACA6FC951800ACA59D8A01F
:103A400003D0F351D8B48996FFFFE451C86FC96B16
:103A5000DB51C85DC951800ACA6FDC51800ACA595E
:103A6000D8A00CD0FE51D8A409D0F951D8A406D0C2
:103A7000010EF36F030EFE6F010EF96FFFFFE551AC
:103A8000C86FC96BDB51C85DC951800ACA6FDC5170
:103A9000800ACA59D8A009D0FE51D8B48CBE05D02E
:103AA000040EFE6F010EF36F8C8EFFFFF305D8A49A
:103AB00006D0010EF56F010EBFEC0BF08B82FFFFFD
:103AC0001200FFFFFFFF710EF66E7A0EF76E20EE0A
:103AD00087F02F0E0900FFFFF5CFDEFFE806FAE2C0
:103AE000040E78EC36F0000E78EC36F0320EFFFF64
:103AF000E82EFDD7000E0001BB6F000EBA6F000E5E
:103B0000B96F000EBB6FFFFF040EBB6501D03AD04A
:103B1000FFFFB905D8A402D0000EBB6FFFFF000E57
:103B2000BA6FFFFF070EBA6501D028D0FFFFB95169
:103B3000D8A405D0000EB86F000EB76F18D0FFFFE5
:103B4000BB51080D870E846F000E856FF3508427DC
:103B5000F4508523BA51010DF3508425D96EF450E9
:103B60008521DA6EDF50866F8651B76FB86BFFFF25
:103B7000B751EFEC39F00001BA2BD3D7FFFFB92BC7
:103B8000BB2BC1D7FFFF1200FFFFFFFF0001846FB7
:103B90004CD0FFFF000183517F0F876F87390F0BD8
:103BA000856F87510F0B866F855178EC36F00001D9
:103BB000865178EC36F048D0FFFF00018351BF0FEB
:103BC000876F87390F0B856F87510F0B866F855174
:103BD00078EC36F00001865178EC36F035D0FFFFF6
:103BE00000018351940F876F87390F0B856F8751C1
:103BF0000F0B866F855178EC36F00001865178EC1A
:103C000036F022D0FFFF00018351D40F876F873930
:103C10000F0B856F87510F0B866F855178EC36F04F
:103C20000001865178EC36F00FD0FFFF000184517F
:103C3000010AD8B4AED7030AD8B4BED7010AD8B4A3
:103C4000CED7070AD8B4DED7FFFF1200FFFFFFFF71
:103C50000E0EC4EC39F000018E6F8E518F6F906B99
:103C6000905104E13C0E8F5DD8A006D0905105E143
:103C7000FB0E8F5DD8A005D0FFFF000E906F3C0EAD
:103C80008F6FFFFFEEC08CF08F5105EC39F0EDC067
:103C90008CF000018F4B902B8F5105EC39F0ECC06C
:103CA0008CF000018F4B902B8F5105EC39F0EFC059
:103CB0008CF000018F4B902B8F5105EC39F0F0C048
:103CC0008CF000018F4B902B8F5105EC39F0FDC02B
:103CD0008CF000018F4B902B8F5105EC39F0FCC01C
:103CE0008CF000018F4B902B8F5105EC39F0FBC00D
:103CF0008CF000018F4B902B8F5105EC39F00001B7
:103D00008F4B902B8FC08CF00E0E05EC39F012000B
:103D1000FFFFFFFF710EF66E7A0EF76E20EE08F0D1
:103D20002F0E0900FFFFF5CFDEFFE806FAE2040ED2
:103D300051EC36F0000E51EC36F0320EFFFFE82E5B
:103D4000FDD7000E3C6E000E3B6E000E3A6E000E6C
:103D50003C6EFFFF040E3C6401D039D0FFFF3A04F3
:103D6000D8A402D0000E3C6EFFFF000E3B6EFFFF9A
:103D7000070E3B6401D027D0FFFF3A50D8A405D0EE
:103D8000000E396E000E386E18D0FFFF3C50080D43
:103D9000080E056E000E066EF3500526F45006223E
:103DA0003B50010DF3500524D96EF4500620DA6E15
:103DB000DF50076E0750386E396AFFFF385073ECDA
:103DC00039F03B2AD4D7FFFF3A2A3C2AC2D7FFFF5B
:103DD0001200FFFFFFFF000E0001856F83AF06D0CA
:103DE000826D831FD8B0832B010E856FFFFF81AFDB
:103DF00006D0806D811FD8B0812B010E851BFFFF7F
:103E0000000E876F000E866F82518311D8B420D0C8
:103E1000010E846F05D0FFFFD89082378337842B43
:103E2000FFFF83AFF8D7FFFFD890863787378251DF
:103E3000805D83518159D8A005D08251805F835124
:103E4000815B8681FFFFD89083338233842FEBD749
:103E5000FFFF8551D8B404D0866D871FD8B0872B5B
:103E6000FFFF86C080F087C081F01200FFFFFFFFD8
:103E70003AD0FFFF86C0D9FF87C0DAFFDF50D8B441
:103E800011D086C0D9FF87C0DAFFDF5000018C6FE8
:103E900088C0F6FF89C0F7FF0800FFFFF5508C19B6
:103EA000D8B41CD0FFFF88C0F6FF89C0F7FF080018
:103EB000FFFFF55000018C6F8D6B8C1F8D1F8C4B9D
:103EC0008D2B86C0D9FF87C0DAFFDF508E6F8E51F1
:103ED0008C25866F000E8D21876F13D0FFFF864BD8
:103EE000872B884B892BFFFF00018A07D8A08B07FF
:103EF0008A29C0E18B29D8A4BCD7000E876F000E99
:103F0000866FFFFF1200FFFFFFFF35D0FFFF8FC05E
:103F100086F090C087F091C088F092C089F091C07F
:103F200080F092C081F01AEC3AF080C08AF081C033
:103F30008BF037EC1FF0000186518711D8A405D013
:103F40008FC08FF090C090F028D0FFFF010E8F251A
:103F5000806F000E9021816F91C0F6FF92C0F7FF35
:103F60000800FFFFF550826F836BA2EC38F080C031
:103F70008FF081C090F0FFFF00018F519011D8B4F5
:103F800007D08FC0D9FF90C0DAFFDF50D8A4BED7CA
:103F9000FFFF000E8F6F000E906FFFFF1200FFFFFC
:103FA000FFFF000E0001886F000E896F000E8A6F00
:103FB000000E8B6FFFFF80A108D0845188278551A8
:103FC000892386518A2387518B23FFFFD89084371A
:103FD000853786378737D890833382338133803370
:103FE0008051811182118311D8A4E4D788C080F058
:103FF00089C081F08AC082F08BC083F01200FFFF7D
:106B2F00053C0101010A202020202064000000FF05
:106B3F00FFF6EC35F0C5801200FFFFFFFFF6EC35D6
:106B4F00F0C5841200FFFFFFFFF6EC35F0C582128F
:106B5F0000FFFFFFFF02EC36F0C5801200FFFFFFC2
:106B6F00FF02EC36F0C5841200FFFFFFFF02EC3688
:106B7F00F0C5821200FFFFFFFFF6EC35F002C0C92F
:106B8F00FF1200FFFFFFFF02EC36F08AC0C9FF12B1
:106B9F0000FFFFFFFFACA2FDD780C0ADFF1200FFCB
:106BAF00FFFFFF000E78EC36F0010E78EC36F01296
:106BBF0000FFFFFFFF0001806FFFFFACA2FDD7803A
:106BCF00C0ADFF1200FFFFFFFF016E01380F0B0F6B
:106BDF000B0A0D01500F0BF3241200FFFFFFFFC72D
:106BEF00B4FDD7C5CF01F01F0E0116D8B41200FFA8
:106BFF00FFF5D7FFFFFFFFC7B4FDD7C5CF80F01F4D
:106C0F000E00018017D8B41200FFFFF4D7FFFFFF6B
:106C1F00FF0001806F000180390F0B0F0B0A0D80F1
:106C2F00510F0BF3241200FFFFFFFF086E06C00485
:106C3F00F00850EAEC37F00750066E076A06C004FA
:106C4F00F00828EAEC37F01200FFFFFFFFE1EC3A03
:106C5F00F089EC1EF0010E746E000E0101E36F005F
:106C6F000EE46F000EE56F000EE66F1200FFFFFFE0
:106C7F00FF61EC3CF062EC1DF0010E746E000E0132
:106C8F0001E36F000EE46F000EE56F000EE66F126A
:106C9F0000FFFFFFFF036E8392035082EC38F083F7
:106CAF00801E0E026E3C0EFFFFE82EFDD7022EFB5C
:106CBF00D700D083901200FFFFFFFF0001826F000B
:106CCF000E0001816F3A0E826105D02F0E82650290
:106CDF00D0010E816FFFFF81C080F080311200FF65
:106CEF00FFFFFF0001826F839200018251E3EC38B6
:106CFF00F083801E0E0001816F3C0EFFFFE82EFD1A
:106D0F00D7812FFBD700F083901200FFFFFFFF000A
:106D1F000180518203F3CF84F0F4CF85F08051834B
:106D2F0003F350852781518203F350852784C08058
:106D3F00F085C081F01200FFFFFFFF5F0E0001A181
:106D4F006F010EA26F5D0EA36F7C0EA46F28EC393E
:106D5F00F00001DD51DE11D8A404D0030EF46F0052
:106D6F000EE26FFFFF1200FFFFFFFF0BD0FFFF02CE
:106D7F000E036EF20EFFFFE82EFDD7032EFBD7009A
:106D8F00D00400FFFF0106D8A002060128F0E1029F
:106D9F0028D8B41200FFFFEAD7FFFFFFFF9FEC35A3
:106DAF00F0000E036ED00E026EC3EC35F0000E0332
:106DBF006E070E026EC3EC35F0000E036E000E026E
:106DCF006EC3EC35F0A5EC35F01200FFFFFFFFF6B8
:106DDF00EC35F0C586F6EC35F0C9CF04F0056AF650
:106DEF00EC35F002500310D8A402D0C58A02D0FFB0
:106DFF00FFC59AFFFFC58804C002F005C003F0125B
:106E0F0000FFFFFFFF0CD0FFFF020E0001826FF2A9
:106E1F000EFFFFE82EFDD7822FFBD700F00400FFF7
:106E2F00FF00018007D8A081078029EEE18129D8D2
:106E3F00B41200FFFFE8D7FFFFFFFF000E676E23BE
:106E4F000E0001806F010E816F000E836F000E82A6
:106E5F006F000E856F3C0E846F93EC37F0000E00C1
:106E6F0001816F960E806F09EC37F01200FFFFFF64
:106E7F00FFB1EC35F0000E00018B6FD00E8A6FCA98
:106E8F00EC35F0000E00018B6F070E8A6FCAEC35E0
:106E9F00F0000E00018B6F000E8A6FCAEC35F0B751
:106EAF00EC35F01200FFFFFFFF0001936F0001931D
:106EBF0029C4EC39F00001906F9051916F926B9152
:106ECF0051926F916B9351C4EC39F00001906F9018
:106EDF0051911391C08EF092C08FF01200FFFFFFFF
:106EEF00FF0001EB51EA5DD8A013D0F205D8A41032
:106EFF00D0E951EF19D8A40CD0000EEA6FEAC08C7C
:106F0F00F00A0E05EC39F0000E6E6E1C0E0001E259
:106F1F006FFFFF1200FFFFFFFF80C086F081C08769
:106F2F00F00AD0FFFF86C0D9FF87C0DAFF82C0DF2B
:106F3F00FF0001864B872BFFFF00018407D8A08538
:106F4F00078429F0E18529D8B41200FFFFEAD7FFA3
:106F5F00FFFFFF02EC36F0C58602EC36F0C9CF8397
:106F6F00F00001846B02EC36F0000181518211D8E0
:106F7F00A402D0C58A02D0FFFFC59AFFFFC5888340
:106F8F00C081F084C082F01200FFFFFFFF000E00EF
:106F9F0001866F000E866FFFFF130E866501D00FFF
:106FAF00D0FFFF8651010DF3508425D96EF4508523
:106FBF0021DA6EDF50EFEC39F00001862BECD7FFB2
:106FCF00FF1200FFFFFFFF056E9FEC35F0000E0371
:106FDF006EA00E026EC3EC35F005C002F0036AC35B
:106FEF00EC35F004C002F0036AC3EC35F0A5EC35C4
:106FFF00F0000E026E0F0E016EBCEC36F01200FFA9
:10700F00FFFFFF230E00018F6F010E906F93C09152
:10701F00F094C092F084EC1FF000018F519011D8C2
:10702F00B408D0000E816F960E806F09EC37F00117
:10703F000E02D0FFFF000EFFFF1200FFFFFFFF0049
:10704F000E0001B76F000EB86FC20EB96F6B0EBA9C
:10705F006FA30EB56F000EB66FB70E8C6F000E8D4F
:10706F006FA1C08EF0A2C08FF0B50E906F000E9181
:10707F006F37EC01F01200FFFFFFFF6850D8B41814
:10708F00D0000E0001846F820782C084F00CD0FF05
:10709F00FF8451010DF3508025D96EF4508121DA10
:1070AF006E200EDF6E842BFFFF8351845DD8A0EF1F
:1070BF00D7FFFF1200FFFFFFFF030E0001FE6F005F
:1070CF000EF36F000EF46F010EFB6F010EFD6F01DB
:1070DF000EFC6F000EF56F8C9E89968B92000EF949
:1070EF006F000E6A6E000E6B6E000E6F6E3FEC3609
:1070FF00F01200FFFFFFFF016E01A002D083840298
:10710F00D0FFFF8394FFFF01A202D0838602D0FF3E
:10711F00FF8396FFFF01A402D0838802D0FFFF8375
:10712F0098FFFF01A602D0838A02D0FFFF839AFF48
:10713F00FF1200FFFFFFFF80C0D9FF81C0DAFF0001
:10714F00018251DE18D8A405D080C080F081C081A3
:10715F00F00ED0FFFF80C0D9FF81C0DAFF804B81D6
:10716F002BDF50D8A4E7D7000E806F000E816FFF82
:10717F00FF1200FFFFFFFF0001886F88C080F00043
:10718F0001816B000E836F0A0E826FEAEC1EF00016
:10719F00018039F00B896F88C080F0816B000E83FE
:1071AF006F0A0E826F1EEC3CF0000180518911892D
:1071BF006F89511200FFFFFFFF0001806F000180F8
:1071CF00A102D0838402D0FFFF8394FFFF80A3022C
:1071DF00D0838602D0FFFF8396FFFF80A502D08366
:1071EF008802D0FFFF8398FFFF80A702D0838A0217
:1071FF00D0FFFF839AFFFF1200FFFFFFFF00018DFB
:10720F006FB1EC35F0000E00018B6FA00E8A6FCAC4
:10721F00EC35F08DC08AF000018B6BCAEC35F08C29
:10722F00C08AF000018B6BCAEC35F0B7EC35F0007B
:10723F000E0001816F0F0E806F09EC37F01200FF07
:10724F00FFFFFFA1C0B7F0A2C0B8F0000E0001B958
:10725F006F000EBA6FA50EB56F000EB66FB70E8C1E
:10726F006F000E8D6FA3C08EF0A4C08FF0B50E907F
:10727F006F000E916F37EC01F0B7C0D9FFB8C0DACD
:10728F00FF000EDF6E1200FFFFFFFF1F0E7B640279
:10729F00D0000E7B6EFFFF170E7A6402D0000E7ABD
:1072AF006EFFFF3B0E796402D0000E796EFFFF0C6C
:1072BF000E7C6402D0000E7C6EFFFF3B0E786402E2
:1072CF00D0000E786EFFFF630E7D6402D0000E7D3E
:1072DF006EFFFF1200FFFFFFFF046E04500F0B0243
:1072EF006E0450F00B036E838203380F0B82EC3861
:1072FF00F083804B0EFFFFE82EFDD7839002508264
:10730F00EC38F083804B0EFFFFE82EFDD7839032D1
:10731F000EFFFFE82EFDD7838083828384838683CD
:10732F0088838A1200FFFFFFFF000189518A11D85D
:10733F00B41CD0010E8B6F05D0FFFFD89089378A10
:10734F00378B2BFFFF8AAFF8D7FFFF8951875D8AF5
:10735F00518859D8A004D08951875F8A51885BFF23
:10736F00FFD8908A3389338B2FEFD7FFFF87C087E2
:10737F00F088C088F01200FFFFFFFF00018C6FB193
:10738F00EC35F0000E00018B6FA00E8A6FCAEC3542
:10739F00F08CC08AF000018B6BCAEC35F0BDEC3578
:1073AF00F0000E00018B6FA10E8A6FCAEC35F00052
:1073BF000E0001826F000E816FB0EC37F00001817B
:1073CF00518D6FB7EC35F000018D511200FFFFFFAB
:1073DF00FF0001836F000183510F0B816F8351F009
:1073EF000B826F838282390F0BE3EC38F083804B73
:1073FF000EFFFFE82EFDD7839000018151E3EC389B
:10740F00F083804B0EFFFFE82EFDD78390320EFFE7
:10741F00FFE82EFDD78380838283848386838883CE
:10742F008A1200FFFFFFFF80C084F081C085F00447
:10743F00D0FFFF0001844B852BFFFF84C0F6FF8533
:10744F00C0F7FFF86A050EF76404D00800FFFFF5D8
:10745F005005D0F6CFE9FFF7CFEAFFEF500009D87C
:10746F00A4E7D780C082F081C083F00001821F8320
:10747F001F824B832B84518225806F8551832181FD
:10748F006F1200FFFFFFFF000E0001856F000E84DB
:10749F006F82518311D8B420D0010E866F05D0FFB3
:1074AF00FFD89082378337862BFFFF83AFF8D7FF44
:1074BF00FFD890843785378251805D83518159D8A9
:1074CF00A005D08251805F8351815B8481FFFFD8FB
:1074DF009083338233862FEBD7FFFF84C080F085F4
:1074EF00C081F01200FFFFFFFF280EC66E000EC511
:1074FF006E000E0001806F120E816F7A0E826F0088
:10750F000E836F8DC091F08EC092F08FC093F0906C
:10751F00C094F0020EFFFFD89091379237933794B3
:10752F0037E82EF8D791C084F092C085F093C086CB
:10753F00F094C087F0A5EC3CF000018005C86E0008
:10754F000EC76E948694881200FFFFFFFF00018024
:10755F006F00018051D8B423D0FB05D8A420D08D63
:10756F008280BA03D00B0E6B6E0AD0FFFF080E6B32
:10757F006002D08D800AD0FFFF100E6B6003D0FF2A
:10758F00FF8D9003D0FFFF000E6B6EFFFF6A50E878
:10759F005DD8B00CD0000E6A6E000EFB6F07D0FFE7
:1075AF00FF8D908D92000E6B6E000E6A6EFFFF12B4
:1075BF0000FFFFFFFF000E82EC38F03B0E046E7AE7
:1075CF000EFFFFE82EFDD7042EFBD7030E51EC362E
:1075DF00F01E0E046E3C0EFFFFE82EFDD7042EFBAF
:1075EF00D700D0030E51EC36F0270E046EFC0EFFC1
:1075FF00FFE82EFDD7042EFBD7030E51EC36F00219
:10760F000E51EC36F0020E51EC36F0080E51EC36FE
:10761F00F0000E51EC36F00C0E51EC36F0000E511E
:10762F00EC36F0060E51EC36F01200FFFFFFFF01B3
:10763F000EC26ECE0EC16E92808090810ED56EE41A
:10764F000EF26E000EF16E000EF06E959A959895F3
:10765F0096959495929590949C948EAC8AAC84ACAC
:10766F0098AB8EAB88190EAF6EF28EF28C9E9A9DF0
:10767F008AF29692848084928A94809292808293E6
:10768F008493869388938A959E92969298969096D5
:10769F009296949492839E809680988490849284FC
:1076AF009482921200FFFFFFFF000E0001836F0014
:1076BF000E826F8DA002D0824B832BFFFF89A60411
:1076CF00D0020E8227000E8323FFFF8BA204D0036C
:1076DF000E8227000E8323FFFF8CAE04D0040E8290
:1076EF0027000E8323FFFF8DA204D0050E822700F3
:1076FF000E8323FFFF8DA404D0060E8227000E8376
:10770F0023FFFF6D50806F816B8251801904E183DD
:10771F00518119D8B404D082C06DF00D0E746EFF74
:10772F00FF1200FFFFFFFF0001806F2BD0FFFF0153
:10773F00011C51D8B423D0000E1C6F17D0FFFF01CE
:10774F00011851D8B41BD0000E186F0FD0FFFF01D6
:10775F00011A51D8B413D0000E1A6F07D0FFFF01D2
:10776F00011651D8B40BD0000E166FFFFF6650D81C
:10777F00A402D0010E746EFFFF010E13D0FFFF00A5
:10778F000E10D0FFFF00018051010AD8B4CFD703EC
:10779F000AD8B4DCD7010AD8B4D1D7070AD8B4DED7
:1077AF00D7EDD7FFFF1200FFFF360EF66E6B0EF709
:1077BF006E000EF86E01EEDFF010EE08F00900F526
:1077CF00CFEEFFE550E150FAE1300EF66E6B0EF79B
:1077DF006E000EF86E00EEFAF010EE06F00900F5EE
:1077EF00CFEEFFE550E150FAE12F0EF66E6B0EF77C
:1077FF006E000EF86E0900F5CF7EF001EE00F0DF9F
:10780F000EEE6AE806FDE100EEDBF01F0EEE6AE811
:10781F0006FDE100EE62F01C0EEE6AE806FDE17F68
:10782F00907F92000EF86E000136EF05F0FFFF001B
:10783F000E0001856F81AF06D0806D811FD8B0819A
:10784F002B010E856FFFFF83AF04D0826D831FD88E
:10785F00B0832BFFFF82518311D8B41CD0010E844B
:10786F006F05D0FFFFD89082378337842BFFFF83BC
:10787F00AFF8D7FFFF8251805D83518159D8A004A3
:10788F00D08251805F8351815BFFFFD89083338219
:10789F0033842FEFD7FFFF8551D8B404D0806D818B
:1078AF001FD8B0812BFFFF80C080F081C081F01204
:1078BF0000FFFFFFFF000EE3EC38F03B0E000183EB
:1078CF006F790EFFFFE82EFDD7832FFBD700D00077
:1078DF00F0030E78EC36F01E0E0001836F3C0EFFA6
:1078EF00FFE82EFDD7832FFBD700F0030E78EC3681
:1078FF00F0270E0001836FFB0EFFFFE82EFDD783ED
:10790F002FFBD700D000F0030E78EC36F0020E7884
:10791F00EC36F0020E78EC36F0080E78EC36F0000C
:10792F000E78EC36F00C0E78EC36F0000E78EC3664
:10793F00F0060E78EC36F01200FFFFFFFF000E008E
:10794F0001886F000E896F000E8A6F000E8B6F8497
:10795F0051851186118711D8B42ED0010E8C6F0767
:10796F00D0FFFFD89084378537863787378C2BFF2A
:10797F00FF87AFF6D7FFFFD890883789378A378BC5
:10798F00378451805D855181598651825987518342
:10799F0059D8A009D08451805F8551815B8651826F
:1079AF005B8751835B8881FFFFD890873386338550
:1079BF003384338C2FDFD7FFFF88C080F089C081DD
:1079CF00F08AC082F08BC083F01200FFFFFFFF0030
:1079DF0001C56F630E0001C56104D0C5C0C6F0C7F5
:1079EF006B05D0FFFF000EC76F000EC66FFFFFDFE6
:1079FF00C1C1F0E0C1C2F0E1C1C3F0E2C1C4F0C641
:107A0F00C080F0C7C081F0000E836F0A0E826FEA4C
:107A1F00EC1EF000018051300FC16F2E0EC26FC6E9
:107A2F00C080F0C7C081F0000E836F0A0E826F1EF8
:107A3F00EC3CF000018051300FC36F000EC46FBDDE
:107A4F000EA16F000EA26FC10EA36F000EA46F28C0
:107A5F00EC39F0BD0E0001BB6F000EBC6F1200FFC2
:107A6F00FF00001F0E0404040404000000000010B7
:107A7F001010000000040414141400010105051572
:107A8F0015150A0A1F11110E040400000000000052
:107A9F00000001000A006400E80310275445434822
:107AAF004E4F572053697374656D617320656D6216
:107ABF0061726361646F730D0A0D0A5465737465A7
:107ACF00206D616E75616C20646520636F6D756EDE
:107ADF0069636163616F2E0D0A446174613A2025F9
:107AEF003032642F253032642F2530326420253018
:107AFF0032643A253032643A253032640D0A0D0A69
:107B0F000D0A56657273616F20646F207369737409
:107B1F00656D613A2025730D0A0054455354452075
:107B2F00444520424F4D424153205245414C495A02
:107B3F0041444F0D0A454D20253032643A253032ED
:107B4F00643A2530326420253032642F2530326478
:107B5F002F253032640D0A4A4F434B45593A2025A1
:107B6F00730D0A5052494E434950414C3A202573E8
:107B7F000D0A434F4D42555354414F3A2025730D33
:107B8F000A004449535041524F20414C41524D45F8
:107B9F0020444520494E43454E44494F0D0A454D1B
:107BAF0020253032643A253032643A253032642051
:107BBF00253032642F253032642F253032640D0A80
:107BCF0000446174613A20253032642F25303264CD
:107BDF002F2530326420253032643A25303264004C
:107BEF0025642D25642D25642D25642D25642D25D3
:107BFF0064203E2025642D25640020253032643A10
:107C0F002530326420253032642F25303264002035
:107C1F002A66616C686120422E207072696E6369FA
:107C2F0070616C00202A66616C686120422E2063AF
:107C3F006F6D62757374616F002350726F78696D29
:107C4F006F20656D2025326420646961730044657F
:107C5F007370726573737572697A616E646F2E2EAD
:107C6F002E0020414C4552544120444520494E435B
:107C7F00454E44494F00202A66616C686120766149
:107C8F006C2E206C616472616F00494E54455256E0
:107C9F00414C4F3A20253264206469617300484F8C
:107CAF00524152494F3A202530326420686F726139
:107CBF00730053697374656D617320656D626172D2
:107CCF006361646F73002050726573732045534373
:107CDF0020702F20526573657400426F6D626120B2
:107CEF005072696E636970616C2E2E2E00426F6D3B
:107CFF00626120436F6D62757374616F2E2E2E005B
:107D0F00436F6E66696775726163616F2074656D2D
:107D1F00706F004572726F206E6F205472616E73B8
:107D2F006475746F720041542B434D47533D222BA2
:107D3F0035352573220D0A005041525449444120D4
:107D4F00434F4D42555354414F00504552494F44B4
:107D5F004F2044452054455354455300686F726972
:107D6F006D6574726F3A253564206D696E00202A37
:107D7F0066616C686120422E206A6F636B657900C3
:107D8F00546573746520436F6E636C7569646F21FE
:107D9F0000202A66616C686120656C657472696386
:107DAF006100456E7669617220736D73207465731F
:107DBF00746500656E7669616E646F20534D532E46
:107DCF002E2E00426F6D6261204A6F636B65792EB4
:107DDF002E2E005052455353414F204441205245BF
:107DEF004445005072657373616F202573204241C3
:107DFF005200253032642F253032642F2530326403
:107E0F0000253032643A253032643A25303264002E
:107E1F005052494E434950414C203A20257300435C
:107E2F004F4D42555354414F203A2025730041671F
:107E3F0075617264652E2E2E2025647300496E695C
:107E4F00636961722054657374657300566572734C
:107E5F00616F20536F66742E3A004D61782E20505B
:107E6F004152544944413A005072696E63697061DE
:107E7F006C3A20257300436F6D62757374616F3AAE
:107E8F002025730020616775617264652E2E2E2088
:107E9F000052656C6967616E646F2E2E2E0041541F
:107EAF002B434D47463D310D0A004A756C20303942
:107EBF002032303230004D61782E205445535445D6
:107ECF003A004E4F204449414C544F4E4500202A12
:107EDF0066616C68612047534D00494E464F2056EE
:107EEF00455253414F0076657273616F202D2025E7
:107EFF007300415444203025733B0D0A00746574A0
:107F0F00617061202564200023253032642F2530D5
:107F1F00326400474552414C203A202573004A4FA6
:107F2F004B4559203A202573004154495641523A46
:107F3F00202573004C69676164612E2E2E00444129
:107F4F0054412F484F524100444154414C4F4745F3
:107F5F00520054454C45464F4E4553007473696E5D
:107F6F00616C202564004A6F6B65793A2025730098
:107F7F0041542B4353510D0A0065746170612025E4
:107F8F006400426F6D626120257300544543484E73
:107F9F004F5700286E756C6C2900415448300D0AFC
:107FAF00002B4353513A200054313A20257300548B
:107FBF00323A20257300484F52413A004441544110
:107FCF003A0046414C4841004552524F52004154ED
:107FDF000D0A004552524F00257325630025336467
:107FEF00730053696D004E616F004F4B003E0000F0
:020000040020DA
:08000000FFFFFFFFFFFFFFFF00
:020000040030CA
:0E000000FF220F0FFF0181FF004000E00F0004
:00000001FF
