:1000000000F090EF00F0FFFFFFFF7F82FACF31F0AA
:10001000FBCF32F0E9CF33F0EACF34F0E1CF35F067
:10002000E2CF36F0D9CF37F0DACF38F0F3CF39F06E
:10003000F4CF3AF0F6CF3BF0F7CF3CF0F8CF3DF0FD
:10004000F5CF3EF07FC03FF080C040F081C041F06E
:1000500082C042F0F2A41ED0F2943C0ED76EB00ED5
:10006000D66E702A050E7018D8A402D00001DB1FCE
:10007000FFFFAFEC0FF0B7EC3CF0090E70640AD054
:10008000000E706E0001DB1FE7EC15F0ABA202D092
:10009000AB98AB88FFFF9EAA1BD0AECF43F00A0EF1
:1000A0004318D8B40FD00D0E4318D8B40BD06650F7
:1000B000010D000EF324D96E010EF420DA6E43C058
:1000C000DFFF662AFFFF3B0E666402D0000E666EFD
:1000D000FFFF42C082F041C081F040C080F03FC0CD
:1000E0007FF03EC0F5FF3DC0F8FF3CC0F7FF3BC0CE
:1000F000F6FF3AC0F4FF39C0F3FF38C0DAFF37C06B
:10010000D9FF36C0E2FF35C0E1FF34C0EAFF33C09B
:10011000E9FF32C0FBFF31C0FAFF7F921100FFFF01
:100120000AEF3CF0FFFFD7D3FFFF250E0001A01917
:10013000D8B437D020EE02F08C51D9268D51DA2276
:10014000DE50DE10D8B416D020EE02F08C51D92645
:100150008D51DA2201D8BFD3FFFF0500FA6EDE50C1
:10016000FD6EDE50FE6EF850FF6EFA50A051120088
:10017000FFFFB1D3FFFF8CC0D9FF8DC0DAFFDECF08
:1001800092F0DDCF93F092C0D9FF93C0DAFFA0C008
:10019000DFFF8CC0D9FF8DC0DAFFDE2A000EDD2222
:1001A0009AD3FFFF000E00019F6F000E9E6F000E9E
:1001B0009B6F05D0FFFF00019B858E4B8F2BFFFFB0
:1001C0008EC0F6FF8FC0F7FFF86A050EF76404D003
:1001D0000800FFFFF55005D0F6CFE9FFF7CFEAFFA3
:1001E000EF50300AD8B4E6D78EC0F6FF8FC0F7FFC5
:1001F000F86A050EF76404D00800FFFFF55005D03B
:10020000F6CFE9FFF7CFEAFFEF50ADEC37F0D8A01B
:100210006BD1000E00019F6F000E9E6FFFFF9EC00E
:1002200080F09FC081F0000E0001836F0A0E826F84
:10023000EBEC37F080C09EF081C09FF0D00E000143
:10024000926FFF0E936F8EC0F6FF8FC0F7FFF86AB4
:10025000050EF76404D00800FFFFF55005D0F6CF77
:10026000E9FFF7CFEAFFEF500001946F956B9251D1
:1002700094279351952394519E2795519F238E4BFC
:100280008F2B8EC0F6FF8FC0F7FFF86A050EF7645C
:1002900004D00800FFFFF55005D0F6CFE9FFF7CFF7
:1002A000EAFFEF50ADEC37F0D8A01ED1B7D7FFFF73
:1002B00090C0D9FF91C0DAFFDFCF92F0020EDE26A8
:1002C000DFCF93F0000EDD2292C0D9FF93C0DAFF9A
:1002D000DECF9CF0DDCF9DF000019C519D11D8A494
:1002E00004D0A20E9C6F7F0E9D6FFFFF000E9A6FD1
:1002F000000E996F04D0FFFF0001994B9A2BFFFF6E
:1003000099519C25926F9A519D21936F92C0F6FF4F
:1003100093C0F7FFF86A050EF76404D00800FFFFEA
:10032000F55005D0F6CFE9FFF7CFEAFFEF5000090F
:10033000D8A4E1D7FFFF00019E51995D9F519A59C2
:10034000D8B005D099519E5F9A519F5B3DD0FFFF79
:10035000000E9F6F000E9E6F37D0FFFF20EE02F061
:100360008C51D9268D51DA22DE50DE10D8B416D049
:1003700020EE02F08C51D9268D51DA2201D824D0FA
:10038000FFFF0500FA6EDE50FD6EDE50FE6EF85087
:10039000FF6EFA50200E1200FFFF16D0FFFF8CC038
:1003A000D9FF8DC0DAFFDECF92F0DDCF93F092C09F
:1003B000D9FF93C0DAFF200EDF6E8CC0D9FF8DC04D
:1003C000DAFFDE2A000EDD22FFFF00019E07D8A023
:1003D0009F079E29C3E19F29D8B45FD0BED7FFFFF6
:1003E00020EE02F08C51D9268D51DA22DE50DE103B
:1003F000D8B42AD020EE02F08C51D9268D51DA22C1
:1004000001D81DD0FFFF0500FA6EDE50FD6EDE50F4
:10041000FE6EF850FF6EFA509CC0F6FF9DC0F7FFCD
:10042000F86A050EF76404D00800FFFFF55005D008
:10043000F6CFE9FFF7CFEAFFEF501200FFFFFFFF13
:1004400000019C4B9D2B29D0FFFF9CC0F6FF9DC057
:10045000F7FFF86A8CC0D9FF8DC0DAFFDECF92F0CB
:10046000DDCF93F092C0D9FF93C0DAFF050EF76499
:1004700004D00800FFFFF55005D0F6CFE9FFF7CF15
:10048000EAFFEF50DF6E00019C4B9D2B8CC0D9FF23
:100490008DC0DAFFDE2A000EDD22FFFF9907D8A00B
:1004A0009A0799299DE19A29D8B415D298D7FFFFC8
:1004B00090C0D9FF91C0DAFFDFCF92F0020EDE26A6
:1004C000DFCF93F0000EDD2292C0D9FF93C0DAFF98
:1004D000DF50A06FFFFFA00E9C6F000E9D6F000EFF
:1004E0009A6F010E996F26D7FFFF00018E51926F10
:1004F0008F51936F8E4B8F2B92C0F6FF93C0F7FFF7
:10050000F86A050EF76404D00800FFFFF55005D027
:10051000F6CFE9FFF7CFEAFFEF500001A06FA0513F
:10052000000AD8B4F6D1630AD8B4C1D7070AD8B440
:1005300007D00D0AD8B404D01A0AD8B4B8D6CAD78E
:10054000FFFF90C0D9FF91C0DAFFDFCF92F0020E1B
:10055000DE26DFCF93F0000EDD2292C0D9FF93C0DC
:10056000DAFFDECF97F0DDCF98F0000198AF06D02C
:10057000030E9B13976D981FD8B0982BFFFF010EA9
:10058000A06FFFFF050EA019D8B414D0A051020D22
:100590002B0EF324F66E7B0EF420F76E0900FFFF9E
:1005A000F550975D0900FFFFF5509859D8A002D08B
:1005B000A02BE7D7FFFF9E519F11D8B409D09BC055
:1005C00092F0030E9217D8B403D09E07D8A09F07CD
:1005D000FFFF800EA0BF7F0E926F9E51A05D9F51C6
:1005E000800A9259D8B007D0A0519E5F000EA0BFDC
:1005F000FF0E9F5B05D0FFFF000E9F6F000E9E6FEA
:10060000FFFF9BA57FD09BC092F0030E9217D8B43A
:1006100036D020EE02F08C51D9268D51DA22DE50F0
:10062000DE10D8B416D020EE02F08C51D9268D51B0
:10063000DA2201D824D0FFFF0500FA6EDE50FD6EED
:10064000DE50FE6EF850FF6EFA502D0E1200FFFFC6
:1006500016D0FFFF8CC0D9FF8DC0DAFFDECF92F03D
:10066000DDCF93F092C0D9FF93C0DAFF2D0EDF6E7D
:100670008CC0D9FF8DC0DAFFDE2A000EDD22FFFF1D
:100680000001FFFF9E519F11D8B4BED020EE02F0B2
:100690008C51D9268D51DA22DE50DE10D8B416D016
:1006A00020EE02F08C51D9268D51DA2201D824D0C7
:1006B000FFFF0500FA6EDE50FD6EDE50FE6EF85054
:1006C000FF6EFA50300E1200FFFF16D0FFFF8CC0F5
:1006D000D9FF8DC0DAFFDECF92F0DDCF93F092C06C
:1006E000D9FF93C0DAFF300EDF6E8CC0D9FF8DC00A
:1006F000DAFFDE2A000EDD22FFFF00019E07D8A0F0
:100700009F07BFD7FFFF9E519F11D8B440D0FFFF76
:1007100020EE02F08C51D9268D51DA22DE50DE1007
:10072000D8B416D020EE02F08C51D9268D51DA22A1
:1007300001D824D0FFFF0500FA6EDE50FD6EDE50BA
:10074000FE6EF850FF6EFA50200E1200FFFF16D01A
:10075000FFFF8CC0D9FF8DC0DAFFDECF92F0DDCF76
:1007600093F092C0D9FF93C0DAFF200EDF6E8CC0E9
:10077000D9FF8DC0DAFFDE2A000EDD22FFFF000167
:100780009E07D8A09F079E519F11D8A4C0D7FFFFF6
:100790009BC092F0030E9217D8B436D020EE02F030
:1007A0008C51D9268D51DA22DE50DE10D8B416D005
:1007B00020EE02F08C51D9268D51DA2201D824D0B6
:1007C000FFFF0500FA6EDE50FD6EDE50FE6EF85043
:1007D000FF6EFA502D0E1200FFFF16D0FFFF8CC0E7
:1007E000D9FF8DC0DAFFDECF92F0DDCF93F092C05B
:1007F000D9FF93C0DAFF2D0EDF6E8CC0D9FF8DC0FC
:10080000DAFFDE2A000EDD22FFFFA0C096F05DD0E9
:10081000FFFF00019651020D2B0EF324F66E7B0EA6
:10082000F420F76E0900FFFFF5CF82F00A00FFFF0A
:10083000F5CF83F097C080F098C081F0A7EC3BF033
:1008400080C087F081C088F0000E00018A6F0A0E18
:10085000896FF8EC3AF000018751300FA06F20EE5D
:1008600002F08C51D9268D51DA22DE50DE10D8B438
:1008700016D020EE02F08C51D9268D51DA2201D803
:1008800024D0FFFF0500FA6EDE50FD6EDE50FE6ED6
:10089000F850FF6EFA50A0511200FFFF16D0FFFF74
:1008A0008CC0D9FF8DC0DAFFDECF92F0DDCF93F0A0
:1008B00092C0D9FF93C0DAFFA0C0DFFF8CC0D9FF80
:1008C0008DC0DAFFDE2A000EDD22FFFF0001960751
:1008D0009629D8A49DD7FFFF00018E51926F8F51AA
:1008E000936F8E4B8F2B92C0F6FF93C0F7FFF86A81
:1008F000050EF76404D00800FFFFF55005D0F6CFD1
:10090000E9FFF7CFEAFFEF500001A06FA051D8A494
:100910000BD4FFFF000E00018D6F000E8C6F1200D4
:10092000FFFFFFFF010E43EC3CF00009D8B433D0C9
:10093000000E0001F26F000EF46F000E716E060ED5
:1009400021EC3BF00001D76FD751D8A405D0000EA1
:10095000D06F010ECF6F04D0FFFFD7C0CFF0D06BA8
:10096000FFFFCFC0E9F0DEC0DFF0000ED86F000E51
:10097000D86FFFFF070ED86501D00DD0FFFFD8510B
:10098000010D440EF324D96E000EF420DA6E000E31
:10099000DF6ED82BEED7FFFF0A0E7160ECD17F0E11
:1009A0000001A16F010EA26F830EA36F7E0EA46FD4
:1009B000D9C0A5F0DAC0A6F089EC3AF00001F851F0
:1009C0005CEC1FF0B5C0CDF0B6C0CEF0680E0001F3
:1009D000A16F010EA26F380EA36F7E0EA46FCDC063
:1009E000A5F0CEC0A6F089EC3AF0C5D1FFFF000E0D
:1009F0000001E86FE8C08CF00A0E66EC3AF0010ED8
:100A0000466E000E0001DA6F1E0ED96F010E12D174
:100A1000FFFF33EC38F0F60E0001C86FFF0EC96F10
:100A2000E451CA6FCB6BC851CA27C951CB23F851C7
:100A3000CA5DCB51800ACC6FF951800ACC59D8A03D
:100A4000C4D1000E466E010E4A6E020E4CD0FFFF5E
:100A50003C0E0001A16F010EA26F180EA36F7E0E57
:100A6000A46F89EC3AF00001E451C86FC96BC8511A
:100A7000F85DF951800ACA6FC951800ACA59D8A0D5
:100A800006D0000E4A6E010EFD6F030E716EFFFF61
:100A9000D951DA11D8A499D1000EFD6F030E51D0AF
:100AA000FFFF010E466E040EC5D0FFFF33EC38F099
:100AB000F60E0001C86FFF0EC96FE451CA6FCB6B11
:100AC000C851CA27C951CB23F851CA5DCB51800AFE
:100AD000CC6FF951800ACC59D8A077D1010E496E5C
:100AE000000E466E050EFFFF716E000EDA6F320EBD
:100AF0002DD0FFFF3C0E0001A16F010EA26FF80E7A
:100B0000A36F7C0EA46F89EC3AF00001E451C86F2A
:100B1000C96BC851F85DF951800ACA6FC951800A82
:100B2000CA59D8A006D0000E496E010EFC6F060E01
:100B3000716EFFFFD951DA11D8A447D1000EFC6FB6
:100B4000060EFFFF716E000EDA6F1E0EFFFFD96FEB
:100B50003CD1FFFF010E466E070E6CD0FFFF33EC59
:100B600038F0F60E0001C86FFF0EC96FE451CA6F6E
:100B7000CB6BC851CA27C951CB23F851CA5DCB51A1
:100B8000800ACC6FF951800ACC59D8A01ED1000E32
:100B9000466E080E716E6BC0D9F0DA6B16D1FFFF8E
:100BA0003C0E0001A16F010EA26F0B0EA36F7D0E14
:100BB000A46F89EC3AF0010EC4EC1BF00001F15176
:100BC000D8A40DD0E451C86FC96BC851F85DF95174
:100BD000800ACA6FC951800ACA59D8A008D0FFFF3D
:100BE000010EFB6FE5C0D9F0DA6B090E716EFFFFE5
:100BF000FB51D8B404D0D951DA11D8A4E6D0FFFF04
:100C00000A0E716E000EFB6FE0D0FFFF3C0E00017C
:100C1000A16F010EA26F080EA36F7E0EA46F89EC68
:100C20003AF0010EC4EC1BF00001D951DA11D8A43E
:100C3000CCD00A0EFFFF716EC8D0FFFF64EC1DF030
:100C4000020EC4EC1BF09EEC38F00B0E716E000E21
:100C50000001DA6F0A0ED96F000EF26FB6D0FFFFF7
:100C60007D0E0001A16F010EA26FC50EA36F7D0E58
:100C7000A46F89EC3AF00001FD05D8B404D0E20E6F
:100C8000D16F7F0E04D0FFFFF90ED16F7F0EFFFFF3
:100C9000D26F660EA16F010EA26F400EA36F7F0E82
:100CA000A46FD1C0A5F0D2C0A6F089EC3AF0000143
:100CB000FC05D8B404D0E20ED36F7F0E04D0FFFF42
:100CC000F90ED36F7F0EFFFFD46F510EA16F010E8F
:100CD000A26F650EA36F7E0EA46FD3C0A5F0D4C023
:100CE000A6F089EC3AF00001FB05D8B404D0E20E7E
:100CF000D56F7F0E04D0FFFFF90ED56F7F0EFFFF7B
:100D0000D66F3C0EA16F010EA26F740EA36F7E0E04
:100D1000A46FD5C0A5F0D6C0A6F089EC3AF00001CA
:100D2000D951DA11D8A451D00C0E716E000EDA6FC1
:100D3000960ED96F010EF46F48D0FFFF3E0E0001F2
:100D4000A16F010EA26FF80EA36F7D0EA46F89EC48
:100D50003AF0010EA5EC0AF00001D951DA11D8A43D
:100D600034D0000E05D0FFFF000E716E000E0001A2
:100D7000FFFFDF6F2AD0FFFF7150000AD8B436D6CC
:100D8000010AD8B445D6030AD8B461D6010AD8B44A
:100D900087D6070AD8B489D6010AD8B4AAD6030AD6
:100DA000D8B4D7D6010AD8B4D9D60F0AD8B4F7D652
:100DB000010AD8B42AD7030AD8B43FD7010AD8B455
:100DC0004ED7070AD8B4B9D7CED7FFFF1200FFFF1E
:100DD000FFFF4CEC3BF0A00E00018D6F860E8E6F76
:100DE000010E8F6F000E906FD8EC3BF0000E0001EB
:100DF000816FC80E806F68EC38F0B9EC38F0000EE7
:100E00000001816F640E806F68EC38F0730E000192
:100E10008C6F000E8D6F87EC16F039EC3DF041ECD5
:100E200037F09FEC1CF0000E0001816F640E806FA4
:100E300068EC38F0B8EC17F0000E0001816F320E4C
:100E4000806F68EC38F0FFFF04000001F251D8B465
:100E50000BD0F9BF06D0F95108E1640EF85DD8B0A7
:100E600002D0FFFFF9AF01D0FFFF21EC17F023EC18
:100E70003AF0ADEC3AF05DEC14F085D0FFFF86EC73
:100E800013F0A6D0FFFF7C0E0001A16F010EA26F30
:100E9000560EA36F7F0EA46F89EC3AF0670E000127
:100EA000A16F010EA26F280EA36F7E0EA46F89ECB6
:100EB0003AF0520E0001A16F010EA26F8F0EA36FC8
:100EC0007D0EA46F89EC3AF03D0E0001A16F010E7A
:100ED000A26F6A0EA36F7F0EA46F89EC3AF078D0F0
:100EE000FFFF7C0E0001A16F010EA26FA10EA36F88
:100EF0007D0EA46F89EC3AF0670E0001A16F010E20
:100F0000A26F600EA36F7F0EA46F89EC3AF0520EB1
:100F10000001A16F010EA26FFC0EA36F7E0EA46FE5
:100F200089EC3AF03D0E0001A16F010EA26F920E06
:100F3000A36F7E0EA46F89EC3AF04AD0FFFF94ECC9
:100F40000EF046D0FFFF4BEC0CF042D0FFFF30EC30
:100F500015F03ED0FFFFE2EC08F03AD0FFFFB6EC10
:100F600011F036D0FFFF78EC0DF032D0FFFF7DECB2
:100F70003CF02ED0FFFF91EC04F02AD0FFFF000ED2
:100F80000001DF6F25D0FFFF0001DF51000AD8B458
:100F900075D7010AD8B476D7030AD8B4A1D7160AF0
:100FA000D8B4CCD7010AD8B4CDD7030AD8B4CED799
:100FB000010AD8B4CFD70F0AD8B4D0D7010AD8B411
:100FC000D1D7020AD8B4D2D7070AD8B4D3D7D6D744
:100FD000FFFF0001DF05D8B49CD0020EDF19D8B4A2
:100FE00098D0D2D0FFFF010EDF6F3E0E01017B6F64
:100FF000040E43EC3CF00009D8B4A6D0DFC0DEF00C
:10100000140E65D0FFFF010EDF6F3E0E0101666F0B
:10101000040E43EC3CF00009D8B496D0DFC0DEF0FB
:10102000150E55D0FFFF010EDF6F3E0E0101516F0F
:10103000040E43EC3CF00009D8B486D0DFC0DEF0EB
:10104000160E45D0FFFF010EDF6F3E0E01013C6F13
:10105000040E43EC3CF00009D8B476D0DFC0DEF0DB
:10106000170E35D0FFFF020EDF6F3E0E01017B6FC2
:10107000040E43EC3CF00009D8B466D0DFC0DEF0CB
:10108000180E25D0FFFF3E0E0101666F020E000113
:10109000DF6F040E43EC3CF00009D8B455D0DFC03C
:1010A000DEF0190E0001DF6F010E556E4DD0FFFF0F
:1010B0003E0E0101516F020E0001DF6F040E43EC82
:1010C0003CF00009D8B440D0DFC0DEF01B0EFFFFBB
:1010D00000011CD0FFFF3E0E01013C6F020E00011B
:1010E000DF6F040E43EC3CF00009D8B42DD00001B2
:1010F000F351D8A429D01C0EDF6F010EF26F000E41
:10110000716E22D0FFFF010E696E010EFFFFDF6FCF
:101110001BD0FFFF6950010AD8B464D7030AD8B4C2
:1011200071D7010AD8B47ED7070AD8B48BD7010A81
:10113000D8B498D7030AD8B4A5D7010AD8B4B7D77A
:101140000F0AD8B4C7D7DED7FFFF030E43EC3CF03D
:101150000009D8B402D0690617D0FFFF020E43EC95
:101160003CF00009D8B402D0692A0ED0FFFF010E6E
:1011700043EC3CF00009D8B407D0000E0001DF6F4B
:10118000000EE06F010E696EFFFF1C0E0001DF19FB
:10119000D8B404D0000EF26F000E466EFFFF7B0E37
:1011A000886F010E896F660E8A6F010E8B6F510E6C
:1011B0008C6F010E8D6F3C0E8E6F010E8F6F36ECB3
:1011C0001CF041D6FFFF7C0E0001A16F010EA26F43
:1011D000B70EA36F7F0EA46FB00EA56F010EA66FA2
:1011E00089EC3AF0670E0001A16F010EA26FBE0EEE
:1011F000A36F7F0EA46FA40EA56F010EA66F89ECDE
:101200003AF00001F451D8A404D0E70EC16F7D0E6E
:1012100004D0FFFFCB0EC16F7E0EFFFFC26F520ED8
:10122000A16F010EA26F110EA36F7F0EA46FC1C03C
:10123000A5F0C2C0A6F089EC3AF00001DC51D8A4B8
:1012400050D0030E43EC3CF00009D8B403D00001A9
:10125000E00747D0FFFF020E43EC3CF00009D8B492
:1012600003D00001E02B3DD0FFFF010E43EC3CF02A
:101270000009D8B436D0000E0001F46F000EE06F04
:10128000000EDD6F000EDC6F000EC36F000EC36F2B
:10129000FFFF0A0EC36501D021D0FFFFC351010D2E
:1012A000B00EF324D96E010EF420DA6EDF508C6F8D
:1012B000C351140F66EC3AF00001C351010DA40EA6
:1012C000F324D96E010EF420DA6EDF508C6FC35117
:1012D000280F66EC3AF00001C32BDAD7FFFFDEC01F
:1012E000DFF0FFFF0001DC05D8A41AD1040E43ECA7
:1012F0003CF00009D8B403D00001DD2B11D1FFFF71
:10130000010E43EC3CF00009D8B40AD1000E0001F4
:10131000DD6F000EDC6F04D1FFFF3E0E01017B6F1D
:10132000040E43EC3CF00009D8B403D0010E0001D8
:10133000DC6FFFFF0001DC51D8B4FFD07B0E806F63
:10134000010E816FDD51060F826FDD51060F836F35
:10135000A2EC39F00001DD51BF6FC06B020EBF2758
:10136000000EC023C05104E10D0EBF5DD8A004D013
:10137000000EDD6F000EDC6FFFFF030E43EC3CF050
:101380000009D8B40AD00001DD51010DB00EF324DC
:10139000D96E010EF420DA6EDF2AFFFF020E43EC55
:1013A0003CF00009D8B40AD00001DD51010DB00EA7
:1013B000F324D96E010EF420DA6EDF06FFFF000180
:1013C000DD51010DB00EF324D96E010EF420DA6E5A
:1013D0003A0EDF600BD0DD51010DB00EF324D96E53
:1013E000010EF420DA6E300EDF60A7D0FFFFDD5172
:1013F000010DB00EF324D96E010E71D0FFFF3E0E29
:101400000101666F040E43EC3CF00009D8B403D030
:10141000010E0001DC6FFFFF0001DC51D8B48DD05C
:10142000660E806F010E816FDD51060F826FDD51F8
:10143000060F836FA2EC39F00001DD51BF6FC06B66
:10144000020EBF27000EC023C05104E10D0EBF5D88
:10145000D8A004D0000EDD6F000EDC6FFFFF030E7E
:1014600043EC3CF00009D8B40AD00001DD51010D75
:10147000A40EF324D96E010EF420DA6EDF2AFFFFEA
:10148000020E43EC3CF00009D8B40AD00001DD5153
:10149000010DA40EF324D96E010EF420DA6EDF06DE
:1014A000FFFF0001DD51010DA40EF324D96E010EE2
:1014B000F420DA6E3A0EDF600BD0DD51010DA40E80
:1014C000F324D96E010EF420DA6E300EDF6035D0D1
:1014D000FFFFDD51010DA40EF324D96E010EFFFFB5
:1014E000F420DA6E300EDF6E28D0FFFF3E0E0101D1
:1014F000516F040E43EC3CF00009D8B41ED0780EB6
:101500000001FF19D8B419D0F451D8A416D0010E97
:10151000F46F000EF76F11D0FFFF000EE06F0DD0DB
:10152000FFFF0001E051000AD8B4F6D6010AD8B492
:1015300065D7030AD8B4D9D7EFD7FFFF0001F4511C
:10154000D8A4C5EC10F01200FFFFFFFF0001C76F29
:101550000001F651D8A49CD17BD1FFFF83EC38F079
:10156000DD0E0001A16F7F0EA26F84EC39F0514AAD
:10157000522A060E0001F56F8BD1FFFFF90E936F13
:101580007F0E946F66EC39F00009D8B40ED083EC6E
:1015900038F0D80E0001A16F7E0EA26F84EC39F0F6
:1015A000514A522A060E0001F56FFFFF0001F55166
:1015B000D8A46ED11A0E806F000E816F3AEC37F00E
:1015C000000E0001816F0F0E806F68EC38F0A90EDD
:1015D0000001A16F7F0EA26F84EC39F033D1FFFFC1
:1015E000F90E0001936F7F0E946F66EC39F00009DD
:1015F000D8B4B2D083EC38F00001F751D8B404D09D
:10160000A40EBD6F010E04D0FFFFB00EBD6F010E22
:10161000FFFFBE6F7D0EA16F7D0EA26FBDC0A3F058
:10162000BEC0A4F084EC39F0000E0001816F780E8A
:10163000806F68EC38F0080EFFFF0001F56F514A2B
:10164000522A8AD0FFFFFC0E936F7F0E946F66ECD8
:1016500039F00009D8B480D083EC38F00001C70518
:10166000D8A418D01B0EA16F7C0EA26FEDC0A3F002
:10167000A46BEEC0A5F0A66BEFC0A7F0A86BECC002
:10168000A9F0AA6BEBC0ABF0AC6BEAC0ADF0AE6BEF
:1016900084EC39F0FFFF020E0001C719D8A44BD02B
:1016A000FB05D8B404D0D10EBF6F7F0E04D0FFFF6E
:1016B000F90EBF6F7F0EFFFFC06FFC05D8B404D0DA
:1016C000D10EC16F7F0E04D0FFFFF90EC16F7F0EE8
:1016D000FFFFC26FFD05D8B404D0D10EC36F7F0EDB
:1016E00004D0FFFFF90EC36F7F0EFFFFC46FB30E70
:1016F000A16F7B0EA26FEDC0A3F0A46BEEC0A5F0AE
:10170000A66BEFC0A7F0A86BECC0A9F0AA6BEBC06A
:10171000ABF0AC6BEAC0ADF0AE6BC3C0AFF0C4C011
:10172000B0F0C1C0B1F0C2C0B2F0BFC0B3F0C0C031
:10173000B4F084EC39F0FFFF000E0001816F960ECB
:10174000806F68EC38F01A0E0001806F000E816F18
:101750003AEC37F01E0E70D7FFFF0001FFFFF55186
:10176000D8A496D06FD0FFFFF90E936F7F0E946FC1
:1017700066EC39F00009D8A40AD0D70E0001936FA7
:101780007F0E946F66EC39F00009D8B481D0FFFF6A
:10179000020E0001C719D8A40ED0F751D8A403D067
:1017A000010EF76FDBD7FFFF000EF76F000EF46F2F
:1017B000000EDF6FD3D7FFFF514A522ACFD7FFFF6A
:1017C00083EC38F00001F751D8B404D0A40EC56FF3
:1017D000010E04D0FFFFB00EC56F010EFFFFC66FF4
:1017E000140EA16F7F0EA26FC5C0A3F0C6C0A4F0F7
:1017F00084EC39F01E0E0001F56F514A522A48D090
:10180000FFFFF551D8A444D083EC38F0A90E0001B5
:10181000A16F7F0EA26F84EC39F0020E0001816F80
:10182000260E806F68EC38F00001F751D8A403D081
:10183000010EF76F07D0FFFF000EF76F000EF46F79
:10184000020EF66FFFFF000E526E000E516E20D09A
:10185000FFFF51C0BBF052C0BCF0BC51000AD8A47D
:10186000F1D7BB51000AD8B478D6010AD8B485D6CE
:10187000030AD8B4B4D6010AD8B4E4D6070AD8B457
:1018800072D7010AD8B49BD7030AD8B4B9D7DAD72C
:10189000FFFF1200FFFFFFFF0001E4515CEC1FF0AF
:1018A000B5C0C2F0B6C0C3F07B0E0001A16F010E3F
:1018B000A26F350EA36F7F0EA46FC2C0A5F0C3C088
:1018C000A6F089EC3AF00001E3515CEC1FF0B5C0E2
:1018D000C2F0B6C0C3F0660E0001A16F010EA26F88
:1018E000400EA36F7F0EA46FC2C0A5F0C3C0A6F0C8
:1018F00089EC3AF00001E2515CEC1FF0B5C0C2F097
:10190000B6C0C3F0510E0001A16F010EA26F650EAB
:10191000A36F7E0EA46FC2C0A5F0C3C0A6F089EC71
:101920003AF00001E1515CEC1FF0B5C0C2F0B6C066
:10193000C3F03C0E0001A16F010EA26F740EA36FE5
:101940007E0EA46FC2C0A5F0C3C0A6F089EC3AF029
:10195000010E43EC3CF00009D8B419D0E3C08CF080
:10196000000E66EC3AF0E2C08CF0010E66EC3AF044
:10197000E1C08CF0020E66EC3AF0E4C08CF0040E8C
:1019800066EC3AF0000E0001E06FDEC0DFF0FFFF12
:10199000040E43EC3CF00009D8B497D00001E02BD2
:1019A00094D0FFFF7B0E806F010E816F080E826F57
:1019B0000F0E836FA2EC39F0030E43EC3CF00009EC
:1019C000D8B402D00001E42BFFFF020E43EC3CF040
:1019D0000009D8B402D00001E407FFFF630E000144
:1019E000E46583D0000EE46F80D0FFFF660E806F49
:1019F000010E816F080E826F0F0E836FA2EC39F01B
:101A0000030E43EC3CF00009D8B402D00001E32BF4
:101A1000FFFF020E43EC3CF00009D8B402D00001F5
:101A2000E307FFFF630E0001E3655FD0000EE36F85
:101A30005CD0FFFF510E806F010E816F0C0E826F24
:101A4000120E836FA2EC39F0030E43EC3CF0000958
:101A5000D8B402D00001E22BFFFF020E43EC3CF0B1
:101A60000009D8B402D00001E207FFFF630E0001B5
:101A7000E2653BD0000EE26F38D0FFFF3C0E806F76
:101A8000010E816F0C0E826F120E836FA2EC39F083
:101A9000030E43EC3CF00009D8B402D00001E12B66
:101AA000FFFF020E43EC3CF00009D8B402D0000165
:101AB000E107FFFF630E0001E16517D0000EE16F43
:101AC00014D0FFFF000EE06F10D0FFFF0001E051C7
:101AD000000AD8B466D7010AD8B487D7030AD8B4A5
:101AE000A8D7010AD8B4C9D7ECD7FFFF1200FFFF6F
:101AF000FFFF7B0E0001A16F010EA26F5A0EA36FB4
:101B00007C0EA46F5DC0A5F0A66B5CC0A7F0A86BAF
:101B10005BC0A9F0AA6B5AC0ABF0AC6B59C0ADF07A
:101B2000AE6B89EC3AF05804D8B405D0E20E00014F
:101B3000BA6F7F0E05D0FFFFF90E0001BA6F7F0E5E
:101B4000FFFFBB6F660EA16F010EA26F7E0EA36F2B
:101B50007F0EA46FBAC0A5F0BBC0A6F089EC3AF026
:101B6000740E0001A16F010EA26F2A0EA36F7F0EEB
:101B7000A46F010E5324A56FA66B000EA62354C0BC
:101B8000A7F0A86B89EC3AF05704D8B405D0E20E60
:101B90000001BC6F7F0E05D0FFFFF90E0001BC6F86
:101BA0007F0EFFFFBD6F510EA16F010EA26FAF0E32
:101BB000A36F7E0EA46FBCC0A5F0BDC0A6F089ECDB
:101BC0003AF05604D8B405D0E20E0001BE6F7F0E85
:101BD00005D0FFFFF90E0001BE6F7F0EFFFFBF6F44
:101BE0003C0EA16F010EA26FBD0EA36F7E0EA46FFF
:101BF000BEC0A5F0BFC0A6F089EC3AF0010E43ECE0
:101C00003CF00009D8B405D0000E0001E06FDEC042
:101C1000DFF0FFFF020E43EC3CF00009D8B40BD01C
:101C2000080E0001FA5F3C0EFA6102D03C0EFA6F1A
:101C3000FFFF010E556EFFFF030E43EC3CF0000961
:101C4000D8B419D054500001B56FB66B5350B76F6C
:101C5000B86B010EB727000EB823B551B75DB85168
:101C6000800AB96FB651800AB959D8B05AD0080E57
:101C7000FA27010E556EFFFF5504D8A452D00E0E60
:101C800021EC3BF00001C06FC40EC025806F816B5A
:101C9000FF0E8123000E836F080E826F76EC1EF01C
:101CA00000018051546EC40EFA25806F816BFF0EC7
:101CB0008123000E836F080E826F76EC1EF0000108
:101CC0008051536EFA5121EC3BF05D6E0001FA2910
:101CD00021EC3BF05C6E0001FA51020F21EC3BF06D
:101CE0005B6E0001FA51030F21EC3BF05A6E0001CC
:101CF000FA51040F21EC3BF0596E0001FA51050F27
:101D000021EC3BF0586E0001FA51060F21EC3BF03C
:101D1000576E0001FA51070F21EC3BF0566E000E92
:101D2000556EFFFF1200FFFFFFFF7B0E0001A16F4A
:101D3000010EA26FCB0EA36F7F0EA46F89EC3AF059
:101D4000660E0001A16F010EA26F470EA36F7E0EFB
:101D5000A46F77C0A5F0A66B78C0A7F0A86B79C078
:101D6000A9F0AA6B89EC3AF0860E0001A16F010E72
:101D7000A26FC50EA36F7F0EA46F89EC3AF0710EAF
:101D80000001A16F010EA26F560EA36F7E0EA46F0D
:101D900076C0A5F0A66B75C0A7F0A86B74C0A9F0BB
:101DA000AA6B89EC3AF0040E43EC3CF00009D8B47D
:101DB00004D0010E676E0001E02BFFFF010E43EC23
:101DC0003CF00009D8B4B0D0000E676E000E0001E0
:101DD000E06F730E8C6F000E8D6FD9EC18F0DEC0C3
:101DE000DFF00001EE2BA0D0FFFF660E806F010E2A
:101DF000816F010E826F020E836FA2EC39F0030E29
:101E000043EC3CF00009D8A4772A020E43EC3CF0E6
:101E10000009D8B49FD077069DD0FFFF660E000161
:101E2000806F010E816F040E826F050E836FA2EC2E
:101E300039F0030E43EC3CF00009D8A4782A020ED6
:101E400043EC3CF00009D8B485D0780683D0FFFF7E
:101E5000660E0001806F010E816F070E826F080E03
:101E6000836FA2EC39F0030E43EC3CF00009D8A4D8
:101E7000792A020E43EC3CF00009D8B46BD0790605
:101E800069D0FFFF660E0001806F010E816F0C0E9E
:101E9000826F0D0E836FA2EC39F0030E43EC3CF021
:101EA0000009D8A4762A020E43EC3CF00009D8B40D
:101EB00051D076064FD0FFFF660E0001806F010EF5
:101EC000816F0F0E826F100E836FA2EC39F0030E3C
:101ED00043EC3CF00009D8A4752A020E43EC3CF018
:101EE0000009D8B437D0750635D0FFFF660E000163
:101EF000806F010E816F120E826F130E836FA2EC42
:101F000039F0030E43EC3CF00009D8A4742A020E09
:101F100043EC3CF00009D8B41DD074061BD0FFFF81
:101F2000010E0001E06F16D0FFFF0001E051010A31
:101F3000D8B45AD7030AD8B470D7010AD8B487D70F
:101F4000070AD8B49ED7010AD8B4B5D7030AD8B4C3
:101F5000CCD7E5D7FFFFD1EC3AF01200FFFFFFFF2F
:101F6000000E2A6E000E2E6E000E2F6E000E306ECA
:101F7000000E2B6E000E2C6E000E2D6E000E2A6EC3
:101F8000FFFF080E2A6401D02DD0FFFF2EC01BF0EA
:101F90002FC01CF030C01DF0280E0F6EA00E106E6A
:101FA0003B0E116E99EC37F001C009F002C00AF047
:101FB00085EC37F009C00CF00AC00DF00BC00EF034
:101FC000EBEC19F00CC01EF00DC01FF00EC020F09D
:101FD0009EEC12F01BC02EF01CC02FF01DC030F084
:101FE0002A2ACED7FFFF2EC01BF02FC01CF030C016
:101FF0001DF0000E1E6E200E1F6E410E206E51EC65
:102000001BF01BC02EF01CC02FF01DC030F04CC0C8
:102010001BF04DC01CF04EC01DF02EC01EF02FC096
:102020001FF030C020F09EEC12F01BC04CF01CC022
:102030004DF01DC04EF06D2A2EC001F02FC002F0F1
:1020400030C003F0CD0E046ECC0E056E3E0E066E53
:1020500028EC1EF0D8B005D0FF0E0001F96FF60E87
:1020600015D0FFFF000E016E900E026E400E036E43
:102070002EC004F02FC005F030C006F028EC1EF092
:10208000D8B007D0000E0001F96F630EFFFFF86FA4
:1020900079D0FFFF050E6D6475D0000E6D6E4CC0DB
:1020A0001BF04DC01CF04EC01DF0000E1E6EC00E89
:1020B0001F6E400E206E51EC1BF01BC02EF01CC09A
:1020C0002FF01DC030F0000E4C6E000E4D6E000E55
:1020D0004E6E2EC01BF02FC01CF030C01DF0000E45
:1020E0001E6E000E1F6EBF0E206E9EEC12F01BC007
:1020F0002BF01CC02CF01DC02DF0000E0F6E200E1A
:10210000106E410E116E2BC00CF02CC00DF02DC0C6
:102110000EF0EBEC19F00CC01BF00DC01CF00EC063
:102120001DF0000E1E6E800E1F6E400E206E51ECD4
:102130001BF01BC02BF01CC02CF01DC02DF02DAED1
:1021400006D0000E2B6E000E2C6E000E2D6EFFFFC3
:10215000000E0F6E200E106E410E116E2BC00CF093
:102160002CC00DF02DC00EF0EBEC19F00CC01BF0E4
:102170000DC01CF00EC01DF0DDEC1AF01BC0F8F015
:102180001CC0F9F0FFFF1200FFFFFFFFD1D0FFFFDF
:1021900083EC38F0DD0E0001A16F7F0EA26F84EC9E
:1021A00039F0514A522A050E0001F56FDCD0FFFFCD
:1021B000F90E936F7F0E946F66EC39F00009D8B476
:1021C0000ED083EC38F0D80E0001A16F7E0EA26F06
:1021D00084EC39F0514A522A050E0001F56FFFFFD9
:1021E0000001F551D8A4BFD0000E526E000E516E02
:1021F0001A0E806F000E816F3AEC37F0B4D0FFFFFB
:10220000F90E0001936F7F0E946F66EC39F00009B0
:10221000D8B483D083EC38F00001F751D8B404D09F
:10222000A40EBD6F010E04D0FFFFB00EBD6F010EF6
:10223000FFFFBE6F7D0EA16F7D0EA26FBDC0A3F02C
:10224000BEC0A4F084EC39F0050E0001F56F514AD0
:10225000522A89D0FFFFFC0E936F7F0E946F66ECBD
:1022600039F00009D8B459D083EC38F0350E0001AC
:10227000A16F7B0EA26FECC0A3F0A46BEBC0A5F026
:10228000A66BEAC0A7F0A86BEDC0A9F0AA6BEEC0E0
:10229000ABF0AC6BEFC0ADF0AE6BE40EAF6F7E0E8B
:1022A000B06F84EC39F0030E0001816FE80E806F8F
:1022B00068EC38F01A0E0001806F000E816F3AEC66
:1022C00037F0514A522A1E0E0001F56F26D0FFFF4B
:1022D000F90E936F7F0E946F66EC39F00009D8B455
:1022E00011D00001F751D8A403D0010EF76F05D02B
:1022F000FFFF000EF76F000EF46FFFFF000E526E2F
:10230000000E516EFFFFD70E0001936F7F0E946F8A
:1023100066EC39F00009D8A405D0FFFF0001F551A3
:10232000D8A421D0FFFF000E526E000E516E1BD0BC
:10233000FFFF51C0BBF052C0BCF00001BC51000A0D
:10234000D8A4F0D7BB51000AD8B421D7010AD8B419
:102350002ED7030AD8B453D7010AD8B47BD7070ABB
:10236000D8B4B5D7DFD7FFFF1200FFFFFFFF7B0E0A
:102370000001A16F010EA26F930EA36F7C0EA46FDC
:10238000E851B56FB66BB51FB61FB54BB62BE9510B
:10239000B525A56F000EB621A66F89EC3AF0660E42
:1023A0000001A16F010EA26FBC0EA36F7C0EA46F83
:1023B000E9C0A5F0A66B89EC3AF0510E0001A16FBF
:1023C000010EA26FD00EA36F7C0EA46FE7C0A5F024
:1023D000A66B89EC3AF00001F051D8B404D0F10EAC
:1023E000B76F7F0E04D0FFFFF50EB76F7F0EFFFFB4
:1023F000B86F3C0EA16F010EA26F4B0EA36F7F0E44
:10240000A46FB7C0A5F0B8C0A6F089EC3AF0010EF1
:1024100043EC3CF00009D8B411D0E9C08CF0060EB2
:1024200066EC3AF0E7C08CF00B0E66EC3AF0F0C0C8
:102430008CF00F0E66EC3AF0DEC0DFF0FFFF040E0A
:1024400043EC3CF00009D8B469D00001E02B66D021
:10245000FFFF660E806F010E816F0B0E826F0E0EF6
:10246000836FA2EC39F0030E43EC3CF00009D8B4C2
:1024700002D00001E92BFFFF020E43EC3CF0000903
:10248000D8B459D00001E90756D0FFFF510E806F34
:10249000010E816F090E826F0B0E836FA2EC39F073
:1024A000030E43EC3CF00009D8B402D00001E72B46
:1024B000FFFF020E43EC3CF00009D8B402D000014B
:1024C000E707FFFF180E0001E76101D034D0FFFFDE
:1024D000000EE76F30D0FFFF3C0E806F010E816F62
:1024E000090E826F0B0E836FA2EC39F0030E43ECE2
:1024F0003CF00009D8B403D0010E0001F06FFFFFDB
:10250000020E43EC3CF00009D8B415D0000E0001D7
:10251000F06F11D0FFFF000EE06F0DD0FFFF000144
:10252000E051000AD8B494D7010AD8B4AED7030A50
:10253000D8B4D1D7EFD7FFFF1200FFFFFFFF1DC0B8
:1025400021F0226A236A1C34213601E322802150C3
:10255000266E20C021F0226A236A1F34213601E34F
:1025600022802150256E2650D8B40BD02550265CF1
:10257000D8B00FD0265000082524216E180E2164F3
:1025800008D0FFFF1EC01BF01FC01CF020C01DF0B4
:10259000BAD0FFFF2550D8B40BD02650255CD8B058
:1025A0000FD0255000082624216E180E216408D073
:1025B000FFFF1BC01BF01CC01CF01DC01DF0A3D0F2
:1025C000FFFF060E246E1DBE248E20BE248C1C8EA2
:1025D000FF0E1B16FF0E1C16000E1D161F8EFF0E83
:1025E0001E16FF0E1F16000E20162550265CD8B0B2
:1025F0001ED0FFFFD8901E361F36203625062650E7
:102600002518D8B40ED0240624C021F0070E2116B8
:10261000D8B407D0EED7FFFFD8901D321C321B3242
:10262000262AFFFF25502618D8B423D0F4D7FFFF61
:102630002650255CD8B01DD0FFFFD8901B361C3625
:102640001D36260626502518D8B40ED0240624C0E0
:1026500021F0070E2116D8B407D0EED7FFFFD8908F
:1026600020321F321E32252AFFFF25502618D8A4FB
:10267000F5D7FFFF24AE0CD0FF0E1B1AFF0E1C1A5D
:10268000FF0E1D1A010E1B26000E1C22000E1D221D
:10269000FFFF24AC0CD0FF0E1E1AFF0E1F1AFF0EF8
:1026A000201A010E1E26000E1F22000E2022FFFF00
:1026B000000E246E1B501E261C501F221D5020226F
:1026C00020AE0ED0FF0E1E1AFF0E1F1AFF0E201A8C
:1026D000010E1E26000E1F22000E2022010E246E67
:1026E000FFFF1EC001F01FC002F020C003F026C093
:1026F00004F024C005F0C6EC1DF001C01BF002C0C0
:102700001CF003C01DF0FFFF1200FFFFFFFF7D0E56
:102710000001A16F010EA26F790EA36F7C0EA46F52
:10272000EDC0A5F0A66BEEC0A7F0A86BEFC0A9F0B6
:10273000AA6BECC0ABF0AC6BEBC0ADF0AE6B89EC50
:102740003AF0010E01017B6FFFC07CF1050E8E6F28
:1027500082B028D07B0E0001806F010E816F140EB5
:10276000826F140E836FA2EC39F01CD0FFFF520E63
:102770000001A16F010EA26FB30EA36F7D0EA46FB7
:1027800089EC3AF0000E726E15D0FFFF520E000178
:10279000A16F010EA26F310EA36F7D0EA46F89ECA5
:1027A0003AF008D0FFFF7250010AD8B4DFD7020A0E
:1027B000D8B4EBD7FFFF0001F351D8B416D0F851CD
:1027C0005CEC1FF0B5C0C2F0B6C0C3F0680E0001EB
:1027D000A16F010EA26F380EA36F7E0EA46FC2C050
:1027E000A5F0C3C0A6F089EC3AF0FFFF0001F9BFE5
:1027F00006D0F95108E1640EF85DD8B003D0FFFFB0
:10280000F9AF0ED0FFFF670EA16F010EA26F570E3A
:10281000A36F7D0EA46F89EC3AF09EEC38F018D0CF
:10282000FFFF0001F8515CEC1FF0B5C0C2F0B6C06C
:10283000C3F0680E0001A16F010EA26F380EA36FE6
:102840007E0EA46FC2C0A5F0C3C0A6F089EC3AF01A
:10285000FFFF020E726004D00001F351D8B41ED005
:10286000FFFF510E0001806F010E816F010E826F1C
:10287000130E836FA2EC39F03D0E0001A16F010E23
:10288000A26F6A0EA36F7D0EA46F89EC3AF0010E61
:1028900043EC3CF00009D8A4C1EC37F0FFFF040E74
:1028A00043EC3CF00009D8B405D0010E0001DF6F05
:1028B000010E696EFFFF1200FFFFFFFF0001FE51D6
:1028C000D8A4CBD0F451D8B4B7D0C7D0FFFF83EC95
:1028D00038F0880E0001A16F7F0EA26F84EC39F0F2
:1028E0000A0E0001F56F000E526E010EA2D0FFFF1E
:1028F000F551D8A42BD0DD0EA16F7F0EA26F84EC12
:1029000039F0000E0001816F640E806F68EC38F0C2
:10291000F90E0001936F7F0E946F66EC39F0000999
:10292000D8B405D0000E526E000E516E0FD0FFFFCE
:10293000000E526E000E516E1A0E0001806F000ED6
:10294000816F3AEC37F0780E0001FF6FFFFFB00E99
:102950000001936F7F0E946F66EC39F00009D8B4D4
:102960007CD0B00E0001B56F7F0EB66F2C0EB76F26
:102970004BEC18F0B5C0BFF0B6C0C0F067EC1AF071
:10298000BFC0C8F0C0C0C9F00001C9BF06D0C9515E
:1029900008E10A0EC85DD8B003D0FFFF200E3BD07F
:1029A000FFFFC9BF11D0C95104E10A0EC85DD8A00C
:1029B0000BD0C9BF06D0C95108E10F0EC85DD8B011
:1029C00003D0FFFF020E27D0FFFFC9BF11D0C951AE
:1029D00004E1100EC85DD8A00BD0C9BF06D0C95104
:1029E00008E1140EC85DD8B003D0FFFF030E13D06A
:1029F000FFFFC9BF12D0C95104E1140EC85DD8A0B1
:102A00000CD0C9BF06D0C95109E11F0EC85DD8B0AE
:102A100004D0FFFF040EFFFFFF6FFFFF000E526E9A
:102A2000000E516E060EFE6F18D0FFFF000E526EA4
:102A3000000EFFFF516E11D0FFFF51C0C6F052C013
:102A4000C7F0C751000AD8A4F0D7C651000AD8B4BD
:102A50003DD7010AD8B44BD7E8D7FFFF1200FFFFDC
:102A6000FFFF7B0E0001A16F010EA26F440EA36F4A
:102A70007D0EA46F89EC3AF0660E0001A16F010E85
:102A8000A26FA10EA36F7E0EA46F89EC3AF0760EB2
:102A90000001A16F010EA26FEC0EA36F7F0EA46F59
:102AA000E6C0A5F0A66B89EC3AF0510E0001A16FCB
:102AB000010EA26FF00EA36F7E0EA46F89EC3AF0A8
:102AC000610E0001A16F010EA26FEC0EA36F7F0ECD
:102AD000A46FE5C0A5F0A66B89EC3AF03C0E0001AE
:102AE000A16F010EA26F1E0EA36F7D0EA46F4FC0CB
:102AF000A5F050C0A6F089EC3AF0040E43EC3CF08F
:102B00000009D8B402D00001E02BFFFF010E43EC16
:102B10003CF00009D8B44ED0E6C08CF0070E66EC4D
:102B20003AF0E5C08CF00D0E66EC3AF0000E0001B4
:102B3000E06FDEC0DFF03ED0FFFF660E806F010E5B
:102B4000816F100E826F140E836FA2EC39F0030EAA
:102B500043EC3CF00009D8B402D00001E62BFFFFA3
:102B6000020E43EC3CF00009D8B42ED00001E60779
:102B70002BD0FFFF510E806F010E816F100E826F00
:102B8000140E836FA2EC39F0030E43EC3CF0000905
:102B9000D8B402D00001E52BFFFF020E43EC3CF05D
:102BA0000009D8B411D00001E5070ED0FFFF000ED8
:102BB000E06F0AD0FFFF0001E051000AD8B4BCD793
:102BC000010AD8B4D6D7F2D7FFFF1200FFFFFFFFEC
:102BD0000001FE51D8B405D0FE07FEC009F00A6A14
:102BE00005D0FFFF000E0A6E000E096EFFFF09C040
:102BF000FEF0F551D8B405D0F507F5C00BF00C6A1E
:102C000005D0FFFF000E0C6E000E0B6EFFFF0BC019
:102C1000F5F0D951DA11D8B408D0D907D8A0DA071D
:102C2000D9C0D9F0DAC0DAF005D0FFFF000EDA6FB4
:102C3000000ED96FFFFFF651D8B405D0F607F6C0E5
:102C40000DF00E6A05D0FFFF000E0E6E000E0D6E29
:102C5000FFFF0DC0F6F06750D8A456D0EF2B3B0E07
:102C6000EF6514D0000EEF6FEE2B3B0EEE650ED02D
:102C7000000EEE6FED2B170EED6508D0000EED6F18
:102C8000E82BE8C004F00A0E48EC39F0FFFF000121
:102C9000EE517518D8B438D0F151D8B409D04F4A94
:102CA000502A4FC006F050C007F0080EEFEC1FF09E
:102CB000FFFF730E066E000E076E62EC19F03C0EFD
:102CC000746415D03C0E756412D0180E76640FD063
:102CD0001AEC38F0EFC074F0EEC075F0EDC076F08D
:102CE000ECC077F0EBC078F0EAC079F00DD0FFFFD0
:102CF00074C0EFF075C0EEF076C0EDF077C0ECF088
:102D000078C0EBF079C0EAF0FFFF1200FFFFFFFF91
:102D10001AEC37F0000E00018B6FD00E8A6F33EC87
:102D200037F0000E00018B6F000E8A6F33EC37F026
:102D300026EC37F0000E00018B6FD10E8A6F33EC5A
:102D400037F0000120EE01F08C51D9268D51DA22A6
:102D5000000E826F010E816F0EEC39F0000181517F
:102D600078EC37F0DF6E000120EE02F08C51D926AE
:102D70008D51DA22000E826F010E816F0EEC39F058
:102D80000001815178EC37F0DF6E000120EE03F096
:102D90008C51D9268D51DA22000E826F010E816F7F
:102DA0000EEC39F00001815178EC37F0DF6E000E47
:102DB0000001826F010E816F0EEC39F0000181512C
:102DC00078EC37F08CC0D9FF8DC0DAFFDF6E0001E0
:102DD00020EE04F08C51D9268D51DA22000E826F3C
:102DE000010E816F0EEC39F00001815178EC37F063
:102DF000DF6E000120EE05F08C51D9268D51DA22CC
:102E0000000E826F010E816F0EEC39F000018151CE
:102E100078EC37F0DF6E000120EE06F08C51D926F9
:102E20008D51DA22000E826F000E816F0EEC39F0A8
:102E30000001815178EC37F0DF6E20EC37F01200A2
:102E4000FFFFFFFF0001E451C86FC96BC851F85D77
:102E5000F951800ACA6FC951800ACA59D8A00FD047
:102E6000F351D8A40CD0F251D8A409D0000E4A6E68
:102E7000000E496E000EC4EC1BF0000E74D0FFFF74
:102E8000000E466E0001E351C86FC96BF851C85D72
:102E9000C951800ACA6FF951800ACA59D8A002D014
:102EA000010E12D0FFFFE451C86FC96BC851F85D25
:102EB000F951800ACA6FC951800ACA59D8A006D0F0
:102EC000F351D8A403D0000EFFFF4A6EFFFFE2517A
:102ED000C86FC96BF851C85DC951800ACA6FF951F2
:102EE000800ACA59D8A009D0010EF36F010E496EAD
:102EF00082B003D0010EC4EC1BF0FFFF0001E451CF
:102F0000C86FC96BC851F85DF951800ACA6FC951C1
:102F1000800ACA59D8A008D0F351D8A405D0000E11
:102F2000496E000EC4EC1BF0FFFF0001E151C86FB9
:102F3000C96BF851C85DC951800ACA6FF951800A3E
:102F4000CA59D8A006D0010EC4EC1BF0010E000136
:102F5000F36FFFFFF351D8B408D0010EF46F010EE8
:102F6000A5EC0AF0010EFFFF456EFFFF1200FFFF08
:102F7000FFFF000E0001956F000E946F0C0E21EC08
:102F80003BF00001946F140E9419D8B416D0000EC3
:102F9000956FFFFF630E956501D009D0FFFF000E0E
:102FA0008C6F955166EC3AF00001952BF2D7FFFF3C
:102FB000140E8C6F0C0E66EC3AF0FFFF000E21EC45
:102FC0003BF00001E36F010E21EC3BF00001E26FEA
:102FD000020E21EC3BF00001E16F080ED5EC38F059
:102FE0008EC04FF08FC050F0040E21EC3BF000017A
:102FF000E46F060E21EC3BF00001E96F070E21ECB7
:103000003BF00001E66F0A0E21EC3BF00001E86F97
:103010000B0E21EC3BF00001E76F0D0E21EC3BF0B5
:103020000001E56F0F0E21EC3BF00001F06F000E88
:10303000956FFFFF0A0E956501D011D0FFFF9551E6
:10304000010DB00EF324D96E010EF420DA6E955105
:10305000140F21EC3BF0DF6E0001952BEAD7FFFF48
:10306000000E956FFFFF0A0E956501D011D0FFFF8E
:103070009551010DA40EF324D96E010EF420DA6EE1
:103080009551280F21EC3BF0DF6E0001952BEAD71C
:10309000FFFF1200FFFFFFFF900E0001806F010E87
:1030A000816F000E836F000E826F000E856F140E0D
:1030B000846FF1EC38F0B5C080F0B6C081F077ECE9
:1030C0003BF080C0BAF081C0BBF0000E00018F6FF2
:1030D000010E906FB5C091F0B6C092F010EC1FF0E9
:1030E0008FC0BDF090C0BEF00001BD51BE11D8B47C
:1030F00058D0000EBC6FBAC0BCF042D0FFFFBC512C
:10310000010DF350BD25D96EF450BE21DA6EB751D2
:10311000DE18D8A417D0900EA16F010EA26FE70E93
:10312000A36F7F0EA46F900EA56F010EA66F000E09
:10313000A86F000EA76F89EC3AF0900E0001B56FF2
:10314000010E33D0FFFF900EA16F010EA26FE70EAC
:10315000A36F7F0EA46F900EA56F010EA66FBC51DA
:10316000010DF350BD25D96EF450BE21DA6EDF504B
:10317000B86FB851A76FA86B89EC3AF00001BC2B6F
:10318000FFFFBDC080F0BEC081F077EC3BF00001D6
:10319000BC51B86FB96B8051B85D8151B959D8A095
:1031A000ADD7FFFF000EB56F000EFFFFB66F120028
:1031B000FFFFFFFF1AEC37F0000E00018B6FD00EFF
:1031C0008A6F33EC37F0000E00018B6F000E8A6FB0
:1031D00033EC37F0000120EE01F08C51D9268D51EF
:1031E000DA22DF5002EC3AF000018E6F8E518A6FC6
:1031F0008B6B33EC37F0000120EE02F08C51D926B6
:103200008D51DA22DF5002EC3AF000018E6F8E51C0
:103210008A6F8B6B33EC37F0000120EE03F08C519A
:10322000D9268D51DA22DF5002EC3AF000018E6F80
:103230008E518A6F8B6B33EC37F08CC0D9FF8DC009
:10324000DAFFDF5002EC3AF000018E6F8E518A6F88
:103250008B6B33EC37F0000120EE04F08C51D92653
:103260008D51DA22DF5002EC3AF000018E6F8E5160
:103270008A6F8B6B33EC37F0000120EE05F08C5138
:10328000D9268D51DA22DF5002EC3AF000018E6F20
:103290008E518A6F8B6B33EC37F0000120EE06F015
:1032A0008C51D9268D51DA22DF5002EC3AF0000120
:1032B0008E6F8E518A6F8B6B33EC37F020EC37F0CA
:1032C0001200FFFFFFFF08EC37F0000E036ED00E78
:1032D000026E2CEC37F0000E036E000E026E2CEC2A
:1032E00037F014EC37F0000E036ED10E026E2CECAA
:1032F00037F020EE01F00650D9260750DA22000EF2
:10330000036E010E026E4DEC38F0025054EC37F0B3
:10331000DF6E20EE02F00650D9260750DA22000EAA
:10332000036E010E026E4DEC38F0025054EC37F093
:10333000DF6E20EE03F00650D9260750DA22000E89
:10334000036E010E026E4DEC38F0025054EC37F073
:10335000DF6E000E036E010E026E4DEC38F002506F
:1033600054EC37F006C0D9FF07C0DAFFDF6E20EE5D
:1033700004F00650D9260750DA22000E036E010E23
:10338000026E4DEC38F0025054EC37F0DF6E20EE58
:1033900005F00650D9260750DA22000E036E010E02
:1033A000026E4DEC38F0025054EC37F0DF6E20EE38
:1033B00006F00650D9260750DA22000E036E000EE2
:1033C000026E4DEC38F0025054EC37F0DF6E0EEC2C
:1033D00037F01200FFFFFFFF0EC012F0136A146AED
:1033E0000D34123601E313801250156E1550D8B407
:1033F0000DD011C012F0136A146A1034123601E3B2
:10340000138012501A6E1A50D8A408D0FFFF000E75
:103410000C6E000E0D6E000E0E6E56D0FFFF1A5091
:103420007B0F15260EC01AF011501A1A800E1A16AC
:103430000D8E108EFF0E0F16FF0E1016000E1116B9
:10344000000E166E000E176E000E186E070E196E27
:10345000FFFF0CA006D00F50162610501722115057
:103460001822FFFFD8900E320D320C32D8900F3652
:1034700010361136192EECD7090E196EFFFF0CA06D
:1034800006D00F5016261050172211501822FFFF99
:10349000D8900E320D320C32D890183217321632C4
:1034A000192EECD716C001F017C002F018C003F0B7
:1034B00015C004F01AC005F0C6EC1DF001C00CF0F8
:1034C00002C00DF003C00EF0FFFF1200FFFFFFFF70
:1034D00004D0FFFF0001BF4BC02BFFFFBFC0D9FFCF
:1034E000C0C0DAFF200EDE18D8B4F3D7BFC0D9FFB2
:1034F000C0C0DAFF090EDE18D8B4EBD7000E000109
:10350000C56F000EC46F000EC36FBFC0D9FFC0C02F
:10351000DAFF2D0EDE18D8A402D0C32B28D0FFFF6F
:10352000BFC0D9FFC0C0DAFF2B0EDE18D8A422D04E
:103530001ED0FFFFC4C080F0C5C081F0000E0001A6
:10354000836F0A0E826FEBEC37F0BFC0D9FFC0C0AB
:10355000DAFFDF500001C16FC26B8051C12781517A
:10356000C223D00EC125C46FFF0EC221C56FFFFF5D
:10357000BF4BC02BFFFFBFC0D9FFC0C0DAFFDF5079
:10358000ADEC37F0D8B0D5D70001C351D8B40DD0C9
:10359000C4C0C1F0C5C0C2F0C11FC21FC14BC22B05
:1035A000C1C0BFF0C2C0C0F005D0FFFFC4C0BFF0B3
:1035B000C5C0C0F0FFFF1200FFFFFFFF1DC01FF0DE
:1035C000206A216A1C341F3601E320801F50296EB7
:1035D0002950D8B439D0170E1F6E1BC020F01CC064
:1035E00021F01DC022F01F28236E05D0FFFFD890C8
:1035F000223221322032FFFF232EF8D72050246EB2
:103600001C8EFF0E1B16FF0E1C16000E1D161B50E7
:10361000256E1C50266E1D50276E286A8E0E295E60
:1036200029AE0ED02950800A8F0FD8A00DD0FFFFF1
:10363000D8902832273226322532293EF8D719D0A1
:10364000FFFF170E296411D0FFFF000E1B6E000E46
:103650001C6E000E1D6E000E1E6E20D0FFFFD89057
:1036600025362636273628362906FFFF2950D8A4C6
:10367000F5D7FFFF2450D8B408D0281E271E261ED9
:10368000256C000E262227222822FFFF25C01BF0D2
:1036900026C01CF027C01DF028C01EF0FFFF12003E
:1036A000FFFFFFFF1DC021F0226A236A1C34213670
:1036B00001E322802150286E2850D8B40DD020C0BC
:1036C00021F0226A236A1F34213601E3228021502F
:1036D000296E2950D8A408D0FFFF000E1B6E000EE3
:1036E0001C6E000E1D6E4DD0FFFF000E256E000EED
:1036F000266E000E276E2950890F285E1DC029F006
:103700002050291A800E29161C8EFF0E1B16FF0E44
:103710001C16000E1D161F8EFF0E1E16FF0E1F1606
:10372000000E2016180E246EFFFFD8902536263680
:1037300027361E501B5C1F501C5820501D58D8A007
:1037400007D01E501B5E1F501C5A20501D5A25804A
:10375000FFFFD8901B361C361D36242EE5D725C01A
:1037600001F026C002F027C003F028C004F029C0F1
:1037700005F0C6EC1DF001C01BF002C01CF003C038
:103780001DF0FFFF1200FFFFFFFF0001836F00012C
:103790008305D8A41AD0F151D8A417D0EF516F18CF
:1037A000D8B413D0EFC06FF06B2A6C2A80BA0DD05A
:1037B000020E816FBC0E806F68EC38F0010E0001C4
:1037C000F16F000E6C6E000E486EFFFFF151D8A431
:1037D00015D0FB05D8A412D0010E476E080E6C6000
:1037E00002D0010E05D0FFFF100E6C6004D0000E59
:1037F000FFFF486E03D0FFFF000E6C6EFFFF6B50A3
:10380000E65DD8B00AD0000E6B6E000EFB6F000EA6
:10381000F16F000E476E000E486EFFFF8351D8A473
:103820000AD0000EF16F000E486E000E476E000EBB
:103830006C6E000E6B6EFFFFFB51D8A406D0000E1D
:10384000476E000E486E000E6C6EFFFFF151D8B44B
:103850000AD080BA05D0000E486E000E6B6E03D001
:10386000FFFF000EF16FFFFF1200FFFFFFFF010ED1
:103870000001836F010E02EC1DF088C084F089C046
:1038800085F02BEC39F0010E0001836F020E02EC83
:103890001DF08AC084F08BC085F02BEC39F0000E4F
:1038A0000001836F030E02EC1DF08CC084F08DC00C
:1038B00085F02BEC39F0000E0001836F040E02EC52
:1038C0001DF08EC084F08FC085F02BEC39F0000E17
:1038D0000001906F000E906FFFFF130E906501D0F6
:1038E0002BD0FFFF9051010DF3508825D96EF45075
:1038F0008921DA6E200EDF6E9051010DF3508A257A
:10390000D96EF4508B21DA6E200EDF6E9051010DCE
:10391000F3508C25D96EF4508D21DA6E200EDF6EB7
:103920009051010DF3508E25D96EF4508F21DA6E2F
:10393000200EDF6E902BD0D7FFFF1200FFFFFFFF9E
:10394000FB0EF66E7A0EF76E20EE87F02F0E090052
:10395000FFFFF5CFDEFFE806FAE2040ED5EC37F004
:10396000000ED5EC37F0320EFFFFE82EFDD7000E2B
:103970000001BB6F000EBA6F000EB96F000EBB6F77
:10398000FFFF040EBB6501D03AD0FFFFB905D8A4F4
:1039900002D0000EBB6FFFFF000EBA6FFFFF070ED5
:1039A000BA6501D028D0FFFFB951D8A405D0000EC8
:1039B000B86F000EB76F18D0FFFFBB51080D870E10
:1039C000846F000E856FF3508427F4508523BA511D
:1039D000010DF3508425D96EF4508521DA6EDF5045
:1039E000866F8651B76FB86BFFFFB751E1EC39F0C6
:1039F0000001BA2BD3D7FFFFB92BBB2BC1D7FFFFD9
:103A00001200FFFFFFFF0001846F4CD0FFFF000199
:103A100083517F0F876F87390F0B856F87510F0B8E
:103A2000866F8551D5EC37F000018651D5EC37F023
:103A300048D0FFFF00018351BF0F876F87390F0BFD
:103A4000856F87510F0B866F8551D5EC37F00001DC
:103A50008651D5EC37F035D0FFFF00018351940F2C
:103A6000876F87390F0B856F87510F0B866F8551D5
:103A7000D5EC37F000018651D5EC37F022D0FFFFAE
:103A800000018351D40F876F87390F0B856F8751E2
:103A90000F0B866F8551D5EC37F000018651D5ECC0
:103AA00037F00FD0FFFF00018451010AD8B4AED720
:103AB000030AD8B4BED7010AD8B4CED7070AD8B4FF
:103AC000DED7FFFF1200FFFFFFFF0E0E21EC3BF0E1
:103AD00000018E6F8E518F6F906B905104E13C0E00
:103AE0008F5DD8A006D0905105E1FB0E8F5DD8A068
:103AF00005D0FFFF000E906F3C0E8F6FFFFFECC0F4
:103B00008CF08F5166EC3AF0EBC08CF000018F4BDB
:103B1000902B8F5166EC3AF0EAC08CF000018F4B8D
:103B2000902B8F5166EC3AF0EDC08CF000018F4B7A
:103B3000902B8F5166EC3AF0EEC08CF000018F4B69
:103B4000902B8F5166EC3AF0FDC08CF000018F4B4A
:103B5000902B8F5166EC3AF0FCC08CF000018F4B3B
:103B6000902B8F5166EC3AF0FBC08CF000018F4B2C
:103B7000902B8F5166EC3AF000018F4B902B8FC049
:103B80008CF00E0E66EC3AF01200FFFFFFFF0450BF
:103B9000D8B405D0015002100310D8A40ED0FFFFF6
:103BA000000E016E000E026E000E036E4ED0FFFF7F
:103BB000042AD890033202320132FFFF000E0114B2
:103BC000066E000E0214076EFE0E0314086E0650F9
:103BD00007100810D8B40DD0EAD7FFFF042A010E51
:103BE0000126000E0222000E0322D8900332023278
:103BF0000132FFFF000E0114066E000E0214076E64
:103C0000FF0E0314086E065007100810D8B407D032
:103C1000E4D7FFFF0406D890013602360336FFFFD3
:103C200002BE03D0020E0460F4D7FFFF04A0029E80
:103C3000D8900432045003120550D8A4038E01C05A
:103C400001F002C002F003C003F0FFFF1200FFFF0B
:103C5000FFFF03AE16D001C007F002C008F003C09A
:103C600009F0071E081E091E072A000E0822092255
:103C7000000E0724016E000E0820026E800E09203F
:103C8000036EFFFF06AE16D004C007F005C008F0B3
:103C900006C009F0071E081E091E072A000E08228A
:103CA0000922000E0724046E000E0820056E800E07
:103CB0000920066EFFFF000E011A000E021A800E88
:103CC000031A000E041A000E051A800E061A04507C
:103CD000015C0550025806500358D8B002D0D89065
:103CE00002D0FFFFD880FFFF1200FFFFFFFF000E92
:103CF0000001856F83AF06D0826D831FD8B0832B00
:103D0000010E856FFFFF81AF06D0806D811FD8B097
:103D1000812B010E851BFFFF000E876F000E866F43
:103D200082518311D8B420D0010E846F05D0FFFFDB
:103D3000D89082378337842BFFFF83AFF8D7FFFFFC
:103D4000D890863787378251805D83518159D8A0BA
:103D500005D08251805F8351815B8681FFFFD890BF
:103D600083338233842FEBD7FFFF8551D8B404D03F
:103D7000866D871FD8B0872BFFFF86C080F087C075
:103D800081F01200FFFFFFFF3AD0FFFF86C0D9FF8E
:103D900087C0DAFFDF50D8B411D086C0D9FF87C002
:103DA000DAFFDF5000018C6F88C0F6FF89C0F7FF93
:103DB0000800FFFFF5508C19D8B41CD0FFFF88C055
:103DC000F6FF89C0F7FF0800FFFFF55000018C6F78
:103DD0008D6B8C1F8D1F8C4B8D2B86C0D9FF87C0A0
:103DE000DAFFDF508E6F8E518C25866F000E8D218D
:103DF000876F13D0FFFF864B872B884B892BFFFFE4
:103E000000018A07D8A08B078A29C0E18B29D8A492
:103E1000BCD7000E876F000E866FFFFF1200FFFFFA
:103E2000FFFF35D0FFFF8FC086F090C087F091C0B4
:103E300088F092C089F091C080F092C081F077EC58
:103E40003BF080C08AF081C08BF0C3EC1EF0000113
:103E500086518711D8A405D08FC08FF090C090F004
:103E600028D0FFFF010E8F25806F000E9021816FFB
:103E700091C0F6FF92C0F7FF0800FFFFF550826F78
:103E8000836BC1EC39F080C08FF081C090F0FFFFF0
:103E900000018F519011D8B407D08FC0D9FF90C0C6
:103EA000DAFFDF50D8A4BED7FFFF000E8F6F000EE1
:103EB000906FFFFF1200FFFFFFFF0001BF6F630E57
:103EC0000001BF6104D0BFC0C0F0C16B05D0FFFFCF
:103ED000000EC16F630EC06FFFFF7AC0BBF07BC0E6
:103EE000BCF07CC0BDF07DC0BEF0C0C080F0C1C0E1
:103EF00081F0000E836F0A0E826F76EC1EF00001D7
:103F00008051300FBB6F2E0EBC6FC0C080F0C1C09F
:103F100081F0000E836F0A0E826FF6EC3CF0000118
:103F20008051300FBD6F000EBE6FB70EA16F000E37
:103F3000A26FBB0EA36F000EA46F89EC3AF0B70E10
:103F40000001B56F000EB66F1200FFFFFFFF000EFD
:103F50000001886F000E896F000E8A6F000E8B6F54
:103F60008451851186118711D8B42ED0010E8C6F23
:103F700007D0FFFFD89084378537863787378C2B5B
:103F8000FFFF87AFF6D7FFFFD890883789378A378A
:103F90008B378451805D8551815986518259875173
:103FA0008359D8A009D08451805F8551815B8651A7
:103FB000825B8751835B8881FFFFD890873386338C
:103FC000853384338C2FDFD7FFFF88C080F089C012
:103FD00081F08AC082F08BC083F01200FFFFFFFFE8
:103FE000086E06C004F0085048EC39F00750066E21
:103FF000076A06C004F0082848EC39F01200FFFFF9
:106E0300202020200162003C0101010520FFFF5FDB
:106E1300EC37F0C5801200FFFFFFFF5FEC37F0C5D2
:106E2300841200FFFFFFFF5FEC37F0C5821200FF03
:106E3300FFFFFF6BEC37F0C5801200FFFFFFFF6B16
:106E4300EC37F0C5841200FFFFFFFF6BEC37F0C592
:106E5300821200FFFFFFFF5FEC37F002C0C9FF1291
:106E630000FFFFFFFF6BEC37F08AC0C9FF1200FF82
:106E7300FFFFFFACA2FDD780C0ADFF1200FFFFFFF5
:106E8300FF000ED5EC37F0010ED5EC37F01200FF02
:106E9300FFFFFF0001806FFFFFACA2FDD780C0ADF5
:106EA300FF1200FFFFFFFF016E01380F0B0F0B0AEC
:106EB3000D01500F0BF3241200FFFFFFFFC7B4FDBA
:106EC300D7C5CF01F01F0E0116D8B41200FFFFF58E
:106ED300D7FFFFFFFFC7B4FDD7C5CF80F01F0E005C
:106EE300018017D8B41200FFFFF4D7FFFFFFFF00A4
:106EF30001806F000180390F0B0F0B0A0D80510FBA
:106F03000BF3241200FFFFFFFF09C001F00AC002C8
:106F1300F0036A8E0E046E000E056EC6EC1DF001C2
:106F2300C009F002C00AF003C00BF01200FFFFFF1C
:106F3300FFC284190EFFFFE82EFDD7FFFFC2A4FD99
:106F4300D7C450046E036AC3500324016E000E04B9
:106F530020026E1200FFFFFFFF0001826F000E0090
:106F630001816F3A0E826105D02F0E826502D00136
:106F73000E816FFFFF81C080F080311200FFFFFFA1
:106F8300FF000E0001F36F000E726E010EFB6F0126
:106F93000EFD6F010EFC6F000E6B6E000E6C6E9E8D
:106FA300EC38F01200FFFFFFFF0001826F839200B5
:106FB30001825144EC3AF083801E0E0001816F3C44
:106FC3000EFFFFE82EFDD7812FFBD700F083901231
:106FD30000FFFFFFFF000180518203F3CF84F0F431
:106FE300CF85F080518303F350852781518203F3CA
:106FF30050852784C080F085C081F01200FFFFFF19
:10700300FF0BD0FFFF020E036EF20EFFFFE82EFD13
:10701300D7032EFBD700D00400FFFF0106D8A00240
:10702300060128F0E10228D8B41200FFFFEAD7FFD7
:10703300FFFFFF08EC37F0000E036ED00E026E2C3C
:10704300EC37F0000E036E070E026E2CEC37F000E7
:107053000E036E000E026E2CEC37F00EEC37F012BE
:1070630000FFFFFFFF3C0E0001A16F010EA26FA8FE
:107073000EA36F7C0EA46F89EC3AF00001D951DAAC
:1070830011D8A406D0000EF26F030E726E000EDF4D
:107093006FFFFF1200FFFFFFFF5FEC37F0C5865F56
:1070A300EC37F0C9CF04F0056A5FEC37F002500308
:1070B30010D8A402D0C58A02D0FFFFC59AFFFFC52E
:1070C3008804C002F005C003F01200FFFFFFFF0CAD
:1070D300D0FFFF020E0001826FF20EFFFFE82EFDCC
:1070E300D7822FFBD700F00400FFFF00018007D8F1
:1070F300A081078029EEE18129D8B41200FFFFE8BF
:10710300D7FFFFFFFF000E666E000E0001806F01C8
:107113000E816F000E836F000E826F000E856F3C31
:107123000E846FF1EC38F0000E0001816F960E8033
:107133006F68EC38F01200FFFFFFFF000E000180C4
:107143006F000E806FFFFF070E806501D00DD0FF2B
:10715300FF8051010D440EF324D96E000EF420DAA2
:107163006E000EDF6E802BEED7FFFF1200FFFFFFD6
:10717300FF1AEC37F0000E00018B6FD00E8A6F33CD
:10718300EC37F0000E00018B6F070E8A6F33EC377C
:10719300F0000E00018B6F000E8A6F33EC37F02086
:1071A300EC37F01200FFFFFFFF0001936F00019324
:1071B3002921EC3BF00001906F9051916F926B91FC
:1071C30051926F916B935121EC3BF00001906F90C2
:1071D30051911391C08EF092C08FF01200FFFFFF08
:1071E300FF80C086F081C087F00AD0FFFF86C0D938
:1071F300FF87C0DAFF82C0DFFF0001864B872BFFCA
:10720300FF00018407D8A085078429F0E18529D8E8
:10721300B41200FFFFEAD7FFFFFFFF6BEC37F0C5A7
:10722300866BEC37F0C9CF83F00001846B6BEC37CE
:10723300F0000181518211D8A402D0C58A02D0FF87
:10724300FFC59AFFFFC58883C081F084C082F01216
:1072530000FFFFFFFF000E0001866F000E866FFF29
:10726300FF130E866501D00FD0FFFF8651010DF38A
:10727300508425D96EF4508521DA6EDF50E1EC3964
:10728300F00001862BECD7FFFF1200FFFFFFFF0585
:107293006E08EC37F0000E036EA00E026E2CEC3776
:1072A300F005C002F0036A2CEC37F004C002F003CF
:1072B3006A2CEC37F00EEC37F0000E026E0F0E0165
:1072C3006E01EC38F01200FFFFFFFF000E00018F8C
:1072D3006F010E906F93C091F094C092F010EC1F69
:1072E300F000018F519011D8B408D0000E816F9631
:1072F3000E806F68EC38F0010E02D0FFFF000EFF26
:10730300FF1200FFFFFFFF000E0001B76F000EB872
:107313006F940EB96F6E0EBA6FA30EB56F000EB6F3
:107323006FB70E8C6F000E8D6FA1C08EF0A2C08F51
:10733300F0B50E906F000E916F92EC00F01200FF0B
:10734300FFFFFF0001DB51D8B417D0000E846F821A
:107353000782C084F00CD0FFFF8451010DF35080ED
:1073630025D96EF4508121DA6E200EDF6E842BFF57
:10737300FF8351845DD8A0EFD7FFFF1200FFFFFF0B
:10738300FF80C0D9FF81C0DAFF00018251DE18D827
:10739300A405D080C080F081C081F00ED0FFFF80B3
:1073A300C0D9FF81C0DAFF804B812BDF50D8A4E71F
:1073B300D7000E806F000E816FFFFF1200FFFFFFEB
:1073C300FF0001836F000183510F0B816F8351F025
:1073D3000B826F838282390F0B44EC3AF083804B2C
:1073E3000EFFFFE82EFDD783900001815144EC3A54
:1073F300F083804B0EFFFFE82EFDD783901200FF32
:10740300FFFFFF0001886F88C080F00001816B00DF
:107413000E836F0A0E826F76EC1EF000018039F046
:107423000B896F88C080F0816B000E836F0A0E8218
:107433006FF6EC3CF0000180518911896F8951127C
:1074430000FFFFFFFF0001E951E85DD8A018D0F06D
:1074530005D8A415D0F251D8A412D0E751ED19D80C
:10746300A40ED0000EE86FE8C08CF00A0E66EC3A6A
:10747300F0000E716E010E0001F26F1C0EDF6FFF44
:10748300FF1200FFFFFFFF0001806F000180A102D8
:10749300D0838402D0FFFF8394FFFF80A302D083B5
:1074A3008602D0FFFF8396FFFF80A502D083880268
:1074B300D0FFFF8398FFFF80A702D0838A02D0FF0B
:1074C300FF839AFFFF1200FFFFFFFF00018D6F1A7A
:1074D300EC37F0000E00018B6FA00E8A6F33EC3790
:1074E300F08DC08AF000018B6B33EC37F08CC08ACF
:1074F300F000018B6B33EC37F020EC37F0000E001B
:1075030001816F0F0E806F68EC38F01200FFFFFFF0
:10751300FFA1C0B1F0A2C0B2F0000E0001B36F0032
:107523000EB46FA50EAF6F000EB06FB10E8C6F006F
:107533000E8D6FA3C08EF0A4C08FF0AF0E906F00BE
:107543000E916F92EC00F0B1C0D9FFB2C0DAFF0028
:107553000EDF6E1200FFFFFFFF000E0001816F843C
:1075630092000E816F15D0FFFF84908151010D446D
:107573000EF324D96E000EF420DA6EDF50806F8094
:1075830047804784508019FB0B8019846E84808167
:107593002BFFFF070E8165E7D784821200FFFFFFF1
:1075A300FF1F0E776402D0000E776EFFFF170E7673
:1075B3006402D0000E766EFFFF3B0E756402D000AE
:1075C3000E756EFFFF0C0E786402D0000E786EFF0E
:1075D300FF3B0E746402D0000E746EFFFF630E79DE
:1075E3006402D0000E796EFFFF1200FFFFFFFF0061
:1075F3000189518A11D8B41CD0010E8B6F05D0FFBD
:10760300FFD89089378A378B2BFFFF8AAFF8D7FFD4
:10761300FF8951875D8A518859D8A004D089518741
:107623005F8A51885BFFFFD8908A3389338B2FEFB2
:10763300D7FFFF87C087F088C088F01200FFFFFFE5
:10764300FF00018C6F1AEC37F0000E00018B6FA066
:107653000E8A6F33EC37F08CC08AF000018B6B33EA
:10766300EC37F026EC37F0000E00018B6FA10E8A89
:107673006F33EC37F0000E0001826F000E816F0E46
:10768300EC39F0000181518D6F20EC37F000018D52
:10769300511200FFFFFFFF810EC26ECE0EC16E922C
:1076A300808090810ED56EE40EF26E959A95989532
:1076B30096959495929590949C948EAC8AAC84AC58
:1076C30098AB8EAB88190EAF6EF28EF28C9E9A9D9C
:1076D3008AF2969284928A94809384938693889371
:1076E3008A9690969296941200FFFFFFFF80C084C3
:1076F300F081C085F004D0FFFF0001844B852BFF90
:10770300FF84C0F6FF85C0F7FFF86A050EF764042F
:10771300D00800FFFFF55005D0F6CFE9FFF7CFEA19
:10772300FFEF500009D8A4E7D780C082F081C0835F
:10773300F00001821F831F824B832B84518225809B
:107743006F85518321816F1200FFFFFFFF000E0041
:1077530001856F000E846F82518311D8B420D0014C
:107763000E866F05D0FFFFD89082378337862BFFB5
:10777300FF83AFF8D7FFFFD89084378537825180D6
:107783005D83518159D8A005D08251805F83518197
:107793005B8481FFFFD89083338233862FEBD7FF3F
:1077A300FF84C080F085C081F01200FFFFFFFF2837
:1077B3000EC66E000EC56E000E0001806F120E81A4
:1077C3006F7A0E826F000E836F8DC091F08EC09220
:1077D300F08FC093F090C094F0020EFFFFD8909109
:1077E30037923793379437E82EF8D791C084F092C5
:1077F300C085F093C086F094C087F0A6EC1FF0001C
:10780300018005C86E000EC76E948694881200FF2F
:10781300FF080EF66E6E0EF76E000EF86E00EEF8B1
:10782300F010EE08F00900F5CFEEFFE550E150FA55
:10783300E1030EF66E6E0EF76E000EF86E00EE7A32
:10784300F010EE05F00900F5CFEEFFE550E150FA38
:10785300E101EE00F0BC0EEE6AE806FDE100EED9B0
:10786300F01F0EEE6AE806FDE100EE44F0360EEE80
:107873006AE806FDE17F907F92000EF86E0001E852
:10788300EF06F0FFFF0001806F23D0FFFF6450D8A5
:10789300B41CD0000E646E14D0FFFF6050D8B41532
:1078A300D0000E606E0DD0FFFF6250D8B40ED00032
:1078B3000E626E06D0FFFF5E50D8B407D0000E5E96
:1078C3006EFFFF010E7E6E010E13D0FFFF000E1040
:1078D300D0FFFF00018051010AD8B4D7D7030AD8DB
:1078E300B4E2D7010AD8B4D8D7070AD8B4E3D7ED9E
:1078F300D7FFFF1200FFFFFFFF7B0E0001A16F0107
:107903000EA26F9A0EA36F7F0EA46F89EC3AF066F6
:107913000E0001A16F010EA26FE40EA36F7C0EA4F3
:107923006F89EC3AF0510E0001A16F010EA26FD6E0
:107933000EA36F7D0EA46F89EC3AF03C0E0001A1FB
:107943006F010EA26F080EA36F7F0EA46FE40EA546
:107953006F7E0EA66F89EC3AF0010E43EC3CF0000B
:1079630009D8A4DEC0DFF01200FFFFFFFF81B402DD
:10797300D0010E656EFFFF81A407D06550D8B40413
:10798300D0010E646E000E656EFFFF81B802D00158
:107993000E636EFFFF81A807D06350D8B404D001F3
:1079A3000E626E000E636EFFFF81BA02D0010E619C
:1079B3006EFFFF81AA07D06150D8B404D0010E60D6
:1079C3006E000E616EFFFF81B602D0010E5F6EFF87
:1079D300FF81A607D05F50D8B404D0010E5E6E00BD
:1079E3000E5F6EFFFF1200FFFFFFFF000E00018519
:1079F3006F81AF06D0806D811FD8B0812B010E85BA
:107A03006FFFFF83AF04D0826D831FD8B0832BFF3A
:107A1300FF82518311D8B41CD0010E846F05D0FFAF
:107A2300FFD89082378337842BFFFF83AFF8D7FFCC
:107A3300FF8251805D83518159D8A004D082518047
:107A43005F8351815BFFFFD89083338233842FEFB1
:107A5300D7FFFF8551D8B404D0806D811FD8B08182
:107A63002BFFFF80C080F081C081F01200FFFFFF79
:107A7300FF000E44EC3AF03B0E0001836F790EFFDA
:107A8300FFE82EFDD7832FFBD700D000F0030ED5E0
:107A9300EC37F01E0E0001836F3C0EFFFFE82EFD56
:107AA300D7832FFBD700F0030ED5EC37F0270E005A
:107AB30001836FFB0EFFFFE82EFDD7832FFBD7005B
:107AC300D000F0030ED5EC37F0020ED5EC37F00200
:107AD3000ED5EC37F0080ED5EC37F0000ED5EC37A9
:107AE300F00C0ED5EC37F0000ED5EC37F0060ED5C2
:107AF300EC37F01200FFFF00001F0E04040404041F
:107B030000000000001010100000000404141414FE
:107B130000010105051515150A0A1F11110E0404AC
:107B2300000000000000000001000A006400E803F8
:107B33001027544543484E4F572053697374656D5E
:107B4300617320656D6261726361646F730D0A0D09
:107B53000A5465737465206D616E75616C2064658C
:107B630020636F6D756E69636163616F2E0D0A44E7
:107B73006174613A20253032642F253032642F2519
:107B830030326420253032643A253032643A25306D
:107B930032640D0A0D0A0D0A56657273616F206413
:107BA3006F2073697374656D613A2025730D0A0044
:107BB300544553544520444520424F4D42415320A0
:107BC3005245414C495A41444F0D0A454D202530F9
:107BD30032643A253032643A25303264202530321B
:107BE300642F253032642F253032640D0A4A4F4307
:107BF3004B45593A2025730D0A5052494E4349507B
:107C0300414C3A2025730D0A434F4D42555354417D
:107C13004F3A2025730D0A004449535041524F20D7
:107C2300414C41524D4520444520494E43454E4425
:107C3300494F0D0A454D20253032643A25303264D0
:107C43003A2530326420253032642F253032642FB8
:107C5300253032640D0A00446174613A20253032C4
:107C6300642F253032642F2530326420253032646E
:107C73003A253032640020253032643A25303264AC
:107C83003A2530326420253032642F2530326400A7
:107C93002350726F78696D6F20656D2025326420E3
:107CA3006469617300446573707265737375726997
:107CB3007A616E646F2E2E2E00494E544552564102
:107CC3004C4F3A20253264206469617300484F5257
:107CD3004152494F3A202530326420686F726173F4
:107CE3000053697374656D617320656D62617263BE
:107CF30061646F7300426F6D6261205072696E63DD
:107D03006970616C2E2E2E00426F6D626120436F8D
:107D13006D62757374616F2E2E2E0023686F726906
:107D23006D6574726F3A253564206D696E002A663D
:107D3300616C68612076616C2E206C616472616F86
:107D430000436F6E66696775726163616F20746566
:107D53006D706F004572726F206E6F205472616E8A
:107D6300736475746F720050726573732045534367
:107D730020702F2052657365740041542B434D4787
:107D8300533D222B35352573220D0A0050415254A1
:107D930049444120434F4D42555354414F005045B0
:107DA30052494F444F2044452054455354455300B2
:107DB3002A66616C746120646520656E657267690B
:107DC3006100546573746520436F6E636C756964F9
:107DD3006F210020202034382039393930362D35B1
:107DE30036353100456E7669617220736D73207488
:107DF3006573746500656E7669616E646F20534DBB
:107E0300532E2E2E00426F6D6261204C69676164B0
:107E1300612E2E2E00426F6D6261204A6F636B6587
:107E2300792E2E2E005052455353414F204441206A
:107E330052454445005072657373616F202573206A
:107E430042415200253032642F253032642F2530D1
:107E5300326400253032643A253032643A253032B8
:107E630064005052494E434950414C203A202573F7
:107E730000434F4D42555354414F203A2025730040
:107E8300416775617264652E2E2E20256473004947
:107E93006E696369617220546573746573004D6123
:107EA300782E20504152544944413A005072696E31
:107EB300636970616C3A20257300436F6D6275735B
:107EC30074616F3A20257300206167756172646580
:107ED3002E2E2E200041542B434D47463D310D0A93
:107EE300004175672032342032303139004D6178DA
:107EF3002E2054455354453A00494E464F2056458B
:107F03005253414F0076657273616F202D202573A4
:107F130000415444203025733B0D0A00746574619D
:107F23007061202564200023253032642F253032F0
:107F33006400474552414C203A202573004A4F4B79
:107F43004559203A202573004154495641523A205D
:107F5300257300444154412F484F5241004441543A
:107F6300414C4F4745520054454C45464F4E4553AF
:107F7300007473696E616C202564004A6F6B6579C8
:107F83003A2025730041542B4353510D0A00657465
:107F930061706120256400544543484E4F570028C3
:107FA3006E756C6C2900415448300D0A002B435305
:107FB300513A200054313A2025730054323A202597
:107FC3007300484F52413A00444154413A004641FC
:107FD3004C4841004552524F520041540D0A00454E
:107FE30052524F0025732563002533647300536990
:0C7FF3006D004E616F004F4B003E00001F
:020000040020DA
:08000000FFFFFFFFFFFFFFFF00
:020000040030CA
:0E000000FF220F0FFF0181FF004000E00F0004
:00000001FF
